{
  "_format": "hh-sol-artifact-1",
  "contractName": "DistributionToDelegators",
  "sourceName": "contracts/tokenPools/implementation/DistributionToDelegators.sol",
  "abi": [
    {
      "inputs": [
        {
          "internalType": "address",
          "name": "_governance",
          "type": "address"
        },
        {
          "internalType": "contract FlareDaemon",
          "name": "_flareDaemon",
          "type": "address"
        },
        {
          "internalType": "address",
          "name": "_addressUpdater",
          "type": "address"
        },
        {
          "internalType": "contract DistributionTreasury",
          "name": "_treasury",
          "type": "address"
        },
        {
          "internalType": "uint256",
          "name": "_totalEntitlementWei",
          "type": "uint256"
        },
        {
          "internalType": "uint256",
          "name": "_latestEntitlementStartTs",
          "type": "uint256"
        }
      ],
      "stateMutability": "nonpayable",
      "type": "constructor"
    },
    {
      "anonymous": false,
      "inputs": [
        {
          "indexed": true,
          "internalType": "address",
          "name": "whoClaimed",
          "type": "address"
        },
        {
          "indexed": true,
          "internalType": "address",
          "name": "sentTo",
          "type": "address"
        },
        {
          "indexed": false,
          "internalType": "uint256",
          "name": "month",
          "type": "uint256"
        },
        {
          "indexed": false,
          "internalType": "uint256",
          "name": "amountWei",
          "type": "uint256"
        }
      ],
      "name": "AccountClaimed",
      "type": "event"
    },
    {
      "anonymous": false,
      "inputs": [
        {
          "indexed": true,
          "internalType": "address",
          "name": "theAccount",
          "type": "address"
        },
        {
          "indexed": false,
          "internalType": "bool",
          "name": "confirmed",
          "type": "bool"
        }
      ],
      "name": "AccountOptOut",
      "type": "event"
    },
    {
      "anonymous": false,
      "inputs": [
        {
          "indexed": false,
          "internalType": "uint256",
          "name": "entitlementStartTs",
          "type": "uint256"
        }
      ],
      "name": "EntitlementStart",
      "type": "event"
    },
    {
      "anonymous": false,
      "inputs": [
        {
          "indexed": false,
          "internalType": "bytes4",
          "name": "selector",
          "type": "bytes4"
        },
        {
          "indexed": false,
          "internalType": "uint256",
          "name": "allowedAfterTimestamp",
          "type": "uint256"
        },
        {
          "indexed": false,
          "internalType": "bytes",
          "name": "encodedCall",
          "type": "bytes"
        }
      ],
      "name": "GovernanceCallTimelocked",
      "type": "event"
    },
    {
      "anonymous": false,
      "inputs": [
        {
          "indexed": false,
          "internalType": "address",
          "name": "initialGovernance",
          "type": "address"
        }
      ],
      "name": "GovernanceInitialised",
      "type": "event"
    },
    {
      "anonymous": false,
      "inputs": [
        {
          "indexed": false,
          "internalType": "address",
          "name": "governanceSettings",
          "type": "address"
        }
      ],
      "name": "GovernedProductionModeEntered",
      "type": "event"
    },
    {
      "anonymous": false,
      "inputs": [
        {
          "indexed": false,
          "internalType": "bytes4",
          "name": "selector",
          "type": "bytes4"
        },
        {
          "indexed": false,
          "internalType": "uint256",
          "name": "timestamp",
          "type": "uint256"
        }
      ],
      "name": "TimelockedGovernanceCallCanceled",
      "type": "event"
    },
    {
      "anonymous": false,
      "inputs": [
        {
          "indexed": false,
          "internalType": "bytes4",
          "name": "selector",
          "type": "bytes4"
        },
        {
          "indexed": false,
          "internalType": "uint256",
          "name": "timestamp",
          "type": "uint256"
        }
      ],
      "name": "TimelockedGovernanceCallExecuted",
      "type": "event"
    },
    {
      "anonymous": false,
      "inputs": [
        {
          "indexed": false,
          "internalType": "bool",
          "name": "useGoodRandom",
          "type": "bool"
        },
        {
          "indexed": false,
          "internalType": "uint256",
          "name": "maxWaitForGoodRandomSeconds",
          "type": "uint256"
        }
      ],
      "name": "UseGoodRandomSet",
      "type": "event"
    },
    {
      "inputs": [
        {
          "internalType": "address[]",
          "name": "_rewardOwners",
          "type": "address[]"
        },
        {
          "internalType": "uint256",
          "name": "_month",
          "type": "uint256"
        }
      ],
      "name": "autoClaim",
      "outputs": [],
      "stateMutability": "nonpayable",
      "type": "function"
    },
    {
      "inputs": [
        {
          "internalType": "bytes4",
          "name": "_selector",
          "type": "bytes4"
        }
      ],
      "name": "cancelGovernanceCall",
      "outputs": [],
      "stateMutability": "nonpayable",
      "type": "function"
    },
    {
      "inputs": [
        {
          "internalType": "address",
          "name": "_rewardOwner",
          "type": "address"
        },
        {
          "internalType": "address",
          "name": "_recipient",
          "type": "address"
        },
        {
          "internalType": "uint256",
          "name": "_month",
          "type": "uint256"
        },
        {
          "internalType": "bool",
          "name": "_wrap",
          "type": "bool"
        }
      ],
      "name": "claim",
      "outputs": [
        {
          "internalType": "uint256",
          "name": "_rewardAmount",
          "type": "uint256"
        }
      ],
      "stateMutability": "nonpayable",
      "type": "function"
    },
    {
      "inputs": [],
      "name": "claimSetupManager",
      "outputs": [
        {
          "internalType": "contract ClaimSetupManager",
          "name": "",
          "type": "address"
        }
      ],
      "stateMutability": "view",
      "type": "function"
    },
    {
      "inputs": [],
      "name": "combinedNat",
      "outputs": [
        {
          "internalType": "contract IICombinedNatBalance",
          "name": "",
          "type": "address"
        }
      ],
      "stateMutability": "view",
      "type": "function"
    },
    {
      "inputs": [
        {
          "internalType": "address[]",
          "name": "_optOutAddresses",
          "type": "address[]"
        }
      ],
      "name": "confirmOptOutOfAirdrop",
      "outputs": [],
      "stateMutability": "nonpayable",
      "type": "function"
    },
    {
      "inputs": [],
      "name": "daemonize",
      "outputs": [
        {
          "internalType": "bool",
          "name": "",
          "type": "bool"
        }
      ],
      "stateMutability": "nonpayable",
      "type": "function"
    },
    {
      "inputs": [
        {
          "internalType": "uint256",
          "name": "",
          "type": "uint256"
        }
      ],
      "name": "endBlockNumber",
      "outputs": [
        {
          "internalType": "uint256",
          "name": "",
          "type": "uint256"
        }
      ],
      "stateMutability": "view",
      "type": "function"
    },
    {
      "inputs": [],
      "name": "entitlementStartTs",
      "outputs": [
        {
          "internalType": "uint256",
          "name": "",
          "type": "uint256"
        }
      ],
      "stateMutability": "view",
      "type": "function"
    },
    {
      "inputs": [
        {
          "internalType": "bytes4",
          "name": "_selector",
          "type": "bytes4"
        }
      ],
      "name": "executeGovernanceCall",
      "outputs": [],
      "stateMutability": "nonpayable",
      "type": "function"
    },
    {
      "inputs": [],
      "name": "flareDaemon",
      "outputs": [
        {
          "internalType": "contract FlareDaemon",
          "name": "",
          "type": "address"
        }
      ],
      "stateMutability": "view",
      "type": "function"
    },
    {
      "inputs": [],
      "name": "getAddressUpdater",
      "outputs": [
        {
          "internalType": "address",
          "name": "_addressUpdater",
          "type": "address"
        }
      ],
      "stateMutability": "view",
      "type": "function"
    },
    {
      "inputs": [
        {
          "internalType": "uint256",
          "name": "_month",
          "type": "uint256"
        }
      ],
      "name": "getClaimableAmount",
      "outputs": [
        {
          "internalType": "uint256",
          "name": "_amountWei",
          "type": "uint256"
        }
      ],
      "stateMutability": "view",
      "type": "function"
    },
    {
      "inputs": [
        {
          "internalType": "address",
          "name": "_account",
          "type": "address"
        },
        {
          "internalType": "uint256",
          "name": "_month",
          "type": "uint256"
        }
      ],
      "name": "getClaimableAmountOf",
      "outputs": [
        {
          "internalType": "uint256",
          "name": "_amountWei",
          "type": "uint256"
        }
      ],
      "stateMutability": "view",
      "type": "function"
    },
    {
      "inputs": [],
      "name": "getClaimableMonths",
      "outputs": [
        {
          "internalType": "uint256",
          "name": "_startMonth",
          "type": "uint256"
        },
        {
          "internalType": "uint256",
          "name": "_endMonth",
          "type": "uint256"
        }
      ],
      "stateMutability": "view",
      "type": "function"
    },
    {
      "inputs": [],
      "name": "getContractName",
      "outputs": [
        {
          "internalType": "string",
          "name": "",
          "type": "string"
        }
      ],
      "stateMutability": "pure",
      "type": "function"
    },
    {
      "inputs": [],
      "name": "getCurrentMonth",
      "outputs": [
        {
          "internalType": "uint256",
          "name": "_currentMonth",
          "type": "uint256"
        }
      ],
      "stateMutability": "view",
      "type": "function"
    },
    {
      "inputs": [],
      "name": "getMonthToExpireNext",
      "outputs": [
        {
          "internalType": "uint256",
          "name": "_monthToExpireNext",
          "type": "uint256"
        }
      ],
      "stateMutability": "view",
      "type": "function"
    },
    {
      "inputs": [],
      "name": "getTokenPoolSupplyData",
      "outputs": [
        {
          "internalType": "uint256",
          "name": "_lockedFundsWei",
          "type": "uint256"
        },
        {
          "internalType": "uint256",
          "name": "_totalInflationAuthorizedWei",
          "type": "uint256"
        },
        {
          "internalType": "uint256",
          "name": "_totalClaimedWei",
          "type": "uint256"
        }
      ],
      "stateMutability": "view",
      "type": "function"
    },
    {
      "inputs": [],
      "name": "governance",
      "outputs": [
        {
          "internalType": "address",
          "name": "",
          "type": "address"
        }
      ],
      "stateMutability": "view",
      "type": "function"
    },
    {
      "inputs": [],
      "name": "governanceSettings",
      "outputs": [
        {
          "internalType": "contract IGovernanceSettings",
          "name": "",
          "type": "address"
        }
      ],
      "stateMutability": "view",
      "type": "function"
    },
    {
      "inputs": [
        {
          "internalType": "address",
          "name": "_initialGovernance",
          "type": "address"
        }
      ],
      "name": "initialise",
      "outputs": [],
      "stateMutability": "nonpayable",
      "type": "function"
    },
    {
      "inputs": [],
      "name": "latestEntitlementStartTs",
      "outputs": [
        {
          "internalType": "uint256",
          "name": "",
          "type": "uint256"
        }
      ],
      "stateMutability": "view",
      "type": "function"
    },
    {
      "inputs": [],
      "name": "maxWaitForGoodRandomSeconds",
      "outputs": [
        {
          "internalType": "uint256",
          "name": "",
          "type": "uint256"
        }
      ],
      "stateMutability": "view",
      "type": "function"
    },
    {
      "inputs": [
        {
          "internalType": "address",
          "name": "_rewardOwner",
          "type": "address"
        }
      ],
      "name": "nextClaimableMonth",
      "outputs": [
        {
          "internalType": "uint256",
          "name": "",
          "type": "uint256"
        }
      ],
      "stateMutability": "view",
      "type": "function"
    },
    {
      "inputs": [
        {
          "internalType": "address",
          "name": "",
          "type": "address"
        }
      ],
      "name": "optOut",
      "outputs": [
        {
          "internalType": "bool",
          "name": "",
          "type": "bool"
        }
      ],
      "stateMutability": "view",
      "type": "function"
    },
    {
      "inputs": [
        {
          "internalType": "uint256",
          "name": "",
          "type": "uint256"
        }
      ],
      "name": "optOutAddresses",
      "outputs": [
        {
          "internalType": "address",
          "name": "",
          "type": "address"
        }
      ],
      "stateMutability": "view",
      "type": "function"
    },
    {
      "inputs": [
        {
          "internalType": "address",
          "name": "",
          "type": "address"
        }
      ],
      "name": "optOutCandidate",
      "outputs": [
        {
          "internalType": "bool",
          "name": "",
          "type": "bool"
        }
      ],
      "stateMutability": "view",
      "type": "function"
    },
    {
      "inputs": [],
      "name": "optOutOfAirdrop",
      "outputs": [],
      "stateMutability": "nonpayable",
      "type": "function"
    },
    {
      "inputs": [],
      "name": "priceSubmitter",
      "outputs": [
        {
          "internalType": "contract IIRandomProvider",
          "name": "",
          "type": "address"
        }
      ],
      "stateMutability": "view",
      "type": "function"
    },
    {
      "inputs": [],
      "name": "productionMode",
      "outputs": [
        {
          "internalType": "bool",
          "name": "",
          "type": "bool"
        }
      ],
      "stateMutability": "view",
      "type": "function"
    },
    {
      "inputs": [],
      "name": "sendFundsBackToTreasury",
      "outputs": [],
      "stateMutability": "nonpayable",
      "type": "function"
    },
    {
      "inputs": [
        {
          "internalType": "uint256",
          "name": "_entitlementStartTs",
          "type": "uint256"
        }
      ],
      "name": "setEntitlementStart",
      "outputs": [],
      "stateMutability": "nonpayable",
      "type": "function"
    },
    {
      "inputs": [
        {
          "internalType": "bool",
          "name": "_useGoodRandom",
          "type": "bool"
        },
        {
          "internalType": "uint256",
          "name": "_maxWaitForGoodRandomSeconds",
          "type": "uint256"
        }
      ],
      "name": "setUseGoodRandom",
      "outputs": [],
      "stateMutability": "nonpayable",
      "type": "function"
    },
    {
      "inputs": [
        {
          "internalType": "uint256",
          "name": "",
          "type": "uint256"
        }
      ],
      "name": "startBlockNumber",
      "outputs": [
        {
          "internalType": "uint256",
          "name": "",
          "type": "uint256"
        }
      ],
      "stateMutability": "view",
      "type": "function"
    },
    {
      "inputs": [],
      "name": "stop",
      "outputs": [],
      "stateMutability": "nonpayable",
      "type": "function"
    },
    {
      "inputs": [],
      "name": "stopped",
      "outputs": [
        {
          "internalType": "bool",
          "name": "",
          "type": "bool"
        }
      ],
      "stateMutability": "view",
      "type": "function"
    },
    {
      "inputs": [],
      "name": "switchToFallbackMode",
      "outputs": [
        {
          "internalType": "bool",
          "name": "",
          "type": "bool"
        }
      ],
      "stateMutability": "view",
      "type": "function"
    },
    {
      "inputs": [],
      "name": "switchToProductionMode",
      "outputs": [],
      "stateMutability": "nonpayable",
      "type": "function"
    },
    {
      "inputs": [
        {
          "internalType": "bytes4",
          "name": "",
          "type": "bytes4"
        }
      ],
      "name": "timelockedCalls",
      "outputs": [
        {
          "internalType": "uint256",
          "name": "allowedAfterTimestamp",
          "type": "uint256"
        },
        {
          "internalType": "bytes",
          "name": "encodedCall",
          "type": "bytes"
        }
      ],
      "stateMutability": "view",
      "type": "function"
    },
    {
      "inputs": [
        {
          "internalType": "uint256",
          "name": "",
          "type": "uint256"
        }
      ],
      "name": "totalAvailableAmount",
      "outputs": [
        {
          "internalType": "uint256",
          "name": "",
          "type": "uint256"
        }
      ],
      "stateMutability": "view",
      "type": "function"
    },
    {
      "inputs": [],
      "name": "totalBurnedWei",
      "outputs": [
        {
          "internalType": "uint256",
          "name": "",
          "type": "uint256"
        }
      ],
      "stateMutability": "view",
      "type": "function"
    },
    {
      "inputs": [],
      "name": "totalClaimedWei",
      "outputs": [
        {
          "internalType": "uint256",
          "name": "",
          "type": "uint256"
        }
      ],
      "stateMutability": "view",
      "type": "function"
    },
    {
      "inputs": [],
      "name": "totalDistributableAmount",
      "outputs": [
        {
          "internalType": "uint256",
          "name": "",
          "type": "uint256"
        }
      ],
      "stateMutability": "view",
      "type": "function"
    },
    {
      "inputs": [],
      "name": "totalEntitlementWei",
      "outputs": [
        {
          "internalType": "uint256",
          "name": "",
          "type": "uint256"
        }
      ],
      "stateMutability": "view",
      "type": "function"
    },
    {
      "inputs": [
        {
          "internalType": "uint256",
          "name": "",
          "type": "uint256"
        }
      ],
      "name": "totalUnclaimedAmount",
      "outputs": [
        {
          "internalType": "uint256",
          "name": "",
          "type": "uint256"
        }
      ],
      "stateMutability": "view",
      "type": "function"
    },
    {
      "inputs": [
        {
          "internalType": "uint256",
          "name": "",
          "type": "uint256"
        }
      ],
      "name": "totalUnclaimedWeight",
      "outputs": [
        {
          "internalType": "uint256",
          "name": "",
          "type": "uint256"
        }
      ],
      "stateMutability": "view",
      "type": "function"
    },
    {
      "inputs": [],
      "name": "treasury",
      "outputs": [
        {
          "internalType": "contract DistributionTreasury",
          "name": "",
          "type": "address"
        }
      ],
      "stateMutability": "view",
      "type": "function"
    },
    {
      "inputs": [
        {
          "internalType": "bytes32[]",
          "name": "_contractNameHashes",
          "type": "bytes32[]"
        },
        {
          "internalType": "address[]",
          "name": "_contractAddresses",
          "type": "address[]"
        }
      ],
      "name": "updateContractAddresses",
      "outputs": [],
      "stateMutability": "nonpayable",
      "type": "function"
    },
    {
      "inputs": [],
      "name": "updateTotalEntitlementWei",
      "outputs": [],
      "stateMutability": "nonpayable",
      "type": "function"
    },
    {
      "inputs": [],
      "name": "useGoodRandom",
      "outputs": [
        {
          "internalType": "bool",
          "name": "",
          "type": "bool"
        }
      ],
      "stateMutability": "view",
      "type": "function"
    },
    {
      "inputs": [
        {
          "internalType": "uint256",
          "name": "",
          "type": "uint256"
        },
        {
          "internalType": "uint256",
          "name": "",
          "type": "uint256"
        }
      ],
      "name": "votePowerBlockNumbers",
      "outputs": [
        {
          "internalType": "uint256",
          "name": "",
          "type": "uint256"
        }
      ],
      "stateMutability": "view",
      "type": "function"
    },
    {
      "inputs": [],
      "name": "wNat",
      "outputs": [
        {
          "internalType": "contract WNat",
          "name": "",
          "type": "address"
        }
      ],
      "stateMutability": "view",
      "type": "function"
    },
    {
      "inputs": [],
      "name": "waitingForGoodRandomSinceTs",
      "outputs": [
        {
          "internalType": "uint256",
          "name": "",
          "type": "uint256"
        }
      ],
      "stateMutability": "view",
      "type": "function"
    },
    {
      "stateMutability": "payable",
      "type": "receive"
    }
  ],
  "bytecode": "0x60e06040523480156200001157600080fd5b50604051620049c2380380620049c2833981810160405260c08110156200003757600080fd5b508051602082015160408301516060840151608085015160a090950151939492939192909183868681806001600160a01b038116156200007c576200007c81620002ce565b506001600160a01b038116620000cc576040805162461bcd60e51b815260206004820152601060248201526f5f676f7665726e616e6365207a65726f60801b604482015290519081900360640190fd5b506001600160a01b0381166200011d576040805162461bcd60e51b8152602060048201526011602482015270666c617265206461656d6f6e207a65726f60781b604482015290519081900360640190fd5b60601b6001600160601b0319166080525060016002556200013e8162000391565b5060408051808201909152600c81526b61646472657373207a65726f60a01b60208201526001600160a01b038416620001f85760405162461bcd60e51b81526004018080602001828103825283818151815260200191508051906020019080838360005b83811015620001bc578181015183820152602001620001a2565b50505050905090810190601f168015620001ea5780820380516001836020036101000a031916815260200191505b509250505060405180910390fd5b5060408051808201909152600b81526a1a5b881d1a19481c185cdd60aa1b6020820152428210156200026d5760405162461bcd60e51b8152602060048201818152835160248401528351909283926044909101919085019080838360008315620001bc578181015183820152602001620001a2565b506001600160601b0319606084901b1660c052600382905560a081905260078190556040805182815290517f6887b4fbe6e282072c586eed840058a3507439898b1521541253e5a78a41c69b9181900360200190a1505050505050620003b5565b600054600160a01b900460ff16156200032e576040805162461bcd60e51b815260206004820152601460248201527f696e697469616c6973656420213d2066616c7365000000000000000000000000604482015290519081900360640190fd5b60008054600160a01b60ff60a01b19909116176001600160a01b0319166001600160a01b03831690811790915560408051918252517f9789733827840833afc031fb2ef9ab6894271f77bad2085687cf4ae5c7bee4db916020908290030190a150565b7f714f205b2abd25bef1d06a1af944e38c113fe6160375c4e1d6d5cf28848e771955565b60805160601c60a05160c05160601c6145ad620004156000398061036d5280610f5252806116d15280611ddf528061387452806138fe52806139925250806126ef5280612b7b5250806117f352806124505280612a5352506145ad6000f3fe6080604052600436106103395760003560e01c8063a1077532116101ab578063ddd1b67e116100f7578063f1e01c2211610095578063f5a983831161006f578063f5a9838314610d0a578063f5f5ba7214610d1f578063f937d6ad14610da9578063f94fcc6d14610dbe57610419565b8063f1e01c2214610cb6578063f2325e3814610ce0578063f2a1f76714610cf557610419565b8063e28ef1f7116100d1578063e28ef1f714610c23578063e4c1e96c14610c4d578063e60eb6ff14610c77578063f12d31ae14610c8c57610419565b8063ddd1b67e14610be4578063e17f212e14610bf9578063e22fdece14610c0e57610419565b8063b0b742ac11610164578063c4db96191161013e578063c4db961914610b5d578063cb063fa214610b72578063d461048314610b87578063d9d065c114610bba57610419565b8063b0b742ac14610ae8578063b23b6ef114610afd578063b2c1219214610b1257610419565b8063a107753214610932578063a90a38e114610947578063aa7579ac14610979578063ae6771611461098e578063af3267fe146109a3578063b00c0b76146109b857610419565b806361a30370116102855780637d8ca242116102235780638dc305fa116101fd5780638dc305fa1461085a5780639d6a890f146108d55780639edbf007146109085780639f71043e1461091d57610419565b80637d8ca242146107f15780638635f8981461081b57806389e6faa61461083057610419565b806367fc40291161025f57806367fc4029146106e05780636d0e8c341461071457806374e6310e1461072957806375f12b21146107dc57610419565b806361a303701461068c57806361d027b3146106b657806362354e03146106cb57610419565b8063257a7ee2116102f257806333cd2400116102cc57806333cd2400146105cb5780635267a15d146106125780635aa6e675146106435780635ff270791461065857610419565b8063257a7ee21461052f5780632dafdbbf1461055f5780632e6584521461059257610419565b8063023666481461041e57806302573715146104455780630732d2ea1461047357806307da68f51461048a57806315c29c5b1461049f578063220c1c16146104b457610419565b366104195760408051808201909152600d81526c7472656173757279206f6e6c7960981b6020820152336001600160a01b037f000000000000000000000000000000000000000000000000000000000000000016146104165760405162461bcd60e51b81526004018080602001828103825283818151815260200191508051906020019080838360005b838110156103db5781810151838201526020016103c3565b50505050905090810190601f1680156104085780820380516001836020036101000a031916815260200191505b509250505060405180910390fd5b50005b600080fd5b34801561042a57600080fd5b50610433610df1565b60408051918252519081900360200190f35b34801561045157600080fd5b5061045a610df7565b6040805192835260208301919091528051918290030190f35b34801561047f57600080fd5b50610488610f36565b005b34801561049657600080fd5b50610488610f8b565b3480156104ab57600080fd5b50610433610fa2565b3480156104c057600080fd5b50610488600480360360208110156104d757600080fd5b810190602081018135600160201b8111156104f157600080fd5b82018360208201111561050357600080fd5b803590602001918460208302840111600160201b8311171561052457600080fd5b509092509050610fa8565b34801561053b57600080fd5b506104336004803603604081101561055257600080fd5b508035906020013561114d565b34801561056b57600080fd5b5061057461117e565b60408051938452602084019290925282820152519081900360600190f35b34801561059e57600080fd5b50610433600480360360408110156105b557600080fd5b506001600160a01b0381351690602001356111dc565b3480156105d757600080fd5b506105fe600480360360208110156105ee57600080fd5b50356001600160a01b0316611280565b604080519115158252519081900360200190f35b34801561061e57600080fd5b50610627611295565b604080516001600160a01b039092168252519081900360200190f35b34801561064f57600080fd5b506106276112ba565b34801561066457600080fd5b506104886004803603602081101561067b57600080fd5b50356001600160e01b031916611350565b34801561069857600080fd5b50610627600480360360208110156106af57600080fd5b50356116a5565b3480156106c257600080fd5b506106276116cf565b3480156106d757600080fd5b506106276116f3565b3480156106ec57600080fd5b506104886004803603602081101561070357600080fd5b50356001600160e01b0319166116fe565b34801561072057600080fd5b506105fe6117e6565b34801561073557600080fd5b5061075d6004803603602081101561074c57600080fd5b50356001600160e01b031916611bdf565b6040518083815260200180602001828103825283818151815260200191508051906020019080838360005b838110156107a0578181015183820152602001610788565b50505050905090810190601f1680156107cd5780820380516001836020036101000a031916815260200191505b50935050505060405180910390f35b3480156107e857600080fd5b506105fe611c85565b3480156107fd57600080fd5b506104336004803603602081101561081457600080fd5b5035611c8e565b34801561082757600080fd5b50610488611d2b565b34801561083c57600080fd5b506104336004803603602081101561085357600080fd5b5035611eda565b34801561086657600080fd5b506104886004803603604081101561087d57600080fd5b810190602081018135600160201b81111561089757600080fd5b8201836020820111156108a957600080fd5b803590602001918460208302840111600160201b831117156108ca57600080fd5b919350915035611eec565b3480156108e157600080fd5b50610488600480360360208110156108f857600080fd5b50356001600160a01b0316612380565b34801561091457600080fd5b50610627612439565b34801561092957600080fd5b50610433612448565b34801561093e57600080fd5b5061062761244e565b34801561095357600080fd5b506104886004803603604081101561096a57600080fd5b50803515159060200135612472565b34801561098557600080fd5b50610433612611565b34801561099a57600080fd5b506104336126ed565b3480156109af57600080fd5b50610433612711565b3480156109c457600080fd5b50610488600480360360408110156109db57600080fd5b810190602081018135600160201b8111156109f557600080fd5b820183602082011115610a0757600080fd5b803590602001918460208302840111600160201b83111715610a2857600080fd5b9190808060200260200160405190810160405280939291908181526020018383602002808284376000920191909152509295949360208101935035915050600160201b811115610a7757600080fd5b820183602082011115610a8957600080fd5b803590602001918460208302840111600160201b83111715610aaa57600080fd5b919080806020026020016040519081016040528093929190818152602001838360200280828437600092019190915250929550612717945050505050565b348015610af457600080fd5b506106276127be565b348015610b0957600080fd5b506104336127cd565b348015610b1e57600080fd5b5061043360048036036080811015610b3557600080fd5b506001600160a01b0381358116916020810135909116906040810135906060013515156127d3565b348015610b6957600080fd5b506106276129c3565b348015610b7e57600080fd5b506105fe6129d2565b348015610b9357600080fd5b506105fe60048036036020811015610baa57600080fd5b50356001600160a01b03166129e0565b348015610bc657600080fd5b5061043360048036036020811015610bdd57600080fd5b50356129f5565b348015610bf057600080fd5b50610433612a07565b348015610c0557600080fd5b506105fe612a36565b348015610c1a57600080fd5b506105fe612a46565b348015610c2f57600080fd5b5061048860048036036020811015610c4657600080fd5b5035612abf565b348015610c5957600080fd5b5061043360048036036020811015610c7057600080fd5b5035612c64565b348015610c8357600080fd5b50610433612c76565b348015610c9857600080fd5b5061043360048036036020811015610caf57600080fd5b5035612c7c565b348015610cc257600080fd5b5061043360048036036020811015610cd957600080fd5b5035612c8e565b348015610cec57600080fd5b50610433612ca0565b348015610d0157600080fd5b50610488612ca6565b348015610d1657600080fd5b50610488612d81565b348015610d2b57600080fd5b50610d34612e3b565b6040805160208082528351818301528351919283929083019185019080838360005b83811015610d6e578181015183820152602001610d56565b50505050905090810190601f168015610d9b5780820380516001836020036101000a031916815260200191505b509250505060405180910390f35b348015610db557600080fd5b50610627612e72565b348015610dca57600080fd5b5061043360048036036020811015610de157600080fd5b50356001600160a01b0316612e81565b60055481565b6008546040805180820190915260128152716e6f206d6f6e746820636c61696d61626c6560701b6020820152600091829190600160801b90046001600160801b0316610e845760405162461bcd60e51b81526020600482018181528351602484015283519092839260449091019190850190808383600083156103db5781810151838201526020016103c3565b50610e8d612611565b6008549092506000196001600160801b03600160801b909204821601169050808211801590610ebc5750602482105b6040518060400160405280601081526020016f185b1c9958591e48199a5b9a5cda195960821b81525090610f315760405162461bcd60e51b81526020600482018181528351602484015283519092839260449091019190850190808383600083156103db5781810151838201526020016103c3565b509091565b610f3e612e9c565b600654600090610f78906001600160a01b037f00000000000000000000000000000000000000000000000000000000000000001631612efb565b9050600354811015610f8657fe5b600355565b610f93612e9c565b6013805460ff19166001179055565b60145481565b600054600160b01b900460ff1680610fca5750600054600160a81b900460ff16155b1561113e57610fd7612f5e565b8060005b81811015611137576000848483818110610ff157fe5b602090810292909201356001600160a01b0316600081815260108452604090819020548151808301909252600d82526c1b9bdd081bdc1d1959081bdd5d609a1b948201949094529093509160ff16905061108c5760405162461bcd60e51b81526020600482018181528351602484015283519092839260449091019190850190808383600083156103db5781810151838201526020016103c3565b5061109681612f93565b6001600160a01b0381166000818152601160209081526040808320805460ff1916600190811790915560128054808301825594527fbb8a6a4669ba250d26cd7a459eca9d215f8307e33aebe50379bc5a3617ec344490930180546001600160a01b031916851790558051928352517f82b45541b9ba7a8fe574a801f120df904cff6cde36bee6c217c9514949aa0cb89281900390910190a250600101610fdb565b5050611149565b611149600036613023565b5050565b600b602052816000526040600020818154811061116957600080fd5b90600052602060002001600091509150505481565b6013546000908190819060ff16611197576003546111b8565b6111b8476111b2600554600454612efb90919063ffffffff16565b90612efb565b9250600091506111d5600554600454612efb90919063ffffffff16565b9050909192565b600042600754106040518060400160405280600b81526020016a1b9bdd081cdd185c9d195960aa1b815250906112535760405162461bcd60e51b81526020600482018181528351602484015283519092839260449091019190850190808383600083156103db5781810151838201526020016103c3565b5061125d83612f93565b61126e611268612611565b836131a6565b6112788383613329565b949350505050565b60106020526000908152604090205460ff1681565b7f714f205b2abd25bef1d06a1af944e38c113fe6160375c4e1d6d5cf28848e77195490565b60008054600160a81b900460ff166112dd576000546001600160a01b031661134a565b60076001609c1b016001600160a01b031663732524946040518163ffffffff1660e01b815260040160206040518083038186803b15801561131d57600080fd5b505afa158015611331573d6000803e3d6000fd5b505050506040513d602081101561134757600080fd5b50515b90505b90565b60408051630debfda360e41b8152336004820152905160076001609c1b019163debfda30916024808301926020929190829003018186803b15801561139457600080fd5b505afa1580156113a8573d6000803e3d6000fd5b505050506040513d60208110156113be57600080fd5b5051611401576040805162461bcd60e51b815260206004820152600d60248201526c37b7363c9032bc32b1baba37b960991b604482015290519081900360640190fd5b6001600160e01b031981166000908152600160205260409020805461146d576040805162461bcd60e51b815260206004820152601a60248201527f74696d656c6f636b3a20696e76616c69642073656c6563746f72000000000000604482015290519081900360640190fd5b80544210156114c3576040805162461bcd60e51b815260206004820152601960248201527f74696d656c6f636b3a206e6f7420616c6c6f7765642079657400000000000000604482015290519081900360640190fd5b6000816001018054600181600116156101000203166002900480601f01602080910402602001604051908101604052809291908181526020018280546001816001161561010002031660029004801561155d5780601f106115325761010080835404028352916020019161155d565b820191906000526020600020905b81548152906001019060200180831161154057829003601f168201915b5050506001600160e01b0319861660009081526001602081905260408220828155949550909250611591915083018261443b565b50506000805460ff60b01b1916600160b01b178155604051825130918491819060208401908083835b602083106115d95780518252601f1990920191602091820191016115ba565b6001836020036101000a0380198251168184511680821785525050505050509050019150506000604051808303816000865af19150503d806000811461163b576040519150601f19603f3d011682016040523d82523d6000602084013e611640565b606091505b50506000805460ff60b01b19169055604080516001600160e01b03198716815242602082015281519293507fa7326b57fc9cfe267aaea5e7f0b01757154d265620a0585819416ee9ddd2c438929081900390910190a161169f816134e4565b50505050565b601281815481106116b557600080fd5b6000918252602090912001546001600160a01b0316905081565b7f000000000000000000000000000000000000000000000000000000000000000081565b60076001609c1b0181565b611706612e9c565b6001600160e01b03198116600090815260016020526040902054611771576040805162461bcd60e51b815260206004820152601a60248201527f74696d656c6f636b3a20696e76616c69642073656c6563746f72000000000000604482015290519081900360640190fd5b604080516001600160e01b03198316815242602082015281517f7735b2391c38a81419c513e30ca578db7158eadd7101511b23e221c654d19cf8929181900390910190a16001600160e01b031981166000908152600160208190526040822082815591906117e19083018261443b565b505050565b6000336001600160a01b037f00000000000000000000000000000000000000000000000000000000000000001614611859576040805162461bcd60e51b815260206004820152601160248201527037b7363c90333630b932903230b2b6b7b760791b604482015290519081900360640190fd5b6002805414156118b0576040805162461bcd60e51b815260206004820152601f60248201527f5265656e7472616e637947756172643a207265656e7472616e742063616c6c00604482015290519081900360640190fd5b600280556007544210806118d2575060085460246001600160801b0390911610155b156118df57506000611b57565b60006118f66007544261350190919063ffffffff16565b905060006119078262278d0061355e565b905062278d008102820360006119208262093a8061355e565b90506000811180156119325750602483105b801561194a5750600083815260096020526040902054155b156119615760008381526009602052604090204390555b600083118015611972575060248311155b801561198f575060001983016000908152600a6020526040902054155b156119ab5760001983016000908152600a602052604090204390555b6018546040805163deea13e760e01b815290516000926001600160a01b03169163deea13e7916004808301926020929190829003018186803b1580156119f057600080fd5b505afa158015611a04573d6000803e3d6000fd5b505050506040513d6020811015611a1a57600080fd5b50516008546001600160801b03166000908152600960205260409020549091508015801590611a4857508181105b15611ae8576008546001600160801b03166000908152600d6020526040812054611a7290476135c5565b600880546001600160801b03808216600101166fffffffffffffffffffffffffffffffff1990911617905590508015611ae657600554611ab29082612efb565b60055560405161dead9082156108fc029083906000818181858888f19350505050158015611ae4573d6000803e3d6000fd5b505b505b600085118015611af9575060248511155b8015611b1b57506008546001600160801b03600160801b909104166000198601145b8015611b2a575060135460ff16155b15611b4c57611b3b600186036135db565b15611b4c57611b4c60018603613830565b600196505050505050505b600160025547611b656139f4565b11156040518060400160405280600f81526020016e62616c616e636520746f6f206c6f7760881b81525090611bdb5760405162461bcd60e51b81526020600482018181528351602484015283519092839260449091019190850190808383600083156103db5781810151838201526020016103c3565b5090565b600160208181526000928352604092839020805481840180548651600296821615610100026000190190911695909504601f81018590048502860185019096528585529094919392909190830182828015611c7b5780601f10611c5057610100808354040283529160200191611c7b565b820191906000526020600020905b815481529060010190602001808311611c5e57829003601f168201915b5050505050905082565b60135460ff1681565b600042600754106040518060400160405280600b81526020016a1b9bdd081cdd185c9d195960aa1b81525090611d055760405162461bcd60e51b81526020600482018181528351602484015283519092839260449091019190850190808383600083156103db5781810151838201526020016103c3565b50611d0f33612f93565b611d1a611268612611565b611d243383613329565b9392505050565b600054600160b01b900460ff1680611d4d5750600054600160a81b900460ff16155b15611ecd57611d5a612f5e565b60135460408051808201909152600b81526a1b9bdd081cdd1bdc1c195960aa1b60208201529060ff16611dce5760405162461bcd60e51b81526020600482018181528351602484015283519092839260449091019190850190808383600083156103db5781810151838201526020016103c3565b506040516000906001600160a01b037f0000000000000000000000000000000000000000000000000000000000000000169047908381818185875af1925050503d8060008114611e3a576040519150601f19603f3d011682016040523d82523d6000602084013e611e3f565b606091505b50509050806040518060400160405280601981526020017f73656e64696e672066756e6473206261636b206661696c65640000000000000081525090611ec65760405162461bcd60e51b81526020600482018181528351602484015283519092839260449091019190850190808383600083156103db5781810151838201526020016103c3565b5050611ed8565b611ed8600036613023565b565b600a6020526000908152604090205481565b42600754106040518060400160405280600b81526020016a1b9bdd081cdd185c9d195960aa1b81525090611f615760405162461bcd60e51b81526020600482018181528351602484015283519092839260449091019190850190808383600083156103db5781810151838201526020016103c3565b506013546040805180820190915260078152661cdd1bdc1c195960ca1b60208201529060ff1615611fd35760405162461bcd60e51b81526020600482018181528351602484015283519092839260449091019190850190808383600083156103db5781810151838201526020016103c3565b5060028054141561202b576040805162461bcd60e51b815260206004820152601f60248201527f5265656e7472616e637947756172643a207265656e7472616e742063616c6c00604482015290519081900360640190fd5b6002805560005b828110156120665761205e84848381811061204957fe5b905060200201356001600160a01b0316613a29565b600101612032565b506000612071612611565b905061207d81836131a6565b6019546040805163712441d960e11b81523360048201818152602483019384526044830188905260009485946001600160a01b039091169363e24883b293928b928b92606401846020850280828437600081840152601f19601f82011690508083019250505094505050505060006040518083038186803b15801561210157600080fd5b505afa158015612115573d6000803e3d6000fd5b505050506040513d6000823e601f3d908101601f19168201604090815281101561213e57600080fd5b8101908080516040519392919084600160201b82111561215d57600080fd5b90830190602082018581111561217257600080fd5b82518660208202830111600160201b8211171561218e57600080fd5b82525081516020918201928201910280838360005b838110156121bb5781810151838201526020016121a3565b50505050919091016040525060200151929450919250600091508190505b868110156122d15760008888838181106121ef57fe5b905060200201356001600160a01b03169050600085838151811061220f57fe5b6020908102919091018101516001600160a01b03841660009081526011909252604082205490925060ff1661224c5761224a83838a8c613aa3565b015b816001600160a01b0316836001600160a01b0316146122735761227182838a8c613aa3565b015b60408051808201909152601881527f636c61696d656420616d6f756e7420746f6f20736d616c6c00000000000000006020820152948101946122b89082908890613bc5565b90506122c682826001613c1f565b5050506001016121d9565b506004546122df9082612efb565b6004556122f7336122f08489613d67565b6000613c1f565b505060016002555047905061230a6139f4565b11156040518060400160405280600f81526020016e62616c616e636520746f6f206c6f7760881b8152509061169f5760405162461bcd60e51b81526020600482018181528351602484015283519092839260449091019190850190808383600083156103db5781810151838201526020016103c3565b600054600160a01b900460ff16156123d6576040805162461bcd60e51b8152602060048201526014602482015273696e697469616c6973656420213d2066616c736560601b604482015290519081900360640190fd5b60008054600160a01b60ff60a01b19909116176001600160a01b0319166001600160a01b03831690811790915560408051918252517f9789733827840833afc031fb2ef9ab6894271f77bad2085687cf4ae5c7bee4db916020908290030190a150565b6018546001600160a01b031681565b60045481565b7f000000000000000000000000000000000000000000000000000000000000000081565b600054600160b01b900460ff16806124945750600054600160a81b900460ff16155b1561113e576124a1612f5e565b8115612537576000811180156124ba575062093a808111155b60405180604001604052806012815260200171696e76616c696420706172616d657465727360701b815250906125315760405162461bcd60e51b81526020600482018181528351602484015283519092839260449091019190850190808383600083156103db5781810151838201526020016103c3565b506125b4565b604080518082019091526012815271696e76616c696420706172616d657465727360701b602082015281156125ad5760405162461bcd60e51b81526020600482018181528351602484015283519092839260449091019190850190808383600083156103db5781810151838201526020016103c3565b5060006015555b6013805461ff001916610100841515908102919091179091556014829055604080519182526020820183905280517f5c9bf067f2a8b23128e64d5ce119251f51d6c0c24e0d7bf430c2dd77df3ec0929281900390910190a1611149565b600080601860009054906101000a90046001600160a01b03166001600160a01b031663deea13e76040518163ffffffff1660e01b815260040160206040518083038186803b15801561266257600080fd5b505afa158015612676573d6000803e3d6000fd5b505050506040513d602081101561268c57600080fd5b50516008546001600160801b031660009081526009602052604090205490915080158015906126ba57508181105b156126da5750506008546001600160801b0390811660010116905061134d565b50506008546001600160801b0316905090565b7f000000000000000000000000000000000000000000000000000000000000000081565b60065481565b61271f611295565b6001600160a01b0316336001600160a01b03161461277b576040805162461bcd60e51b815260206004820152601460248201527337b7363c9030b2323932b9b9903ab83230ba32b960611b604482015290519081900360640190fd5b6127b46127af83836040518060400160405280600e81526020016d20b2323932b9b9aab83230ba32b960911b815250613dc0565b613eed565b6111498282613f11565b6017546001600160a01b031681565b60155481565b600042600754106040518060400160405280600b81526020016a1b9bdd081cdd185c9d195960aa1b8152509061284a5760405162461bcd60e51b81526020600482018181528351602484015283519092839260449091019190850190808383600083156103db5781810151838201526020016103c3565b506013546040805180820190915260078152661cdd1bdc1c195960ca1b60208201529060ff16156128bc5760405162461bcd60e51b81526020600482018181528351602484015283519092839260449091019190850190808383600083156103db5781810151838201526020016103c3565b50600280541415612914576040805162461bcd60e51b815260206004820152601f60248201527f5265656e7472616e637947756172643a207265656e7472616e742063616c6c00604482015290519081900360640190fd5b6002805584846129248282614061565b612930878787876140ee565b6001600255925047915061294490506139f4565b11156040518060400160405280600f81526020016e62616c616e636520746f6f206c6f7760881b815250906129ba5760405162461bcd60e51b81526020600482018181528351602484015283519092839260449091019190850190808383600083156103db5781810151838201526020016103c3565b50949350505050565b6019546001600160a01b031681565b601354610100900460ff1681565b60116020526000908152604090205460ff1681565b600d6020526000908152604090205481565b600080612a1f6007544261414290919063ffffffff16565b9150612a3090508162278d0061355e565b91505090565b600054600160a81b900460ff1681565b6000336001600160a01b037f00000000000000000000000000000000000000000000000000000000000000001614612ab9576040805162461bcd60e51b815260206004820152601160248201527037b7363c90333630b932903230b2b6b7b760791b604482015290519081900360640190fd5b50600090565b600054600160b01b900460ff1680612ae15750600054600160a81b900460ff16155b15612c5657612aee612f5e565b42600754116040518060400160405280600f81526020016e185b1c9958591e481cdd185c9d1959608a1b81525090612b675760405162461bcd60e51b81526020600482018181528351602484015283519092839260449091019190850190808383600083156103db5781810151838201526020016103c3565b50621274ff1942018110801590612b9e57507f00000000000000000000000000000000000000000000000000000000000000008111155b60405180604001604052806015815260200174077726f6e672073746172742074696d657374616d7605c1b81525090612c185760405162461bcd60e51b81526020600482018181528351602484015283519092839260449091019190850190808383600083156103db5781810151838201526020016103c3565b5060078190556040805182815290517f6887b4fbe6e282072c586eed840058a3507439898b1521541253e5a78a41c69b9181900360200190a1612c61565b612c61600036613023565b50565b600c6020526000908152604090205481565b60075481565b600e6020526000908152604090205481565b60096020526000908152604090205481565b60035481565b336000908152601060209081526040918290205482518084019093526011835270185b1c9958591e481bdc1d1959081bdd5d607a1b9183019190915260ff1615612d315760405162461bcd60e51b81526020600482018181528351602484015283519092839260449091019190850190808383600083156103db5781810151838201526020016103c3565b50336000818152601060209081526040808320805460ff191660011790558051928352517f82b45541b9ba7a8fe574a801f120df904cff6cde36bee6c217c9514949aa0cb89281900390910190a2565b612d89612e9c565b600054600160a81b900460ff1615612de8576040805162461bcd60e51b815260206004820152601a60248201527f616c726561647920696e2070726f64756374696f6e206d6f6465000000000000604482015290519081900360640190fd5b60008054600161ff0160a01b031916600160a81b1790556040805160076001609c1b01815290517f83af113638b5422f9e977cebc0aaf0eaf2188eb9a8baae7f9d46c42b33a1560c9181900360200190a1565b60408051808201909152601881527f446973747269627574696f6e546f44656c656761746f72730000000000000000602082015290565b6016546001600160a01b031681565b6000612e9482612e8f612611565b614164565b90505b919050565b612ea46112ba565b6001600160a01b0316336001600160a01b031614611ed8576040805162461bcd60e51b815260206004820152600f60248201526e6f6e6c7920676f7665726e616e636560881b604482015290519081900360640190fd5b600082820183811015612f55576040805162461bcd60e51b815260206004820152601b60248201527f536166654d6174683a206164646974696f6e206f766572666c6f770000000000604482015290519081900360640190fd5b90505b92915050565b600054600160b01b900460ff1615612f8b57333014612f7957fe5b6000805460ff60b01b19169055611ed8565b611ed8612e9c565b6001600160a01b03811660009081526011602081815260409283902054835180850190945291835270185b1c9958591e481bdc1d1959081bdd5d607a1b9083015260ff16156111495760405162461bcd60e51b81526020600482018181528351602484015283519092839260449091019190850190808383600083156103db5781810151838201526020016103c3565b61302b612e9c565b600082359050600060076001609c1b016001600160a01b0316636221a54b6040518163ffffffff1660e01b815260040160206040518083038186803b15801561307357600080fd5b505afa158015613087573d6000803e3d6000fd5b505050506040513d602081101561309d57600080fd5b505160408051808201825242830180825282516020601f89018190048102820181019094528781529394509290918281019190889088908190840183828082843760009201829052509390945250506001600160e01b031986168152600160208181526040909220845181558483015180519194506131219392850192019061447f565b509050507fed948300a3694aa01d4a6b258bfd664350193d770c0b51f8387277f6d83ea3b68382878760405180856001600160e01b0319168152602001848152602001806020018281038252848482818152602001925080828437600083820152604051601f909101601f191690920182900397509095505050505050a15050505050565b60408051808201909152600d81526c1b5bdb9d1a08195e1c1a5c9959609a1b6020820152818311156132195760405162461bcd60e51b81526020600482018181528351602484015283519092839260449091019190850190808383600083156103db5781810151838201526020016103c3565b506040805180820190915260138152726d6f6e7468206e6f7420636c61696d61626c6560681b6020820152602482106132935760405162461bcd60e51b81526020600482018181528351602484015283519092839260449091019190850190808383600083156103db5781810151838201526020016103c3565b5060085460408051808201909152601781527f6d6f6e7468206e6f7420636c61696d61626c6520796574000000000000000000602082015290600160801b90046001600160801b031682106117e15760405162461bcd60e51b81526020600482018181528351602484015283519092839260449091019190850190808383600083156103db5781810151838201526020016103c3565b6001600160a01b0382166000908152600f60205260408120548190831015613356575060009050806134dd565b6000838152600d6020526040902054806133775760008092509250506134dd565b6000848152600b60209081526040808320805482518185028101850190935280835291929091908301828280156133cd57602002820191906000526020600020905b8154815260200190600101908083116133b9575b5050505050905060005b600381101561348a5760175482516001600160a01b0390911690634ee2cd7e90899085908590811061340557fe5b60200260200101516040518363ffffffff1660e01b815260040180836001600160a01b031681526020018281526020019250505060206040518083038186803b15801561345157600080fd5b505afa158015613465573d6000803e3d6000fd5b505050506040513d602081101561347b57600080fd5b505194909401936001016133d7565b508361349e576000809350935050506134dd565b6000858152600e6020526040902054848114156134c057509091506134dd9050565b8085106134c957fe5b846134d5848284614187565b945094505050505b9250929050565b3d604051818101604052816000823e82156134fd578181f35b8181fd5b600082821115613558576040805162461bcd60e51b815260206004820152601e60248201527f536166654d6174683a207375627472616374696f6e206f766572666c6f770000604482015290519081900360640190fd5b50900390565b60008082116135b4576040805162461bcd60e51b815260206004820152601a60248201527f536166654d6174683a206469766973696f6e206279207a65726f000000000000604482015290519081900360640190fd5b8183816135bd57fe5b049392505050565b60008183106135d45781612f55565b5090919050565b6013546000908190610100900460ff16156136b6576016546040805163a978fb6b60e01b815281516000936001600160a01b03169263a978fb6b9260048082019391829003018186803b15801561363157600080fd5b505afa158015613645573d6000803e3d6000fd5b505050506040513d604081101561365b57600080fd5b5080516020909101519092509050806136aa5760155461368357505042601555506000612e97565b42601454601554011161369a5760006015556136a5565b600092505050612e97565b6136b0565b60006015555b50613735565b601660009054906101000a90046001600160a01b03166001600160a01b031663d89601fd6040518163ffffffff1660e01b815260040160206040518083038186803b15801561370457600080fd5b505afa158015613718573d6000803e3d6000fd5b505050506040513d602081101561372e57600080fd5b5051420190505b600083815260096020908152604080832054600a909252808320548151600380825260808201909352929390928484038390049281602001602082028036833701905050905060005b60038110156137e95760408051602080820198909852808201839052815180820383018152606090910190915280519601959095209460008387816137bf57fe5b068483028701019050808383815181106137d557fe5b60209081029190910101525060010161377e565b506000878152600b60209081526040909120825161380992840190614507565b506138138161428d565b6000888152600e6020526040902055506001945050505050919050565b600061384b6138436001840160ed613d67565b6121346135c5565b9050600061392c6138fc600654613871856121346003546141879092919063ffffffff16565b037f00000000000000000000000000000000000000000000000000000000000000006001600160a01b03166329d71f6d6040518163ffffffff1660e01b815260040160206040518083038186803b1580156138cb57600080fd5b505afa1580156138df573d6000803e3d6000fd5b505050506040513d60208110156138f557600080fd5b50516135c5565b7f00000000000000000000000000000000000000000000000000000000000000006001600160a01b0316316135c5565b6000848152600c60209081526040808320849055600d9091528082208390556006805484019055600880546001600160801b03600189018116600160801b029116179055805163ec8d877760e01b81526004810184905290519293506001600160a01b037f0000000000000000000000000000000000000000000000000000000000000000169263ec8d87779260248084019391929182900301818387803b1580156139d757600080fd5b505af11580156139eb573d6000803e3d6000fd5b50505050505050565b60135460009060ff16612ab957613a24600554613a1e60045460065461350190919063ffffffff16565b90613501565b61134a565b60408051808201909152600e81526d726563697069656e74207a65726f60901b60208201526001600160a01b0382166111495760405162461bcd60e51b81526020600482018181528351602484015283519092839260449091019190850190808383600083156103db5781810151838201526020016103c3565b600080613ab08685614164565b90505b828111613b7b57600080613ac78884613329565b90925090508015613b71576000838152600d6020526040902054613aeb9082613501565b6000848152600d6020908152604080832093909355600e90522054613b109083613501565b6000848152600e60209081526040918290209290925580518581529182018390528051958301956001600160a01b03808b1693908c16927fbdb59bec3f0c77052f6645d7365d5008c0affb5d51489a220d01bb1af96897b092918290030190a35b5050600101613ab3565b506001600160a01b0385166000908152600f6020526040902054600183011115611278576001600160a01b0385166000908152600f60205260409020600183019055949350505050565b60008184841115613c175760405162461bcd60e51b81526020600482018181528351602484015283519092839260449091019190850190808383600083156103db5781810151838201526020016103c3565b505050900390565b81156117e1578015613c9a576018546040805163b760faf960e01b81526001600160a01b0386811660048301529151919092169163b760faf991859160248082019260009290919082900301818588803b158015613c7c57600080fd5b505af1158015613c90573d6000803e3d6000fd5b50505050506117e1565b6040516000906001600160a01b0385169084908381818185875af1925050503d8060008114613ce5576040519150601f19603f3d011682016040523d82523d6000602084013e613cea565b606091505b50509050806040518060400160405280600c81526020016b18db185a5b4819985a5b195960a21b81525090613d605760405162461bcd60e51b81526020600482018181528351602484015283519092839260449091019190850190808383600083156103db5781810151838201526020016103c3565b5050505050565b600082613d7657506000612f58565b82820282848281613d8357fe5b0414612f555760405162461bcd60e51b81526004018080602001828103825260218152602001806145576021913960400191505060405180910390fd5b600080826040516020018080602001828103825283818151815260200191508051906020019080838360005b83811015613e04578181015183820152602001613dec565b50505050905090810190601f168015613e315780820380516001836020036101000a031916815260200191505b50925050506040516020818303038152906040528051906020012090506000805b8651811015613e9957868181518110613e6757fe5b6020026020010151831415613e9157858181518110613e8257fe5b60200260200101519150613e99565b600101613e52565b506001600160a01b038116613ee4576040805162461bcd60e51b815260206004820152600c60248201526b61646472657373207a65726f60a01b604482015290519081900360640190fd5b95945050505050565b7f714f205b2abd25bef1d06a1af944e38c113fe6160375c4e1d6d5cf28848e771955565b613f3882826040518060400160405280600481526020016315d3985d60e21b815250613dc0565b601860006101000a8154816001600160a01b0302191690836001600160a01b03160217905550613f9282826040518060400160405280601181526020017021b630b4b6a9b2ba3ab826b0b730b3b2b960791b815250613dc0565b601960006101000a8154816001600160a01b0302191690836001600160a01b03160217905550613fe982826040518060400160405280600e81526020016d283934b1b2a9bab136b4ba3a32b960911b815250613dc0565b601660006101000a8154816001600160a01b0302191690836001600160a01b0316021790555061403d82826040518060400160405280600b81526020016a10dbdb589a5b995913985d60aa1b815250613dc0565b601780546001600160a01b0319166001600160a01b03929092169190911790555050565b336001600160a01b038316141561407757611149565b6019546040805163ce2caa5760e01b81523360048201526001600160a01b03858116602483015284811660448301529151919092169163ce2caa57916064808301926000929190829003018186803b1580156140d257600080fd5b505afa1580156140e6573d6000803e3d6000fd5b505050505050565b60006140f984613a29565b61410285612f93565b600061410c612611565b905061411881856131a6565b61412486868387613aa3565b6004549092506141349083612efb565b6004556129ba858385613c1f565b60008083831115614158575060009050806134dd565b50600193919092039150565b6001600160a01b0382166000908152600f6020526040812054612f55908361442b565b60008082116141d0576040805162461bcd60e51b815260206004820152601060248201526f4469766973696f6e206279207a65726f60801b604482015290519081900360640190fd5b836141dd57506000611d24565b838302838582816141ea57fe5b041415614203578281816141fa57fe5b04915050611d24565b600083868161420e57fe5b049050600084878161421c57fe5b069050600085878161422a57fe5b049050600086888161423857fe5b0690506142806142528861424c8685613d67565b9061355e565b6111b261425f8686613d67565b6111b261426c8987613d67565b6111b28d61427a8c8b613d67565b90613d67565b9998505050505050505050565b6000805b60038110156143325760175483516001600160a01b039091169063981b24d0908590849081106142bd57fe5b60200260200101516040518263ffffffff1660e01b81526004018082815260200191505060206040518083038186803b1580156142f957600080fd5b505afa15801561430d573d6000803e3d6000fd5b505050506040513d602081101561432357600080fd5b50519190910190600101614291565b506012545b80156144255780806001900391505060006012828154811061435557fe5b60009182526020822001546001600160a01b031691505b600381101561441e5760175485516001600160a01b0390911690634ee2cd7e90849088908590811061439a57fe5b60200260200101516040518363ffffffff1660e01b815260040180836001600160a01b031681526020018281526020019250505060206040518083038186803b1580156143e657600080fd5b505afa1580156143fa573d6000803e3d6000fd5b505050506040513d602081101561441057600080fd5b50519093039260010161436c565b5050614337565b50919050565b6000818310156135d45781612f55565b50805460018160011615610100020316600290046000825580601f106144615750612c61565b601f016020900490600052602060002090810190612c619190614541565b828054600181600116156101000203166002900490600052602060002090601f0160209004810192826144b557600085556144fb565b82601f106144ce57805160ff19168380011785556144fb565b828001600101855582156144fb579182015b828111156144fb5782518255916020019190600101906144e0565b50611bdb929150614541565b8280548282559060005260206000209081019282156144fb57916020028201828111156144fb5782518255916020019190600101906144e0565b5b80821115611bdb576000815560010161454256fe536166654d6174683a206d756c7469706c69636174696f6e206f766572666c6f77a26469706673582212204a0931c3f460692ee66b9b4720dc383a92648f5ce7fd1d4b67630565a2b5f15064736f6c63430007060033",
  "linkReferences": {},
  "deployedLinkReferences": {}
}