{
  "_format": "hh-sol-artifact-1",
  "contractName": "ClaimSetupManager",
  "sourceName": "contracts/claiming/implementation/ClaimSetupManager.sol",
  "abi": [
    {
      "inputs": [
        {
          "internalType": "address",
          "name": "_governance",
          "type": "address"
        },
        {
          "internalType": "address",
          "name": "_addressUpdater",
          "type": "address"
        },
        {
          "internalType": "uint256",
          "name": "_feeValueUpdateOffset",
          "type": "uint256"
        },
        {
          "internalType": "uint256",
          "name": "_minFeeValueWei",
          "type": "uint256"
        },
        {
          "internalType": "uint256",
          "name": "_maxFeeValueWei",
          "type": "uint256"
        },
        {
          "internalType": "uint256",
          "name": "_registerExecutorFeeValueWei",
          "type": "uint256"
        }
      ],
      "stateMutability": "nonpayable",
      "type": "constructor"
    },
    {
      "anonymous": false,
      "inputs": [
        {
          "indexed": false,
          "internalType": "address",
          "name": "owner",
          "type": "address"
        },
        {
          "indexed": false,
          "internalType": "address[]",
          "name": "recipients",
          "type": "address[]"
        }
      ],
      "name": "AllowedClaimRecipientsChanged",
      "type": "event"
    },
    {
      "anonymous": false,
      "inputs": [
        {
          "indexed": false,
          "internalType": "address",
          "name": "executor",
          "type": "address"
        },
        {
          "indexed": false,
          "internalType": "uint256",
          "name": "validFromRewardEpoch",
          "type": "uint256"
        },
        {
          "indexed": false,
          "internalType": "uint256",
          "name": "feeValueWei",
          "type": "uint256"
        }
      ],
      "name": "ClaimExecutorFeeValueChanged",
      "type": "event"
    },
    {
      "anonymous": false,
      "inputs": [
        {
          "indexed": false,
          "internalType": "address",
          "name": "owner",
          "type": "address"
        },
        {
          "indexed": false,
          "internalType": "address[]",
          "name": "executors",
          "type": "address[]"
        }
      ],
      "name": "ClaimExecutorsChanged",
      "type": "event"
    },
    {
      "anonymous": false,
      "inputs": [
        {
          "indexed": false,
          "internalType": "address",
          "name": "owner",
          "type": "address"
        },
        {
          "indexed": false,
          "internalType": "contract IDelegationAccount",
          "name": "delegationAccount",
          "type": "address"
        }
      ],
      "name": "DelegationAccountCreated",
      "type": "event"
    },
    {
      "anonymous": false,
      "inputs": [
        {
          "indexed": false,
          "internalType": "address",
          "name": "owner",
          "type": "address"
        },
        {
          "indexed": false,
          "internalType": "contract IDelegationAccount",
          "name": "delegationAccount",
          "type": "address"
        },
        {
          "indexed": false,
          "internalType": "bool",
          "name": "enabled",
          "type": "bool"
        }
      ],
      "name": "DelegationAccountUpdated",
      "type": "event"
    },
    {
      "anonymous": false,
      "inputs": [
        {
          "indexed": false,
          "internalType": "address",
          "name": "executor",
          "type": "address"
        }
      ],
      "name": "ExecutorRegistered",
      "type": "event"
    },
    {
      "anonymous": false,
      "inputs": [
        {
          "indexed": false,
          "internalType": "address",
          "name": "executor",
          "type": "address"
        },
        {
          "indexed": false,
          "internalType": "uint256",
          "name": "validFromRewardEpoch",
          "type": "uint256"
        }
      ],
      "name": "ExecutorUnregistered",
      "type": "event"
    },
    {
      "anonymous": false,
      "inputs": [
        {
          "indexed": false,
          "internalType": "bytes4",
          "name": "selector",
          "type": "bytes4"
        },
        {
          "indexed": false,
          "internalType": "uint256",
          "name": "allowedAfterTimestamp",
          "type": "uint256"
        },
        {
          "indexed": false,
          "internalType": "bytes",
          "name": "encodedCall",
          "type": "bytes"
        }
      ],
      "name": "GovernanceCallTimelocked",
      "type": "event"
    },
    {
      "anonymous": false,
      "inputs": [
        {
          "indexed": false,
          "internalType": "address",
          "name": "initialGovernance",
          "type": "address"
        }
      ],
      "name": "GovernanceInitialised",
      "type": "event"
    },
    {
      "anonymous": false,
      "inputs": [
        {
          "indexed": false,
          "internalType": "address",
          "name": "governanceSettings",
          "type": "address"
        }
      ],
      "name": "GovernedProductionModeEntered",
      "type": "event"
    },
    {
      "anonymous": false,
      "inputs": [
        {
          "indexed": false,
          "internalType": "uint256",
          "name": "maxFeeValueWei",
          "type": "uint256"
        }
      ],
      "name": "MaxFeeSet",
      "type": "event"
    },
    {
      "anonymous": false,
      "inputs": [
        {
          "indexed": false,
          "internalType": "uint256",
          "name": "minFeeValueWei",
          "type": "uint256"
        }
      ],
      "name": "MinFeeSet",
      "type": "event"
    },
    {
      "anonymous": false,
      "inputs": [
        {
          "indexed": false,
          "internalType": "uint256",
          "name": "registerExecutorFeeValueWei",
          "type": "uint256"
        }
      ],
      "name": "RegisterExecutorFeeSet",
      "type": "event"
    },
    {
      "anonymous": false,
      "inputs": [
        {
          "indexed": false,
          "internalType": "address",
          "name": "owner",
          "type": "address"
        },
        {
          "indexed": false,
          "internalType": "uint256",
          "name": "excessAmount",
          "type": "uint256"
        }
      ],
      "name": "SetExecutorsExcessAmountRefunded",
      "type": "event"
    },
    {
      "anonymous": false,
      "inputs": [
        {
          "indexed": false,
          "internalType": "address",
          "name": "libraryAddress",
          "type": "address"
        }
      ],
      "name": "SetLibraryAddress",
      "type": "event"
    },
    {
      "anonymous": false,
      "inputs": [
        {
          "indexed": false,
          "internalType": "bytes4",
          "name": "selector",
          "type": "bytes4"
        },
        {
          "indexed": false,
          "internalType": "uint256",
          "name": "timestamp",
          "type": "uint256"
        }
      ],
      "name": "TimelockedGovernanceCallCanceled",
      "type": "event"
    },
    {
      "anonymous": false,
      "inputs": [
        {
          "indexed": false,
          "internalType": "bytes4",
          "name": "selector",
          "type": "bytes4"
        },
        {
          "indexed": false,
          "internalType": "uint256",
          "name": "timestamp",
          "type": "uint256"
        }
      ],
      "name": "TimelockedGovernanceCallExecuted",
      "type": "event"
    },
    {
      "inputs": [
        {
          "internalType": "address",
          "name": "_owner",
          "type": "address"
        }
      ],
      "name": "accountToDelegationAccount",
      "outputs": [
        {
          "internalType": "address",
          "name": "",
          "type": "address"
        }
      ],
      "stateMutability": "view",
      "type": "function"
    },
    {
      "inputs": [
        {
          "internalType": "address",
          "name": "_owner",
          "type": "address"
        }
      ],
      "name": "allowedClaimRecipients",
      "outputs": [
        {
          "internalType": "address[]",
          "name": "",
          "type": "address[]"
        }
      ],
      "stateMutability": "view",
      "type": "function"
    },
    {
      "inputs": [
        {
          "internalType": "address[]",
          "name": "_delegatees",
          "type": "address[]"
        },
        {
          "internalType": "uint256[]",
          "name": "_bips",
          "type": "uint256[]"
        }
      ],
      "name": "batchDelegate",
      "outputs": [],
      "stateMutability": "nonpayable",
      "type": "function"
    },
    {
      "inputs": [
        {
          "internalType": "bytes4",
          "name": "_selector",
          "type": "bytes4"
        }
      ],
      "name": "cancelGovernanceCall",
      "outputs": [],
      "stateMutability": "nonpayable",
      "type": "function"
    },
    {
      "inputs": [
        {
          "internalType": "address",
          "name": "_executor",
          "type": "address"
        },
        {
          "internalType": "address",
          "name": "_claimFor",
          "type": "address"
        },
        {
          "internalType": "address",
          "name": "_recipient",
          "type": "address"
        }
      ],
      "name": "checkExecutorAndAllowedRecipient",
      "outputs": [],
      "stateMutability": "view",
      "type": "function"
    },
    {
      "inputs": [
        {
          "internalType": "address",
          "name": "_owner",
          "type": "address"
        }
      ],
      "name": "claimExecutors",
      "outputs": [
        {
          "internalType": "address[]",
          "name": "",
          "type": "address[]"
        }
      ],
      "stateMutability": "view",
      "type": "function"
    },
    {
      "inputs": [
        {
          "internalType": "address",
          "name": "_to",
          "type": "address"
        },
        {
          "internalType": "uint256",
          "name": "_bips",
          "type": "uint256"
        }
      ],
      "name": "delegate",
      "outputs": [],
      "stateMutability": "nonpayable",
      "type": "function"
    },
    {
      "inputs": [
        {
          "internalType": "address",
          "name": "_to",
          "type": "address"
        }
      ],
      "name": "delegateGovernance",
      "outputs": [],
      "stateMutability": "nonpayable",
      "type": "function"
    },
    {
      "inputs": [],
      "name": "disableDelegationAccount",
      "outputs": [],
      "stateMutability": "nonpayable",
      "type": "function"
    },
    {
      "inputs": [],
      "name": "enableDelegationAccount",
      "outputs": [
        {
          "internalType": "contract IDelegationAccount",
          "name": "",
          "type": "address"
        }
      ],
      "stateMutability": "nonpayable",
      "type": "function"
    },
    {
      "inputs": [
        {
          "internalType": "bytes4",
          "name": "_selector",
          "type": "bytes4"
        }
      ],
      "name": "executeGovernanceCall",
      "outputs": [],
      "stateMutability": "nonpayable",
      "type": "function"
    },
    {
      "inputs": [],
      "name": "feeValueUpdateOffset",
      "outputs": [
        {
          "internalType": "uint256",
          "name": "",
          "type": "uint256"
        }
      ],
      "stateMutability": "view",
      "type": "function"
    },
    {
      "inputs": [],
      "name": "ftsoManager",
      "outputs": [
        {
          "internalType": "contract IFtsoManager",
          "name": "",
          "type": "address"
        }
      ],
      "stateMutability": "view",
      "type": "function"
    },
    {
      "inputs": [],
      "name": "getAddressUpdater",
      "outputs": [
        {
          "internalType": "address",
          "name": "_addressUpdater",
          "type": "address"
        }
      ],
      "stateMutability": "view",
      "type": "function"
    },
    {
      "inputs": [
        {
          "internalType": "address",
          "name": "_executor",
          "type": "address"
        },
        {
          "internalType": "address[]",
          "name": "_owners",
          "type": "address[]"
        }
      ],
      "name": "getAutoClaimAddressesAndExecutorFee",
      "outputs": [
        {
          "internalType": "address[]",
          "name": "_recipients",
          "type": "address[]"
        },
        {
          "internalType": "uint256",
          "name": "_executorFeeValue",
          "type": "uint256"
        }
      ],
      "stateMutability": "view",
      "type": "function"
    },
    {
      "inputs": [
        {
          "internalType": "address",
          "name": "_owner",
          "type": "address"
        }
      ],
      "name": "getDelegationAccountData",
      "outputs": [
        {
          "internalType": "contract IDelegationAccount",
          "name": "_delegationAccount",
          "type": "address"
        },
        {
          "internalType": "bool",
          "name": "_enabled",
          "type": "bool"
        }
      ],
      "stateMutability": "view",
      "type": "function"
    },
    {
      "inputs": [
        {
          "internalType": "address",
          "name": "_executor",
          "type": "address"
        }
      ],
      "name": "getExecutorCurrentFeeValue",
      "outputs": [
        {
          "internalType": "uint256",
          "name": "",
          "type": "uint256"
        }
      ],
      "stateMutability": "view",
      "type": "function"
    },
    {
      "inputs": [
        {
          "internalType": "address",
          "name": "_executor",
          "type": "address"
        },
        {
          "internalType": "uint256",
          "name": "_rewardEpoch",
          "type": "uint256"
        }
      ],
      "name": "getExecutorFeeValue",
      "outputs": [
        {
          "internalType": "uint256",
          "name": "",
          "type": "uint256"
        }
      ],
      "stateMutability": "view",
      "type": "function"
    },
    {
      "inputs": [
        {
          "internalType": "address",
          "name": "_executor",
          "type": "address"
        }
      ],
      "name": "getExecutorInfo",
      "outputs": [
        {
          "internalType": "bool",
          "name": "_registered",
          "type": "bool"
        },
        {
          "internalType": "uint256",
          "name": "_currentFeeValue",
          "type": "uint256"
        }
      ],
      "stateMutability": "view",
      "type": "function"
    },
    {
      "inputs": [
        {
          "internalType": "address",
          "name": "_executor",
          "type": "address"
        }
      ],
      "name": "getExecutorScheduledFeeValueChanges",
      "outputs": [
        {
          "internalType": "uint256[]",
          "name": "_feeValue",
          "type": "uint256[]"
        },
        {
          "internalType": "uint256[]",
          "name": "_validFromEpoch",
          "type": "uint256[]"
        },
        {
          "internalType": "bool[]",
          "name": "_fixed",
          "type": "bool[]"
        }
      ],
      "stateMutability": "view",
      "type": "function"
    },
    {
      "inputs": [
        {
          "internalType": "uint256",
          "name": "_start",
          "type": "uint256"
        },
        {
          "internalType": "uint256",
          "name": "_end",
          "type": "uint256"
        }
      ],
      "name": "getRegisteredExecutors",
      "outputs": [
        {
          "internalType": "address[]",
          "name": "_registeredExecutors",
          "type": "address[]"
        },
        {
          "internalType": "uint256",
          "name": "_totalLength",
          "type": "uint256"
        }
      ],
      "stateMutability": "view",
      "type": "function"
    },
    {
      "inputs": [],
      "name": "governance",
      "outputs": [
        {
          "internalType": "address",
          "name": "",
          "type": "address"
        }
      ],
      "stateMutability": "view",
      "type": "function"
    },
    {
      "inputs": [],
      "name": "governanceSettings",
      "outputs": [
        {
          "internalType": "contract IGovernanceSettings",
          "name": "",
          "type": "address"
        }
      ],
      "stateMutability": "view",
      "type": "function"
    },
    {
      "inputs": [],
      "name": "governanceVP",
      "outputs": [
        {
          "internalType": "contract IGovernanceVotePower",
          "name": "",
          "type": "address"
        }
      ],
      "stateMutability": "view",
      "type": "function"
    },
    {
      "inputs": [
        {
          "internalType": "address",
          "name": "_initialGovernance",
          "type": "address"
        }
      ],
      "name": "initialise",
      "outputs": [],
      "stateMutability": "nonpayable",
      "type": "function"
    },
    {
      "inputs": [
        {
          "internalType": "address",
          "name": "_owner",
          "type": "address"
        },
        {
          "internalType": "address",
          "name": "_executor",
          "type": "address"
        }
      ],
      "name": "isClaimExecutor",
      "outputs": [
        {
          "internalType": "bool",
          "name": "",
          "type": "bool"
        }
      ],
      "stateMutability": "view",
      "type": "function"
    },
    {
      "inputs": [],
      "name": "libraryAddress",
      "outputs": [
        {
          "internalType": "address",
          "name": "",
          "type": "address"
        }
      ],
      "stateMutability": "view",
      "type": "function"
    },
    {
      "inputs": [],
      "name": "maxFeeValueWei",
      "outputs": [
        {
          "internalType": "uint256",
          "name": "",
          "type": "uint256"
        }
      ],
      "stateMutability": "view",
      "type": "function"
    },
    {
      "inputs": [],
      "name": "minFeeValueWei",
      "outputs": [
        {
          "internalType": "uint256",
          "name": "",
          "type": "uint256"
        }
      ],
      "stateMutability": "view",
      "type": "function"
    },
    {
      "inputs": [],
      "name": "productionMode",
      "outputs": [
        {
          "internalType": "bool",
          "name": "",
          "type": "bool"
        }
      ],
      "stateMutability": "view",
      "type": "function"
    },
    {
      "inputs": [
        {
          "internalType": "uint256",
          "name": "_feeValue",
          "type": "uint256"
        }
      ],
      "name": "registerExecutor",
      "outputs": [
        {
          "internalType": "uint256",
          "name": "",
          "type": "uint256"
        }
      ],
      "stateMutability": "payable",
      "type": "function"
    },
    {
      "inputs": [],
      "name": "registerExecutorFeeValueWei",
      "outputs": [
        {
          "internalType": "uint256",
          "name": "",
          "type": "uint256"
        }
      ],
      "stateMutability": "view",
      "type": "function"
    },
    {
      "inputs": [
        {
          "internalType": "address",
          "name": "_who",
          "type": "address"
        },
        {
          "internalType": "uint256",
          "name": "_blockNumber",
          "type": "uint256"
        }
      ],
      "name": "revokeDelegationAt",
      "outputs": [],
      "stateMutability": "nonpayable",
      "type": "function"
    },
    {
      "inputs": [
        {
          "internalType": "address[]",
          "name": "_recipients",
          "type": "address[]"
        }
      ],
      "name": "setAllowedClaimRecipients",
      "outputs": [],
      "stateMutability": "nonpayable",
      "type": "function"
    },
    {
      "inputs": [
        {
          "internalType": "address[]",
          "name": "_executors",
          "type": "address[]"
        },
        {
          "internalType": "bool",
          "name": "_enableDelegationAccount",
          "type": "bool"
        }
      ],
      "name": "setAutoClaiming",
      "outputs": [],
      "stateMutability": "payable",
      "type": "function"
    },
    {
      "inputs": [
        {
          "internalType": "address[]",
          "name": "_executors",
          "type": "address[]"
        }
      ],
      "name": "setClaimExecutors",
      "outputs": [],
      "stateMutability": "payable",
      "type": "function"
    },
    {
      "inputs": [
        {
          "internalType": "address",
          "name": "_libraryAddress",
          "type": "address"
        }
      ],
      "name": "setLibraryAddress",
      "outputs": [],
      "stateMutability": "nonpayable",
      "type": "function"
    },
    {
      "inputs": [
        {
          "internalType": "uint256",
          "name": "_maxFeeValueWei",
          "type": "uint256"
        }
      ],
      "name": "setMaxFeeValueWei",
      "outputs": [],
      "stateMutability": "nonpayable",
      "type": "function"
    },
    {
      "inputs": [
        {
          "internalType": "uint256",
          "name": "_minFeeValueWei",
          "type": "uint256"
        }
      ],
      "name": "setMinFeeValueWei",
      "outputs": [],
      "stateMutability": "nonpayable",
      "type": "function"
    },
    {
      "inputs": [
        {
          "internalType": "uint256",
          "name": "_registerExecutorFeeValueWei",
          "type": "uint256"
        }
      ],
      "name": "setRegisterExecutorFeeValueWei",
      "outputs": [],
      "stateMutability": "nonpayable",
      "type": "function"
    },
    {
      "inputs": [],
      "name": "switchToProductionMode",
      "outputs": [],
      "stateMutability": "nonpayable",
      "type": "function"
    },
    {
      "inputs": [
        {
          "internalType": "bytes4",
          "name": "",
          "type": "bytes4"
        }
      ],
      "name": "timelockedCalls",
      "outputs": [
        {
          "internalType": "uint256",
          "name": "allowedAfterTimestamp",
          "type": "uint256"
        },
        {
          "internalType": "bytes",
          "name": "encodedCall",
          "type": "bytes"
        }
      ],
      "stateMutability": "view",
      "type": "function"
    },
    {
      "inputs": [
        {
          "internalType": "contract IERC20",
          "name": "_token",
          "type": "address"
        },
        {
          "internalType": "uint256",
          "name": "_amount",
          "type": "uint256"
        }
      ],
      "name": "transferExternalToken",
      "outputs": [],
      "stateMutability": "nonpayable",
      "type": "function"
    },
    {
      "inputs": [],
      "name": "undelegateAll",
      "outputs": [],
      "stateMutability": "nonpayable",
      "type": "function"
    },
    {
      "inputs": [],
      "name": "undelegateGovernance",
      "outputs": [],
      "stateMutability": "nonpayable",
      "type": "function"
    },
    {
      "inputs": [],
      "name": "unregisterExecutor",
      "outputs": [
        {
          "internalType": "uint256",
          "name": "_validFromEpoch",
          "type": "uint256"
        }
      ],
      "stateMutability": "nonpayable",
      "type": "function"
    },
    {
      "inputs": [
        {
          "internalType": "bytes32[]",
          "name": "_contractNameHashes",
          "type": "bytes32[]"
        },
        {
          "internalType": "address[]",
          "name": "_contractAddresses",
          "type": "address[]"
        }
      ],
      "name": "updateContractAddresses",
      "outputs": [],
      "stateMutability": "nonpayable",
      "type": "function"
    },
    {
      "inputs": [
        {
          "internalType": "uint256",
          "name": "_feeValue",
          "type": "uint256"
        }
      ],
      "name": "updateExecutorFeeValue",
      "outputs": [
        {
          "internalType": "uint256",
          "name": "",
          "type": "uint256"
        }
      ],
      "stateMutability": "nonpayable",
      "type": "function"
    },
    {
      "inputs": [],
      "name": "wNat",
      "outputs": [
        {
          "internalType": "contract WNat",
          "name": "",
          "type": "address"
        }
      ],
      "stateMutability": "view",
      "type": "function"
    },
    {
      "inputs": [
        {
          "internalType": "uint256",
          "name": "_amount",
          "type": "uint256"
        }
      ],
      "name": "withdraw",
      "outputs": [],
      "stateMutability": "nonpayable",
      "type": "function"
    }
  ],
  "bytecode": "0x60a06040523480156200001157600080fd5b5060405162004cea38038062004cea833981810160405260c08110156200003757600080fd5b508051602082015160408301516060840151608085015160a09095015193949293919290918486806001600160a01b038116156200007a576200007a816200033b565b506001600160a01b038116620000ca576040805162461bcd60e51b815260206004820152601060248201526f5f676f7665726e616e6365207a65726f60801b604482015290519081900360640190fd5b50620000d681620003fe565b50600160025560408051808201909152600a81526976616c7565207a65726f60b01b6020820152846200018a5760405162461bcd60e51b81526004018080602001828103825283818151815260200191508051906020019080838360005b838110156200014e57818101518382015260200162000134565b50505050905090810190601f1680156200017c5780820380516001836020036101000a031916815260200191505b509250505060405180910390fd5b5060408051808201909152601581527f696e76616c6964206d6178206665652076616c756500000000000000000000006020820152838311620002105760405162461bcd60e51b81526020600482018181528351602484015283519092839260449091019190850190808383600083156200014e57818101518382015260200162000134565b5060408051808201909152600a81526976616c7565207a65726f60b01b602082015281620002815760405162461bcd60e51b81526020600482018181528351602484015283519092839260449091019190850190808383600083156200014e57818101518382015260200162000134565b506080849052600383905560048290556040805184815290517fd4c19c993aeeb50b76da8b158f84806c9d235eff5b86f3a36f12a2e1dd4e6eac9181900360200190a16040805183815290517fd0f8c51945dea723082a25e6655046533b6c6d26e9ac825098d4f8d5b6594f1b9181900360200190a160058190556040805182815290517f3430b0f8e367eb352535315e9dd6e5039f3a8647528a0b6a38611c7343ce77389181900360200190a150505050505062000422565b600054600160a01b900460ff16156200039b576040805162461bcd60e51b815260206004820152601460248201527f696e697469616c6973656420213d2066616c7365000000000000000000000000604482015290519081900360640190fd5b60008054600160a01b60ff60a01b19909116176001600160a01b0319166001600160a01b03831690811790915560408051918252517f9789733827840833afc031fb2ef9ab6894271f77bad2085687cf4ae5c7bee4db916020908290030190a150565b7f714f205b2abd25bef1d06a1af944e38c113fe6160375c4e1d6d5cf28848e771955565b60805161489e6200044c600039806115a85280612391528061267a5280613924525061489e6000f3fe6080604052600436106102c95760003560e01c806387a2a0dc11610175578063c2a6e627116100dc578063dfd14c3411610095578063e25547f81161006f578063e25547f814610fcc578063e72dcdbb14610fff578063f0977215146110a2578063f5a98383146110b7576102c9565b8063dfd14c3414610ef9578063e17f212e14610f2c578063e24883b214610f41576102c9565b8063c2a6e62714610c7a578063ccce7e8614610c8f578063ce2caa5714610cac578063d2a4ac6114610cf1578063d834355014610d9f578063dc4fcda714610dc9576102c9565b80639d6a890f1161012e5780639d6a890f14610a9f5780639edbf00714610ad2578063b00c0b7614610ae7578063b302f39314610c17578063b816f51314610c2c578063bbd6fbf814610c41576102c9565b806387a2a0dc14610860578063899fd164146108755780638b1a423f1461088a5780638e28b9231461089f5780639119c494146108ed578063950b028c1461098e576102c9565b80635267a15d116102345780636e927e61116101ed578063831f16af116101c7578063831f16af146107a8578063868a660f146107d2578063869d90a5146107e757806387962abe14610811576102c9565b80636e927e611461063757806374e6310e146106c25780637a68a50814610775576102c9565b80635267a15d1461055d5780635aa6e675146105725780635ff270791461058757806362354e03146105bb57806367fc4029146105d057806369ea238714610604576102c9565b80632e1a7d4d116102865780632e1a7d4d146103e15780632e9b6afa1461040b5780633f317fe1146104355780633f8f784c146104b85780634863ba17146104f1578063489a8a4714610524576102c9565b8063026e402b146102ce57806311a7aaaa1461030957806317a1e3fc1461033a5780631ccb5194146103905780632394deb1146103b75780632d93a62e146103cc575b600080fd5b3480156102da57600080fd5b50610307600480360360408110156102f157600080fd5b506001600160a01b0381351690602001356110cc565b005b34801561031557600080fd5b5061031e61114f565b604080516001600160a01b039092168252519081900360200190f35b34801561034657600080fd5b5061036d6004803603602081101561035d57600080fd5b50356001600160a01b031661115e565b604080516001600160a01b03909316835290151560208301528051918290030190f35b34801561039c57600080fd5b506103a561118a565b60408051918252519081900360200190f35b3480156103c357600080fd5b50610307611190565b3480156103d857600080fd5b506103a56113b3565b3480156103ed57600080fd5b506103076004803603602081101561040457600080fd5b50356113b9565b34801561041757600080fd5b506103076004803603602081101561042e57600080fd5b5035611433565b34801561044157600080fd5b506104686004803603602081101561045857600080fd5b50356001600160a01b031661152d565b60408051602080825283518183015283519192839290830191858101910280838360005b838110156104a457818101518382015260200161048c565b505050509050019250505060405180910390f35b3480156104c457600080fd5b506103a5600480360360408110156104db57600080fd5b506001600160a01b0381351690602001356115a4565b3480156104fd57600080fd5b506103076004803603602081101561051457600080fd5b50356001600160a01b03166116d0565b34801561053057600080fd5b506103076004803603604081101561054757600080fd5b506001600160a01b0381351690602001356117d4565b34801561056957600080fd5b5061031e6118b7565b34801561057e57600080fd5b5061031e6118dc565b34801561059357600080fd5b50610307600480360360208110156105aa57600080fd5b50356001600160e01b03191661197f565b3480156105c757600080fd5b5061031e611ce1565b3480156105dc57600080fd5b50610307600480360360208110156105f357600080fd5b50356001600160e01b031916611cf9565b34801561061057600080fd5b5061031e6004803603602081101561062757600080fd5b50356001600160a01b0316611de1565b34801561064357600080fd5b506106676004803603604081101561065a57600080fd5b5080359060200135611dec565b6040518080602001838152602001828103825284818151815260200191508051906020019060200280838360005b838110156106ad578181015183820152602001610695565b50505050905001935050505060405180910390f35b3480156106ce57600080fd5b506106f6600480360360208110156106e557600080fd5b50356001600160e01b031916611ebc565b6040518083815260200180602001828103825283818151815260200191508051906020019080838360005b83811015610739578181015183820152602001610721565b50505050905090810190601f1680156107665780820380516001836020036101000a031916815260200191505b50935050505060405180910390f35b34801561078157600080fd5b506103076004803603602081101561079857600080fd5b50356001600160a01b0316611f62565b3480156107b457600080fd5b506103a5600480360360208110156107cb57600080fd5b5035611fc2565b3480156107de57600080fd5b506103a56120bf565b3480156107f357600080fd5b506103076004803603602081101561080a57600080fd5b5035612209565b34801561081d57600080fd5b5061084c6004803603604081101561083457600080fd5b506001600160a01b03813581169160200135166122e3565b604080519115158252519081900360200190f35b34801561086c57600080fd5b50610307612314565b34801561088157600080fd5b5061031e612380565b34801561089657600080fd5b506103a561238f565b3480156108ab57600080fd5b506108d2600480360360208110156108c257600080fd5b50356001600160a01b03166123b3565b60408051921515835260208301919091528051918290030190f35b6103076004803603602081101561090357600080fd5b810190602081018135600160201b81111561091d57600080fd5b82018360208201111561092f57600080fd5b803590602001918460208302840111600160201b8311171561095057600080fd5b9190808060200260200160405190810160405280939291908181526020018383602002808284376000920191909152509295506123df945050505050565b34801561099a57600080fd5b506109c1600480360360208110156109b157600080fd5b50356001600160a01b031661244b565b60405180806020018060200180602001848103845287818151815260200191508051906020019060200280838360005b83811015610a095781810151838201526020016109f1565b50505050905001848103835286818151815260200191508051906020019060200280838360005b83811015610a48578181015183820152602001610a30565b50505050905001848103825285818151815260200191508051906020019060200280838360005b83811015610a87578181015183820152602001610a6f565b50505050905001965050505050505060405180910390f35b348015610aab57600080fd5b5061030760048036036020811015610ac257600080fd5b50356001600160a01b03166126e3565b348015610ade57600080fd5b5061031e61279c565b348015610af357600080fd5b5061030760048036036040811015610b0a57600080fd5b810190602081018135600160201b811115610b2457600080fd5b820183602082011115610b3657600080fd5b803590602001918460208302840111600160201b83111715610b5757600080fd5b9190808060200260200160405190810160405280939291908181526020018383602002808284376000920191909152509295949360208101935035915050600160201b811115610ba657600080fd5b820183602082011115610bb857600080fd5b803590602001918460208302840111600160201b83111715610bd957600080fd5b9190808060200260200160405190810160405280939291908181526020018383602002808284376000920191909152509295506127ab945050505050565b348015610c2357600080fd5b50610307612856565b348015610c3857600080fd5b5061031e6128ae565b348015610c4d57600080fd5b5061030760048036036040811015610c6457600080fd5b506001600160a01b0381351690602001356128bd565b348015610c8657600080fd5b506103a5612924565b6103a560048036036020811015610ca557600080fd5b503561292a565b348015610cb857600080fd5b5061030760048036036060811015610ccf57600080fd5b506001600160a01b038135811691602081013582169160409091013516612cef565b348015610cfd57600080fd5b5061030760048036036020811015610d1457600080fd5b810190602081018135600160201b811115610d2e57600080fd5b820183602082011115610d4057600080fd5b803590602001918460208302840111600160201b83111715610d6157600080fd5b919080806020026020016040519081016040528093929190818152602001838360200280828437600092019190915250929550612ee3945050505050565b348015610dab57600080fd5b5061030760048036036020811015610dc257600080fd5b5035612f85565b348015610dd557600080fd5b5061030760048036036040811015610dec57600080fd5b810190602081018135600160201b811115610e0657600080fd5b820183602082011115610e1857600080fd5b803590602001918460208302840111600160201b83111715610e3957600080fd5b9190808060200260200160405190810160405280939291908181526020018383602002808284376000920191909152509295949360208101935035915050600160201b811115610e8857600080fd5b820183602082011115610e9a57600080fd5b803590602001918460208302840111600160201b83111715610ebb57600080fd5b919080806020026020016040519081016040528093929190818152602001838360200280828437600092019190915250929550613071945050505050565b348015610f0557600080fd5b5061046860048036036020811015610f1c57600080fd5b50356001600160a01b0316613159565b348015610f3857600080fd5b5061084c6131cd565b348015610f4d57600080fd5b5061066760048036036040811015610f6457600080fd5b6001600160a01b038235169190810190604081016020820135600160201b811115610f8e57600080fd5b820183602082011115610fa057600080fd5b803590602001918460208302840111600160201b83111715610fc157600080fd5b5090925090506131dd565b348015610fd857600080fd5b506103a560048036036020811015610fef57600080fd5b50356001600160a01b0316613345565b6103076004803603604081101561101557600080fd5b810190602081018135600160201b81111561102f57600080fd5b82018360208201111561104157600080fd5b803590602001918460208302840111600160201b8311171561106257600080fd5b91908080602002602001604051908101604052809392919081815260200183836020028082843760009201919091525092955050505035151590506133ca565b3480156110ae57600080fd5b5061031e613447565b3480156110c357600080fd5b50610307613451565b6110d533613518565b6007546040805163c26f3acf60e01b81526001600160a01b0392831660048201528583166024820152604481018590529051929091169163c26f3acf9160648082019260009290919082900301818387803b15801561113357600080fd5b505af1158015611147573d6000803e3d6000fd5b505050505050565b6006546001600160a01b031681565b6001600160a01b039081166000908152600a602052604090205490811691600160a01b90910460ff1690565b60035481565b336000908152600a60209081526040918290208054835180850190945260158452741b9bc819195b1959d85d1a5bdb881858d8dbdd5b9d605a1b92840192909252916001600160a01b0390911690816112675760405162461bcd60e51b81526004018080602001828103825283818151815260200191508051906020019080838360005b8381101561122c578181015183820152602001611214565b50505050905090810190601f1680156112595780820380516001836020036101000a031916815260200191505b509250505060405180910390fd5b50815460ff60a01b19168255600754604080516370a0823160e01b81526001600160a01b038481166004830152915160009392909216916370a0823191602480820192602092909190829003018186803b1580156112c457600080fd5b505afa1580156112d8573d6000803e3d6000fd5b505050506040513d60208110156112ee57600080fd5b505190508015611366576007546040805163f3fef3a360e01b81526001600160a01b0392831660048201526024810184905290519184169163f3fef3a39160448082019260009290919082900301818387803b15801561134d57600080fd5b505af1158015611361573d6000803e3d6000fd5b505050505b604080513381526001600160a01b038416602082015260008183015290517f6b14bb02864915d8be387126f50c6f28c13dd4c78186a44c349b449e0127677f9181900360600190a1505050565b60055481565b6113c233613518565b6007546040805163f3fef3a360e01b81526001600160a01b039283166004820152602481018590529051929091169163f3fef3a39160448082019260009290919082900301818387803b15801561141857600080fd5b505af115801561142c573d6000803e3d6000fd5b5050505050565b600054600160b01b900460ff16806114555750600054600160a81b900460ff16155b1561151f57611462613536565b600354811160405180604001604052806015815260200174696e76616c6964206d6178206665652076616c756560581b815250906114e15760405162461bcd60e51b815260206004820181815283516024840152835190928392604490910191908501908083836000831561122c578181015183820152602001611214565b5060048190556040805182815290517fd0f8c51945dea723082a25e6655046533b6c6d26e9ac825098d4f8d5b6594f1b9181900360200190a161152a565b61152a60003661356d565b50565b6001600160a01b0381166000908152600c602090815260409182902080548351818402810184019094528084526060939283018282801561159757602002820191906000526020600020905b81546001600160a01b03168152600190910190602001808311611579575b505050505090505b919050565b60007f0000000000000000000000000000000000000000000000000000000000000000600660009054906101000a90046001600160a01b03166001600160a01b031663e7c830d46040518163ffffffff1660e01b815260040160206040518083038186803b15801561161557600080fd5b505afa158015611629573d6000803e3d6000fd5b505050506040513d602081101561163f57600080fd5b50516040805180820190915260148152730d2dcecc2d8d2c840e4caeec2e4c840cae0dec6d60631b602082015291018311156116bc5760405162461bcd60e51b815260206004820181815283516024840152835190928392604490910191908501908083836000831561122c578181015183820152602001611214565b506116c783836136fd565b90505b92915050565b600054600160b01b900460ff16806116f25750600054600160a81b900460ff16155b1561151f576116ff613536565b60408051808201909152600c81526b61646472657373207a65726f60a01b60208201526001600160a01b0382166117775760405162461bcd60e51b815260206004820181815283516024840152835190928392604490910191908501908083836000831561122c578181015183820152602001611214565b50600980546001600160a01b0319166001600160a01b03838116919091179182905560408051929091168252517f8090fc49ca947f0d2c36cc012d57cbde7d77bc103c52d8712c0f5ba17703b4da916020908290030190a161152a565b60028054141561182b576040805162461bcd60e51b815260206004820152601f60248201527f5265656e7472616e637947756172643a207265656e7472616e742063616c6c00604482015290519081900360640190fd5b6002805561183833613518565b600754604080516317de921960e11b81526001600160a01b03928316600482015285831660248201526044810185905290519290911691632fbd24329160648082019260009290919082900301818387803b15801561189657600080fd5b505af11580156118aa573d6000803e3d6000fd5b5050600160025550505050565b7f714f205b2abd25bef1d06a1af944e38c113fe6160375c4e1d6d5cf28848e77195490565b60008054600160a81b900460ff166118ff576000546001600160a01b0316611979565b73183faff6997c98a812a3b98748fc80241d08f3126001600160a01b031663732524946040518163ffffffff1660e01b815260040160206040518083038186803b15801561194c57600080fd5b505afa158015611960573d6000803e3d6000fd5b505050506040513d602081101561197657600080fd5b50515b90505b90565b60408051630debfda360e41b8152336004820152905173183faff6997c98a812a3b98748fc80241d08f3129163debfda30916024808301926020929190829003018186803b1580156119d057600080fd5b505afa1580156119e4573d6000803e3d6000fd5b505050506040513d60208110156119fa57600080fd5b5051611a3d576040805162461bcd60e51b815260206004820152600d60248201526c37b7363c9032bc32b1baba37b960991b604482015290519081900360640190fd5b6001600160e01b0319811660009081526001602052604090208054611aa9576040805162461bcd60e51b815260206004820152601a60248201527f74696d656c6f636b3a20696e76616c69642073656c6563746f72000000000000604482015290519081900360640190fd5b8054421015611aff576040805162461bcd60e51b815260206004820152601960248201527f74696d656c6f636b3a206e6f7420616c6c6f7765642079657400000000000000604482015290519081900360640190fd5b6000816001018054600181600116156101000203166002900480601f016020809104026020016040519081016040528092919081815260200182805460018160011615610100020316600290048015611b995780601f10611b6e57610100808354040283529160200191611b99565b820191906000526020600020905b815481529060010190602001808311611b7c57829003601f168201915b5050506001600160e01b0319861660009081526001602081905260408220828155949550909250611bcd9150830182614783565b50506000805460ff60b01b1916600160b01b178155604051825130918491819060208401908083835b60208310611c155780518252601f199092019160209182019101611bf6565b6001836020036101000a0380198251168184511680821785525050505050509050019150506000604051808303816000865af19150503d8060008114611c77576040519150601f19603f3d011682016040523d82523d6000602084013e611c7c565b606091505b50506000805460ff60b01b19169055604080516001600160e01b03198716815242602082015281519293507fa7326b57fc9cfe267aaea5e7f0b01757154d265620a0585819416ee9ddd2c438929081900390910190a1611cdb81613782565b50505050565b73183faff6997c98a812a3b98748fc80241d08f31281565b611d0161379f565b6001600160e01b03198116600090815260016020526040902054611d6c576040805162461bcd60e51b815260206004820152601a60248201527f74696d656c6f636b3a20696e76616c69642073656c6563746f72000000000000604482015290519081900360640190fd5b604080516001600160e01b03198316815242602082015281517f7735b2391c38a81419c513e30ca578db7158eadd7101511b23e221c654d19cf8929181900390910190a16001600160e01b03198116600090815260016020819052604082208281559190611ddc90830182614783565b505050565b60006116ca82613518565b600f8054606091611dfd84836137fe565b9350611e0985856137fe565b945084840367ffffffffffffffff81118015611e2457600080fd5b50604051908082528060200260200182016040528015611e4e578160200160208202803683370190505b509250845b84811015611eb357818181548110611e6757fe5b9060005260206000200160009054906101000a90046001600160a01b03168487830381518110611e9357fe5b6001600160a01b0390921660209283029190910190910152600101611e53565b50509250929050565b600160208181526000928352604092839020805481840180548651600296821615610100026000190190911695909504601f81018590048502860185019096528585529094919392909190830182828015611f585780601f10611f2d57610100808354040283529160200191611f58565b820191906000526020600020905b815481529060010190602001808311611f3b57829003601f168201915b5050505050905082565b611f6b33613518565b60085460408051630ebaf21560e11b81526001600160a01b039283166004820152848316602482015290519290911691631d75e42a9160448082019260009290919082900301818387803b15801561141857600080fd5b336000908152601060209081526040808320548151808301909252600e82526d1b9bdd081c9959da5cdd195c995960921b92820192909252906120465760405162461bcd60e51b815260206004820181815283516024840152835190928392604490910191908501908083836000831561122c578181015183820152602001611214565b50600654604080516339f20c3560e21b815290516116ca926001600160a01b03169163e7c830d4916004808301926020929190829003018186803b15801561208d57600080fd5b505afa1580156120a1573d6000803e3d6000fd5b505050506040513d60208110156120b757600080fd5b505183613814565b336000908152601060209081526040808320548151808301909252600e82526d1b9bdd081c9959da5cdd195c995960921b92820192909252906121435760405162461bcd60e51b815260206004820181815283516024840152835190928392604490910191908501908083836000831561122c578181015183820152602001611214565b5061214f600f33613aa3565b600654604080516339f20c3560e21b815290516121c8926001600160a01b03169163e7c830d4916004808301926020929190829003018186803b15801561219557600080fd5b505afa1580156121a9573d6000803e3d6000fd5b505050506040513d60208110156121bf57600080fd5b50516000613814565b604080513381526020810183905281519293507fca196d89e58017396a0dd5f40be062f1fcda9b7c9028b06700e0aa775887d336929081900390910190a190565b600054600160b01b900460ff168061222b5750600054600160a81b900460ff16155b1561151f57612238613536565b60408051808201909152600a81526976616c7565207a65726f60b01b6020820152816122a55760405162461bcd60e51b815260206004820181815283516024840152835190928392604490910191908501908083836000831561122c578181015183820152602001611214565b5060058190556040805182815290517f3430b0f8e367eb352535315e9dd6e5039f3a8647528a0b6a38611c7343ce77389181900360200190a161152a565b6001600160a01b039182166000908152600c6020908152604080832093909416825260019092019091522054151590565b61231d33613518565b600854604080516312f9391f60e31b81526001600160a01b039283166004820152905192909116916397c9c8f89160248082019260009290919082900301818387803b15801561236c57600080fd5b505af1158015611cdb573d6000803e3d6000fd5b6008546001600160a01b031681565b7f000000000000000000000000000000000000000000000000000000000000000081565b6001600160a01b0381166000908152601060205260408120541515906123d883613345565b9050915091565b600280541415612436576040805162461bcd60e51b815260206004820152601f60248201527f5265656e7472616e637947756172643a207265656e7472616e742063616c6c00604482015290519081900360640190fd5b6002805561244381613b9e565b506001600255565b6001600160a01b0381166000908152600e6020526040902080546060918291829190156126db57600654604080516339f20c3560e21b815290516000926001600160a01b03169163e7c830d4916004808301926020929190829003018186803b1580156124b757600080fd5b505afa1580156124cb573d6000803e3d6000fd5b505050506040513d60208110156124e157600080fd5b505182549091505b60008111801561251857508183600183038154811061250457fe5b906000526020600020906002020160010154115b1561252657600019016124e9565b825481900380156126d7578067ffffffffffffffff8111801561254857600080fd5b50604051908082528060200260200182016040528015612572578160200160208202803683370190505b5096508067ffffffffffffffff8111801561258c57600080fd5b506040519080825280602002602001820160405280156125b6578160200160208202803683370190505b5095508067ffffffffffffffff811180156125d057600080fd5b506040519080825280602002602001820160405280156125fa578160200160208202803683370190505b50945060005b818110156126d557848382018154811061261657fe5b90600052602060002090600202016000015488828151811061263457fe5b602002602001018181525050848382018154811061264e57fe5b90600052602060002090600202016001015487828151811061266c57fe5b6020026020010181815250507f0000000000000000000000000000000000000000000000000000000000000000848883815181106126a657fe5b60200260200101510314158682815181106126bd57fe5b91151560209283029190910190910152600101612600565b505b5050505b509193909250565b600054600160a01b900460ff1615612739576040805162461bcd60e51b8152602060048201526014602482015273696e697469616c6973656420213d2066616c736560601b604482015290519081900360640190fd5b60008054600160a01b60ff60a01b19909116176001600160a01b0319166001600160a01b03831690811790915560408051918252517f9789733827840833afc031fb2ef9ab6894271f77bad2085687cf4ae5c7bee4db916020908290030190a150565b6007546001600160a01b031681565b6127b36118b7565b6001600160a01b0316336001600160a01b03161461280f576040805162461bcd60e51b815260206004820152601460248201527337b7363c9030b2323932b9b9903ab83230ba32b960611b604482015290519081900360640190fd5b61284861284383836040518060400160405280600e81526020016d20b2323932b9b9aab83230ba32b960911b815250613f19565b614046565b612852828261406a565b5050565b61285f33613518565b60075460408051635eb71cfb60e01b81526001600160a01b03928316600482015290519290911691635eb71cfb9160248082019260009290919082900301818387803b15801561236c57600080fd5b6009546001600160a01b031681565b6128c633613518565b6007546040805163a3ea6d1b60e01b81526001600160a01b0392831660048201528583166024820152604481018590529051929091169163a3ea6d1b9160648082019260009290919082900301818387803b15801561113357600080fd5b60045481565b3360009081526010602090815260408083205481518083019092526012825271185b1c9958591e481c9959da5cdd195c995960721b9282019290925290156129b35760405162461bcd60e51b815260206004820181815283516024840152835190928392604490910191908501908083836000831561122c578181015183820152602001611214565b5034600554146040518060400160405280601a81526020017f696e76616c6964206578656375746f72206665652076616c756500000000000081525090612a3b5760405162461bcd60e51b815260206004820181815283516024840152835190928392604490910191908501908083836000831561122c578181015183820152602001611214565b5060405161dead903480156108fc02916000818181858888f19350505050158015612a6a573d6000803e3d6000fd5b50612a76600f3361423a565b6040805133815290517f12ad16bd2a8e5f789a2584f92dba7594ec459e9eb0d00b0dba8843f6c59f035b9181900360200190a1600654604080516339f20c3560e21b815290516000926001600160a01b03169163e7c830d4916004808301926020929190829003018186803b158015612aee57600080fd5b505afa158015612b02573d6000803e3d6000fd5b505050506040513d6020811015612b1857600080fd5b5051336000908152600e602052604090208054919250901580612b5e57508054829082906000198101908110612b4a57fe5b906000526020600020906002020160010154105b15612cdc5760035484101560405180604001604052806011815260200170696e76616c6964206665652076616c756560781b81525090612bdf5760405162461bcd60e51b815260206004820181815283516024840152835190928392604490910191908501908083836000831561122c578181015183820152602001611214565b5060045484111560405180604001604052806011815260200170696e76616c6964206665652076616c756560781b81525090612c5c5760405162461bcd60e51b815260206004820181815283516024840152835190928392604490910191908501908083836000831561122c578181015183820152602001611214565b5060408051808201825285815260208082018581528454600181810187556000878152849020945160029092029094019081559051920191909155815133815290810184905280820186905290517f2d3861738ea045c57d93f6cb1effae023d50ae0636d82ce16608c4bcea553a729181900360600190a150905061159f565b612ce68285613814565b9250505061159f565b826001600160a01b0316826001600160a01b03161480612d285750612d1383613518565b6001600160a01b0316826001600160a01b0316145b15612d3257611ddc565b6001600160a01b038083166000908152600b6020526040902054168015612d57578092505b6001600160a01b038084166000908152600c6020908152604080832093881683526001909301815290829020548251808401909352601683527537b7363c9037bbb732b91037b91032bc32b1baba37b960511b91830191909152612dfc5760405162461bcd60e51b815260206004820181815283516024840152835190928392604490910191908501908083836000831561122c578181015183820152602001611214565b50826001600160a01b0316826001600160a01b03161480612e4557506001600160a01b038084166000908152600d60209081526040808320938616835260019093019052205415155b80612e695750612e5483613518565b6001600160a01b0316826001600160a01b0316145b604051806040016040528060158152602001741c9958da5c1a595b9d081b9bdd08185b1b1bddd959605a1b8152509061142c5760405162461bcd60e51b815260206004820181815283516024840152835190928392604490910191908501908083836000831561122c578181015183820152602001611214565b336000908152600d60205260409020612efc90826142a3565b7ff650948f1320658fded6be6217b1fe9963894116bc6b3dbc9b1c2cc8cf2cb11f338260405180836001600160a01b0316815260200180602001828103825283818151815260200191508051906020019060200280838360005b83811015612f6e578181015183820152602001612f56565b50505050905001935050505060405180910390a150565b600054600160b01b900460ff1680612fa75750600054600160a81b900460ff16155b1561151f57612fb4613536565b600454811060405180604001604052806015815260200174696e76616c6964206d696e206665652076616c756560581b815250906130335760405162461bcd60e51b815260206004820181815283516024840152835190928392604490910191908501908083836000831561122c578181015183820152602001611214565b5060038190556040805182815290517fd4c19c993aeeb50b76da8b158f84806c9d235eff5b86f3a36f12a2e1dd4e6eac9181900360200190a161152a565b61307a33613518565b600754604051635d3a94a760e11b81526001600160a01b0391821660048201818152606060248401908152875160648501528751959094169463ba75294e9492938893889392909160448101916084909101906020808801910280838360005b838110156130f25781810151838201526020016130da565b50505050905001838103825284818151815260200191508051906020019060200280838360005b83811015613131578181015183820152602001613119565b5050505090500195505050505050600060405180830381600087803b15801561113357600080fd5b6001600160a01b0381166000908152600d6020908152604091829020805483518184028101840190945280845260609392830182828015611597576020028201919060005260206000209081546001600160a01b031681526001909101906020018083116115795750505050509050919050565b600054600160a81b900460ff1681565b606060008484848080602002602001604051908101604052809392919081815260200183836020028082843760009201919091525061322292508491508390506142b6565b848067ffffffffffffffff8111801561323a57600080fd5b50604051908082528060200260200182016040528015613264578160200160208202803683370190505b5094505b801561332f5760001901600087878381811061328057fe5b602090810292909201356001600160a01b03166000818152600a9093526040909220805492935091600160a01b900460ff161590506132fa57805487516001600160a01b03909116908890859081106132d557fe5b60200260200101906001600160a01b031690816001600160a01b031681525050613328565b8187848151811061330757fe5b60200260200101906001600160a01b031690816001600160a01b0316815250505b5050613268565b61333888613345565b9350505050935093915050565b60006116ca82600660009054906101000a90046001600160a01b03166001600160a01b031663e7c830d46040518163ffffffff1660e01b815260040160206040518083038186803b15801561339957600080fd5b505afa1580156133ad573d6000803e3d6000fd5b505050506040513d60208110156133c357600080fd5b50516136fd565b600280541415613421576040805162461bcd60e51b815260206004820152601f60248201527f5265656e7472616e637947756172643a207265656e7472616e742063616c6c00604482015290519081900360640190fd5b6002805561342e82613b9e565b801561343e5761343c6143d8565b505b50506001600255565b60006119796143d8565b61345961379f565b600054600160a81b900460ff16156134b8576040805162461bcd60e51b815260206004820152601a60248201527f616c726561647920696e2070726f64756374696f6e206d6f6465000000000000604482015290519081900360640190fd5b60008054600161ff0160a01b031916600160a81b1790556040805173183faff6997c98a812a3b98748fc80241d08f312815290517f83af113638b5422f9e977cebc0aaf0eaf2188eb9a8baae7f9d46c42b33a1560c9181900360200190a1565b6001600160a01b039081166000908152600a60205260409020541690565b600054600160b01b900460ff16156135635733301461355157fe5b6000805460ff60b01b1916905561356b565b61356b61379f565b565b61357561379f565b600082359050600073183faff6997c98a812a3b98748fc80241d08f3126001600160a01b0316636221a54b6040518163ffffffff1660e01b815260040160206040518083038186803b1580156135ca57600080fd5b505afa1580156135de573d6000803e3d6000fd5b505050506040513d60208110156135f457600080fd5b505160408051808201825242830180825282516020601f89018190048102820181019094528781529394509290918281019190889088908190840183828082843760009201829052509390945250506001600160e01b03198616815260016020818152604090922084518155848301518051919450613678939285019201906147c7565b509050507fed948300a3694aa01d4a6b258bfd664350193d770c0b51f8387277f6d83ea3b68382878760405180856001600160e01b0319168152602001848152602001806020018281038252848482818152602001925080828437600083820152604051601f909101601f191690920182900397509095505050505050a15050505050565b6001600160a01b0382166000908152600e6020526040812080545b80156137775781546000199091019082908290811061373357fe5b90600052602060002090600202016001015484106137725781818154811061375757fe5b906000526020600020906002020160000154925050506116ca565b613718565b506000949350505050565b3d604051818101604052816000823e821561379b578181f35b8181fd5b6137a76118dc565b6001600160a01b0316336001600160a01b03161461356b576040805162461bcd60e51b815260206004820152600f60248201526e6f6e6c7920676f7665726e616e636560881b604482015290519081900360640190fd5b600081831061380d57816116c7565b5090919050565b600060035482101560405180604001604052806011815260200170696e76616c6964206665652076616c756560781b815250906138925760405162461bcd60e51b815260206004820181815283516024840152835190928392604490910191908501908083836000831561122c578181015183820152602001611214565b5060045482111560405180604001604052806011815260200170696e76616c6964206665652076616c756560781b8152509061390f5760405162461bcd60e51b815260206004820181815283516024840152835190928392604490910191908501908083836000831561122c578181015183820152602001611214565b5050336000908152600e6020526040902080547f0000000000000000000000000000000000000000000000000000000000000000840191908061394e57fe5b600082600183038154811061395f57fe5b906000526020600020906002020160010154905080841015604051806040016040528060168152602001751999594818d85b881b9bdd081899481d5c19185d195960521b815250906139f25760405162461bcd60e51b815260206004820181815283516024840152835190928392604490910191908501908083836000831561122c578181015183820152602001611214565b5080841415613a215784836001840381548110613a0b57fe5b6000918252602090912060029091020155613a5a565b60408051808201909152858152602080820186815285546001818101885560008881529390932093516002909102909301928355519101555b604080513381526020810186905280820187905290517f2d3861738ea045c57d93f6cb1effae023d50ae0636d82ce16608c4bcea553a729181900360600190a150505092915050565b6001600160a01b038116600090815260018301602052604090205480613ac95750612852565b8254811015613b5157825460009084906000198101908110613ae757fe5b60009182526020909120015484546001600160a01b039091169150819085906000198501908110613b1457fe5b600091825260208083209190910180546001600160a01b0319166001600160a01b0394851617905592909116815260018501909152604090208190555b8254839080613b5c57fe5b60008281526020808220830160001990810180546001600160a01b03191690559092019092556001600160a01b03841682526001850190526040812055505050565b6000805b8251811015613ce7576000838281518110613bb957fe5b602090810291909101810151336000908152600c835260408082206001600160a01b0384168352600101909352919091205490915015613bf95750613cdf565b6000613c0482613345565b90508015613cdc57604051938101936000906001600160a01b0384169083908381818185875af1925050503d8060008114613c5b576040519150601f19603f3d011682016040523d82523d6000602084013e613c60565b606091505b50509050806040518060400160405280600f81526020016e1d1c985b9cd9995c8819985a5b1959608a1b81525090613cd95760405162461bcd60e51b815260206004820181815283516024840152835190928392604490910191908501908083836000831561122c578181015183820152602001611214565b50505b50505b600101613ba2565b5060408051808201909152601a81527f696e76616c6964206578656375746f72206665652076616c7565000000000000602082015234821115613d6b5760405162461bcd60e51b815260206004820181815283516024840152835190928392604490910191908501908083836000831561122c578181015183820152602001611214565b50336000908152600c60205260409020613d8590836142a3565b7fa802dcd9d0db82c5fc0b043e16d9ab77391cff1b84415bce9e95c4a8d6fe7146338360405180836001600160a01b0316815260200180602001828103825283818151815260200191508051906020019060200280838360005b83811015613df7578181015183820152602001613ddf565b50505050905001935050505060405180910390a18034111561285257604051600090339034849003908381818185875af1925050503d8060008114613e58576040519150601f19603f3d011682016040523d82523d6000602084013e613e5d565b606091505b50509050806040518060400160405280600f81526020016e1d1c985b9cd9995c8819985a5b1959608a1b81525090613ed65760405162461bcd60e51b815260206004820181815283516024840152835190928392604490910191908501908083836000831561122c578181015183820152602001611214565b506040805133815234849003602082015281517f5e2acd65cfd8b8ca35bfb8979a317cc26bd4c39fe46642a01d6e9728fd741676929181900390910190a1505050565b600080826040516020018080602001828103825283818151815260200191508051906020019080838360005b83811015613f5d578181015183820152602001613f45565b50505050905090810190601f168015613f8a5780820380516001836020036101000a031916815260200191505b50925050506040516020818303038152906040528051906020012090506000805b8651811015613ff257868181518110613fc057fe5b6020026020010151831415613fea57858181518110613fdb57fe5b60200260200101519150613ff2565b600101613fab565b506001600160a01b03811661403d576040805162461bcd60e51b815260206004820152600c60248201526b61646472657373207a65726f60a01b604482015290519081900360640190fd5b95945050505050565b7f714f205b2abd25bef1d06a1af944e38c113fe6160375c4e1d6d5cf28848e771955565b61409882826040518060400160405280600b81526020016a233a39b7a6b0b730b3b2b960a91b815250613f19565b600660006101000a8154816001600160a01b0302191690836001600160a01b0316021790555060006140e783836040518060400160405280600481526020016315d3985d60e21b815250613f19565b6007549091506001600160a01b031661411a57600780546001600160a01b0319166001600160a01b03831617905561419c565b6007546001600160a01b0382811691161461419c57604080518082018252601281527177726f6e6720774e6174206164647265737360701b6020808301918252925162461bcd60e51b8152600481019384528251602482015282519293928392604490920191908083836000831561122c578181015183820152602001611214565b600760009054906101000a90046001600160a01b03166001600160a01b0316638c2b8ae16040518163ffffffff1660e01b815260040160206040518083038186803b1580156141ea57600080fd5b505afa1580156141fe573d6000803e3d6000fd5b505050506040513d602081101561421457600080fd5b5051600880546001600160a01b0319166001600160a01b03909216919091179055505050565b6001600160a01b03811660009081526001830160205260409020541561425f57612852565b8154600180820184556000848152602080822090930180546001600160a01b0319166001600160a01b03959095169485179055845493815293019052604090912055565b6142ac8261444a565b61285282826144c2565b60005b8151811015611ddc578181815181106142ce57fe5b60200260200101516001600160a01b0316836001600160a01b031614806143545750600c600083838151811061430057fe5b60200260200101516001600160a01b03166001600160a01b031681526020019081526020016000206001016000846001600160a01b03166001600160a01b0316815260200190815260200160002054600014155b6040518060400160405280601681526020017537b7363c9037bbb732b91037b91032bc32b1baba37b960511b815250906143cf5760405162461bcd60e51b815260206004820181815283516024840152835190928392604490910191908501908083836000831561122c578181015183820152602001611214565b506001016142b9565b6000806143e36144f3565b805460ff60a01b198116600160a01b178255604080513381526001600160a01b03909216602083018190526001838301529051929350917f6b14bb02864915d8be387126f50c6f28c13dd4c78186a44c349b449e0127677f9181900360600190a191505090565b80541561152a57805460018201906000908390600019810190811061446b57fe5b60009182526020808320909101546001600160a01b03168352820192909252604001812055805481908061449b57fe5b600082815260209020810160001990810180546001600160a01b031916905501905561444a565b60005b8151811015611ddc576144eb838383815181106144de57fe5b602002602001015161423a565b6001016144c5565b336000908152600a6020526040812080546001600160a01b03161561451957905061197c565b60095460408051808201909152601b81527f6c6962726172792061646472657373206e6f74207365742079657400000000006020820152906001600160a01b03166145a55760405162461bcd60e51b815260206004820181815283516024840152835190928392604490910191908501908083836000831561122c578181015183820152602001611214565b506009546000906145be906001600160a01b0316614725565b90506145c981614777565b6040518060400160405280601e81526020017f636c6f6e65206e6f74207375636365737366756c6c79206372656174656400008152509061464b5760405162461bcd60e51b815260206004820181815283516024840152835190928392604490910191908501908083836000831561122c578181015183820152602001611214565b506040805163485cc95560e01b815233600482015230602482015290516001600160a01b0383169163485cc95591604480830192600092919082900301818387803b15801561469957600080fd5b505af11580156146ad573d6000803e3d6000fd5b505083546001600160a01b03199081166001600160a01b03851690811786556000818152600b6020908152604091829020805433951685179055815193845283019190915280517f067334ffa267058baddf27c0e52daca24c08c44f73b07e5b84d551cb2c488235945091829003019150a150905090565b6000808260601b9050604051733d602d80600a3d3981f3363d3d373d3d3d363d7360601b81528160148201526e5af43d82803e903d91602b57fd5bf360881b60288201526037816000f0949350505050565b3b63ffffffff16151590565b50805460018160011615610100020316600290046000825580601f106147a9575061152a565b601f01602090049060005260206000209081019061152a9190614853565b828054600181600116156101000203166002900490600052602060002090601f0160209004810192826147fd5760008555614843565b82601f1061481657805160ff1916838001178555614843565b82800160010185558215614843579182015b82811115614843578251825591602001919060010190614828565b5061484f929150614853565b5090565b5b8082111561484f576000815560010161485456fea264697066735822122019fb8160b0620f86681cceb1be52e43068795a4f65e34ef25e138f35768a984d64736f6c63430007060033",
  "linkReferences": {},
  "deployedLinkReferences": {}
}