{
  "_format": "hh-sol-artifact-1",
  "contractName": "FtsoRewardManager",
  "sourceName": "contracts/tokenPools/implementation/FtsoRewardManager.sol",
  "abi": [
    {
      "inputs": [
        {
          "internalType": "address",
          "name": "_governance",
          "type": "address"
        },
        {
          "internalType": "address",
          "name": "_addressUpdater",
          "type": "address"
        },
        {
          "internalType": "address",
          "name": "_oldFtsoRewardManager",
          "type": "address"
        },
        {
          "internalType": "uint256",
          "name": "_feePercentageUpdateOffset",
          "type": "uint256"
        },
        {
          "internalType": "uint256",
          "name": "_defaultFeePercentage",
          "type": "uint256"
        }
      ],
      "stateMutability": "nonpayable",
      "type": "constructor"
    },
    {
      "anonymous": false,
      "inputs": [
        {
          "indexed": false,
          "internalType": "uint256",
          "name": "authorizedAmountWei",
          "type": "uint256"
        }
      ],
      "name": "DailyAuthorizedInflationSet",
      "type": "event"
    },
    {
      "anonymous": false,
      "inputs": [
        {
          "indexed": true,
          "internalType": "address",
          "name": "dataProvider",
          "type": "address"
        },
        {
          "indexed": false,
          "internalType": "uint256",
          "name": "value",
          "type": "uint256"
        },
        {
          "indexed": false,
          "internalType": "uint256",
          "name": "validFromEpoch",
          "type": "uint256"
        }
      ],
      "name": "FeePercentageChanged",
      "type": "event"
    },
    {
      "anonymous": false,
      "inputs": [
        {
          "indexed": false,
          "internalType": "address",
          "name": "ftsoRewardManager",
          "type": "address"
        }
      ],
      "name": "FtsoRewardManagerActivated",
      "type": "event"
    },
    {
      "anonymous": false,
      "inputs": [
        {
          "indexed": false,
          "internalType": "address",
          "name": "ftsoRewardManager",
          "type": "address"
        }
      ],
      "name": "FtsoRewardManagerDeactivated",
      "type": "event"
    },
    {
      "anonymous": false,
      "inputs": [
        {
          "indexed": false,
          "internalType": "bytes4",
          "name": "selector",
          "type": "bytes4"
        },
        {
          "indexed": false,
          "internalType": "uint256",
          "name": "allowedAfterTimestamp",
          "type": "uint256"
        },
        {
          "indexed": false,
          "internalType": "bytes",
          "name": "encodedCall",
          "type": "bytes"
        }
      ],
      "name": "GovernanceCallTimelocked",
      "type": "event"
    },
    {
      "anonymous": false,
      "inputs": [
        {
          "indexed": false,
          "internalType": "address",
          "name": "initialGovernance",
          "type": "address"
        }
      ],
      "name": "GovernanceInitialised",
      "type": "event"
    },
    {
      "anonymous": false,
      "inputs": [
        {
          "indexed": false,
          "internalType": "address",
          "name": "governanceSettings",
          "type": "address"
        }
      ],
      "name": "GovernedProductionModeEntered",
      "type": "event"
    },
    {
      "anonymous": false,
      "inputs": [
        {
          "indexed": false,
          "internalType": "uint256",
          "name": "amountReceivedWei",
          "type": "uint256"
        }
      ],
      "name": "InflationReceived",
      "type": "event"
    },
    {
      "anonymous": false,
      "inputs": [
        {
          "indexed": true,
          "internalType": "address",
          "name": "dataProvider",
          "type": "address"
        },
        {
          "indexed": true,
          "internalType": "address",
          "name": "whoClaimed",
          "type": "address"
        },
        {
          "indexed": true,
          "internalType": "address",
          "name": "sentTo",
          "type": "address"
        },
        {
          "indexed": false,
          "internalType": "uint256",
          "name": "rewardEpoch",
          "type": "uint256"
        },
        {
          "indexed": false,
          "internalType": "uint256",
          "name": "amount",
          "type": "uint256"
        }
      ],
      "name": "RewardClaimed",
      "type": "event"
    },
    {
      "anonymous": false,
      "inputs": [
        {
          "indexed": false,
          "internalType": "uint256",
          "name": "rewardEpochId",
          "type": "uint256"
        }
      ],
      "name": "RewardClaimsEnabled",
      "type": "event"
    },
    {
      "anonymous": false,
      "inputs": [
        {
          "indexed": false,
          "internalType": "uint256",
          "name": "rewardEpochId",
          "type": "uint256"
        }
      ],
      "name": "RewardClaimsExpired",
      "type": "event"
    },
    {
      "anonymous": false,
      "inputs": [
        {
          "indexed": false,
          "internalType": "uint256",
          "name": "amountBurnedWei",
          "type": "uint256"
        }
      ],
      "name": "RewardsBurned",
      "type": "event"
    },
    {
      "anonymous": false,
      "inputs": [
        {
          "indexed": true,
          "internalType": "address",
          "name": "ftso",
          "type": "address"
        },
        {
          "indexed": false,
          "internalType": "uint256",
          "name": "epochId",
          "type": "uint256"
        },
        {
          "indexed": false,
          "internalType": "address[]",
          "name": "addresses",
          "type": "address[]"
        },
        {
          "indexed": false,
          "internalType": "uint256[]",
          "name": "rewards",
          "type": "uint256[]"
        }
      ],
      "name": "RewardsDistributed",
      "type": "event"
    },
    {
      "anonymous": false,
      "inputs": [
        {
          "indexed": false,
          "internalType": "bytes4",
          "name": "selector",
          "type": "bytes4"
        },
        {
          "indexed": false,
          "internalType": "uint256",
          "name": "timestamp",
          "type": "uint256"
        }
      ],
      "name": "TimelockedGovernanceCallCanceled",
      "type": "event"
    },
    {
      "anonymous": false,
      "inputs": [
        {
          "indexed": false,
          "internalType": "bytes4",
          "name": "selector",
          "type": "bytes4"
        },
        {
          "indexed": false,
          "internalType": "uint256",
          "name": "timestamp",
          "type": "uint256"
        }
      ],
      "name": "TimelockedGovernanceCallExecuted",
      "type": "event"
    },
    {
      "anonymous": false,
      "inputs": [
        {
          "indexed": false,
          "internalType": "uint256",
          "name": "epochId",
          "type": "uint256"
        },
        {
          "indexed": false,
          "internalType": "uint256",
          "name": "reward",
          "type": "uint256"
        }
      ],
      "name": "UnearnedRewardsAccrued",
      "type": "event"
    },
    {
      "inputs": [
        {
          "internalType": "uint256",
          "name": "_epochId",
          "type": "uint256"
        },
        {
          "internalType": "uint256",
          "name": "_priceEpochDurationSeconds",
          "type": "uint256"
        },
        {
          "internalType": "uint256",
          "name": "_priceEpochEndTime",
          "type": "uint256"
        }
      ],
      "name": "accrueUnearnedRewards",
      "outputs": [],
      "stateMutability": "nonpayable",
      "type": "function"
    },
    {
      "inputs": [],
      "name": "activate",
      "outputs": [],
      "stateMutability": "nonpayable",
      "type": "function"
    },
    {
      "inputs": [],
      "name": "active",
      "outputs": [
        {
          "internalType": "bool",
          "name": "",
          "type": "bool"
        }
      ],
      "stateMutability": "view",
      "type": "function"
    },
    {
      "inputs": [
        {
          "internalType": "address[]",
          "name": "_rewardOwners",
          "type": "address[]"
        },
        {
          "internalType": "uint256",
          "name": "_rewardEpoch",
          "type": "uint256"
        }
      ],
      "name": "autoClaim",
      "outputs": [],
      "stateMutability": "nonpayable",
      "type": "function"
    },
    {
      "inputs": [
        {
          "internalType": "bytes4",
          "name": "_selector",
          "type": "bytes4"
        }
      ],
      "name": "cancelGovernanceCall",
      "outputs": [],
      "stateMutability": "nonpayable",
      "type": "function"
    },
    {
      "inputs": [
        {
          "internalType": "address",
          "name": "_rewardOwner",
          "type": "address"
        },
        {
          "internalType": "address payable",
          "name": "_recipient",
          "type": "address"
        },
        {
          "internalType": "uint256",
          "name": "_rewardEpoch",
          "type": "uint256"
        },
        {
          "internalType": "bool",
          "name": "_wrap",
          "type": "bool"
        }
      ],
      "name": "claim",
      "outputs": [
        {
          "internalType": "uint256",
          "name": "_rewardAmount",
          "type": "uint256"
        }
      ],
      "stateMutability": "nonpayable",
      "type": "function"
    },
    {
      "inputs": [
        {
          "internalType": "address",
          "name": "_rewardOwner",
          "type": "address"
        },
        {
          "internalType": "address payable",
          "name": "_recipient",
          "type": "address"
        },
        {
          "internalType": "uint256[]",
          "name": "_rewardEpochs",
          "type": "uint256[]"
        },
        {
          "internalType": "address[]",
          "name": "_dataProviders",
          "type": "address[]"
        },
        {
          "internalType": "bool",
          "name": "_wrap",
          "type": "bool"
        }
      ],
      "name": "claimFromDataProviders",
      "outputs": [
        {
          "internalType": "uint256",
          "name": "_rewardAmount",
          "type": "uint256"
        }
      ],
      "stateMutability": "nonpayable",
      "type": "function"
    },
    {
      "inputs": [
        {
          "internalType": "address payable",
          "name": "_recipient",
          "type": "address"
        },
        {
          "internalType": "uint256[]",
          "name": "_rewardEpochs",
          "type": "uint256[]"
        }
      ],
      "name": "claimReward",
      "outputs": [
        {
          "internalType": "uint256",
          "name": "_rewardAmount",
          "type": "uint256"
        }
      ],
      "stateMutability": "nonpayable",
      "type": "function"
    },
    {
      "inputs": [
        {
          "internalType": "address payable",
          "name": "_recipient",
          "type": "address"
        },
        {
          "internalType": "uint256[]",
          "name": "_rewardEpochs",
          "type": "uint256[]"
        },
        {
          "internalType": "address[]",
          "name": "_dataProviders",
          "type": "address[]"
        }
      ],
      "name": "claimRewardFromDataProviders",
      "outputs": [
        {
          "internalType": "uint256",
          "name": "_rewardAmount",
          "type": "uint256"
        }
      ],
      "stateMutability": "nonpayable",
      "type": "function"
    },
    {
      "inputs": [],
      "name": "claimSetupManager",
      "outputs": [
        {
          "internalType": "contract IIClaimSetupManager",
          "name": "",
          "type": "address"
        }
      ],
      "stateMutability": "view",
      "type": "function"
    },
    {
      "inputs": [
        {
          "internalType": "uint256",
          "name": "_rewardEpoch",
          "type": "uint256"
        }
      ],
      "name": "closeExpiredRewardEpoch",
      "outputs": [],
      "stateMutability": "nonpayable",
      "type": "function"
    },
    {
      "inputs": [],
      "name": "deactivate",
      "outputs": [],
      "stateMutability": "nonpayable",
      "type": "function"
    },
    {
      "inputs": [],
      "name": "defaultFeePercentage",
      "outputs": [
        {
          "internalType": "uint256",
          "name": "",
          "type": "uint256"
        }
      ],
      "stateMutability": "view",
      "type": "function"
    },
    {
      "inputs": [
        {
          "internalType": "address[]",
          "name": "_addresses",
          "type": "address[]"
        },
        {
          "internalType": "uint256[]",
          "name": "_weights",
          "type": "uint256[]"
        },
        {
          "internalType": "uint256",
          "name": "_totalWeight",
          "type": "uint256"
        },
        {
          "internalType": "uint256",
          "name": "_epochId",
          "type": "uint256"
        },
        {
          "internalType": "address",
          "name": "_ftso",
          "type": "address"
        },
        {
          "internalType": "uint256",
          "name": "_priceEpochDurationSeconds",
          "type": "uint256"
        },
        {
          "internalType": "uint256",
          "name": "_currentRewardEpoch",
          "type": "uint256"
        },
        {
          "internalType": "uint256",
          "name": "_priceEpochEndTime",
          "type": "uint256"
        },
        {
          "internalType": "uint256",
          "name": "_votePowerBlock",
          "type": "uint256"
        }
      ],
      "name": "distributeRewards",
      "outputs": [],
      "stateMutability": "nonpayable",
      "type": "function"
    },
    {
      "inputs": [],
      "name": "enableClaims",
      "outputs": [],
      "stateMutability": "nonpayable",
      "type": "function"
    },
    {
      "inputs": [
        {
          "internalType": "bytes4",
          "name": "_selector",
          "type": "bytes4"
        }
      ],
      "name": "executeGovernanceCall",
      "outputs": [],
      "stateMutability": "nonpayable",
      "type": "function"
    },
    {
      "inputs": [],
      "name": "feePercentageUpdateOffset",
      "outputs": [
        {
          "internalType": "uint256",
          "name": "",
          "type": "uint256"
        }
      ],
      "stateMutability": "view",
      "type": "function"
    },
    {
      "inputs": [],
      "name": "firstClaimableRewardEpoch",
      "outputs": [
        {
          "internalType": "uint256",
          "name": "",
          "type": "uint256"
        }
      ],
      "stateMutability": "view",
      "type": "function"
    },
    {
      "inputs": [],
      "name": "ftsoManager",
      "outputs": [
        {
          "internalType": "contract IIFtsoManager",
          "name": "",
          "type": "address"
        }
      ],
      "stateMutability": "view",
      "type": "function"
    },
    {
      "inputs": [],
      "name": "getAddressUpdater",
      "outputs": [
        {
          "internalType": "address",
          "name": "_addressUpdater",
          "type": "address"
        }
      ],
      "stateMutability": "view",
      "type": "function"
    },
    {
      "inputs": [
        {
          "internalType": "uint256",
          "name": "_rewardEpoch",
          "type": "uint256"
        },
        {
          "internalType": "address",
          "name": "_dataProvider",
          "type": "address"
        },
        {
          "internalType": "address",
          "name": "_claimer",
          "type": "address"
        }
      ],
      "name": "getClaimedReward",
      "outputs": [
        {
          "internalType": "bool",
          "name": "_claimed",
          "type": "bool"
        },
        {
          "internalType": "uint256",
          "name": "_amount",
          "type": "uint256"
        }
      ],
      "stateMutability": "view",
      "type": "function"
    },
    {
      "inputs": [],
      "name": "getContractName",
      "outputs": [
        {
          "internalType": "string",
          "name": "",
          "type": "string"
        }
      ],
      "stateMutability": "pure",
      "type": "function"
    },
    {
      "inputs": [],
      "name": "getCurrentRewardEpoch",
      "outputs": [
        {
          "internalType": "uint256",
          "name": "",
          "type": "uint256"
        }
      ],
      "stateMutability": "view",
      "type": "function"
    },
    {
      "inputs": [
        {
          "internalType": "address",
          "name": "_dataProvider",
          "type": "address"
        }
      ],
      "name": "getDataProviderCurrentFeePercentage",
      "outputs": [
        {
          "internalType": "uint256",
          "name": "",
          "type": "uint256"
        }
      ],
      "stateMutability": "view",
      "type": "function"
    },
    {
      "inputs": [
        {
          "internalType": "address",
          "name": "_dataProvider",
          "type": "address"
        },
        {
          "internalType": "uint256",
          "name": "_rewardEpoch",
          "type": "uint256"
        }
      ],
      "name": "getDataProviderFeePercentage",
      "outputs": [
        {
          "internalType": "uint256",
          "name": "_feePercentageBIPS",
          "type": "uint256"
        }
      ],
      "stateMutability": "view",
      "type": "function"
    },
    {
      "inputs": [
        {
          "internalType": "uint256",
          "name": "_rewardEpoch",
          "type": "uint256"
        },
        {
          "internalType": "address",
          "name": "_dataProvider",
          "type": "address"
        }
      ],
      "name": "getDataProviderPerformanceInfo",
      "outputs": [
        {
          "internalType": "uint256",
          "name": "_rewardAmount",
          "type": "uint256"
        },
        {
          "internalType": "uint256",
          "name": "_votePowerIgnoringRevocation",
          "type": "uint256"
        }
      ],
      "stateMutability": "view",
      "type": "function"
    },
    {
      "inputs": [
        {
          "internalType": "address",
          "name": "_dataProvider",
          "type": "address"
        }
      ],
      "name": "getDataProviderScheduledFeePercentageChanges",
      "outputs": [
        {
          "internalType": "uint256[]",
          "name": "_feePercentageBIPS",
          "type": "uint256[]"
        },
        {
          "internalType": "uint256[]",
          "name": "_validFromEpoch",
          "type": "uint256[]"
        },
        {
          "internalType": "bool[]",
          "name": "_fixed",
          "type": "bool[]"
        }
      ],
      "stateMutability": "view",
      "type": "function"
    },
    {
      "inputs": [
        {
          "internalType": "uint256",
          "name": "_rewardEpoch",
          "type": "uint256"
        }
      ],
      "name": "getEpochReward",
      "outputs": [
        {
          "internalType": "uint256",
          "name": "_totalReward",
          "type": "uint256"
        },
        {
          "internalType": "uint256",
          "name": "_claimedReward",
          "type": "uint256"
        }
      ],
      "stateMutability": "view",
      "type": "function"
    },
    {
      "inputs": [],
      "name": "getEpochsWithClaimableRewards",
      "outputs": [
        {
          "internalType": "uint256",
          "name": "_startEpochId",
          "type": "uint256"
        },
        {
          "internalType": "uint256",
          "name": "_endEpochId",
          "type": "uint256"
        }
      ],
      "stateMutability": "view",
      "type": "function"
    },
    {
      "inputs": [
        {
          "internalType": "address",
          "name": "_beneficiary",
          "type": "address"
        }
      ],
      "name": "getEpochsWithUnclaimedRewards",
      "outputs": [
        {
          "internalType": "uint256[]",
          "name": "_epochIds",
          "type": "uint256[]"
        }
      ],
      "stateMutability": "view",
      "type": "function"
    },
    {
      "inputs": [],
      "name": "getInflationAddress",
      "outputs": [
        {
          "internalType": "address",
          "name": "",
          "type": "address"
        }
      ],
      "stateMutability": "view",
      "type": "function"
    },
    {
      "inputs": [],
      "name": "getInitialRewardEpoch",
      "outputs": [
        {
          "internalType": "uint256",
          "name": "_initialRewardEpoch",
          "type": "uint256"
        }
      ],
      "stateMutability": "view",
      "type": "function"
    },
    {
      "inputs": [],
      "name": "getRewardEpochToExpireNext",
      "outputs": [
        {
          "internalType": "uint256",
          "name": "",
          "type": "uint256"
        }
      ],
      "stateMutability": "view",
      "type": "function"
    },
    {
      "inputs": [
        {
          "internalType": "uint256",
          "name": "_rewardEpoch",
          "type": "uint256"
        }
      ],
      "name": "getRewardEpochVotePowerBlock",
      "outputs": [
        {
          "internalType": "uint256",
          "name": "",
          "type": "uint256"
        }
      ],
      "stateMutability": "view",
      "type": "function"
    },
    {
      "inputs": [
        {
          "internalType": "address",
          "name": "_beneficiary",
          "type": "address"
        },
        {
          "internalType": "uint256",
          "name": "_rewardEpoch",
          "type": "uint256"
        }
      ],
      "name": "getStateOfRewards",
      "outputs": [
        {
          "internalType": "address[]",
          "name": "_dataProviders",
          "type": "address[]"
        },
        {
          "internalType": "uint256[]",
          "name": "_rewardAmounts",
          "type": "uint256[]"
        },
        {
          "internalType": "bool[]",
          "name": "_claimed",
          "type": "bool[]"
        },
        {
          "internalType": "bool",
          "name": "_claimable",
          "type": "bool"
        }
      ],
      "stateMutability": "view",
      "type": "function"
    },
    {
      "inputs": [
        {
          "internalType": "address",
          "name": "_beneficiary",
          "type": "address"
        },
        {
          "internalType": "uint256",
          "name": "_rewardEpoch",
          "type": "uint256"
        },
        {
          "internalType": "address[]",
          "name": "_dataProviders",
          "type": "address[]"
        }
      ],
      "name": "getStateOfRewardsFromDataProviders",
      "outputs": [
        {
          "internalType": "uint256[]",
          "name": "_rewardAmounts",
          "type": "uint256[]"
        },
        {
          "internalType": "bool[]",
          "name": "_claimed",
          "type": "bool[]"
        },
        {
          "internalType": "bool",
          "name": "_claimable",
          "type": "bool"
        }
      ],
      "stateMutability": "view",
      "type": "function"
    },
    {
      "inputs": [],
      "name": "getTokenPoolSupplyData",
      "outputs": [
        {
          "internalType": "uint256",
          "name": "_lockedFundsWei",
          "type": "uint256"
        },
        {
          "internalType": "uint256",
          "name": "_totalInflationAuthorizedWei",
          "type": "uint256"
        },
        {
          "internalType": "uint256",
          "name": "_totalClaimedWei",
          "type": "uint256"
        }
      ],
      "stateMutability": "view",
      "type": "function"
    },
    {
      "inputs": [],
      "name": "getTotals",
      "outputs": [
        {
          "internalType": "uint256",
          "name": "_totalAwardedWei",
          "type": "uint256"
        },
        {
          "internalType": "uint256",
          "name": "_totalClaimedWei",
          "type": "uint256"
        },
        {
          "internalType": "uint256",
          "name": "_totalExpiredWei",
          "type": "uint256"
        },
        {
          "internalType": "uint256",
          "name": "_totalUnearnedWei",
          "type": "uint256"
        },
        {
          "internalType": "uint256",
          "name": "_totalBurnedWei",
          "type": "uint256"
        },
        {
          "internalType": "uint256",
          "name": "_totalInflationAuthorizedWei",
          "type": "uint256"
        },
        {
          "internalType": "uint256",
          "name": "_totalInflationReceivedWei",
          "type": "uint256"
        },
        {
          "internalType": "uint256",
          "name": "_lastInflationAuthorizationReceivedTs",
          "type": "uint256"
        },
        {
          "internalType": "uint256",
          "name": "_dailyAuthorizedInflation",
          "type": "uint256"
        }
      ],
      "stateMutability": "view",
      "type": "function"
    },
    {
      "inputs": [
        {
          "internalType": "uint256",
          "name": "_rewardEpoch",
          "type": "uint256"
        },
        {
          "internalType": "address",
          "name": "_dataProvider",
          "type": "address"
        }
      ],
      "name": "getUnclaimedReward",
      "outputs": [
        {
          "internalType": "uint256",
          "name": "_amount",
          "type": "uint256"
        },
        {
          "internalType": "uint256",
          "name": "_weight",
          "type": "uint256"
        }
      ],
      "stateMutability": "view",
      "type": "function"
    },
    {
      "inputs": [],
      "name": "governance",
      "outputs": [
        {
          "internalType": "address",
          "name": "",
          "type": "address"
        }
      ],
      "stateMutability": "view",
      "type": "function"
    },
    {
      "inputs": [],
      "name": "governanceSettings",
      "outputs": [
        {
          "internalType": "contract IGovernanceSettings",
          "name": "",
          "type": "address"
        }
      ],
      "stateMutability": "view",
      "type": "function"
    },
    {
      "inputs": [
        {
          "internalType": "address",
          "name": "_initialGovernance",
          "type": "address"
        }
      ],
      "name": "initialise",
      "outputs": [],
      "stateMutability": "nonpayable",
      "type": "function"
    },
    {
      "inputs": [],
      "name": "newFtsoRewardManager",
      "outputs": [
        {
          "internalType": "address",
          "name": "",
          "type": "address"
        }
      ],
      "stateMutability": "view",
      "type": "function"
    },
    {
      "inputs": [
        {
          "internalType": "address",
          "name": "_rewardOwner",
          "type": "address"
        }
      ],
      "name": "nextClaimableRewardEpoch",
      "outputs": [
        {
          "internalType": "uint256",
          "name": "",
          "type": "uint256"
        }
      ],
      "stateMutability": "view",
      "type": "function"
    },
    {
      "inputs": [],
      "name": "oldFtsoRewardManager",
      "outputs": [
        {
          "internalType": "address",
          "name": "",
          "type": "address"
        }
      ],
      "stateMutability": "view",
      "type": "function"
    },
    {
      "inputs": [],
      "name": "productionMode",
      "outputs": [
        {
          "internalType": "bool",
          "name": "",
          "type": "bool"
        }
      ],
      "stateMutability": "view",
      "type": "function"
    },
    {
      "inputs": [],
      "name": "receiveInflation",
      "outputs": [],
      "stateMutability": "payable",
      "type": "function"
    },
    {
      "inputs": [
        {
          "internalType": "uint256",
          "name": "_toAuthorizeWei",
          "type": "uint256"
        }
      ],
      "name": "setDailyAuthorizedInflation",
      "outputs": [],
      "stateMutability": "nonpayable",
      "type": "function"
    },
    {
      "inputs": [
        {
          "internalType": "uint256",
          "name": "_feePercentageBIPS",
          "type": "uint256"
        }
      ],
      "name": "setDataProviderFeePercentage",
      "outputs": [
        {
          "internalType": "uint256",
          "name": "",
          "type": "uint256"
        }
      ],
      "stateMutability": "nonpayable",
      "type": "function"
    },
    {
      "inputs": [],
      "name": "setInitialRewardData",
      "outputs": [],
      "stateMutability": "nonpayable",
      "type": "function"
    },
    {
      "inputs": [
        {
          "internalType": "address",
          "name": "_newFtsoRewardManager",
          "type": "address"
        }
      ],
      "name": "setNewFtsoRewardManager",
      "outputs": [],
      "stateMutability": "nonpayable",
      "type": "function"
    },
    {
      "inputs": [],
      "name": "switchToProductionMode",
      "outputs": [],
      "stateMutability": "nonpayable",
      "type": "function"
    },
    {
      "inputs": [
        {
          "internalType": "bytes4",
          "name": "",
          "type": "bytes4"
        }
      ],
      "name": "timelockedCalls",
      "outputs": [
        {
          "internalType": "uint256",
          "name": "allowedAfterTimestamp",
          "type": "uint256"
        },
        {
          "internalType": "bytes",
          "name": "encodedCall",
          "type": "bytes"
        }
      ],
      "stateMutability": "view",
      "type": "function"
    },
    {
      "inputs": [
        {
          "internalType": "bytes32[]",
          "name": "_contractNameHashes",
          "type": "bytes32[]"
        },
        {
          "internalType": "address[]",
          "name": "_contractAddresses",
          "type": "address[]"
        }
      ],
      "name": "updateContractAddresses",
      "outputs": [],
      "stateMutability": "nonpayable",
      "type": "function"
    },
    {
      "inputs": [],
      "name": "wNat",
      "outputs": [
        {
          "internalType": "contract WNat",
          "name": "",
          "type": "address"
        }
      ],
      "stateMutability": "view",
      "type": "function"
    }
  ],
  "bytecode": "0x60a06040523480156200001157600080fd5b5060405162005c4b38038062005c4b833981810160405260a08110156200003757600080fd5b508051602082015160408301516060840151608090940151929391929091908385806001600160a01b0381161562000074576200007481620000fd565b506001600160a01b038116620000c4576040805162461bcd60e51b815260206004820152601060248201526f5f676f7665726e616e6365207a65726f60801b604482015290519081900360640190fd5b506001600255620000d581620001c0565b5060609290921b6001600160601b031916608052600f556010555050600019600455620001e4565b600054600160a01b900460ff16156200015d576040805162461bcd60e51b815260206004820152601460248201527f696e697469616c6973656420213d2066616c7365000000000000000000000000604482015290519081900360640190fd5b60008054600160a01b60ff60a01b19909116176001600160a01b0319166001600160a01b03831690811790915560408051918252517f9789733827840833afc031fb2ef9ab6894271f77bad2085687cf4ae5c7bee4db916020908290030190a150565b7f714f205b2abd25bef1d06a1af944e38c113fe6160375c4e1d6d5cf28848e771955565b60805160601c615a3562000216600039806114b852806116e4528061181052806132fd528061333e5250615a356000f3fe6080604052600436106103505760003560e01c806384e10a90116101c6578063cfbcd25f116100f7578063e7c830d411610095578063ed39d3f81161006f578063ed39d3f814611353578063f2edab5a14611368578063f5a9838314611392578063f5f5ba72146113a757610350565b8063e7c830d4146112f0578063ea28edad14611305578063eb82dd7f1461131a57610350565b8063d6c1dbee116100d1578063d6c1dbee14611155578063e17f212e1461117f578063e273956314611194578063e416b7e1146111be57610350565b8063cfbcd25f1461101d578063d20bb54214611050578063d418634a1461112b57610350565b8063a9b79e1711610164578063b2c121921161013e578063b2c1219214610f25578063b482403414610f70578063b4a2043d14610f85578063c4db96191461100857610350565b8063a9b79e1714610c0d578063b00c0b7614610d6a578063b2af870a14610e9a57610350565b8063961c00ed116101a0578063961c00ed14610a6c5780639d6a890f14610aa55780639edbf00714610ad8578063a4472c1014610aed57610350565b806384e10a901461093957806385b4c538146109955780638dc305fa146109f157610350565b806333b7971e116102a0578063657d96951161023e57806369b91b591161021857806369b91b591461080b57806374e6310e1461083e5780637b6b2c0a146108f157806382a2b9051461090657610350565b8063657d96951461076857806367dcac53146107a157806367fc4029146107d757610350565b80635267a15d1161027a5780635267a15d146106f55780635aa6e6751461070a5780635ff270791461071f57806362354e031461075357610350565b806333b7971e146105ba5780633e7ff857146106cb57806351b42b00146106e057610350565b806312f97ac01161030d5780631de56098116102e75780631de560981461047757806321bb25af1461048c5780632dafdbbf146105725780633123b7d8146105a557610350565b806312f97ac01461041157806316e693281461042657806316fe49c71461046257610350565b806302fb0c5e146103555780630441218e1461037e57806306201f1d146103ac5780630cb72344146103b65780630f15f4c0146103e757806311a7aaaa146103fc575b600080fd5b34801561036157600080fd5b5061036a611431565b604080519115158252519081900360200190f35b34801561038a57600080fd5b5061039361143a565b6040805192835260208301919091528051918290030190f35b6103b461144e565b005b3480156103c257600080fd5b506103cb6114b6565b604080516001600160a01b039092168252519081900360200190f35b3480156103f357600080fd5b506103b46114da565b34801561040857600080fd5b506103cb6115a3565b34801561041d57600080fd5b506103cb6115b2565b34801561043257600080fd5b506104506004803603602081101561044957600080fd5b50356115c1565b60408051918252519081900360200190f35b34801561046e57600080fd5b5061045061169f565b34801561048357600080fd5b506103b46116a5565b34801561049857600080fd5b50610450600480360360a08110156104af57600080fd5b6001600160a01b038235811692602081013590911691810190606081016040820135600160201b8111156104e257600080fd5b8201836020820111156104f457600080fd5b803590602001918460208302840111600160201b8311171561051557600080fd5b919390929091602081019035600160201b81111561053257600080fd5b82018360208201111561054457600080fd5b803590602001918460208302840111600160201b8311171561056557600080fd5b9193509150351515611895565b34801561057e57600080fd5b50610587611921565b60408051938452602084019290925282820152519081900360600190f35b3480156105b157600080fd5b5061045061194c565b3480156105c657600080fd5b506105ed600480360360208110156105dd57600080fd5b50356001600160a01b031661195b565b60405180806020018060200180602001848103845287818151815260200191508051906020019060200280838360005b8381101561063557818101518382015260200161061d565b50505050905001848103835286818151815260200191508051906020019060200280838360005b8381101561067457818101518382015260200161065c565b50505050905001848103825285818151815260200191508051906020019060200280838360005b838110156106b357818101518382015260200161069b565b50505050905001965050505050505060405180910390f35b3480156106d757600080fd5b50610450611baf565b3480156106ec57600080fd5b506103b4611bb5565b34801561070157600080fd5b506103cb611bfc565b34801561071657600080fd5b506103cb611c21565b34801561072b57600080fd5b506103b46004803603602081101561074257600080fd5b50356001600160e01b031916611cb5565b34801561075f57600080fd5b506103cb61200a565b34801561077457600080fd5b506103936004803603604081101561078b57600080fd5b50803590602001356001600160a01b0316612015565b3480156107ad57600080fd5b506103b4600480360360608110156107c457600080fd5b5080359060208101359060400135612051565b3480156107e357600080fd5b506103b4600480360360208110156107fa57600080fd5b50356001600160e01b0319166120b9565b34801561081757600080fd5b506104506004803603602081101561082e57600080fd5b50356001600160a01b03166121a1565b34801561084a57600080fd5b506108726004803603602081101561086157600080fd5b50356001600160e01b0319166121ba565b6040518083815260200180602001828103825283818151815260200191508051906020019080838360005b838110156108b557818101518382015260200161089d565b50505050905090810190601f1680156108e25780820380516001836020036101000a031916815260200191505b50935050505060405180910390f35b3480156108fd57600080fd5b50610450612260565b34801561091257600080fd5b506103b46004803603602081101561092957600080fd5b50356001600160a01b0316612266565b34801561094557600080fd5b5061094e612359565b60408051998a5260208a0198909852888801969096526060880194909452608087019290925260a086015260c085015260e084015261010083015251908190036101200190f35b3480156109a157600080fd5b506109d6600480360360608110156109b857600080fd5b508035906001600160a01b036020820135811691604001351661237f565b60408051921515835260208301919091528051918290030190f35b3480156109fd57600080fd5b506103b460048036036040811015610a1457600080fd5b810190602081018135600160201b811115610a2e57600080fd5b820183602082011115610a4057600080fd5b803590602001918460208302840111600160201b83111715610a6157600080fd5b9193509150356123d3565b348015610a7857600080fd5b5061045060048036036040811015610a8f57600080fd5b506001600160a01b038135169060200135612781565b348015610ab157600080fd5b506103b460048036036020811015610ac857600080fd5b50356001600160a01b0316612803565b348015610ae457600080fd5b506103cb6128bc565b348015610af957600080fd5b50610b2660048036036040811015610b1057600080fd5b506001600160a01b0381351690602001356128cb565b604051808060200180602001806020018515158152602001848103845288818151815260200191508051906020019060200280838360005b83811015610b76578181015183820152602001610b5e565b50505050905001848103835287818151815260200191508051906020019060200280838360005b83811015610bb5578181015183820152602001610b9d565b50505050905001848103825286818151815260200191508051906020019060200280838360005b83811015610bf4578181015183820152602001610bdc565b5050505090500197505050505050505060405180910390f35b348015610c1957600080fd5b506103b46004803603610120811015610c3157600080fd5b810190602081018135600160201b811115610c4b57600080fd5b820183602082011115610c5d57600080fd5b803590602001918460208302840111600160201b83111715610c7e57600080fd5b9190808060200260200160405190810160405280939291908181526020018383602002808284376000920191909152509295949360208101935035915050600160201b811115610ccd57600080fd5b820183602082011115610cdf57600080fd5b803590602001918460208302840111600160201b83111715610d0057600080fd5b919080806020026020016040519081016040528093929190818152602001838360200280828437600092019190915250929550508235935050506020810135906001600160a01b036040820135169060608101359060808101359060a08101359060c00135612935565b348015610d7657600080fd5b506103b460048036036040811015610d8d57600080fd5b810190602081018135600160201b811115610da757600080fd5b820183602082011115610db957600080fd5b803590602001918460208302840111600160201b83111715610dda57600080fd5b9190808060200260200160405190810160405280939291908181526020018383602002808284376000920191909152509295949360208101935035915050600160201b811115610e2957600080fd5b820183602082011115610e3b57600080fd5b803590602001918460208302840111600160201b83111715610e5c57600080fd5b919080806020026020016040519081016040528093929190818152602001838360200280828437600092019190915250929550612dfc945050505050565b348015610ea657600080fd5b5061045060048036036040811015610ebd57600080fd5b6001600160a01b038235169190810190604081016020820135600160201b811115610ee757600080fd5b820183602082011115610ef957600080fd5b803590602001918460208302840111600160201b83111715610f1a57600080fd5b509092509050612ea7565b348015610f3157600080fd5b5061045060048036036080811015610f4857600080fd5b506001600160a01b038135811691602081013590911690604081013590606001351515612f5d565b348015610f7c57600080fd5b50610450612fe3565b348015610f9157600080fd5b50610fb860048036036020811015610fa857600080fd5b50356001600160a01b0316612fe9565b60408051602080825283518183015283519192839290830191858101910280838360005b83811015610ff4578181015183820152602001610fdc565b505050509050019250505060405180910390f35b34801561101457600080fd5b506103cb613190565b34801561102957600080fd5b506104506004803603602081101561104057600080fd5b50356001600160a01b031661319f565b34801561105c57600080fd5b506104506004803603606081101561107357600080fd5b6001600160a01b038235169190810190604081016020820135600160201b81111561109d57600080fd5b8201836020820111156110af57600080fd5b803590602001918460208302840111600160201b831117156110d057600080fd5b919390929091602081019035600160201b8111156110ed57600080fd5b8201836020820111156110ff57600080fd5b803590602001918460208302840111600160201b8311171561112057600080fd5b5090925090506131b6565b34801561113757600080fd5b506103936004803603602081101561114e57600080fd5b5035613231565b34801561116157600080fd5b506103b46004803603602081101561117857600080fd5b5035613250565b34801561118b57600080fd5b5061036a613426565b3480156111a057600080fd5b506103b4600480360360208110156111b757600080fd5b5035613436565b3480156111ca57600080fd5b5061124e600480360360608110156111e157600080fd5b6001600160a01b0382351691602081013591810190606081016040820135600160201b81111561121057600080fd5b82018360208201111561122257600080fd5b803590602001918460208302840111600160201b8311171561124357600080fd5b50909250905061348d565b6040518080602001806020018415158152602001838103835286818151815260200191508051906020019060200280838360005b8381101561129a578181015183820152602001611282565b50505050905001838103825285818151815260200191508051906020019060200280838360005b838110156112d95781810151838201526020016112c1565b505050509050019550505050505060405180910390f35b3480156112fc57600080fd5b506104506134f3565b34801561131157600080fd5b506103b46134fd565b34801561132657600080fd5b506103936004803603604081101561133d57600080fd5b50803590602001356001600160a01b0316613590565b34801561135f57600080fd5b506103cb6135cc565b34801561137457600080fd5b506104506004803603602081101561138b57600080fd5b50356135db565b34801561139e57600080fd5b506103b46135e6565b3480156113b357600080fd5b506113bc6136a0565b6040805160208082528351818301528351919283929083019185019080838360005b838110156113f65781810151838201526020016113de565b50505050905090810190601f1680156114235780820380516001836020036101000a031916815260200191505b509250505060405180910390f35b60035460ff1681565b6000806114456136cb565b90939092509050565b61145661373b565b61145e61378b565b601b5560185461146e90346137f2565b60185561147961384c565b6040805134815290517f95c4e29cc99bc027cfc3cd719d6fd973d5f0317061885fbb322b9b17d8d35d379181900360200190a16114b461392c565b565b7f000000000000000000000000000000000000000000000000000000000000000081565b6114e2613978565b601e546001600160a01b0316158015906115065750601c546001600160a01b031615155b801561151c5750601f546001600160a01b031615155b611561576040805162461bcd60e51b81526020600482015260116024820152701859191c995cdcd95cc81b9bdd081cd95d607a1b604482015290519081900360640190fd5b6003805460ff191660011790556040805130815290517f2d9c100169d5e24ef79d07ec273fcbbd5ce996a849ef0223f37c49f6418df84d9181900360200190a1565b601c546001600160a01b031681565b6020546001600160a01b031681565b60008073__$b9040dea2fd9c47e6b7e0e916053de4d6b$__63e937a562600f856115e96139d7565b6040518463ffffffff1660e01b815260040180848152602001838152602001828152602001935050505060206040518083038186803b15801561162b57600080fd5b505af415801561163f573d6000803e3d6000fd5b505050506040513d602081101561165557600080fd5b50516040805185815260208101839052815192935033927fd89f05622c2dcb0b4fcaa19e62fc2a2b0923955685fb7b0c641467f764244abc929181900390910190a290505b919050565b600f5490565b600054600160b01b900460ff16806116c75750600054600160a81b900460ff16155b1561188a576116d4613a1c565b60035460ff1615801561170f57507f00000000000000000000000000000000000000000000000000000000000000006001600160a01b031615155b801561171b5750600654155b80156117275750600554155b61176c576040805162461bcd60e51b81526020600482015260116024820152706e6f7420696e697469616c20737461746560781b604482015290519081900360640190fd5b61177f60016117796139d7565b906137f2565b600655601c5460408051633e7ff85760e01b815290516001600160a01b0390921691633e7ff85791600480820192602092909190829003018186803b1580156117c757600080fd5b505afa1580156117db573d6000803e3d6000fd5b505050506040513d60208110156117f157600080fd5b505160055560408051633db5960560e11b815290516001600160a01b037f00000000000000000000000000000000000000000000000000000000000000001691637b6b2c0a916004808301926020929190829003018186803b15801561185657600080fd5b505afa15801561186a573d6000803e3d6000fd5b505050506040513d602081101561188057600080fd5b50516004556114b4565b6114b4600036613a51565b600061189f613bd4565b6002805414156118e4576040805162461bcd60e51b815260206004820152601f6024820152600080516020615998833981519152604482015290519081900360640190fd5b6002805587876118f48282613c2b565b6119038a8a8a8a8a8a8a613cb8565b60016002559250611916915061392c9050565b979650505050505050565b6000806000806017546119416016546013546137f290919063ffffffff16565b925092509250909192565b6000611956613e75565b905090565b6060808073__$b9040dea2fd9c47e6b7e0e916053de4d6b$__6325459925600f866119846139d7565b6040518463ffffffff1660e01b815260040180848152602001836001600160a01b03168152602001828152602001935050505060006040518083038186803b1580156119cf57600080fd5b505af41580156119e3573d6000803e3d6000fd5b505050506040513d6000823e601f3d908101601f191682016040526060811015611a0c57600080fd5b8101908080516040519392919084600160201b821115611a2b57600080fd5b908301906020820185811115611a4057600080fd5b82518660208202830111600160201b82111715611a5c57600080fd5b82525081516020918201928201910280838360005b83811015611a89578181015183820152602001611a71565b5050505090500160405260200180516040519392919084600160201b821115611ab157600080fd5b908301906020820185811115611ac657600080fd5b82518660208202830111600160201b82111715611ae257600080fd5b82525081516020918201928201910280838360005b83811015611b0f578181015183820152602001611af7565b5050505090500160405260200180516040519392919084600160201b821115611b3757600080fd5b908301906020820185811115611b4c57600080fd5b82518660208202830111600160201b82111715611b6857600080fd5b82525081516020918201928201910280838360005b83811015611b95578181015183820152602001611b7d565b505050509050016040525050509250925092509193909250565b60055490565b611bbd613978565b6003805460ff191690556040805130815290517fa391f4e911c33688045cc1f43dc17c05924f79ad72a8cf5a58cf00c3acc9090e9181900360200190a1565b7f714f205b2abd25bef1d06a1af944e38c113fe6160375c4e1d6d5cf28848e77195490565b60008054600160a81b900460ff16611c44576000546001600160a01b0316611956565b60076001609c1b016001600160a01b031663732524946040518163ffffffff1660e01b815260040160206040518083038186803b158015611c8457600080fd5b505afa158015611c98573d6000803e3d6000fd5b505050506040513d6020811015611cae57600080fd5b5051905090565b60408051630debfda360e41b8152336004820152905160076001609c1b019163debfda30916024808301926020929190829003018186803b158015611cf957600080fd5b505afa158015611d0d573d6000803e3d6000fd5b505050506040513d6020811015611d2357600080fd5b5051611d66576040805162461bcd60e51b815260206004820152600d60248201526c37b7363c9032bc32b1baba37b960991b604482015290519081900360640190fd5b6001600160e01b0319811660009081526001602052604090208054611dd2576040805162461bcd60e51b815260206004820152601a60248201527f74696d656c6f636b3a20696e76616c69642073656c6563746f72000000000000604482015290519081900360640190fd5b8054421015611e28576040805162461bcd60e51b815260206004820152601960248201527f74696d656c6f636b3a206e6f7420616c6c6f7765642079657400000000000000604482015290519081900360640190fd5b6000816001018054600181600116156101000203166002900480601f016020809104026020016040519081016040528092919081815260200182805460018160011615610100020316600290048015611ec25780601f10611e9757610100808354040283529160200191611ec2565b820191906000526020600020905b815481529060010190602001808311611ea557829003601f168201915b5050506001600160e01b0319861660009081526001602081905260408220828155949550909250611ef69150830182615877565b50506000805460ff60b01b1916600160b01b178155604051825130918491819060208401908083835b60208310611f3e5780518252601f199092019160209182019101611f1f565b6001836020036101000a0380198251168184511680821785525050505050509050019150506000604051808303816000865af19150503d8060008114611fa0576040519150601f19603f3d011682016040523d82523d6000602084013e611fa5565b606091505b50506000805460ff60b01b19169055604080516001600160e01b03198716815242602082015281519293507fa7326b57fc9cfe267aaea5e7f0b01757154d265620a0585819416ee9ddd2c438929081900390910190a161200481613e86565b50505050565b60076001609c1b0181565b60009182526007602090815260408084206001600160a01b0390931684529190529020546001600160801b0380821692600160801b9092041690565b612059613ea3565b60006120658383613ef6565b60155490915061207590826137f2565b601555604080518581526020810183905281517f754fa5a3ace0438b80ec651f7d61e44f761a808ebd17d7ce70da619399611a08929181900390910190a150505050565b6120c1613978565b6001600160e01b0319811660009081526001602052604090205461212c576040805162461bcd60e51b815260206004820152601a60248201527f74696d656c6f636b3a20696e76616c69642073656c6563746f72000000000000604482015290519081900360640190fd5b604080516001600160e01b03198316815242602082015281517f7735b2391c38a81419c513e30ca578db7158eadd7101511b23e221c654d19cf8929181900390910190a16001600160e01b0319811660009081526001602081905260408220828155919061219c90830182615877565b505050565b60006121b4826121af613f13565b613f33565b92915050565b600160208181526000928352604092839020805481840180548651600296821615610100026000190190911695909504601f810185900485028601850190965285855290949193929091908301828280156122565780601f1061222b57610100808354040283529160200191612256565b820191906000526020600020905b81548152906001019060200180831161223957829003601f168201915b5050505050905082565b60045481565b600054600160b01b900460ff16806122885750600054600160a81b900460ff16155b1561234b57612295613a1c565b6020546001600160a01b0316156122e1576040805162461bcd60e51b815260206004820152600b60248201526a185b1c9958591e481cd95d60aa1b604482015290519081900360640190fd5b6001600160a01b03811661232b576040805162461bcd60e51b815260206004820152600c60248201526b61646472657373207a65726f60a01b604482015290519081900360640190fd5b602080546001600160a01b0319166001600160a01b038316179055612356565b612356600036613a51565b50565b601254601354601454601554601654601754601854601954601a54909192939495969798565b60008061238d858585613f56565b6000958652600a602090815260408088206001600160a01b039788168952825280882095909616875293909352505091205490916101009091046001600160801b031690565b6123db613bd4565b600280541415612420576040805162461bcd60e51b815260206004820152601f6024820152600080516020615998833981519152604482015290519081900360640190fd5b6002805561242c61378b565b5060005b828110156124645761245c84848381811061244757fe5b905060200201356001600160a01b0316613f98565b600101612430565b50600061246f6139d7565b905061247b8282613fe4565b6124bc576040805162461bcd60e51b815260206004820152600d60248201526c6e6f7420636c61696d61626c6560981b604482015290519081900360640190fd5b601d546040805163712441d960e11b81523360048201818152602483019384526044830188905260009485946001600160a01b039091169363e24883b293928b928b92606401846020850280828437600081840152601f19601f82011690508083019250505094505050505060006040518083038186803b15801561254057600080fd5b505afa158015612554573d6000803e3d6000fd5b505050506040513d6000823e601f3d908101601f19168201604090815281101561257d57600080fd5b8101908080516040519392919084600160201b82111561259c57600080fd5b9083019060208201858111156125b157600080fd5b82518660208202830111600160201b821117156125cd57600080fd5b82525081516020918201928201910280838360005b838110156125fa5781810151838201526020016125e2565b505050509190910160405250602001519294509192506000915061261e9050613f13565b905060005b8681101561275957600088888381811061263957fe5b905060200201356001600160a01b03169050600085838151811061265957fe5b60200260200101519050600061267183838b88614006565b9050816001600160a01b0316836001600160a01b03161461269a5761269882838b88614006565b015b60408051808201909152601881527f636c61696d656420616d6f756e7420746f6f20736d616c6c000000000000000060208201526126db90829088906140aa565b9050801561274e57601f546040805163b760faf960e01b81526001600160a01b0385811660048301529151919092169163b760faf991849160248082019260009290919082900301818588803b15801561273457600080fd5b505af1158015612748573d6000803e3d6000fd5b50505050505b505050600101612623565b5061276f336127688489614141565b600061419a565b505060016002555061219c905061392c565b60008161278c613e75565b111580156127a85750600f546127a4906117796139d7565b8211155b6127f0576040805162461bcd60e51b81526020600482015260146024820152730d2dcecc2d8d2c840e4caeec2e4c840cae0dec6d60631b604482015290519081900360640190fd5b6127fc600f84846142b5565b9392505050565b600054600160a01b900460ff1615612859576040805162461bcd60e51b8152602060048201526014602482015273696e697469616c6973656420213d2066616c736560601b604482015290519081900360640190fd5b60008054600160a01b60ff60a01b19909116176001600160a01b0319166001600160a01b03831690811790915560408051918252517f9789733827840833afc031fb2ef9ab6894271f77bad2085687cf4ae5c7bee4db916020908290030190a150565b601f546001600160a01b031681565b60608060606000806128db6139d7565b90506128e78682613fe4565b915081806129015750808614801561290157506004548610155b1561292b57600061291488886000614348565b805160408201516060909201519097509095509350505b5092959194509250565b61293d613ea3565b861580159061294c5750885115155b61295257fe5b6000838152600c6020526040812082905561296d8584613ef6565b905060008a5167ffffffffffffffff8111801561298957600080fd5b506040519080825280602002602001820160405280156129b3578160200160208202803683370190505b50905081816000815181106129c457fe5b602002602001018181525050888a6000815181106129de57fe5b60209081029190910101528a51600019015b60008c82815181106129fe57fe5b60200260200101519050612a588c8381518110612a1757fe5b60200260200101518d600081518110612a2c57fe5b602002602001015185600081518110612a4157fe5b602002602001015161490b9092919063ffffffff16565b838381518110612a6457fe5b60209081029190910181019190915260008881526007825260408082206001600160a01b0385168352909252208351612ab090859085908110612aa357fe5b6020026020010151614a0b565b81546001600160801b031981166001600160801b039182169290920116178155601f5460408051631257fcdb60e31b81526001600160a01b038581166004830152602482018a90529151612b6693612b6193612710939116916392bfe6d891604480820192602092909190829003018186803b158015612b2f57600080fd5b505afa158015612b43573d6000803e3d6000fd5b505050506040513d6020811015612b5957600080fd5b505190614141565b614a0b565b81546001600160801b03918216600160801b0291161781558351849084908110612b8c57fe5b60209081029190910181015160008a81526009835260408082206001600160a01b03871680845290855281832080549094019093558b82526008845280822092825291909252902054612c7d57601f54604080516304bb4e4360e01b81526001600160a01b038581166004830152602482018a9052915191909216916304bb4e43916044808301926020929190829003018186803b158015612c2d57600080fd5b505afa158015612c41573d6000803e3d6000fd5b505050506040513d6020811015612c5757600080fd5b505160008981526008602090815260408083206001600160a01b03871684529091529020555b82612c89575050612cfa565b838381518110612c9557fe5b602002602001015184600081518110612caa57fe5b6020026020010181815103915081815250508c8381518110612cc857fe5b60200260200101518d600081518110612cdd57fe5b6020908102919091010180519190910390525050600019016129f0565b6000868152600d60205260409020805484019055601254612d1b90846137f2565b601281905550876001600160a01b03167f8b2bc56c62594afde5b520e83e1ca19ebd071798db21382e328014f47b31ce578a8e85604051808481526020018060200180602001838103835285818151815260200191508051906020019060200280838360005b83811015612d99578181015183820152602001612d81565b50505050905001838103825284818151815260200191508051906020019060200280838360005b83811015612dd8578181015183820152602001612dc0565b505050509050019550505050505060405180910390a2505050505050505050505050565b612e04611bfc565b6001600160a01b0316336001600160a01b031614612e60576040805162461bcd60e51b815260206004820152601460248201527337b7363c9030b2323932b9b9903ab83230ba32b960611b604482015290519081900360640190fd5b612e99612e9483836040518060400160405280600e81526020016d20b2323932b9b9aab83230ba32b960911b815250614a4f565b614b73565b612ea38282614b97565b5050565b6000612eb1613bd4565b600280541415612ef6576040805162461bcd60e51b815260206004820152601f6024820152600080516020615998833981519152604482015290519081900360640190fd5b600280556000805b83811015612f3e57848482818110612f1257fe5b90506020020135821015612f3657848482818110612f2c57fe5b9050602002013591505b600101612efe565b50612f4c3386836000614ce2565b600160025591506127fc905061392c565b6000612f67613bd4565b600280541415612fac576040805162461bcd60e51b815260206004820152601f6024820152600080516020615998833981519152604482015290519081900360640190fd5b600280558484612fbc8282613c2b565b612fc887878787614ce2565b60016002559250612fdb915061392c9050565b949350505050565b60105490565b6060600080612ff66136cb565b909250905060018282030160008167ffffffffffffffff8111801561301a57600080fd5b50604051908082528060200260200182016040528015613044578160200160208202803683370190505b5090506000805b838110156130f1576000613063898389016001614348565b905060005b8160600151518110156130e7578160600151818151811061308557fe5b60200260200101511580156130b157506000826040015182815181106130a757fe5b6020026020010151115b156130df5760018584815181106130c457fe5b911515602092830291909101909101526001909301926130e7565b600101613068565b505060010161304b565b508067ffffffffffffffff8111801561310957600080fd5b50604051908082528060200260200182016040528015613133578160200160208202803683370190505b5095506000805b848110156131845783818151811061314e57fe5b60200260200101511561317c5780870188838151811061316a57fe5b60209081029190910101526001909101905b60010161313a565b50505050505050919050565b601d546001600160a01b031681565b60006121b4826131ad6139d7565b600f91906142b5565b60006131c0613bd4565b600280541415613205576040805162461bcd60e51b815260206004820152601f6024820152600080516020615998833981519152604482015290519081900360640190fd5b600280556132193387878787876000613cb8565b6001600255905061322861392c565b95945050505050565b6000908152600d6020908152604080832054600e909252909120549091565b601c546001600160a01b031633148061327357506020546001600160a01b031633145b6132b4576040805162461bcd60e51b815260206004820152600d60248201526c6f6e6c79206d616e616765727360981b604482015290519081900360640190fd5b80600554146132fb576040805162461bcd60e51b815260206004820152600e60248201526d1ddc9bdb99c8195c1bd8da081a5960921b604482015290519081900360640190fd5b7f00000000000000000000000000000000000000000000000000000000000000006001600160a01b031615801590613337575060065460320181105b156133bb577f00000000000000000000000000000000000000000000000000000000000000006001600160a01b031663d6c1dbee826040518263ffffffff1660e01b815260040180828152602001915050600060405180830381600087803b1580156133a257600080fd5b505af11580156133b6573d6000803e3d6000fd5b505050505b6000818152600e6020908152604080832054600d90925290912054601454919003906133e790826137f2565b6014556040805183815290517f5d05c64f281304391697cf987812e1a736413a062a9bdf39af4102209eb6fa589181900360200190a150600101600555565b600054600160a81b900460ff1681565b61343e61373b565b601a81905560175461345090826137f2565b601755426019556040805182815290517f187f32a0f765499f15b3bb52ed0aebf6015059f230f2ace7e701e60a476695959181900360200190a150565b60608060008061349b6139d7565b90506134a78782613fe4565b915081806134c1575080871480156134c157506004548710155b156134e85760006134d6898989896000614d5f565b90508060400151945080606001519350505b509450945094915050565b60006119566139d7565b613505613978565b6000196004541461354f576040805162461bcd60e51b815260206004820152600f60248201526e185b1c9958591e48195b98589b1959608a1b604482015290519081900360640190fd5b6135576139d7565b600481905560408051918252517f1cfb844c44f9325fc9ad6cc6191a4a24b0415137fe300b6c9071523a253f7a089181900360200190a1565b60008281526009602090815260408083206001600160a01b03909416808452938252808320549483526008825280832093835292905220549091565b601e546001600160a01b031690565b60006121b48261513b565b6135ee613978565b600054600160a81b900460ff161561364d576040805162461bcd60e51b815260206004820152601a60248201527f616c726561647920696e2070726f64756374696f6e206d6f6465000000000000604482015290519081900360640190fd5b60008054600161ff0160a01b031916600160a81b1790556040805160076001609c1b01815290517f83af113638b5422f9e977cebc0aaf0eaf2188eb9a8baae7f9d46c42b33a1560c9181900360200190a1565b604080518082019091526011815270233a39b7a932bbb0b93226b0b730b3b2b960791b602082015290565b6005546000806136d96139d7565b905060008111613730576040805162461bcd60e51b815260206004820152601f60248201527f6e6f2065706f6368207769746820636c61696d61626c65207265776172647300604482015290519081900360640190fd5b600181039150509091565b601e546001600160a01b031633146114b4576040805162461bcd60e51b815260206004820152600e60248201526d696e666c6174696f6e206f6e6c7960901b604482015290519081900360640190fd5b601b5460009061379b90346137f2565b905047818111156137e45761dead6108fc6137b683856151cd565b6040518115909202916000818181858888f193505050501580156137de573d6000803e3d6000fd5b506137ee565b818110156137ee57fe5b5090565b6000828201838110156127fc576040805162461bcd60e51b815260206004820152601b60248201527f536166654d6174683a206164646974696f6e206f766572666c6f770000000000604482015290519081900360640190fd5b600061387160165461386b6014546015546137f290919063ffffffff16565b906151cd565b90508015612356576000613888476014606461490b565b905060008183111561389b57508061389e565b50815b801561219c576016546138b190826137f2565b601655601b546138c190826151cd565b601b5560405161dead9082156108fc029083906000818181858888f193505050501580156138f3573d6000803e3d6000fd5b506040805182815290517f44d5cd18c37b86a3423952287006d9550ab3cff404d6e899d5499d9ef87100b59181900360200190a1505050565b61393461522a565b47146114b4576040805162461bcd60e51b815260206004820152600e60248201526d6f7574206f662062616c616e636560901b604482015290519081900360640190fd5b613980611c21565b6001600160a01b0316336001600160a01b0316146114b4576040805162461bcd60e51b815260206004820152600f60248201526e6f6e6c7920676f7665726e616e636560881b604482015290519081900360640190fd5b601c54604080516339f20c3560e21b815290516000926001600160a01b03169163e7c830d4916004808301926020929190829003018186803b158015611c8457600080fd5b600054600160b01b900460ff1615613a4957333014613a3757fe5b6000805460ff60b01b191690556114b4565b6114b4613978565b613a59613978565b600082359050600060076001609c1b016001600160a01b0316636221a54b6040518163ffffffff1660e01b815260040160206040518083038186803b158015613aa157600080fd5b505afa158015613ab5573d6000803e3d6000fd5b505050506040513d6020811015613acb57600080fd5b505160408051808201825242830180825282516020601f89018190048102820181019094528781529394509290918281019190889088908190840183828082843760009201829052509390945250506001600160e01b03198616815260016020818152604090922084518155848301518051919450613b4f939285019201906158bb565b509050507fed948300a3694aa01d4a6b258bfd664350193d770c0b51f8387277f6d83ea3b68382878760405180856001600160e01b0319168152602001848152602001806020018281038252848482818152602001925080828437600083820152604051601f909101601f191690920182900397509095505050505050a15050505050565b60035460ff166114b4576040805162461bcd60e51b815260206004820152601a60248201527f726577617264206d616e61676572206465616374697661746564000000000000604482015290519081900360640190fd5b336001600160a01b0383161415613c4157612ea3565b601d546040805163ce2caa5760e01b81523360048201526001600160a01b03858116602483015284811660448301529151919092169163ce2caa57916064808301926000929190829003018186803b158015613c9c57600080fd5b505afa158015613cb0573d6000803e3d6000fd5b505050505050565b6000613cc387613f98565b613ccb61378b565b506002601f546040805163f683776760e01b81526001600160a01b038c811660048301529151919092169163f6837767916024808301926020929190829003018186803b158015613d1b57600080fd5b505afa158015613d2f573d6000803e3d6000fd5b505050506040513d6020811015613d4557600080fd5b505114613d99576040805162461bcd60e51b815260206004820152601860248201527f6578706c696369742064656c65676174696f6e206f6e6c790000000000000000604482015290519081900360640190fd5b6000613da36139d7565b905060005b86811015613e5d57613dcc888883818110613dbf57fe5b9050602002013583613fe4565b613dd557613e55565b6000613df78b8a8a85818110613de757fe5b9050602002013589896001614d5f565b90506000613e1b8c8c8c8c87818110613e0c57fe5b90506020020135856001615249565b905080600e60008c8c87818110613e2e57fe5b60209081029290920135835250810191909152604001600020805490910190559390930192505b600101613da8565b50613e6988838561419a565b50979650505050505050565b6006546000906121b49060016154c1565b3d604051818101604052816000823e8215613e9f578181f35b8181fd5b601c546001600160a01b031633146114b4576040805162461bcd60e51b81526020600482015260116024820152706674736f206d616e61676572206f6e6c7960781b604482015290519081900360640190fd5b60006127fc613f0583856154e7565b613f0d615566565b90615585565b6000611956600454613f2e613f26613e75565b6005546155ec565b6155ec565b6001600160a01b0382166000908152600b60205260408120546127fc90836155ec565b6000838152600a602090815260408083206001600160a01b038087168552908352818420908516845290915281205460ff1680612fdb5750612fdb8483615603565b6001600160a01b038116612356576040805162461bcd60e51b815260206004820152600e60248201526d726563697069656e74207a65726f60901b604482015290519081900360640190fd5b60006004548310158015613ffa57506005548310155b80156127fc5750501190565b6000806140138684613f33565b90505b83811161406057600061402b87836001614348565b9050600061403d888885856000615249565b6000848152600e6020526040902080548201905593909301925050600101614016565b506001600160a01b0385166000908152600b6020526040902054600184011115612fdb576001600160a01b0385166000908152600b60205260409020600184019055949350505050565b600081848411156141395760405162461bcd60e51b81526004018080602001828103825283818151815260200191508051906020019080838360005b838110156140fe5781810151838201526020016140e6565b50505050905090810190601f16801561412b5780820380516001836020036101000a031916815260200191505b509250505060405180910390fd5b505050900390565b600082614150575060006121b4565b8282028284828161415d57fe5b04146127fc5760405162461bcd60e51b81526004018080602001828103825260218152602001806159df6021913960400191505060405180910390fd5b81156142ac57801561421557601f546040805163b760faf960e01b81526001600160a01b0386811660048301529151919092169163b760faf991859160248082019260009290919082900301818588803b1580156141f757600080fd5b505af115801561420b573d6000803e3d6000fd5b50505050506142ac565b6040516000906001600160a01b0385169084908381818185875af1925050503d8060008114614260576040519150601f19603f3d011682016040523d82523d6000602084013e614265565b606091505b50509050806142aa576040805162461bcd60e51b815260206004820152600c60248201526b18db185a5b4819985a5b195960a21b604482015290519081900360640190fd5b505b505047601b5550565b6001600160a01b0382166000908152600284016020526040812080545b8015614339578154600019909101908290829081106142ed57fe5b6000918252602090912001546201000090046001600160f01b031684106143345781818154811061431a57fe5b60009182526020909120015461ffff1692506127fc915050565b6142d2565b50505060018301549392505050565b614350615943565b600061435b8461513b565b905060008061436861596b565b6143728789615603565b1561438057505050506127fc565b60008781526009602090815260408083206001600160a01b038c1684529091529020541515806143ae575085155b156143e0576143be88888661561f565b91506143cb878984615795565b6001600160801b031660208201819052151592505b601f546040805163ed475a7960e01b81526001600160a01b038b811660048301526024820188905291516060938493169163ed475a79916044808301926000929190829003018186803b15801561443657600080fd5b505afa15801561444a573d6000803e3d6000fd5b505050506040513d6000823e601f3d908101601f19168201604052608081101561447357600080fd5b8101908080516040519392919084600160201b82111561449257600080fd5b9083019060208201858111156144a757600080fd5b82518660208202830111600160201b821117156144c357600080fd5b82525081516020918201928201910280838360005b838110156144f05781810151838201526020016144d8565b5050505090500160405260200180516040519392919084600160201b82111561451857600080fd5b90830190602082018581111561452d57600080fd5b82518660208202830111600160201b8211171561454957600080fd5b82525081516020918201928201910280838360005b8381101561457657818101518382015260200161455e565b50505050919091016040525050835193955091935087915061459b905057600061459e565b60015b60ff160167ffffffffffffffff811180156145b857600080fd5b506040519080825280602002602001820160405280156145e2578160200160208202803683370190505b508088525167ffffffffffffffff811180156145fd57600080fd5b50604051908082528060200260200182016040528015614627578160200160208202803683370190505b50602088015286515167ffffffffffffffff8111801561464657600080fd5b50604051908082528060200260200182016040528015614670578160200160208202803683370190505b50604088015286515167ffffffffffffffff8111801561468f57600080fd5b506040519080825280602002602001820160405280156146b9578160200160208202803683370190505b5060608801528415614741578987600001516000815181106146d757fe5b60200260200101906001600160a01b031690816001600160a01b03168152505083876020015160008151811061470957fe5b60200260200101818152505082602001516001600160801b0316876040015160008151811061473457fe5b6020026020010181815250505b8151156148fe57601f546040805163277166bf60e11b81526001600160a01b038d81166004830152602482018a905291516000939290921691634ee2cd7e91604480820192602092909190829003018186803b1580156147a057600080fd5b505afa1580156147b4573d6000803e3d6000fd5b505050506040513d60208110156147ca57600080fd5b5051905060005b83518110156148fb57600081886147e95760006147ec565b60015b60ff160190508482815181106147fe57fe5b60200260200101518a60000151828151811061481657fe5b60200260200101906001600160a01b031690816001600160a01b03168152505061487d85838151811061484557fe5b602002602001015161487786858151811061485c57fe5b60200260200101516127108761490b9092919063ffffffff16565b8e615832565b8a60200151828151811061488d57fe5b6020026020010181815250506148ce8c8684815181106148a957fe5b60200260200101518c6020015184815181106148c157fe5b6020026020010151615795565b6001600160801b03168a6040015182815181106148e757fe5b6020908102919091010152506001016147d1565b50505b5050505050509392505050565b6000808211614954576040805162461bcd60e51b815260206004820152601060248201526f4469766973696f6e206279207a65726f60801b604482015290519081900360640190fd5b83614961575060006127fc565b8383028385828161496e57fe5b0414156149875782818161497e57fe5b049150506127fc565b600083868161499257fe5b04905060008487816149a057fe5b06905060008587816149ae57fe5b04905060008688816149bc57fe5b0690506149fe6149d088613f0d8685614141565b6117796149dd8686614141565b6117796149ea8987614141565b6117798d6149f88c8b614141565b90614141565b9998505050505050505050565b6000600160801b82106137ee5760405162461bcd60e51b81526004018080602001828103825260278152602001806159b86027913960400191505060405180910390fd5b600080826040516020018080602001828103825283818151815260200191508051906020019080838360005b83811015614a93578181015183820152602001614a7b565b50505050905090810190601f168015614ac05780820380516001836020036101000a031916815260200191505b50925050506040516020818303038152906040528051906020012090506000805b8651811015614b2857868181518110614af657fe5b6020026020010151831415614b2057858181518110614b1157fe5b60200260200101519150614b28565b600101614ae1565b506001600160a01b038116613228576040805162461bcd60e51b815260206004820152600c60248201526b61646472657373207a65726f60a01b604482015290519081900360640190fd5b7f714f205b2abd25bef1d06a1af944e38c113fe6160375c4e1d6d5cf28848e771955565b614bc382826040518060400160405280600981526020016824b7333630ba34b7b760b91b815250614a4f565b601e60006101000a8154816001600160a01b0302191690836001600160a01b03160217905550614c1782826040518060400160405280600b81526020016a233a39b7a6b0b730b3b2b960a91b815250614a4f565b601c60006101000a8154816001600160a01b0302191690836001600160a01b03160217905550614c6482826040518060400160405280600481526020016315d3985d60e21b815250614a4f565b601f60006101000a8154816001600160a01b0302191690836001600160a01b03160217905550614cbe82826040518060400160405280601181526020017021b630b4b6a9b2ba3ab826b0b730b3b2b960791b815250614a4f565b601d80546001600160a01b0319166001600160a01b03929092169190911790555050565b6000614ced84613f98565b614cf561378b565b506000614d006139d7565b9050808410158015614d125750600081115b15614d1e576001810393505b614d288482613fe4565b614d36576000915050612fdb565b614d49868686614d44613f13565b614006565b9150614d5685838561419a565b50949350505050565b614d67615943565b6000614d728661513b565b6040805160208088028281018201909352878252929350869290918891849182918501908490808284376000920191909152505050908452508067ffffffffffffffff81118015614dc257600080fd5b50604051908082528060200260200182016040528015614dec578160200160208202803683370190505b5060208401528067ffffffffffffffff81118015614e0957600080fd5b50604051908082528060200260200182016040528015614e33578160200160208202803683370190505b5060408401528067ffffffffffffffff81118015614e5057600080fd5b50604051908082528060200260200182016040528015614e7a578160200160208202803683370190505b50606084015260005b8181101561512f57614eb188888884818110614e9b57fe5b905060200201356001600160a01b03168b613f56565b84606001518281518110614ec157fe5b60200260200101901515908115158152505083606001518181518110614ee357fe5b602002602001015115614f785784614f73576000888152600a6020526040812090888884818110614f1057fe5b602090810292909201356001600160a01b039081168452838301949094525060409182016000908120938d16815292905290819020549085015180516101009092046001600160801b03169183908110614f6657fe5b6020026020010181815250505b615127565b886001600160a01b0316878783818110614f8e57fe5b905060200201356001600160a01b03166001600160a01b03161415614fd957614fb889898561561f565b84602001518281518110614fc857fe5b6020026020010181815250506150d1565b601f546000906001600160a01b031663e64767aa8b8a8a86818110614ffa57fe5b905060200201356001600160a01b0316876040518463ffffffff1660e01b815260040180846001600160a01b03168152602001836001600160a01b03168152602001828152602001935050505060206040518083038186803b15801561505f57600080fd5b505afa158015615073573d6000803e3d6000fd5b505050506040513d602081101561508957600080fd5b505190506150b388888481811061509c57fe5b905060200201356001600160a01b0316828b615832565b856020015183815181106150c357fe5b602002602001018181525050505b615101888888848181106150e157fe5b905060200201356001600160a01b0316866020015184815181106148c157fe5b6001600160801b03168460400151828151811061511a57fe5b6020026020010181815250505b600101614e83565b50505095945050505050565b6000818152600c60205260409020548061169a57601c5460408051637976d5ad60e11b81526004810185905290516001600160a01b039092169163f2edab5a91602480820192602092909190829003018186803b15801561519b57600080fd5b505afa1580156151af573d6000803e3d6000fd5b505050506040513d60208110156151c557600080fd5b505192915050565b600082821115615224576040805162461bcd60e51b815260206004820152601e60248201527f536166654d6174683a207375627472616374696f6e206f766572666c6f770000604482015290519081900360640190fd5b50900390565b600061195660165461386b6013546018546151cd90919063ffffffff16565b600080805b8451518110156154b6578460600151818151811061526857fe5b60200260200101511561527a576154ae565b60008560000151828151811061528c57fe5b60209081029190910181015160008981526007835260408082206001600160a01b03841683528452812092890151805192945090916152d0919086908110612aa357fe5b90506001600160801b038116156153015781546001600160801b03600160801b808304821684900382160291161782555b600061531689604001518681518110612aa357fe5b90506001600160801b038116156153595782546001600160801b031981166001600160801b03918216839003821617845560138054918316918201905595909501945b8715615443576000600a60008c81526020019081526020016000206000866001600160a01b03166001600160a01b0316815260200190815260200160002060008e6001600160a01b03166001600160a01b0316815260200190815260200160002090508060000160009054906101000a900460ff1615615412576040805162461bcd60e51b815260206004820152600f60248201526e185b1c9958591e4818db185a5b5959608a1b604482015290519081900360640190fd5b8054600160ff199091161770ffffffffffffffffffffffffffffffff0019166101006001600160801b038416021790555b8a6001600160a01b03168c6001600160a01b0316856001600160a01b03167f6ec685171a9028d19dc155a48e7824e3c68b03bc8995410e006abe3cbbeb3e2d8d8560405180838152602001826001600160801b031681526020019250505060405180910390a4505050505b60010161524e565b509695505050505050565b600080838311156154d7575060009050806154e0565b50600190508183035b9250929050565b6000806155026201517f6019546137f290919063ffffffff16565b90508084111561554d576040805162461bcd60e51b81526020600482015260116024820152706166746572206461696c79206379636c6560781b604482015290519081900360640190fd5b61555b83613f0d83876151cd565b600101949350505050565b600061195660155461386b6012546017546151cd90919063ffffffff16565b60008082116155db576040805162461bcd60e51b815260206004820152601a60248201527f536166654d6174683a206469766973696f6e206279207a65726f000000000000604482015290519081900360640190fd5b8183816155e457fe5b049392505050565b6000818310156155fc57816127fc565b5090919050565b6001600160a01b03166000908152600b60205260409020541190565b601f5460408051634181ad4160e11b81526001600160a01b038681166004830152602482018590529151600093849316916383035a82916044808301926020929190829003018186803b15801561567557600080fd5b505afa158015615689573d6000803e3d6000fd5b505050506040513d602081101561569f57600080fd5b5051601f5460408051631257fcdb60e31b81526001600160a01b03898116600483015260248201889052915193945060009391909216916392bfe6d8916044808301926020929190829003018186803b1580156156fb57600080fd5b505afa15801561570f573d6000803e3d6000fd5b505050506040513d602081101561572557600080fd5b50519050818114156157465761573d81612710614141565b925050506127fc565b81811161574f57fe5b600082156157655761576383612710614141565b015b6000615773600f89896142b5565b905080156154b65761578784840382614141565b909101979650505050505050565b6000816157a4575060006127fc565b60008481526007602090815260408083206001600160a01b0387168452909152902080546001600160801b0316806157e1576000925050506127fc565b8154600160801b90046001600160801b031684811415615805575091506127fc9050565b806001600160801b0316851061581757fe5b611916612b616001600160801b03848116908890851661490b565b600082615841575060006127fc565b600080615850600f87866142b5565b9050612710811015614d565761586b85612710839003614141565b90910195945050505050565b50805460018160011615610100020316600290046000825580601f1061589d5750612356565b601f0160209004906000526020600020908101906123569190615982565b828054600181600116156101000203166002900490600052602060002090601f0160209004810192826158f15760008555615937565b82601f1061590a57805160ff1916838001178555615937565b82800160010185558215615937579182015b8281111561593757825182559160200191906001019061591c565b506137ee929150615982565b6040518060800160405280606081526020016060815260200160608152602001606081525090565b604080518082019091526000808252602082015290565b5b808211156137ee576000815560010161598356fe5265656e7472616e637947756172643a207265656e7472616e742063616c6c0053616665436173743a2076616c756520646f65736e27742066697420696e203132382062697473536166654d6174683a206d756c7469706c69636174696f6e206f766572666c6f77a2646970667358221220ce5f29c41f624e2c42271f9f021c62ec36834b48241b4963c683285be4f57d0564736f6c63430007060033",
  "linkReferences": {
    "contracts/tokenPools/lib/DataProviderFee.sol": {
      "DataProviderFee": [
        {
          "length": 20,
          "start": 6108
        },
        {
          "length": 20,
          "start": 7031
        }
      ]
    }
  },
  "deployedLinkReferences": {
    "contracts/tokenPools/lib/DataProviderFee.sol": {
      "DataProviderFee": [
        {
          "length": 20,
          "start": 5574
        },
        {
          "length": 20,
          "start": 6497
        }
      ]
    }
  }
}