{
  "_format": "hh-sol-artifact-1",
  "contractName": "GovernorReject",
  "sourceName": "contracts/governance/implementation/GovernorReject.sol",
  "abi": [
    {
      "inputs": [
        {
          "internalType": "uint256[]",
          "name": "_proposalSettings",
          "type": "uint256[]"
        },
        {
          "internalType": "address",
          "name": "_governance",
          "type": "address"
        },
        {
          "internalType": "address",
          "name": "_priceSubmitter",
          "type": "address"
        },
        {
          "internalType": "address",
          "name": "_addressUpdater",
          "type": "address"
        },
        {
          "internalType": "uint256",
          "name": "_rejectionThresholdBIPS",
          "type": "uint256"
        },
        {
          "internalType": "address[]",
          "name": "_proposers",
          "type": "address[]"
        }
      ],
      "stateMutability": "nonpayable",
      "type": "constructor"
    },
    {
      "anonymous": false,
      "inputs": [
        {
          "indexed": false,
          "internalType": "uint256",
          "name": "oldExecutionDelay",
          "type": "uint256"
        },
        {
          "indexed": false,
          "internalType": "uint256",
          "name": "newExecutionDelay",
          "type": "uint256"
        }
      ],
      "name": "ExecutionDelaySet",
      "type": "event"
    },
    {
      "anonymous": false,
      "inputs": [
        {
          "indexed": false,
          "internalType": "uint256",
          "name": "oldExecutionPeriod",
          "type": "uint256"
        },
        {
          "indexed": false,
          "internalType": "uint256",
          "name": "newExecutionPeriod",
          "type": "uint256"
        }
      ],
      "name": "ExecutionPeriodSet",
      "type": "event"
    },
    {
      "anonymous": false,
      "inputs": [
        {
          "indexed": false,
          "internalType": "address",
          "name": "proposedGovernance",
          "type": "address"
        }
      ],
      "name": "GovernanceProposed",
      "type": "event"
    },
    {
      "anonymous": false,
      "inputs": [
        {
          "indexed": false,
          "internalType": "address",
          "name": "oldGovernance",
          "type": "address"
        },
        {
          "indexed": false,
          "internalType": "address",
          "name": "newGoveranance",
          "type": "address"
        }
      ],
      "name": "GovernanceUpdated",
      "type": "event"
    },
    {
      "anonymous": false,
      "inputs": [
        {
          "indexed": false,
          "internalType": "uint256",
          "name": "proposalId",
          "type": "uint256"
        }
      ],
      "name": "ProposalCanceled",
      "type": "event"
    },
    {
      "anonymous": false,
      "inputs": [
        {
          "indexed": false,
          "internalType": "uint256",
          "name": "proposalId",
          "type": "uint256"
        },
        {
          "indexed": false,
          "internalType": "address",
          "name": "proposer",
          "type": "address"
        },
        {
          "indexed": false,
          "internalType": "address[]",
          "name": "targets",
          "type": "address[]"
        },
        {
          "indexed": false,
          "internalType": "uint256[]",
          "name": "values",
          "type": "uint256[]"
        },
        {
          "indexed": false,
          "internalType": "string[]",
          "name": "signatures",
          "type": "string[]"
        },
        {
          "indexed": false,
          "internalType": "bytes[]",
          "name": "calldatas",
          "type": "bytes[]"
        },
        {
          "indexed": false,
          "internalType": "uint256",
          "name": "startTime",
          "type": "uint256"
        },
        {
          "indexed": false,
          "internalType": "uint256",
          "name": "endTime",
          "type": "uint256"
        },
        {
          "indexed": false,
          "internalType": "string",
          "name": "description",
          "type": "string"
        }
      ],
      "name": "ProposalCreated",
      "type": "event"
    },
    {
      "anonymous": false,
      "inputs": [
        {
          "indexed": false,
          "internalType": "uint256",
          "name": "proposalId",
          "type": "uint256"
        }
      ],
      "name": "ProposalExecuted",
      "type": "event"
    },
    {
      "anonymous": false,
      "inputs": [
        {
          "indexed": false,
          "internalType": "uint256",
          "name": "proposalId",
          "type": "uint256"
        },
        {
          "indexed": false,
          "internalType": "uint256",
          "name": "votePowerBlock",
          "type": "uint256"
        },
        {
          "indexed": false,
          "internalType": "uint256",
          "name": "quorumThreshold",
          "type": "uint256"
        },
        {
          "indexed": false,
          "internalType": "uint256",
          "name": "rejectionThreshold",
          "type": "uint256"
        }
      ],
      "name": "ProposalSettingsReject",
      "type": "event"
    },
    {
      "anonymous": false,
      "inputs": [
        {
          "indexed": false,
          "internalType": "uint256",
          "name": "oldProposalThreshold",
          "type": "uint256"
        },
        {
          "indexed": false,
          "internalType": "uint256",
          "name": "newProposalThreshold",
          "type": "uint256"
        }
      ],
      "name": "ProposalThresholdSet",
      "type": "event"
    },
    {
      "anonymous": false,
      "inputs": [
        {
          "indexed": false,
          "internalType": "address[]",
          "name": "addedProposers",
          "type": "address[]"
        },
        {
          "indexed": false,
          "internalType": "address[]",
          "name": "removedProposers",
          "type": "address[]"
        }
      ],
      "name": "ProposersChanged",
      "type": "event"
    },
    {
      "anonymous": false,
      "inputs": [
        {
          "indexed": false,
          "internalType": "uint256",
          "name": "oldQuorumThreshold",
          "type": "uint256"
        },
        {
          "indexed": false,
          "internalType": "uint256",
          "name": "newQuorumThreshold",
          "type": "uint256"
        }
      ],
      "name": "QuorumThresholdSet",
      "type": "event"
    },
    {
      "anonymous": false,
      "inputs": [
        {
          "indexed": false,
          "internalType": "uint256",
          "name": "oldRejectionThreshold",
          "type": "uint256"
        },
        {
          "indexed": false,
          "internalType": "uint256",
          "name": "newRejectionThreshold",
          "type": "uint256"
        }
      ],
      "name": "RejectionThresholdSet",
      "type": "event"
    },
    {
      "anonymous": false,
      "inputs": [
        {
          "indexed": true,
          "internalType": "address",
          "name": "voter",
          "type": "address"
        },
        {
          "indexed": false,
          "internalType": "uint256",
          "name": "proposalId",
          "type": "uint256"
        },
        {
          "indexed": false,
          "internalType": "uint8",
          "name": "support",
          "type": "uint8"
        },
        {
          "indexed": false,
          "internalType": "uint256",
          "name": "weight",
          "type": "uint256"
        },
        {
          "indexed": false,
          "internalType": "string",
          "name": "reason",
          "type": "string"
        }
      ],
      "name": "VoteCast",
      "type": "event"
    },
    {
      "anonymous": false,
      "inputs": [
        {
          "indexed": false,
          "internalType": "uint256",
          "name": "oldVotePowerLifeTimeDays",
          "type": "uint256"
        },
        {
          "indexed": false,
          "internalType": "uint256",
          "name": "newVotePowerLifeTimeDays",
          "type": "uint256"
        }
      ],
      "name": "VotePowerLifeTimeDaysSet",
      "type": "event"
    },
    {
      "anonymous": false,
      "inputs": [
        {
          "indexed": false,
          "internalType": "uint256",
          "name": "oldVotingDelay",
          "type": "uint256"
        },
        {
          "indexed": false,
          "internalType": "uint256",
          "name": "newVotingDelay",
          "type": "uint256"
        }
      ],
      "name": "VotingDelaySet",
      "type": "event"
    },
    {
      "anonymous": false,
      "inputs": [
        {
          "indexed": false,
          "internalType": "uint256",
          "name": "oldVotingPeriod",
          "type": "uint256"
        },
        {
          "indexed": false,
          "internalType": "uint256",
          "name": "newVotingPeriod",
          "type": "uint256"
        }
      ],
      "name": "VotingPeriodSet",
      "type": "event"
    },
    {
      "anonymous": false,
      "inputs": [
        {
          "indexed": false,
          "internalType": "uint256",
          "name": "oldVpBlockPeriodSeconds",
          "type": "uint256"
        },
        {
          "indexed": false,
          "internalType": "uint256",
          "name": "newVpBlockPeriodSeconds",
          "type": "uint256"
        }
      ],
      "name": "VpBlockPeriodSecondsSet",
      "type": "event"
    },
    {
      "inputs": [],
      "name": "BALLOT_TYPEHASH",
      "outputs": [
        {
          "internalType": "bytes32",
          "name": "",
          "type": "bytes32"
        }
      ],
      "stateMutability": "view",
      "type": "function"
    },
    {
      "inputs": [
        {
          "internalType": "uint256",
          "name": "_proposalId",
          "type": "uint256"
        },
        {
          "internalType": "uint8",
          "name": "_support",
          "type": "uint8"
        }
      ],
      "name": "castVote",
      "outputs": [
        {
          "internalType": "uint256",
          "name": "",
          "type": "uint256"
        }
      ],
      "stateMutability": "nonpayable",
      "type": "function"
    },
    {
      "inputs": [
        {
          "internalType": "uint256",
          "name": "_proposalId",
          "type": "uint256"
        },
        {
          "internalType": "uint8",
          "name": "_support",
          "type": "uint8"
        },
        {
          "internalType": "uint8",
          "name": "_v",
          "type": "uint8"
        },
        {
          "internalType": "bytes32",
          "name": "_r",
          "type": "bytes32"
        },
        {
          "internalType": "bytes32",
          "name": "_s",
          "type": "bytes32"
        }
      ],
      "name": "castVoteBySig",
      "outputs": [
        {
          "internalType": "uint256",
          "name": "",
          "type": "uint256"
        }
      ],
      "stateMutability": "nonpayable",
      "type": "function"
    },
    {
      "inputs": [
        {
          "internalType": "uint256",
          "name": "_proposalId",
          "type": "uint256"
        },
        {
          "internalType": "uint8",
          "name": "_support",
          "type": "uint8"
        },
        {
          "internalType": "string",
          "name": "_reason",
          "type": "string"
        }
      ],
      "name": "castVoteWithReason",
      "outputs": [
        {
          "internalType": "uint256",
          "name": "",
          "type": "uint256"
        }
      ],
      "stateMutability": "nonpayable",
      "type": "function"
    },
    {
      "inputs": [
        {
          "internalType": "address[]",
          "name": "_proposersToAdd",
          "type": "address[]"
        },
        {
          "internalType": "address[]",
          "name": "_proposersToRemove",
          "type": "address[]"
        }
      ],
      "name": "changeProposers",
      "outputs": [],
      "stateMutability": "nonpayable",
      "type": "function"
    },
    {
      "inputs": [],
      "name": "claimGovernance",
      "outputs": [],
      "stateMutability": "nonpayable",
      "type": "function"
    },
    {
      "inputs": [
        {
          "internalType": "address[]",
          "name": "_targets",
          "type": "address[]"
        },
        {
          "internalType": "uint256[]",
          "name": "_values",
          "type": "uint256[]"
        },
        {
          "internalType": "bytes[]",
          "name": "_calldatas",
          "type": "bytes[]"
        },
        {
          "internalType": "bytes32",
          "name": "_descriptionHash",
          "type": "bytes32"
        }
      ],
      "name": "execute",
      "outputs": [
        {
          "internalType": "uint256",
          "name": "proposalId",
          "type": "uint256"
        }
      ],
      "stateMutability": "payable",
      "type": "function"
    },
    {
      "inputs": [
        {
          "internalType": "string",
          "name": "_description",
          "type": "string"
        }
      ],
      "name": "execute",
      "outputs": [
        {
          "internalType": "uint256",
          "name": "",
          "type": "uint256"
        }
      ],
      "stateMutability": "nonpayable",
      "type": "function"
    },
    {
      "inputs": [],
      "name": "executionDelay",
      "outputs": [
        {
          "internalType": "uint256",
          "name": "",
          "type": "uint256"
        }
      ],
      "stateMutability": "view",
      "type": "function"
    },
    {
      "inputs": [],
      "name": "executionPeriod",
      "outputs": [
        {
          "internalType": "uint256",
          "name": "",
          "type": "uint256"
        }
      ],
      "stateMutability": "view",
      "type": "function"
    },
    {
      "inputs": [],
      "name": "ftsoManager",
      "outputs": [
        {
          "internalType": "contract IIFtsoManager",
          "name": "",
          "type": "address"
        }
      ],
      "stateMutability": "view",
      "type": "function"
    },
    {
      "inputs": [],
      "name": "getAddressUpdater",
      "outputs": [
        {
          "internalType": "address",
          "name": "_addressUpdater",
          "type": "address"
        }
      ],
      "stateMutability": "view",
      "type": "function"
    },
    {
      "inputs": [
        {
          "internalType": "address[]",
          "name": "_targets",
          "type": "address[]"
        },
        {
          "internalType": "uint256[]",
          "name": "_values",
          "type": "uint256[]"
        },
        {
          "internalType": "bytes[]",
          "name": "_calldatas",
          "type": "bytes[]"
        },
        {
          "internalType": "bytes32",
          "name": "_descriptionHash",
          "type": "bytes32"
        }
      ],
      "name": "getProposalId",
      "outputs": [
        {
          "internalType": "uint256",
          "name": "",
          "type": "uint256"
        }
      ],
      "stateMutability": "pure",
      "type": "function"
    },
    {
      "inputs": [
        {
          "internalType": "uint256",
          "name": "_proposalId",
          "type": "uint256"
        }
      ],
      "name": "getProposalInfo",
      "outputs": [
        {
          "internalType": "address",
          "name": "_proposer",
          "type": "address"
        },
        {
          "internalType": "uint256",
          "name": "_votePowerBlock",
          "type": "uint256"
        },
        {
          "internalType": "uint256",
          "name": "_voteStartTime",
          "type": "uint256"
        },
        {
          "internalType": "uint256",
          "name": "_voteEndTime",
          "type": "uint256"
        },
        {
          "internalType": "uint256",
          "name": "_execStartTime",
          "type": "uint256"
        },
        {
          "internalType": "uint256",
          "name": "_execEndTime",
          "type": "uint256"
        },
        {
          "internalType": "bool",
          "name": "_executed",
          "type": "bool"
        }
      ],
      "stateMutability": "view",
      "type": "function"
    },
    {
      "inputs": [
        {
          "internalType": "uint256",
          "name": "_proposalId",
          "type": "uint256"
        }
      ],
      "name": "getProposalVP",
      "outputs": [
        {
          "internalType": "uint256",
          "name": "_totalVP",
          "type": "uint256"
        },
        {
          "internalType": "uint256",
          "name": "_for",
          "type": "uint256"
        },
        {
          "internalType": "uint256",
          "name": "_against",
          "type": "uint256"
        },
        {
          "internalType": "uint256",
          "name": "_abstain",
          "type": "uint256"
        }
      ],
      "stateMutability": "view",
      "type": "function"
    },
    {
      "inputs": [],
      "name": "getVotePowerLifeTimeDays",
      "outputs": [
        {
          "internalType": "uint256",
          "name": "",
          "type": "uint256"
        }
      ],
      "stateMutability": "view",
      "type": "function"
    },
    {
      "inputs": [
        {
          "internalType": "address",
          "name": "_voter",
          "type": "address"
        },
        {
          "internalType": "uint256",
          "name": "_blockNumber",
          "type": "uint256"
        }
      ],
      "name": "getVotes",
      "outputs": [
        {
          "internalType": "uint256",
          "name": "",
          "type": "uint256"
        }
      ],
      "stateMutability": "view",
      "type": "function"
    },
    {
      "inputs": [],
      "name": "getVpBlockPeriodSeconds",
      "outputs": [
        {
          "internalType": "uint256",
          "name": "",
          "type": "uint256"
        }
      ],
      "stateMutability": "view",
      "type": "function"
    },
    {
      "inputs": [],
      "name": "governance",
      "outputs": [
        {
          "internalType": "address",
          "name": "",
          "type": "address"
        }
      ],
      "stateMutability": "view",
      "type": "function"
    },
    {
      "inputs": [
        {
          "internalType": "uint256",
          "name": "_proposalId",
          "type": "uint256"
        },
        {
          "internalType": "address",
          "name": "_voter",
          "type": "address"
        }
      ],
      "name": "hasVoted",
      "outputs": [
        {
          "internalType": "bool",
          "name": "",
          "type": "bool"
        }
      ],
      "stateMutability": "view",
      "type": "function"
    },
    {
      "inputs": [
        {
          "internalType": "address",
          "name": "_governance",
          "type": "address"
        }
      ],
      "name": "initialise",
      "outputs": [],
      "stateMutability": "nonpayable",
      "type": "function"
    },
    {
      "inputs": [
        {
          "internalType": "address",
          "name": "_account",
          "type": "address"
        }
      ],
      "name": "isProposer",
      "outputs": [
        {
          "internalType": "bool",
          "name": "",
          "type": "bool"
        }
      ],
      "stateMutability": "view",
      "type": "function"
    },
    {
      "inputs": [],
      "name": "priceSubmitter",
      "outputs": [
        {
          "internalType": "contract IPriceSubmitter",
          "name": "",
          "type": "address"
        }
      ],
      "stateMutability": "view",
      "type": "function"
    },
    {
      "inputs": [],
      "name": "proposalThreshold",
      "outputs": [
        {
          "internalType": "uint256",
          "name": "",
          "type": "uint256"
        }
      ],
      "stateMutability": "view",
      "type": "function"
    },
    {
      "inputs": [
        {
          "internalType": "uint256",
          "name": "",
          "type": "uint256"
        }
      ],
      "name": "proposalsSettings",
      "outputs": [
        {
          "internalType": "uint256",
          "name": "quorumThreshold",
          "type": "uint256"
        },
        {
          "internalType": "uint256",
          "name": "rejectionThreshold",
          "type": "uint256"
        }
      ],
      "stateMutability": "view",
      "type": "function"
    },
    {
      "inputs": [
        {
          "internalType": "address[]",
          "name": "_targets",
          "type": "address[]"
        },
        {
          "internalType": "uint256[]",
          "name": "_values",
          "type": "uint256[]"
        },
        {
          "internalType": "bytes[]",
          "name": "_calldatas",
          "type": "bytes[]"
        },
        {
          "internalType": "string",
          "name": "_description",
          "type": "string"
        }
      ],
      "name": "propose",
      "outputs": [
        {
          "internalType": "uint256",
          "name": "",
          "type": "uint256"
        }
      ],
      "stateMutability": "nonpayable",
      "type": "function"
    },
    {
      "inputs": [
        {
          "internalType": "string",
          "name": "_description",
          "type": "string"
        }
      ],
      "name": "propose",
      "outputs": [
        {
          "internalType": "uint256",
          "name": "",
          "type": "uint256"
        }
      ],
      "stateMutability": "nonpayable",
      "type": "function"
    },
    {
      "inputs": [
        {
          "internalType": "address",
          "name": "_governance",
          "type": "address"
        }
      ],
      "name": "proposeGovernance",
      "outputs": [],
      "stateMutability": "nonpayable",
      "type": "function"
    },
    {
      "inputs": [],
      "name": "proposedGovernance",
      "outputs": [
        {
          "internalType": "address",
          "name": "",
          "type": "address"
        }
      ],
      "stateMutability": "view",
      "type": "function"
    },
    {
      "inputs": [
        {
          "internalType": "uint256",
          "name": "_blockNumber",
          "type": "uint256"
        }
      ],
      "name": "quorum",
      "outputs": [
        {
          "internalType": "uint256",
          "name": "",
          "type": "uint256"
        }
      ],
      "stateMutability": "view",
      "type": "function"
    },
    {
      "inputs": [],
      "name": "quorumThreshold",
      "outputs": [
        {
          "internalType": "uint256",
          "name": "",
          "type": "uint256"
        }
      ],
      "stateMutability": "view",
      "type": "function"
    },
    {
      "inputs": [],
      "name": "rejectionThreshold",
      "outputs": [
        {
          "internalType": "uint256",
          "name": "",
          "type": "uint256"
        }
      ],
      "stateMutability": "view",
      "type": "function"
    },
    {
      "inputs": [
        {
          "internalType": "uint256",
          "name": "_executionDelaySeconds",
          "type": "uint256"
        }
      ],
      "name": "setExecutionDelay",
      "outputs": [],
      "stateMutability": "nonpayable",
      "type": "function"
    },
    {
      "inputs": [
        {
          "internalType": "uint256",
          "name": "_executionPeriodSeconds",
          "type": "uint256"
        }
      ],
      "name": "setExecutionPeriod",
      "outputs": [],
      "stateMutability": "nonpayable",
      "type": "function"
    },
    {
      "inputs": [
        {
          "internalType": "uint256",
          "name": "_proposalThresholdBIPS",
          "type": "uint256"
        }
      ],
      "name": "setProposalThreshold",
      "outputs": [],
      "stateMutability": "nonpayable",
      "type": "function"
    },
    {
      "inputs": [
        {
          "internalType": "uint256",
          "name": "_quorumThresholdBIPS",
          "type": "uint256"
        }
      ],
      "name": "setQuorumThreshold",
      "outputs": [],
      "stateMutability": "nonpayable",
      "type": "function"
    },
    {
      "inputs": [
        {
          "internalType": "uint256",
          "name": "_rejectionThresholdBIPS",
          "type": "uint256"
        }
      ],
      "name": "setRejectionThreshold",
      "outputs": [],
      "stateMutability": "nonpayable",
      "type": "function"
    },
    {
      "inputs": [
        {
          "internalType": "uint256",
          "name": "_votePowerLifeTimeDays",
          "type": "uint256"
        }
      ],
      "name": "setVotePowerLifeTimeDays",
      "outputs": [],
      "stateMutability": "nonpayable",
      "type": "function"
    },
    {
      "inputs": [
        {
          "internalType": "uint256",
          "name": "_votingDelaySeconds",
          "type": "uint256"
        }
      ],
      "name": "setVotingDelay",
      "outputs": [],
      "stateMutability": "nonpayable",
      "type": "function"
    },
    {
      "inputs": [
        {
          "internalType": "uint256",
          "name": "_votingPeriodSeconds",
          "type": "uint256"
        }
      ],
      "name": "setVotingPeriod",
      "outputs": [],
      "stateMutability": "nonpayable",
      "type": "function"
    },
    {
      "inputs": [
        {
          "internalType": "uint256",
          "name": "_vpBlockPeriodSeconds",
          "type": "uint256"
        }
      ],
      "name": "setVpBlockPeriodSeconds",
      "outputs": [],
      "stateMutability": "nonpayable",
      "type": "function"
    },
    {
      "inputs": [
        {
          "internalType": "uint256",
          "name": "_proposalId",
          "type": "uint256"
        }
      ],
      "name": "state",
      "outputs": [
        {
          "internalType": "enum IGovernor.ProposalState",
          "name": "",
          "type": "uint8"
        }
      ],
      "stateMutability": "view",
      "type": "function"
    },
    {
      "inputs": [
        {
          "internalType": "address",
          "name": "_governance",
          "type": "address"
        }
      ],
      "name": "transferGovernance",
      "outputs": [],
      "stateMutability": "nonpayable",
      "type": "function"
    },
    {
      "inputs": [
        {
          "internalType": "bytes32[]",
          "name": "_contractNameHashes",
          "type": "bytes32[]"
        },
        {
          "internalType": "address[]",
          "name": "_contractAddresses",
          "type": "address[]"
        }
      ],
      "name": "updateContractAddresses",
      "outputs": [],
      "stateMutability": "nonpayable",
      "type": "function"
    },
    {
      "inputs": [],
      "name": "votePower",
      "outputs": [
        {
          "internalType": "contract IIGovernanceVotePower",
          "name": "",
          "type": "address"
        }
      ],
      "stateMutability": "view",
      "type": "function"
    },
    {
      "inputs": [],
      "name": "votingDelay",
      "outputs": [
        {
          "internalType": "uint256",
          "name": "",
          "type": "uint256"
        }
      ],
      "stateMutability": "view",
      "type": "function"
    },
    {
      "inputs": [],
      "name": "votingPeriod",
      "outputs": [
        {
          "internalType": "uint256",
          "name": "",
          "type": "uint256"
        }
      ],
      "stateMutability": "view",
      "type": "function"
    }
  ],
  "bytecode": "0x6101406040523480156200001257600080fd5b50604051620043f8380380620043f883398101604081905262000035916200087b565b8181878787878083856000815181106200004b57fe5b6020026020010151866001815181106200006157fe5b6020026020010151876002815181106200007757fe5b6020026020010151886003815181106200008d57fe5b602002602001015189600481518110620000a357fe5b60200260200101518a600581518110620000b957fe5b60200260200101518b600681518110620000cf57fe5b60200260200101518c600781518110620000e557fe5b60200260200101518880620000ff6200029660201b60201c565b62000109620002be565b815160208084019190912082519183019190912060c082905260e08190527f8b73c3c69bb8fe3d512ecc4cf759cc79239f7b179b0ffacaa9a75d522b39400f62000152620002d9565b60a05262000162818484620002dd565b60805261010052505050506001600160a01b038116156200018857620001888162000341565b506001600160a01b038116620001d8576040805162461bcd60e51b815260206004820152601060248201526f5f676f7665726e616e6365207a65726f60801b604482015290519081900360640190fd5b50620001e48862000425565b620001ef8762000467565b620001fa86620004a9565b620002058562000517565b620002108462000559565b6200021b83620005be565b620002268262000600565b620002318162000642565b5050505050505050506200024b816200068460201b60201c565b505060601b6001600160601b03191661012052506200026c905082620006a8565b60408051600081526020810190915262000288908290620006ea565b505050505050505062000ab5565b60408051808201909152600e81526d11dbdd995c9b9bdc94995a9958dd60921b602082015290565b6040805180820190915260018152603160f81b602082015290565b4690565b6000838383620002ec620002d9565b3060405160200180868152602001858152602001848152602001838152602001826001600160a01b03168152602001955050505050506040516020818303038152906040528051906020012090509392505050565b600154600160a01b900460ff1615620003a1576040805162461bcd60e51b815260206004820152601460248201527f696e697469616c6973656420213d2066616c7365000000000000000000000000604482015290519081900360640190fd5b6001805460ff60a01b1916600160a01b179055600054604080516001600160a01b039283168152918316602083015280517f434a2db650703b36c824e745330d6397cdaa9ee2cc891a4938ae853e1c50b68d9281900390910190a1600080546001600160a01b039092166001600160a01b0319928316179055600180549091169055565b7fccb45da8d5717e6c4544694297c4ba5cf151d455c9bb0ed4fc7a38411bc05461600254826040516200045a92919062000a65565b60405180910390a1600255565b7fc565b045403dc03c2eea82b81a0465edad9e2e7fc4d97e11421c209da93d7a93600454826040516200049c92919062000a65565b60405180910390a1600455565b60008111620004d55760405162461bcd60e51b8152600401620004cc9062000a2e565b60405180910390fd5b7f7e3f7f0708a84de9203036abaa450dccc85ad5ff52f78c170f3edb55cf5e8828600554826040516200050a92919062000a65565b60405180910390a1600555565b7f2056b1a79eedb94135a24bdb0827c0ac4823d13d69f5cf7923ee5751c53ff645600654826040516200054c92919062000a65565b60405180910390a1600655565b600081116200057c5760405162461bcd60e51b8152600401620004cc90620009f7565b7fdcd7d6f89a192742519ec6798e6340b4e43748282ac27856e823a2579b50fe4360075482604051620005b192919062000a65565b60405180910390a1600755565b7f0cfcb76a49f79cd93ccd078bf042be8eb52f77b087248ba89f14d8f81a605ae660085482604051620005f392919062000a65565b60405180910390a1600855565b7fb0696527788a80f2825d3fd8b9e9c017c6b3d7f5eb5a54eaa86deaa286d10c38600954826040516200063592919062000a65565b60405180910390a1600955565b7fa679132e53a14a0f5674480a8def108a2856034a2338cb9a064e7e2f8badf29e600a54826040516200067792919062000a65565b60405180910390a1600a55565b7f714f205b2abd25bef1d06a1af944e38c113fe6160375c4e1d6d5cf28848e771955565b7f811977de0fae22aa7077f73af3f9bb1a72d4480324b4169353d65ad077d8d01960105482604051620006dd92919062000a65565b60405180910390a1601055565b7f4b8f4e528b6d075c6c9d025e58db64e36b460c1516341b1ab7339b4c6d5bcb8a82826040516200071d929190620009c5565b60405180910390a160005b825181101562000780576001601160008584815181106200074557fe5b6020908102919091018101516001600160a01b03168252810191909152604001600020805460ff191691151591909117905560010162000728565b5060005b8151811015620007dc57600060116000848481518110620007a157fe5b6020908102919091018101516001600160a01b03168252810191909152604001600020805460ff191691151591909117905560010162000784565b505050565b80516001600160a01b0381168114620007f957600080fd5b919050565b600082601f8301126200080f578081fd5b8151602062000828620008228362000a97565b62000a73565b828152818101908583018385028701840188101562000845578586fd5b855b858110156200086e576200085b82620007e1565b8452928401929084019060010162000847565b5090979650505050505050565b60008060008060008060c0878903121562000894578182fd5b86516001600160401b0380821115620008ab578384fd5b818901915089601f830112620008bf578384fd5b81516020620008d2620008228362000a97565b82815281810190858301838502870184018f1015620008ef578889fd5b8896505b8487101562000913578051835260019690960195918301918301620008f3565b509a506200092590508b8201620007e1565b985050506200093760408a01620007e1565b95506200094760608a01620007e1565b94506080890151935060a089015191508082111562000964578283fd5b506200097389828a01620007fe565b9150509295509295509295565b6000815180845260208085019450808401835b83811015620009ba5781516001600160a01b03168752958201959082019060010162000993565b509495945050505050565b600060408252620009da604083018562000980565b8281036020840152620009ee818562000980565b95945050505050565b60208082526018908201527f657865637574696f6e20706572696f6420746f6f206c6f770000000000000000604082015260600190565b60208082526015908201527f766f74696e6720706572696f6420746f6f206c6f770000000000000000000000604082015260600190565b918252602082015260400190565b6040518181016001600160401b038111828210171562000a8f57fe5b604052919050565b60006001600160401b0382111562000aab57fe5b5060209081020190565b60805160a05160c05160e051610100516101205160601c6138f162000b0760003980610fc852806123bc525080611f85525080611fc7525080611fa6525080611f2c525080611f5c52506138f16000f3fe6080604052600436106102885760003560e01c80639d6a890f1161015a578063d11d0d58116100c1578063eb9019d41161007a578063eb9019d414610776578063ece40cc114610796578063f17c9d76146107b6578063f8ce560a146107cb578063f9117862146107eb578063f937d6ad1461080057610288565b8063d11d0d58146106cc578063d38bfff4146106e1578063d99e4b7614610701578063deaaa7cc14610721578063e4917d9f14610736578063ea0217cf1461075657610288565b8063b58131b011610113578063b58131b0146105ff578063ba1b458614610614578063bc903cb814610644578063bd590d7e14610677578063c373a08e14610697578063c8963140146106b757610288565b80639d6a890f14610531578063a7a6224a14610551578063a8f8a66814610571578063aa98df3914610591578063ab61bbfb146105b1578063b00c0b76146105df57610288565b806356781388116101fe57806370b0f660116101b757806370b0f6601461048757806374ec29a0146104a75780637b3c71d3146104c75780637b7a91dd146104e75780637d5e81e2146104fc5780638b2579891461051c57610288565b806356781388146103f35780635aa6e675146104135780635d36b1901461042857806360e775321461043d57806360f7ac971461045d5780636a714a9f1461047257610288565b80633932abb1116102505780633932abb11461032f5780633bccf4fd146103445780633e4f49e61461036457806343859632146103915780634524c7e1146103be5780635267a15d146103de57610288565b806302a251a31461028d578063114ea232146102b857806311a7aaaa146102da57806312d0e9fe146102fc5780632656227d1461031c575b600080fd5b34801561029957600080fd5b506102a2610815565b6040516102af91906132db565b60405180910390f35b3480156102c457600080fd5b506102d86102d3366004612f90565b61081c565b005b3480156102e657600080fd5b506102ef610830565b6040516102af91906131f6565b34801561030857600080fd5b506102d8610317366004612f90565b61083f565b6102a261032a366004612d18565b610850565b34801561033b57600080fd5b506102a2610867565b34801561035057600080fd5b506102a261035f36600461309c565b61086d565b34801561037057600080fd5b5061038461037f366004612f90565b610933565b6040516102af91906132fd565b34801561039d57600080fd5b506103b16103ac366004612fc0565b610954565b6040516102af91906132d0565b3480156103ca57600080fd5b506102d86103d9366004612f90565b610984565b3480156103ea57600080fd5b506102ef610995565b3480156103ff57600080fd5b506102a261040e366004612fef565b6109ba565b34801561041f57600080fd5b506102ef6109de565b34801561043457600080fd5b506102d86109ed565b34801561044957600080fd5b506102d8610458366004612f90565b610aaf565b34801561046957600080fd5b506102ef610ac0565b34801561047e57600080fd5b506102a2610acf565b34801561049357600080fd5b506102d86104a2366004612f90565b610ad5565b3480156104b357600080fd5b506103b16104c2366004612c70565b610ae6565b3480156104d357600080fd5b506102a26104e236600461301a565b610b04565b3480156104f357600080fd5b506102a2610b48565b34801561050857600080fd5b506102a2610517366004612da4565b610b4e565b34801561052857600080fd5b506102a2610b5c565b34801561053d57600080fd5b506102d861054c366004612c70565b610b62565b34801561055d57600080fd5b506102d861056c366004612cb7565b610c3c565b34801561057d57600080fd5b506102a261058c366004612d18565b610c52565b34801561059d57600080fd5b506102a26105ac366004612f08565b610c60565b3480156105bd57600080fd5b506105d16105cc366004612f90565b610ca7565b6040516102af929190613774565b3480156105eb57600080fd5b506102d86105fa366004612e4c565b610cc0565b34801561060b57600080fd5b506102a2610d67565b34801561062057600080fd5b5061063461062f366004612f90565b610d6d565b6040516102af9493929190613782565b34801561065057600080fd5b5061066461065f366004612f90565b610d9e565b6040516102af9796959493929190613223565b34801561068357600080fd5b506102a2610692366004612f08565b610ded565b3480156106a357600080fd5b506102d86106b2366004612c70565b610e3c565b3480156106c357600080fd5b506102a2610e98565b3480156106d857600080fd5b506102a2610e9e565b3480156106ed57600080fd5b506102d86106fc366004612c70565b610ea4565b34801561070d57600080fd5b506102d861071c366004612f90565b610f1d565b34801561072d57600080fd5b506102a2610f2e565b34801561074257600080fd5b506102d8610751366004612f90565b610f52565b34801561076257600080fd5b506102d8610771366004612f90565b610f63565b34801561078257600080fd5b506102a2610791366004612c8c565b610f74565b3480156107a257600080fd5b506102d86107b1366004612f90565b610f80565b3480156107c257600080fd5b506102ef610f91565b3480156107d757600080fd5b506102a26107e6366004612f90565b610fa0565b3480156107f757600080fd5b506102a2610fc0565b34801561080c57600080fd5b506102ef610fc6565b6005545b90565b610824610fea565b61082d8161103d565b50565b600f546001600160a01b031681565b610847610fea565b61082d8161107d565b600061085e858585856110bd565b95945050505050565b60045490565b6000806108cb6108c67f150214d74d59b7d1e90c73fc22ef3d991dd0a76b046543d4d80ab92d2a50328f89896040516020016108ab939291906132e4565b604051602081830303815290604052805190602001206111c6565b611212565b905060006108db82878787611263565b90506001600160a01b03811661090c5760405162461bcd60e51b815260040161090390613498565b60405180910390fd5b610927888289604051806020016040528060008152506113d8565b98975050505050505050565b6000818152600d6020526040812061094c908390611489565b90505b919050565b6000828152600e602090815260408083206001600160a01b038516845260030190915290205460ff165b92915050565b61098c610fea565b61082d8161154f565b7f714f205b2abd25bef1d06a1af944e38c113fe6160375c4e1d6d5cf28848e77195490565b60006109d7833384604051806020016040528060008152506113d8565b9392505050565b6000546001600160a01b031681565b6001546001600160a01b03163314610a3c576040805162461bcd60e51b815260206004820152600d60248201526c1b9bdd0818db185a5b585a5b9d609a1b604482015290519081900360640190fd5b600054600154604080516001600160a01b03938416815292909116602083015280517f434a2db650703b36c824e745330d6397cdaa9ee2cc891a4938ae853e1c50b68d9281900390910190a160018054600080546001600160a01b03199081166001600160a01b03841617909155169055565b610ab7610fea565b61082d8161158f565b6001546001600160a01b031681565b600a5490565b610add610fea565b61082d816115cf565b6001600160a01b031660009081526011602052604090205460ff1690565b600061085e85338686868080601f0160208091040260200160405190810160405280939291908181526020018383808284376000920191909152506113d892505050565b60085490565b600061085e8585858561160f565b60065490565b600154600160a01b900460ff1615610bb8576040805162461bcd60e51b8152602060048201526014602482015273696e697469616c6973656420213d2066616c736560601b604482015290519081900360640190fd5b6001805460ff60a01b1916600160a01b179055600054604080516001600160a01b039283168152918316602083015280517f434a2db650703b36c824e745330d6397cdaa9ee2cc891a4938ae853e1c50b68d9281900390910190a1600080546001600160a01b039092166001600160a01b0319928316179055600180549091169055565b610c44610fea565b610c4e8282611716565b5050565b600061085e85858585611805565b6040805160008082526020820181815282840182815260608401909452909261094c92919084610ca0565b6060815260200190600190039081610c8b5790505b508561160f565b6012602052600090815260409020805460019091015482565b610cc8610995565b6001600160a01b0316336001600160a01b031614610d24576040805162461bcd60e51b815260206004820152601460248201527337b7363c9030b2323932b9b9903ab83230ba32b960611b604482015290519081900360640190fd5b610d5d610d5883836040518060400160405280600e81526020016d20b2323932b9b9aab83230ba32b960911b81525061183f565b611963565b610c4e8282611987565b60025490565b6000908152600e60209081526040808320600d90925290912060070154600282015460018301549254919390929190565b6000908152600d602052604090208054600182015460028301546003840154600485015460058601546006909601546001600160a01b0390951696939592949193909291610100900460ff1690565b6040805160008082526020820181815282840182815260608401909452909261094c92919084610e2d565b6060815260200190600190039081610e185790505b50610e3786611a1e565b6110bd565b610e44610fea565b600180546001600160a01b0383166001600160a01b0319909116811790915560408051918252517f1f95fb40be3a947982072902a887b521248d1d8931a39eb38f84f4d6fd758b699181900360200190a150565b60105490565b60075490565b610eac610fea565b600054604080516001600160a01b039283168152918316602083015280517f434a2db650703b36c824e745330d6397cdaa9ee2cc891a4938ae853e1c50b68d9281900390910190a1600080546001600160a01b039092166001600160a01b0319928316179055600180549091169055565b610f25610fea565b61082d81611a29565b7f150214d74d59b7d1e90c73fc22ef3d991dd0a76b046543d4d80ab92d2a50328f81565b610f5a610fea565b61082d81611a89565b610f6b610fea565b61082d81611ac9565b60006109d78383611b29565b610f88610fea565b61082d81611bac565b600b546001600160a01b031681565b600061094c610fae83611bec565b612710610fb9610b48565b9190611ce4565b60095490565b7f000000000000000000000000000000000000000000000000000000000000000081565b6000546001600160a01b0316331461103b576040805162461bcd60e51b815260206004820152600f60248201526e6f6e6c7920676f7665726e616e636560881b604482015290519081900360640190fd5b565b7f811977de0fae22aa7077f73af3f9bb1a72d4480324b4169353d65ad077d8d01960105482604051611070929190613774565b60405180910390a1601055565b7fa679132e53a14a0f5674480a8def108a2856034a2338cb9a064e7e2f8badf29e600a54826040516110b0929190613774565b60405180910390a1600a55565b60006110cb85858585611805565b6000818152600d60205260409020600681015491925090610100900460ff16156111075760405162461bcd60e51b815260040161090390613669565b80546001600160a01b031633146111305760405162461bcd60e51b815260040161090390613404565b600061113c8383611489565b9050600481600681111561114c57fe5b146111695760405162461bcd60e51b815260040161090390613632565b60068201805461ff001916610100179055611185878787611df0565b7f712ae1383f79ac853f8d882153778e0260ef8f03b504e2866e0593e04d2b291f836040516111b491906132db565b60405180910390a15050949350505050565b60006111d0611f28565b82604051602001808061190160f01b81525060020183815260200182815260200192505050604051602081830303815290604052805190602001209050919050565b604080517f19457468657265756d205369676e6564204d6573736167653a0a333200000000602080830191909152603c8083019490945282518083039094018452605c909101909152815191012090565b60007f7fffffffffffffffffffffffffffffff5d576e7357a4501ddfe92f46681b20a08211156112c45760405162461bcd60e51b81526004018080602001828103825260228152602001806138576022913960400191505060405180910390fd5b8360ff16601b14806112d957508360ff16601c145b6113145760405162461bcd60e51b81526004018080602001828103825260228152602001806138796022913960400191505060405180910390fd5b600060018686868660405160008152602001604052604051808581526020018460ff1681526020018381526020018281526020019450505050506020604051602081039080840390855afa158015611370573d6000803e3d6000fd5b5050604051601f1901519150506001600160a01b03811661085e576040805162461bcd60e51b815260206004820152601860248201527f45434453413a20696e76616c6964207369676e61747572650000000000000000604482015290519081900360640190fd5b6000848152600d6020526040812060016113f28783611489565b60068111156113fd57fe5b1461141a5760405162461bcd60e51b8152600401610903906135a3565b600061142a868360010154611b29565b905061143887878784611ff2565b856001600160a01b03167fb8e138887d0aa13bab447e82de9d5c1777041ecd21ca36ba824ff1e6c07ddda488878488604051611477949392919061379d565b60405180910390a29695505050505050565b6006810154600090610100900460ff16156114a65750600661097e565b60028201546114c75760405162461bcd60e51b8152600401610903906134c8565b42826002015411156114db5750600061097e565b42826003015411156114ef5750600161097e565b6114fd8383600701546120c5565b1561154657600682015460ff166115165750600461097e565b428260040154111561152a5750600361097e565b428260050154111561153e5750600461097e565b50600561097e565b50600292915050565b7f0cfcb76a49f79cd93ccd078bf042be8eb52f77b087248ba89f14d8f81a605ae660085482604051611582929190613774565b60405180910390a1600855565b7fb0696527788a80f2825d3fd8b9e9c017c6b3d7f5eb5a54eaa86deaa286d10c38600954826040516115c2929190613774565b60405180910390a1600955565b7fc565b045403dc03c2eea82b81a0465edad9e2e7fc4d97e11421c209da93d7a9360045482604051611602929190613774565b60405180910390a1600455565b600080600061161c61213d565b9150915061162a33836124a6565b6116465760405162461bcd60e51b81526004016109039061337f565b600080611662338a8a8a8a89893061165d8d611bec565b6124c2565b9150915061166f82612856565b7f7d84a6263ae0d98d3329bd7b46bb4e8d6f98cd35a7adb45c274c8b7fd5ebd5e082338b8b8d5167ffffffffffffffff811180156116ac57600080fd5b506040519080825280602002602001820160405280156116e057816020015b60608152602001906001900390816116cb5790505b508c876002015488600301548e604051611702999897969594939291906136a0565b60405180910390a150979650505050505050565b7f4b8f4e528b6d075c6c9d025e58db64e36b460c1516341b1ab7339b4c6d5bcb8a8282604051611747929190613260565b60405180910390a160005b82518110156117a75760016011600085848151811061176d57fe5b6020908102919091018101516001600160a01b03168252810191909152604001600020805460ff1916911515919091179055600101611752565b5060005b8151811015611800576000601160008484815181106117c657fe5b6020908102919091018101516001600160a01b03168252810191909152604001600020805460ff19169115159190911790556001016117ab565b505050565b60008484848460405160200161181e9493929190613285565b60408051601f19818403018152919052805160209091012095945050505050565b600080826040516020018080602001828103825283818151815260200191508051906020019080838360005b8381101561188357818101518382015260200161186b565b50505050905090810190601f1680156118b05780820380516001836020036101000a031916815260200191505b50925050506040516020818303038152906040528051906020012090506000805b8651811015611918578681815181106118e657fe5b60200260200101518314156119105785818151811061190157fe5b60200260200101519150611918565b6001016118d1565b506001600160a01b03811661085e576040805162461bcd60e51b815260206004820152600c60248201526b61646472657373207a65726f60a01b604482015290519081900360640190fd5b7f714f205b2abd25bef1d06a1af944e38c113fe6160375c4e1d6d5cf28848e771955565b6119b582826040518060400160405280600b81526020016a233a39b7a6b0b730b3b2b960a91b81525061183f565b600f60006101000a8154816001600160a01b0302191690836001600160a01b031602179055506000611a1383836040518060400160405280601381526020017223b7bb32b93730b731b2ab37ba32a837bbb2b960691b81525061183f565b9050611800816128d3565b805160209091012090565b60008111611a495760405162461bcd60e51b8152600401610903906134f5565b7fdcd7d6f89a192742519ec6798e6340b4e43748282ac27856e823a2579b50fe4360075482604051611a7c929190613774565b60405180910390a1600755565b7f2056b1a79eedb94135a24bdb0827c0ac4823d13d69f5cf7923ee5751c53ff64560065482604051611abc929190613774565b60405180910390a1600655565b60008111611ae95760405162461bcd60e51b815260040161090390613574565b7f7e3f7f0708a84de9203036abaa450dccc85ad5ff52f78c170f3edb55cf5e882860055482604051611b1c929190613774565b60405180910390a1600555565b600b54604051631257fcdb60e31b81526000916001600160a01b0316906392bfe6d890611b5c908690869060040161320a565b60206040518083038186803b158015611b7457600080fd5b505afa158015611b88573d6000803e3d6000fd5b505050506040513d601f19601f820116820180604052508101906109d79190612fa8565b7fccb45da8d5717e6c4544694297c4ba5cf151d455c9bb0ed4fc7a38411bc0546160025482604051611bdf929190613774565b60405180910390a1600255565b600b5460408051636537188360e01b815290516000926001600160a01b0316916365371883916004808301926020929190829003018186803b158015611c3157600080fd5b505afa158015611c45573d6000803e3d6000fd5b505050506040513d601f19601f82011682018060405250810190611c699190612eec565b6001600160a01b0316633e5aa26a836040518263ffffffff1660e01b8152600401611c9491906132db565b60206040518083038186803b158015611cac57600080fd5b505afa158015611cc0573d6000803e3d6000fd5b505050506040513d601f19601f8201168201806040525081019061094c9190612fa8565b6000808211611d2d576040805162461bcd60e51b815260206004820152601060248201526f4469766973696f6e206279207a65726f60801b604482015290519081900360640190fd5b83611d3a575060006109d7565b83830283858281611d4757fe5b041415611d6057828181611d5757fe5b049150506109d7565b6000838681611d6b57fe5b0490506000848781611d7957fe5b0690506000858781611d8757fe5b0490506000868881611d9557fe5b069050611de3611daf88611da986856128f5565b9061294e565b611ddd611dbc86866128f5565b611ddd611dc989876128f5565b611ddd8d611dd78c8b6128f5565b906128f5565b906129b5565b9998505050505050505050565b6000805b8351811015611e2257838181518110611e0957fe5b6020026020010151820191508080600101915050611df4565b50803414611e425760405162461bcd60e51b81526004016109039061352c565b60005b8451811015611f2157600080868381518110611e5d57fe5b60200260200101516001600160a01b0316868481518110611e7a57fe5b6020026020010151868581518110611e8e57fe5b6020026020010151604051611ea391906131da565b60006040518083038185875af1925050503d8060008114611ee0576040519150601f19603f3d011682016040523d82523d6000602084013e611ee5565b606091505b509150915081611f1757805115611eff5780518082602001fd5b60405162461bcd60e51b8152600401610903906133cd565b5050600101611e45565b5050505050565b60007f0000000000000000000000000000000000000000000000000000000000000000611f53612a0f565b1415611f8057507f0000000000000000000000000000000000000000000000000000000000000000610819565b611feb7f00000000000000000000000000000000000000000000000000000000000000007f00000000000000000000000000000000000000000000000000000000000000007f0000000000000000000000000000000000000000000000000000000000000000612a13565b9050610819565b6000848152600e602090815260408083206001600160a01b0387168452600381019092529091205460ff161561203a5760405162461bcd60e51b815260040161090390613607565b6001600160a01b03841660009081526003820160205260408120805460ff1916600117905560ff168360ff16141561207b5760018101805483019055611f21565b60ff8316600114156120965760028101805483019055611f21565b60ff8316600214156120ad57805482018155611f21565b60405162461bcd60e51b8152600401610903906135d0565b6000828152600e602090815260408083206012909252822080546120ec9085612710611ce4565b6002830154600184015484540101101561210b5760009250505061097e565b600181015461211d9085612710611ce4565b8260010154106121325760009250505061097e565b506001949350505050565b6000806000600f60009054906101000a90046001600160a01b03166001600160a01b031663e7c830d46040518163ffffffff1660e01b815260040160206040518083038186803b15801561219057600080fd5b505afa1580156121a4573d6000803e3d6000fd5b505050506040513d601f19601f820116820180604052508101906121c89190612fa8565b600f5460405163e5399da360e01b81529192506000916001600160a01b039091169063e5399da3906121fe9085906004016132db565b60606040518083038186803b15801561221657600080fd5b505afa15801561222a573d6000803e3d6000fd5b505050506040513d601f19601f8201168201806040525081019061224e9190612f3b565b905043600061225b610acf565b90506000600b60009054906101000a90046001600160a01b03166001600160a01b031663a72ec4b66040518163ffffffff1660e01b815260040160206040518083038186803b1580156122ad57600080fd5b505afa1580156122c1573d6000803e3d6000fd5b505050506040513d601f19601f820116820180604052508101906122e59190612fa8565b90505b84156123aa57600f5460405163e5399da360e01b81526000916001600160a01b03169063e5399da390612323906000198a01906004016132db565b60606040518083038186803b15801561233b57600080fd5b505afa15801561234f573d6000803e3d6000fd5b505050506040513d601f19601f820116820180604052508101906123739190612f3b565b60408101519091504203838110158061238f5750828260200151105b1561239b5750506123aa565b506000199095019493506122e8565b600084602001519050600042905060007f00000000000000000000000000000000000000000000000000000000000000006001600160a01b031663d89601fd6040518163ffffffff1660e01b815260040160206040518083038186803b15801561241357600080fd5b505afa158015612427573d6000803e3d6000fd5b505050506040513d601f19601f8201168201806040525081019061244b9190612fa8565b905060008282604051602001612462929190613774565b6040516020818303038152906040528051906020012060001c90506000848803828161248a57fe5b6040909a015199069097039a5096985050505050505050509091565b60006124b183610ae6565b80156109d757506109d78383612a75565b60008088518a51146124e65760405162461bcd60e51b815260040161090390613311565b87518a51146125075760405162461bcd60e51b815260040161090390613311565b600061251d8b8b8b6125188c611a1e565b611805565b6000818152600d60205260409020600281015491925090156125515760405162461bcd60e51b815260040161090390613348565b80546001600160a01b0319166001600160a01b038e81169190911782556001820189905560408051633932abb160e01b8152905191881691633932abb191600480820192602092909190829003018186803b1580156125af57600080fd5b505afa1580156125c3573d6000803e3d6000fd5b505050506040513d601f19601f820116820180604052508101906125e79190612fa8565b42018160020181905550856001600160a01b03166302a251a36040518163ffffffff1660e01b815260040160206040518083038186803b15801561262a57600080fd5b505afa15801561263e573d6000803e3d6000fd5b505050506040513d601f19601f820116820180604052508101906126629190612fa8565b8160020154018160030181905550856001600160a01b031663f91178626040518163ffffffff1660e01b815260040160206040518083038186803b1580156126a957600080fd5b505afa1580156126bd573d6000803e3d6000fd5b505050506040513d601f19601f820116820180604052508101906126e19190612fa8565b603c02603c02601802878260030154031061270e5760405162461bcd60e51b815260040161090390613451565b8b511561283d5760068101805460ff1916600117905560408051638b25798960e01b815290516001600160a01b03881691638b257989916004808301926020929190829003018186803b15801561276457600080fd5b505afa158015612778573d6000803e3d6000fd5b505050506040513d601f19601f8201168201806040525081019061279c9190612fa8565b60038201540160048201819055600c5411156127bb57600c5460048201555b856001600160a01b031663d11d0d586040518163ffffffff1660e01b815260040160206040518083038186803b1580156127f457600080fd5b505afa158015612808573d6000803e3d6000fd5b505050506040513d601f19601f8201168201806040525081019061282c9190612fa8565b60048201540160058201819055600c555b60078101949094559b929a509198505050505050505050565b600081815260126020526040902061286c610b48565b8155612876610e98565b60018083018290556000848152600d60205260409081902090910154835491517fdf4f29b4a2b353839338e407ea1502556e65fb8ea1fce49c830520f3628c7394936128c793879392909190613782565b60405180910390a15050565b600b80546001600160a01b0319166001600160a01b0392909216919091179055565b6000826129045750600061097e565b8282028284828161291157fe5b04146109d75760405162461bcd60e51b815260040180806020018281038252602181526020018061389b6021913960400191505060405180910390fd5b60008082116129a4576040805162461bcd60e51b815260206004820152601a60248201527f536166654d6174683a206469766973696f6e206279207a65726f000000000000604482015290519081900360640190fd5b8183816129ad57fe5b049392505050565b6000828201838110156109d7576040805162461bcd60e51b815260206004820152601b60248201527f536166654d6174683a206164646974696f6e206f766572666c6f770000000000604482015290519081900360640190fd5b4690565b6000838383612a20612a0f565b3060405160200180868152602001858152602001848152602001838152602001826001600160a01b03168152602001955050505050506040516020818303038152906040528051906020012090509392505050565b600080612a80610d67565b9050801580612aad5750612aa0612a9684611bec565b8290612710611ce4565b612aaa8585611b29565b10155b949350505050565b600067ffffffffffffffff831115612ac957fe5b612adc601f8401601f19166020016137cf565b9050828152838383011115612af057600080fd5b828260208301376000602084830101529392505050565b600082601f830112612b17578081fd5b81356020612b2c612b27836137f3565b6137cf565b8281528181019085830183850287018401881015612b48578586fd5b855b85811015612b6f578135612b5d81613841565b84529284019290840190600101612b4a565b5090979650505050505050565b600082601f830112612b8c578081fd5b81356020612b9c612b27836137f3565b82815281810190858301855b85811015612b6f578135880189603f820112612bc2578788fd5b612bd38a8783013560408401612ab5565b8552509284019290840190600101612ba8565b600082601f830112612bf6578081fd5b81356020612c06612b27836137f3565b8281528181019085830183850287018401881015612c22578586fd5b855b85811015612b6f57813584529284019290840190600101612c24565b600082601f830112612c50578081fd5b6109d783833560208501612ab5565b803560ff8116811461094f57600080fd5b600060208284031215612c81578081fd5b81356109d781613841565b60008060408385031215612c9e578081fd5b8235612ca981613841565b946020939093013593505050565b60008060408385031215612cc9578182fd5b823567ffffffffffffffff80821115612ce0578384fd5b612cec86838701612b07565b93506020850135915080821115612d01578283fd5b50612d0e85828601612b07565b9150509250929050565b60008060008060808587031215612d2d578182fd5b843567ffffffffffffffff80821115612d44578384fd5b612d5088838901612b07565b95506020870135915080821115612d65578384fd5b612d7188838901612be6565b94506040870135915080821115612d86578384fd5b50612d9387828801612b7c565b949793965093946060013593505050565b60008060008060808587031215612db9578182fd5b843567ffffffffffffffff80821115612dd0578384fd5b612ddc88838901612b07565b95506020870135915080821115612df1578384fd5b612dfd88838901612be6565b94506040870135915080821115612e12578384fd5b612e1e88838901612b7c565b93506060870135915080821115612e33578283fd5b50612e4087828801612c40565b91505092959194509250565b60008060408385031215612e5e578182fd5b823567ffffffffffffffff80821115612e75578384fd5b818501915085601f830112612e88578384fd5b81356020612e98612b27836137f3565b82815281810190858301838502870184018b1015612eb4578889fd5b8896505b84871015612ed6578035835260019690960195918301918301612eb8565b5096505086013592505080821115612d01578283fd5b600060208284031215612efd578081fd5b81516109d781613841565b600060208284031215612f19578081fd5b813567ffffffffffffffff811115612f2f578182fd5b612aad84828501612c40565b600060608284031215612f4c578081fd5b6040516060810181811067ffffffffffffffff82111715612f6957fe5b80604052508251815260208301516020820152604083015160408201528091505092915050565b600060208284031215612fa1578081fd5b5035919050565b600060208284031215612fb9578081fd5b5051919050565b60008060408385031215612fd2578182fd5b823591506020830135612fe481613841565b809150509250929050565b60008060408385031215613001578182fd5b8235915061301160208401612c5f565b90509250929050565b6000806000806060858703121561302f578182fd5b8435935061303f60208601612c5f565b9250604085013567ffffffffffffffff8082111561305b578384fd5b818701915087601f83011261306e578384fd5b81358181111561307c578485fd5b88602082850101111561308d578485fd5b95989497505060200194505050565b600080600080600060a086880312156130b3578283fd5b853594506130c360208701612c5f565b93506130d160408701612c5f565b94979396509394606081013594506080013592915050565b6000815180845260208085019450808401835b838110156131215781516001600160a01b0316875295820195908201906001016130fc565b509495945050505050565b6000815180845260208085018081965082840281019150828601855b858110156131725782840389526131608483516131ae565b98850198935090840190600101613148565b5091979650505050505050565b6000815180845260208085019450808401835b8381101561312157815187529582019590820190600101613192565b600081518084526131c6816020860160208601613811565b601f01601f19169290920160200192915050565b600082516131ec818460208701613811565b9190910192915050565b6001600160a01b0391909116815260200190565b6001600160a01b03929092168252602082015260400190565b6001600160a01b03979097168752602087019590955260408601939093526060850191909152608084015260a0830152151560c082015260e00190565b60006040825261327360408301856130e9565b828103602084015261085e81856130e9565b60006080825261329860808301876130e9565b82810360208401526132aa818761317f565b905082810360408401526132be818661312c565b91505082606083015295945050505050565b901515815260200190565b90815260200190565b928352602083019190915260ff16604082015260600190565b602081016007831061330b57fe5b91905290565b60208082526017908201527f696e76616c69642070726f706f73616c206c656e677468000000000000000000604082015260600190565b60208082526017908201527f70726f706f73616c20616c726561647920657869737473000000000000000000604082015260600190565b6020808252602e908201527f7375626d6974746572206973206e6f7420656c696769626c6520746f2073756260408201526d1b5a5d0818481c1c9bdc1bdcd85b60921b606082015260800190565b6020808252601d908201527f63616c6c20726576657274656420776974686f7574206d657373616765000000604082015260600190565b6020808252602d908201527f70726f706f73616c2063616e206f6e6c7920626520657865637574656420627960408201526c1034ba3990383937b837b9b2b960991b606082015260800190565b60208082526027908201527f766f746520706f77657220626c6f636b20697320746f6f2066617220696e20746040820152661a19481c185cdd60ca1b606082015260800190565b602080825260169082015275696e76616c696420766f7465207369676e617475726560501b604082015260600190565b6020808252601390820152721d5b9adb9bdddb881c1c9bdc1bdcd85b081a59606a1b604082015260600190565b60208082526018908201527f657865637574696f6e20706572696f6420746f6f206c6f770000000000000000604082015260600190565b60208082526028908201527f73756d206f66205f76616c75657320646f6573206e6f7420657175616c73206d60408201526773672e76616c756560c01b606082015260800190565b602080825260159082015274766f74696e6720706572696f6420746f6f206c6f7760581b604082015260600190565b60208082526013908201527270726f706f73616c206e6f742061637469766560681b604082015260600190565b6020808252601f908201527f696e76616c69642076616c756520666f7220656e756d20566f74655479706500604082015260600190565b6020808252601190820152701d9bdd1948185b1c9958591e4818d85cdd607a1b604082015260600190565b6020808252601f908201527f70726f706f73616c206e6f7420696e20657865637574696f6e20737461746500604082015260600190565b60208082526019908201527f70726f706f73616c20616c726561647920657865637574656400000000000000604082015260600190565b60006101208b8352602060018060a01b038c16818501528160408501526136c98285018c6130e9565b915083820360608501526136dd828b61317f565b848103608086015289518082529092508183019082810284018301838c01865b8381101561372b57601f198784030185526137198383516131ae565b948601949250908501906001016136fd565b505086810360a088015261373f818c61312c565b9450505050508560c08401528460e084015282810361010084015261376481856131ae565b9c9b505050505050505050505050565b918252602082015260400190565b93845260208401929092526040830152606082015260800190565b600085825260ff85166020830152836040830152608060608301526137c560808301846131ae565b9695505050505050565b60405181810167ffffffffffffffff811182821017156137eb57fe5b604052919050565b600067ffffffffffffffff82111561380757fe5b5060209081020190565b60005b8381101561382c578181015183820152602001613814565b8381111561383b576000848401525b50505050565b6001600160a01b038116811461082d57600080fdfe45434453413a20696e76616c6964207369676e6174757265202773272076616c756545434453413a20696e76616c6964207369676e6174757265202776272076616c7565536166654d6174683a206d756c7469706c69636174696f6e206f766572666c6f77a2646970667358221220dfd2bb7cf41f2b77fd603a197d2928b72adb6c427bbc9d8e49bf54b84645744d64736f6c63430007060033",
  "linkReferences": {},
  "deployedLinkReferences": {}
}