{
  "_format": "hh-sol-artifact-1",
  "contractName": "GovernanceVotePower",
  "sourceName": "contracts/token/implementation/GovernanceVotePower.sol",
  "abi": [
    {
      "inputs": [
        {
          "internalType": "contract IVPToken",
          "name": "_ownerToken",
          "type": "address"
        }
      ],
      "stateMutability": "nonpayable",
      "type": "constructor"
    },
    {
      "anonymous": false,
      "inputs": [
        {
          "indexed": true,
          "internalType": "address",
          "name": "delegator",
          "type": "address"
        },
        {
          "indexed": true,
          "internalType": "address",
          "name": "fromDelegate",
          "type": "address"
        },
        {
          "indexed": true,
          "internalType": "address",
          "name": "toDelegate",
          "type": "address"
        }
      ],
      "name": "DelegateChanged",
      "type": "event"
    },
    {
      "anonymous": false,
      "inputs": [
        {
          "indexed": true,
          "internalType": "address",
          "name": "delegate",
          "type": "address"
        },
        {
          "indexed": false,
          "internalType": "uint256",
          "name": "previousBalance",
          "type": "uint256"
        },
        {
          "indexed": false,
          "internalType": "uint256",
          "name": "newBalance",
          "type": "uint256"
        }
      ],
      "name": "DelegateVotesChanged",
      "type": "event"
    },
    {
      "inputs": [],
      "name": "cleanerContract",
      "outputs": [
        {
          "internalType": "address",
          "name": "",
          "type": "address"
        }
      ],
      "stateMutability": "view",
      "type": "function"
    },
    {
      "inputs": [
        {
          "internalType": "address",
          "name": "_to",
          "type": "address"
        }
      ],
      "name": "delegate",
      "outputs": [],
      "stateMutability": "nonpayable",
      "type": "function"
    },
    {
      "inputs": [
        {
          "internalType": "address",
          "name": "_owner",
          "type": "address"
        },
        {
          "internalType": "uint256",
          "name": "_count",
          "type": "uint256"
        }
      ],
      "name": "delegatedGovernanceVotePowerHistoryCleanup",
      "outputs": [
        {
          "internalType": "uint256",
          "name": "",
          "type": "uint256"
        }
      ],
      "stateMutability": "nonpayable",
      "type": "function"
    },
    {
      "inputs": [
        {
          "internalType": "address",
          "name": "_owner",
          "type": "address"
        },
        {
          "internalType": "uint256",
          "name": "_count",
          "type": "uint256"
        }
      ],
      "name": "delegatesHistoryCleanup",
      "outputs": [
        {
          "internalType": "uint256",
          "name": "",
          "type": "uint256"
        }
      ],
      "stateMutability": "nonpayable",
      "type": "function"
    },
    {
      "inputs": [],
      "name": "getCleanupBlockNumber",
      "outputs": [
        {
          "internalType": "uint256",
          "name": "",
          "type": "uint256"
        }
      ],
      "stateMutability": "view",
      "type": "function"
    },
    {
      "inputs": [
        {
          "internalType": "address",
          "name": "_who",
          "type": "address"
        },
        {
          "internalType": "uint256",
          "name": "_blockNumber",
          "type": "uint256"
        }
      ],
      "name": "getDelegateOfAt",
      "outputs": [
        {
          "internalType": "address",
          "name": "",
          "type": "address"
        }
      ],
      "stateMutability": "view",
      "type": "function"
    },
    {
      "inputs": [
        {
          "internalType": "address",
          "name": "_who",
          "type": "address"
        }
      ],
      "name": "getDelegateOfAtNow",
      "outputs": [
        {
          "internalType": "address",
          "name": "",
          "type": "address"
        }
      ],
      "stateMutability": "view",
      "type": "function"
    },
    {
      "inputs": [
        {
          "internalType": "address",
          "name": "_who",
          "type": "address"
        }
      ],
      "name": "getVotes",
      "outputs": [
        {
          "internalType": "uint256",
          "name": "",
          "type": "uint256"
        }
      ],
      "stateMutability": "view",
      "type": "function"
    },
    {
      "inputs": [],
      "name": "ownerToken",
      "outputs": [
        {
          "internalType": "contract IVPToken",
          "name": "",
          "type": "address"
        }
      ],
      "stateMutability": "view",
      "type": "function"
    },
    {
      "inputs": [
        {
          "internalType": "address",
          "name": "_cleanerContract",
          "type": "address"
        }
      ],
      "name": "setCleanerContract",
      "outputs": [],
      "stateMutability": "nonpayable",
      "type": "function"
    },
    {
      "inputs": [
        {
          "internalType": "uint256",
          "name": "_blockNumber",
          "type": "uint256"
        }
      ],
      "name": "setCleanupBlockNumber",
      "outputs": [],
      "stateMutability": "nonpayable",
      "type": "function"
    },
    {
      "inputs": [],
      "name": "undelegate",
      "outputs": [],
      "stateMutability": "nonpayable",
      "type": "function"
    },
    {
      "inputs": [
        {
          "internalType": "address",
          "name": "_from",
          "type": "address"
        },
        {
          "internalType": "address",
          "name": "_to",
          "type": "address"
        },
        {
          "internalType": "uint256",
          "name": "",
          "type": "uint256"
        },
        {
          "internalType": "uint256",
          "name": "",
          "type": "uint256"
        },
        {
          "internalType": "uint256",
          "name": "_amount",
          "type": "uint256"
        }
      ],
      "name": "updateAtTokenTransfer",
      "outputs": [],
      "stateMutability": "nonpayable",
      "type": "function"
    },
    {
      "inputs": [
        {
          "internalType": "address",
          "name": "_who",
          "type": "address"
        },
        {
          "internalType": "uint256",
          "name": "_blockNumber",
          "type": "uint256"
        }
      ],
      "name": "votePowerOfAt",
      "outputs": [
        {
          "internalType": "uint256",
          "name": "",
          "type": "uint256"
        }
      ],
      "stateMutability": "view",
      "type": "function"
    }
  ],
  "bytecode": "0x60a060405234801561001057600080fd5b506040516118603803806118608339818101604052602081101561003357600080fd5b50516001600160a01b03811661007a5760405162461bcd60e51b815260040180806020018281038252602c815260200180611834602c913960400191505060405180910390fd5b606081901b6001600160601b0319166080526001600160a01b03166117656100cf600039806102f1528061031a528061055f528061069b52806106f952806107e852806109ac52806109d552506117656000f3fe608060405234801561001057600080fd5b50600436106100ea5760003560e01c80639ab24eb01161008c578063b3e871ee11610066578063b3e871ee1461022c578063eadb436214610252578063f6a494af14610294578063f7ce0ddf146102ba576100ea565b80639ab24eb0146101f65780639ca20e4e1461021c578063a72ec4b614610224576100ea565b80635c19a95c116100c85780635c19a95c1461019457806365371883146101ba57806392ab89bb146101c257806392bfe6d8146101ca576100ea565b806313de97f5146100ef57806329a59ff21461010e5780633c028e9d1461014c575b600080fd5b61010c6004803603602081101561010557600080fd5b50356102e6565b005b61013a6004803603604081101561012457600080fd5b506001600160a01b038135169060200135610479565b60408051918252519081900360200190f35b6101786004803603604081101561016257600080fd5b506001600160a01b0381351690602001356104ef565b604080516001600160a01b039092168252519081900360200190f35b61010c600480360360208110156101aa57600080fd5b50356001600160a01b03166104fd565b610178610699565b61010c6106bd565b61013a600480360360408110156101e057600080fd5b506001600160a01b0381351690602001356106c9565b61013a6004803603602081101561020c57600080fd5b50356001600160a01b03166107a7565b6101786107bb565b61013a6107ca565b6101786004803603602081101561024257600080fd5b50356001600160a01b03166107d0565b61010c600480360360a081101561026857600080fd5b506001600160a01b038135811691602081013590911690604081013590606081013590608001356107dd565b61010c600480360360208110156102aa57600080fd5b50356001600160a01b03166109a1565b61013a600480360360408110156102d057600080fd5b506001600160a01b038135169060200135610ad2565b336001600160a01b037f00000000000000000000000000000000000000000000000000000000000000001614806103a957507f00000000000000000000000000000000000000000000000000000000000000006001600160a01b0316635aa6e6756040518163ffffffff1660e01b815260040160206040518083038186803b15801561037157600080fd5b505afa158015610385573d6000803e3d6000fd5b505050506040513d602081101561039b57600080fd5b50516001600160a01b031633145b6103f5576040805162461bcd60e51b81526020600482015260186024820152776f6e6c79206f776e6572206f7220676f7665726e616e636560401b604482015290519081900360640190fd5b6002548110156104365760405162461bcd60e51b81526004018080602001828103825260288152602001806116b26028913960400191505060405180910390fd5b4381106104745760405162461bcd60e51b81526004018080602001828103825260218152602001806116916021913960400191505060405180910390fd5b600255565b6003546000906001600160a01b031633146104d3576040805162461bcd60e51b81526020600482015260156024820152741bdb9b1e4818db19585b995c8818dbdb9d1c9858dd605a1b604482015290519081900360640190fd5b6002546104e69060009085908590610b3f565b90505b92915050565b60006104e660018484610b86565b6001600160a01b03811633141561055b576040805162461bcd60e51b815260206004820152601a60248201527f63616e27742064656c656761746520746f20796f757273656c66000000000000604482015290519081900360640190fd5b60007f00000000000000000000000000000000000000000000000000000000000000006001600160a01b03166370a08231336040518263ffffffff1660e01b815260040180826001600160a01b0316815260200191505060206040518083038186803b1580156105ca57600080fd5b505afa1580156105de573d6000803e3d6000fd5b505050506040513d60208110156105f457600080fd5b505190506000610603336107d0565b90506001600160a01b0381161561061f5761061f338284610bb3565b61062b60013385610c39565b6002805461063e91600191339190610c61565b506001600160a01b0383161561065957610659338484610c95565b6040516001600160a01b03808516919083169033907f3134e8a2e6d97e929a7e54011ea5485d7d196dd5f0ba4d4ef95803e8e3fc257f90600090a4505050565b7f000000000000000000000000000000000000000000000000000000000000000081565b6106c760006104fd565b565b6000806106d7818585610caf565b905060006106e585856104ef565b90506001600160a01b03811661079f5760007f00000000000000000000000000000000000000000000000000000000000000006001600160a01b0316634ee2cd7e87876040518363ffffffff1660e01b815260040180836001600160a01b031681526020018281526020019250505060206040518083038186803b15801561076c57600080fd5b505afa158015610780573d6000803e3d6000fd5b505050506040513d602081101561079657600080fd5b50519290920191505b509392505050565b60006107b382436106c9565b90505b919050565b6003546001600160a01b031681565b60025490565b60006107b3600183610cd1565b336001600160a01b037f0000000000000000000000000000000000000000000000000000000000000000161461084d576040805162461bcd60e51b815260206004820152601060248201526f37b7363c9037bbb732b9103a37b5b2b760811b604482015290519081900360640190fd5b836001600160a01b0316856001600160a01b031614156108b4576040805162461bcd60e51b815260206004820152601a60248201527f43616e2774207472616e7366657220746f20796f757273656c66000000000000604482015290519081900360640190fd5b6001600160a01b0385161515806108d357506001600160a01b03841615155b6108dc57600080fd5b60006108e7866107d0565b905060006108f4866107d0565b90506001600160a01b038716610923576001600160a01b0381161561091e5761091e868285610c95565b610998565b6001600160a01b03861661094b576001600160a01b0382161561091e5761091e878385610bb3565b806001600160a01b0316826001600160a01b031614610998576001600160a01b0382161561097e5761097e878385610bb3565b6001600160a01b0381161561099857610998868285610c95565b50505050505050565b336001600160a01b037f0000000000000000000000000000000000000000000000000000000000000000161480610a6457507f00000000000000000000000000000000000000000000000000000000000000006001600160a01b0316635aa6e6756040518163ffffffff1660e01b815260040160206040518083038186803b158015610a2c57600080fd5b505afa158015610a40573d6000803e3d6000fd5b505050506040513d6020811015610a5657600080fd5b50516001600160a01b031633145b610ab0576040805162461bcd60e51b81526020600482015260186024820152776f6e6c79206f776e6572206f7220676f7665726e616e636560401b604482015290519081900360640190fd5b600380546001600160a01b0319166001600160a01b0392909216919091179055565b6003546000906001600160a01b03163314610b2c576040805162461bcd60e51b81526020600482015260156024820152741bdb9b1e4818db19585b995c8818dbdb9d1c9858dd605a1b604482015290519081900360640190fd5b6002546104e69060019085908590610c61565b60006001600160a01b03841615610b7a576001600160a01b0384166000908152602086905260409020610b73908484610cf2565b9050610b7e565b5060005b949350505050565b6001600160a01b0382166000908152602084905260408120610ba88184610db8565b9150505b9392505050565b6000610bbf8184610efb565b90506000610bcd8284610f08565b9050610bdb60008583610f65565b60028054610bee91600091879190610b3f565b50604080518381526020810183905281516001600160a01b038716927fdec2bacdd2f05b59de34da9b523dff8be42e5e38e818c82fdb0bae774387a724928290030190a25050505050565b6001600160a01b0382166000908152602084905260409020610c5b8183610f87565b50505050565b60006001600160a01b03841615610b7a576001600160a01b0384166000908152602086905260409020610b7390848461114a565b6000610ca18184610efb565b90506000610bcd828461123b565b6001600160a01b0382166000908152602084905260408120610ba88184611295565b6001600160a01b0381166000908152602083905260408120610b7e816113b0565b600081610d0157506000610bac565b835480610d12576000915050610bac565b60018501546000610d2f610d26838861123b565b600185036113f8565b9050815b8181108015610d65575085886000018260010181548110610d5057fe5b90600052602060002090600202016000015411155b15610d9a57876000018181548110610d7957fe5b60009182526020822060029091020181815560019081019190915501610d33565b82811115610daa57600188018190555b919091039695505050505050565b6001820154600090600160401b90046001600160401b031680610ddf5760009150506104e9565b4383101580610e1157506000198101600090815260208590526040902054600160a01b90046001600160401b03168310155b15610e3957600019016000908152602084905260409020546001600160a01b031690506104e9565b60018401546001600160401b039081166000818152602087905260409020549091600160a01b90910416841015610eb2578015610ea75760405162461bcd60e51b81526004018080602001828103825260308152602001806117006030913960400191505060405180910390fd5b6000925050506104e9565b6001850154600090610ed89087908490600160401b90046001600160401b03168861140e565b6000908152602087905260409020546001600160a01b0316935050505092915050565b60006104e6838343610caf565b600082821115610f5f576040805162461bcd60e51b815260206004820152601e60248201527f536166654d6174683a207375627472616374696f6e206f766572666c6f770000604482015290519081900360640190fd5b50900390565b6001600160a01b0382166000908152602084905260409020610c5b8183611498565b6001820154600160401b90046001600160401b031680611043576040518060400160405280836001600160a01b03168152602001610fc443611561565b6001600160401b03908116909152600080805260208681526040909120835181549490920151909216600160a01b0267ffffffffffffffff60a01b196001600160a01b039092166001600160a01b0319909416939093171691909117905560018301805467ffffffffffffffff60401b1916600160401b179055611145565b600019810160009081526020849052604090208054600160a01b90046001600160401b03164381141561108e5781546001600160a01b0319166001600160a01b038516178255611142565b80431161109757fe5b6040518060400160405280856001600160a01b031681526020016110ba43611561565b6001600160401b039081169091526000858152602088815260409091208351815494909201518316600160a01b0267ffffffffffffffff60a01b196001600160a01b039093166001600160a01b031990951694909417919091169290921790915560018087018054918601909216600160401b0267ffffffffffffffff60401b199091161790555b50505b505050565b60008161115957506000610bac565b6001840154600160401b90046001600160401b03168061117d576000915050610bac565b60018501546001600160401b0316600061119a610d26838861123b565b9050815b81811080156111cf575060018101600090815260208990526040902054600160a01b90046001600160401b03168610155b156111f857600081815260208990526040902080546001600160e01b031916905560010161119e565b82811115610daa5761120981611561565b600198909801805467ffffffffffffffff19166001600160401b03999099169890981790975550909403949350505050565b6000828201838110156104e6576040805162461bcd60e51b815260206004820152601b60248201527f536166654d6174683a206164646974696f6e206f766572666c6f770000000000604482015290519081900360640190fd5b8154600090806112a95760009150506104e9565b43831015806112db57508360000160018203815481106112c557fe5b9060005260206000209060020201600001548310155b1561130c578360000160018203815481106112f257fe5b9060005260206000209060020201600101549150506104e9565b6001840154845485908290811061131f57fe5b906000526020600020906002020160000154841015611375578015610ea75760405162461bcd60e51b81526004018080602001828103825260308152602001806117006030913960400191505060405180910390fd5b60006113828683876115a9565b905085600001818154811061139357fe5b906000526020600020906002020160010154935050505092915050565b6001810154600090600160401b90046001600160401b0316806113d75760009150506107b6565b6000190160009081526020929092525060409020546001600160a01b031690565b600081831061140757816104e6565b5090919050565b6000838161141d856001610f08565b90505b8181111561148e57600061144a6002611444600161143e868861123b565b9061123b565b90611629565b600081815260208a90526040902054909150600160a01b90046001600160401b0316851061147a57809250611488565b611485816001610f08565b91505b50611420565b5095945050505050565b8154806114dc576040805180820190915243815260208082018481528554600181810188556000888152939093209351600290910290930192835551910155611145565b60008360000160018303815481106114f057fe5b600091825260209091206002909102018054909150438114156115195760018201849055611142565b80431161152257fe5b604080518082019091524381526020808201868152875460018181018a5560008a81529390932093516002909102909301928355519101555050505050565b6000600160401b82106115a55760405162461bcd60e51b81526004018080602001828103825260268152602001806116da6026913960400191505060405180910390fd5b5090565b8254600090839082906115bd906001610f08565b90505b818111156116205760006115de6002611444600161143e868861123b565b9050848782815481106115ed57fe5b9060005260206000209060020201600001541161160c5780925061161a565b611617816001610f08565b91505b506115c0565b50949350505050565b600080821161167f576040805162461bcd60e51b815260206004820152601a60248201527f536166654d6174683a206469766973696f6e206279207a65726f000000000000604482015290519081900360640190fd5b81838161168857fe5b04939250505056fe636c65616e757020626c6f636b206d75737420626520696e207468652070617374636c65616e757020626c6f636b206e756d626572206d757374206e6576657220646563726561736553616665436173743a2076616c756520646f65736e27742066697420696e2036342062697473436865636b506f696e74486973746f72793a2072656164696e672066726f6d20636c65616e65642d757020626c6f636ba264697066735822122035aeac7147a8427714cfc059ae7812a102401ea939e056d3331b2bdf449ffcfc64736f6c63430007060033676f7665726e616e6365566f7465506f776572206d7573742062656c6f6e6720746f2061205650546f6b656e",
  "linkReferences": {},
  "deployedLinkReferences": {}
}