{
  "_format": "hh-sol-artifact-1",
  "contractName": "GovernanceVotePower",
  "sourceName": "contracts/token/implementation/GovernanceVotePower.sol",
  "abi": [
    {
      "inputs": [
        {
          "internalType": "contract IVPToken",
          "name": "_ownerToken",
          "type": "address"
        }
      ],
      "stateMutability": "nonpayable",
      "type": "constructor"
    },
    {
      "anonymous": false,
      "inputs": [
        {
          "indexed": true,
          "internalType": "address",
          "name": "delegator",
          "type": "address"
        },
        {
          "indexed": true,
          "internalType": "address",
          "name": "fromDelegate",
          "type": "address"
        },
        {
          "indexed": true,
          "internalType": "address",
          "name": "toDelegate",
          "type": "address"
        }
      ],
      "name": "DelegateChanged",
      "type": "event"
    },
    {
      "anonymous": false,
      "inputs": [
        {
          "indexed": true,
          "internalType": "address",
          "name": "delegate",
          "type": "address"
        },
        {
          "indexed": false,
          "internalType": "uint256",
          "name": "previousBalance",
          "type": "uint256"
        },
        {
          "indexed": false,
          "internalType": "uint256",
          "name": "newBalance",
          "type": "uint256"
        }
      ],
      "name": "DelegateVotesChanged",
      "type": "event"
    },
    {
      "inputs": [],
      "name": "cleanerContract",
      "outputs": [
        {
          "internalType": "address",
          "name": "",
          "type": "address"
        }
      ],
      "stateMutability": "view",
      "type": "function"
    },
    {
      "inputs": [
        {
          "internalType": "address",
          "name": "_to",
          "type": "address"
        }
      ],
      "name": "delegate",
      "outputs": [],
      "stateMutability": "nonpayable",
      "type": "function"
    },
    {
      "inputs": [
        {
          "internalType": "address",
          "name": "_owner",
          "type": "address"
        },
        {
          "internalType": "uint256",
          "name": "_count",
          "type": "uint256"
        }
      ],
      "name": "delegatedGovernanceVotePowerHistoryCleanup",
      "outputs": [
        {
          "internalType": "uint256",
          "name": "",
          "type": "uint256"
        }
      ],
      "stateMutability": "nonpayable",
      "type": "function"
    },
    {
      "inputs": [
        {
          "internalType": "address",
          "name": "_owner",
          "type": "address"
        },
        {
          "internalType": "uint256",
          "name": "_count",
          "type": "uint256"
        }
      ],
      "name": "delegatesHistoryCleanup",
      "outputs": [
        {
          "internalType": "uint256",
          "name": "",
          "type": "uint256"
        }
      ],
      "stateMutability": "nonpayable",
      "type": "function"
    },
    {
      "inputs": [],
      "name": "getCleanupBlockNumber",
      "outputs": [
        {
          "internalType": "uint256",
          "name": "",
          "type": "uint256"
        }
      ],
      "stateMutability": "view",
      "type": "function"
    },
    {
      "inputs": [
        {
          "internalType": "address",
          "name": "_who",
          "type": "address"
        },
        {
          "internalType": "uint256",
          "name": "_blockNumber",
          "type": "uint256"
        }
      ],
      "name": "getDelegateOfAt",
      "outputs": [
        {
          "internalType": "address",
          "name": "",
          "type": "address"
        }
      ],
      "stateMutability": "view",
      "type": "function"
    },
    {
      "inputs": [
        {
          "internalType": "address",
          "name": "_who",
          "type": "address"
        }
      ],
      "name": "getDelegateOfAtNow",
      "outputs": [
        {
          "internalType": "address",
          "name": "",
          "type": "address"
        }
      ],
      "stateMutability": "view",
      "type": "function"
    },
    {
      "inputs": [
        {
          "internalType": "address",
          "name": "_who",
          "type": "address"
        }
      ],
      "name": "getVotes",
      "outputs": [
        {
          "internalType": "uint256",
          "name": "",
          "type": "uint256"
        }
      ],
      "stateMutability": "view",
      "type": "function"
    },
    {
      "inputs": [],
      "name": "ownerToken",
      "outputs": [
        {
          "internalType": "contract IVPToken",
          "name": "",
          "type": "address"
        }
      ],
      "stateMutability": "view",
      "type": "function"
    },
    {
      "inputs": [
        {
          "internalType": "address",
          "name": "_cleanerContract",
          "type": "address"
        }
      ],
      "name": "setCleanerContract",
      "outputs": [],
      "stateMutability": "nonpayable",
      "type": "function"
    },
    {
      "inputs": [
        {
          "internalType": "uint256",
          "name": "_blockNumber",
          "type": "uint256"
        }
      ],
      "name": "setCleanupBlockNumber",
      "outputs": [],
      "stateMutability": "nonpayable",
      "type": "function"
    },
    {
      "inputs": [],
      "name": "undelegate",
      "outputs": [],
      "stateMutability": "nonpayable",
      "type": "function"
    },
    {
      "inputs": [
        {
          "internalType": "address",
          "name": "_from",
          "type": "address"
        },
        {
          "internalType": "address",
          "name": "_to",
          "type": "address"
        },
        {
          "internalType": "uint256",
          "name": "",
          "type": "uint256"
        },
        {
          "internalType": "uint256",
          "name": "",
          "type": "uint256"
        },
        {
          "internalType": "uint256",
          "name": "_amount",
          "type": "uint256"
        }
      ],
      "name": "updateAtTokenTransfer",
      "outputs": [],
      "stateMutability": "nonpayable",
      "type": "function"
    },
    {
      "inputs": [
        {
          "internalType": "address",
          "name": "_who",
          "type": "address"
        },
        {
          "internalType": "uint256",
          "name": "_blockNumber",
          "type": "uint256"
        }
      ],
      "name": "votePowerOfAt",
      "outputs": [
        {
          "internalType": "uint256",
          "name": "",
          "type": "uint256"
        }
      ],
      "stateMutability": "view",
      "type": "function"
    }
  ],
  "bytecode": "0x60a060405234801561001057600080fd5b506040516118bb3803806118bb8339818101604052602081101561003357600080fd5b50516001600160a01b03811661007a5760405162461bcd60e51b815260040180806020018281038252602c81526020018061188f602c913960400191505060405180910390fd5b606081901b6001600160601b0319166080526001600160a01b03166117ca6100c5600039806102f152806104c052806105fc528061065a5280610749528061090d52506117ca6000f3fe608060405234801561001057600080fd5b50600436106100ea5760003560e01c80639ab24eb01161008c578063b3e871ee11610066578063b3e871ee1461022c578063eadb436214610252578063f6a494af14610294578063f7ce0ddf146102ba576100ea565b80639ab24eb0146101f65780639ca20e4e1461021c578063a72ec4b614610224576100ea565b80635c19a95c116100c85780635c19a95c1461019457806365371883146101ba57806392ab89bb146101c257806392bfe6d8146101ca576100ea565b806313de97f5146100ef57806329a59ff21461010e5780633c028e9d1461014c575b600080fd5b61010c6004803603602081101561010557600080fd5b50356102e6565b005b61013a6004803603604081101561012457600080fd5b506001600160a01b0381351690602001356103da565b60408051918252519081900360200190f35b6101786004803603604081101561016257600080fd5b506001600160a01b038135169060200135610450565b604080516001600160a01b039092168252519081900360200190f35b61010c600480360360208110156101aa57600080fd5b50356001600160a01b031661045e565b6101786105fa565b61010c61061e565b61013a600480360360408110156101e057600080fd5b506001600160a01b03813516906020013561062a565b61013a6004803603602081101561020c57600080fd5b50356001600160a01b0316610708565b61017861071c565b61013a61072b565b6101786004803603602081101561024257600080fd5b50356001600160a01b0316610731565b61010c600480360360a081101561026857600080fd5b506001600160a01b0381358116916020810135909116906040810135906060810135906080013561073e565b61010c600480360360208110156102aa57600080fd5b50356001600160a01b0316610902565b61013a600480360360408110156102d057600080fd5b506001600160a01b038135169060200135610994565b336001600160a01b037f00000000000000000000000000000000000000000000000000000000000000001614610356576040805162461bcd60e51b815260206004820152601060248201526f37b7363c9037bbb732b9103a37b5b2b760811b604482015290519081900360640190fd5b6002548110156103975760405162461bcd60e51b81526004018080602001828103825260288152602001806117176028913960400191505060405180910390fd5b4381106103d55760405162461bcd60e51b81526004018080602001828103825260218152602001806116f66021913960400191505060405180910390fd5b600255565b6003546000906001600160a01b03163314610434576040805162461bcd60e51b81526020600482015260156024820152741bdb9b1e4818db19585b995c8818dbdb9d1c9858dd605a1b604482015290519081900360640190fd5b6002546104479060009085908590610a01565b90505b92915050565b600061044760018484610a48565b6001600160a01b0381163314156104bc576040805162461bcd60e51b815260206004820152601a60248201527f63616e27742064656c656761746520746f20796f757273656c66000000000000604482015290519081900360640190fd5b60007f00000000000000000000000000000000000000000000000000000000000000006001600160a01b03166370a08231336040518263ffffffff1660e01b815260040180826001600160a01b0316815260200191505060206040518083038186803b15801561052b57600080fd5b505afa15801561053f573d6000803e3d6000fd5b505050506040513d602081101561055557600080fd5b50519050600061056433610731565b90506001600160a01b0381161561058057610580338284610a75565b61058c60013385610afb565b6002805461059f91600191339190610b23565b506001600160a01b038316156105ba576105ba338484610b57565b6040516001600160a01b03808516919083169033907f3134e8a2e6d97e929a7e54011ea5485d7d196dd5f0ba4d4ef95803e8e3fc257f90600090a4505050565b7f000000000000000000000000000000000000000000000000000000000000000081565b610628600061045e565b565b600080610638818585610b71565b905060006106468585610450565b90506001600160a01b0381166107005760007f00000000000000000000000000000000000000000000000000000000000000006001600160a01b0316634ee2cd7e87876040518363ffffffff1660e01b815260040180836001600160a01b031681526020018281526020019250505060206040518083038186803b1580156106cd57600080fd5b505afa1580156106e1573d6000803e3d6000fd5b505050506040513d60208110156106f757600080fd5b50519290920191505b509392505050565b6000610714824361062a565b90505b919050565b6003546001600160a01b031681565b60025490565b6000610714600183610b93565b336001600160a01b037f000000000000000000000000000000000000000000000000000000000000000016146107ae576040805162461bcd60e51b815260206004820152601060248201526f37b7363c9037bbb732b9103a37b5b2b760811b604482015290519081900360640190fd5b836001600160a01b0316856001600160a01b03161415610815576040805162461bcd60e51b815260206004820152601a60248201527f43616e2774207472616e7366657220746f20796f757273656c66000000000000604482015290519081900360640190fd5b6001600160a01b03851615158061083457506001600160a01b03841615155b61083d57600080fd5b600061084886610731565b9050600061085586610731565b90506001600160a01b038716610884576001600160a01b0381161561087f5761087f868285610b57565b6108f9565b6001600160a01b0386166108ac576001600160a01b0382161561087f5761087f878385610a75565b806001600160a01b0316826001600160a01b0316146108f9576001600160a01b038216156108df576108df878385610a75565b6001600160a01b038116156108f9576108f9868285610b57565b50505050505050565b336001600160a01b037f00000000000000000000000000000000000000000000000000000000000000001614610972576040805162461bcd60e51b815260206004820152601060248201526f37b7363c9037bbb732b9103a37b5b2b760811b604482015290519081900360640190fd5b600380546001600160a01b0319166001600160a01b0392909216919091179055565b6003546000906001600160a01b031633146109ee576040805162461bcd60e51b81526020600482015260156024820152741bdb9b1e4818db19585b995c8818dbdb9d1c9858dd605a1b604482015290519081900360640190fd5b6002546104479060019085908590610b23565b60006001600160a01b03841615610a3c576001600160a01b0384166000908152602086905260409020610a35908484610bb4565b9050610a40565b5060005b949350505050565b6001600160a01b0382166000908152602084905260408120610a6a8184610ca1565b9150505b9392505050565b6000610a818184610de4565b90506000610a8f8284610e05565b9050610a9d60008583610e62565b60028054610ab091600091879190610a01565b50604080518381526020810183905281516001600160a01b038716927fdec2bacdd2f05b59de34da9b523dff8be42e5e38e818c82fdb0bae774387a724928290030190a25050505050565b6001600160a01b0382166000908152602084905260409020610b1d8183610e84565b50505050565b60006001600160a01b03841615610a3c576001600160a01b0384166000908152602086905260409020610a35908484611047565b6000610b638184610de4565b90506000610a8f82846110f5565b6001600160a01b0382166000908152602084905260408120610a6a818461114f565b6001600160a01b0381166000908152602083905260408120610a4081611287565b600081610bc357506000610a6e565b6001840154600160401b90046001600160401b031680610be7576000915050610a6e565b60018501546001600160401b03166000610c0d610c0483886110f5565b600185036112cf565b9050815b8181108015610c42575060018101600090815260208990526040902054600160c01b90046001600160401b03168610155b15610c5e57600081815260208990526040812055600101610c11565b82811115610c9357610c6f816112e5565b60018901805467ffffffffffffffff19166001600160401b03929092169190911790555b919091039695505050505050565b6001820154600090600160401b90046001600160401b031680610cc857600091505061044a565b4383101580610cfa57506000198101600090815260208590526040902054600160a01b90046001600160401b03168310155b15610d2257600019016000908152602084905260409020546001600160a01b0316905061044a565b60018401546001600160401b039081166000818152602087905260409020549091600160a01b90910416841015610d9b578015610d905760405162461bcd60e51b81526004018080602001828103825260308152602001806117656030913960400191505060405180910390fd5b60009250505061044a565b6001850154600090610dc19087908490600160401b90046001600160401b03168861132d565b6000908152602087905260409020546001600160a01b0316935050505092915050565b6001600160a01b0381166000908152602083905260408120610a40816113b7565b600082821115610e5c576040805162461bcd60e51b815260206004820152601e60248201527f536166654d6174683a207375627472616374696f6e206f766572666c6f770000604482015290519081900360640190fd5b50900390565b6001600160a01b0382166000908152602084905260409020610b1d81836113ff565b6001820154600160401b90046001600160401b031680610f40576040518060400160405280836001600160a01b03168152602001610ec1436112e5565b6001600160401b03908116909152600080805260208681526040909120835181549490920151909216600160a01b0267ffffffffffffffff60a01b196001600160a01b039092166001600160a01b0319909416939093171691909117905560018301805467ffffffffffffffff60401b1916600160401b179055611042565b600019810160009081526020849052604090208054600160a01b90046001600160401b031643811415610f8b5781546001600160a01b0319166001600160a01b03851617825561103f565b804311610f9457fe5b6040518060400160405280856001600160a01b03168152602001610fb7436112e5565b6001600160401b039081169091526000858152602088815260409091208351815494909201518316600160a01b0267ffffffffffffffff60a01b196001600160a01b039093166001600160a01b031990951694909417919091169290921790915560018087018054918601909216600160401b0267ffffffffffffffff60401b199091161790555b50505b505050565b60008161105657506000610a6e565b6001840154600160401b90046001600160401b03168061107a576000915050610a6e565b60018501546001600160401b03166000611097610c0483886110f5565b9050815b81811080156110cc575060018101600090815260208990526040902054600160a01b90046001600160401b03168610155b15610c5e57600081815260208990526040902080546001600160e01b031916905560010161109b565b600082820183811015610447576040805162461bcd60e51b815260206004820152601b60248201527f536166654d6174683a206164646974696f6e206f766572666c6f770000000000604482015290519081900360640190fd5b6001820154600090600160401b90046001600160401b03168061117657600091505061044a565b43831015806111a857506000198101600090815260208590526040902054600160c01b90046001600160401b03168310155b156111d057600019016000908152602084905260409020546001600160c01b0316905061044a565b60018401546001600160401b039081166000818152602087905260409020549091600160c01b9091041684101561123e578015610d905760405162461bcd60e51b81526004018080602001828103825260308152602001806117656030913960400191505060405180910390fd5b60018501546000906112649087908490600160401b90046001600160401b0316886115c0565b6000908152602087905260409020546001600160c01b0316935050505092915050565b6001810154600090600160401b90046001600160401b0316806112ae576000915050610717565b6000190160009081526020929092525060409020546001600160a01b031690565b60008183106112de5781610447565b5090919050565b6000600160401b82106113295760405162461bcd60e51b815260040180806020018281038252602681526020018061173f6026913960400191505060405180910390fd5b5090565b6000838161133c856001610e05565b90505b818111156113ad5760006113696002611363600161135d86886110f5565b906110f5565b90611634565b600081815260208a90526040902054909150600160a01b90046001600160401b03168510611399578092506113a7565b6113a4816001610e05565b91505b5061133f565b5095945050505050565b6001810154600090600160401b90046001600160401b0316806113de576000915050610717565b6000190160009081526020929092525060409020546001600160c01b031690565b6001820154600160401b90046001600160401b0316806114b657604051806040016040528061142d8461169b565b6001600160c01b03168152602001611444436112e5565b6001600160401b03908116909152600080805260208681526040909120835181549490920151909216600160c01b026001600160c01b039182166001600160c01b0319909416939093171691909117905560018301805467ffffffffffffffff60401b1916600160401b179055611042565b600019810160009081526020849052604090208054600160c01b90046001600160401b03164381141561150c576114ec8461169b565b82546001600160c01b0319166001600160c01b039190911617825561103f565b80431161151557fe5b60405180604001604052806115298661169b565b6001600160c01b03168152602001611540436112e5565b6001600160401b039081169091526000858152602088815260409091208351815494909201518316600160c01b026001600160c01b039283166001600160c01b0319909516949094179091169290921790915560018087018054918601909216600160401b0267ffffffffffffffff60401b199091161790555050505050565b600083816115cf856001610e05565b90505b818111156113ad5760006115f06002611363600161135d86886110f5565b600081815260208a90526040902054909150600160c01b90046001600160401b031685106116205780925061162e565b61162b816001610e05565b91505b506115d2565b600080821161168a576040805162461bcd60e51b815260206004820152601a60248201527f536166654d6174683a206469766973696f6e206279207a65726f000000000000604482015290519081900360640190fd5b81838161169357fe5b049392505050565b6000600160c01b8210611329576040805162461bcd60e51b815260206004820152601d60248201527f76616c756520646f65736e27742066697420696e203139322062697473000000604482015290519081900360640190fdfe636c65616e757020626c6f636b206d75737420626520696e207468652070617374636c65616e757020626c6f636b206e756d626572206d757374206e6576657220646563726561736553616665436173743a2076616c756520646f65736e27742066697420696e2036342062697473436865636b506f696e74486973746f72793a2072656164696e672066726f6d20636c65616e65642d757020626c6f636ba26469706673582212204174f150a0f1b8211ec3f949dfadf70e2b7f983f4b3164d865db92a957235ce664736f6c63430007060033676f7665726e616e6365566f7465506f776572206d7573742062656c6f6e6720746f2061205650546f6b656e",
  "linkReferences": {},
  "deployedLinkReferences": {}
}