{
  "_format": "hh-sol-artifact-1",
  "contractName": "GovernanceVotePower",
  "sourceName": "contracts/token/implementation/GovernanceVotePower.sol",
  "abi": [
    {
      "inputs": [
        {
          "internalType": "contract IVPToken",
          "name": "_ownerToken",
          "type": "address"
        }
      ],
      "stateMutability": "nonpayable",
      "type": "constructor"
    },
    {
      "anonymous": false,
      "inputs": [
        {
          "indexed": true,
          "internalType": "address",
          "name": "delegator",
          "type": "address"
        },
        {
          "indexed": true,
          "internalType": "address",
          "name": "fromDelegate",
          "type": "address"
        },
        {
          "indexed": true,
          "internalType": "address",
          "name": "toDelegate",
          "type": "address"
        }
      ],
      "name": "DelegateChanged",
      "type": "event"
    },
    {
      "anonymous": false,
      "inputs": [
        {
          "indexed": true,
          "internalType": "address",
          "name": "delegate",
          "type": "address"
        },
        {
          "indexed": false,
          "internalType": "uint256",
          "name": "previousBalance",
          "type": "uint256"
        },
        {
          "indexed": false,
          "internalType": "uint256",
          "name": "newBalance",
          "type": "uint256"
        }
      ],
      "name": "DelegateVotesChanged",
      "type": "event"
    },
    {
      "inputs": [
        {
          "internalType": "address",
          "name": "_to",
          "type": "address"
        }
      ],
      "name": "delegate",
      "outputs": [],
      "stateMutability": "nonpayable",
      "type": "function"
    },
    {
      "inputs": [
        {
          "internalType": "address",
          "name": "_owner",
          "type": "address"
        },
        {
          "internalType": "uint256",
          "name": "_count",
          "type": "uint256"
        }
      ],
      "name": "delegatedGovernanceVotePowerHistoryCleanup",
      "outputs": [
        {
          "internalType": "uint256",
          "name": "",
          "type": "uint256"
        }
      ],
      "stateMutability": "nonpayable",
      "type": "function"
    },
    {
      "inputs": [
        {
          "internalType": "address",
          "name": "_owner",
          "type": "address"
        },
        {
          "internalType": "uint256",
          "name": "_count",
          "type": "uint256"
        }
      ],
      "name": "delegatesHistoryCleanup",
      "outputs": [
        {
          "internalType": "uint256",
          "name": "",
          "type": "uint256"
        }
      ],
      "stateMutability": "nonpayable",
      "type": "function"
    },
    {
      "inputs": [],
      "name": "getCleanupBlockNumber",
      "outputs": [
        {
          "internalType": "uint256",
          "name": "",
          "type": "uint256"
        }
      ],
      "stateMutability": "view",
      "type": "function"
    },
    {
      "inputs": [
        {
          "internalType": "address",
          "name": "_who",
          "type": "address"
        },
        {
          "internalType": "uint256",
          "name": "_blockNumber",
          "type": "uint256"
        }
      ],
      "name": "getDelegateOfAt",
      "outputs": [
        {
          "internalType": "address",
          "name": "",
          "type": "address"
        }
      ],
      "stateMutability": "view",
      "type": "function"
    },
    {
      "inputs": [
        {
          "internalType": "address",
          "name": "_who",
          "type": "address"
        }
      ],
      "name": "getDelegateOfAtNow",
      "outputs": [
        {
          "internalType": "address",
          "name": "",
          "type": "address"
        }
      ],
      "stateMutability": "view",
      "type": "function"
    },
    {
      "inputs": [
        {
          "internalType": "address",
          "name": "_who",
          "type": "address"
        }
      ],
      "name": "getVotes",
      "outputs": [
        {
          "internalType": "uint256",
          "name": "",
          "type": "uint256"
        }
      ],
      "stateMutability": "view",
      "type": "function"
    },
    {
      "inputs": [],
      "name": "ownerToken",
      "outputs": [
        {
          "internalType": "contract IVPToken",
          "name": "",
          "type": "address"
        }
      ],
      "stateMutability": "view",
      "type": "function"
    },
    {
      "inputs": [
        {
          "internalType": "address",
          "name": "_cleanerContract",
          "type": "address"
        }
      ],
      "name": "setCleanerContract",
      "outputs": [],
      "stateMutability": "nonpayable",
      "type": "function"
    },
    {
      "inputs": [
        {
          "internalType": "uint256",
          "name": "_blockNumber",
          "type": "uint256"
        }
      ],
      "name": "setCleanupBlockNumber",
      "outputs": [],
      "stateMutability": "nonpayable",
      "type": "function"
    },
    {
      "inputs": [],
      "name": "undelegate",
      "outputs": [],
      "stateMutability": "nonpayable",
      "type": "function"
    },
    {
      "inputs": [
        {
          "internalType": "address",
          "name": "_from",
          "type": "address"
        },
        {
          "internalType": "address",
          "name": "_to",
          "type": "address"
        },
        {
          "internalType": "uint256",
          "name": "",
          "type": "uint256"
        },
        {
          "internalType": "uint256",
          "name": "",
          "type": "uint256"
        },
        {
          "internalType": "uint256",
          "name": "_amount",
          "type": "uint256"
        }
      ],
      "name": "updateAtTokenTransfer",
      "outputs": [],
      "stateMutability": "nonpayable",
      "type": "function"
    },
    {
      "inputs": [
        {
          "internalType": "address",
          "name": "_who",
          "type": "address"
        },
        {
          "internalType": "uint256",
          "name": "_blockNumber",
          "type": "uint256"
        }
      ],
      "name": "votePowerOfAt",
      "outputs": [
        {
          "internalType": "uint256",
          "name": "",
          "type": "uint256"
        }
      ],
      "stateMutability": "view",
      "type": "function"
    }
  ],
  "bytecode": "0x60a060405234801561001057600080fd5b506040516119673803806119678339818101604052602081101561003357600080fd5b50516001600160a01b03811661007a5760405162461bcd60e51b815260040180806020018281038252602c81526020018061193b602c913960400191505060405180910390fd5b606081901b6001600160601b0319166080526001600160a01b031661186c6100cf600039806102ce52806102f7528061053c528061067852806106d652806107b5528061097952806109a2525061186c6000f3fe608060405234801561001057600080fd5b50600436106100cf5760003560e01c806392bfe6d81161008c578063b3e871ee11610066578063b3e871ee14610209578063eadb43621461022f578063f6a494af14610271578063f7ce0ddf14610297576100cf565b806392bfe6d8146101af5780639ab24eb0146101db578063a72ec4b614610201576100cf565b806313de97f5146100d457806329a59ff2146100f35780633c028e9d146101315780635c19a95c14610179578063653718831461019f57806392ab89bb146101a7575b600080fd5b6100f1600480360360208110156100ea57600080fd5b50356102c3565b005b61011f6004803603604081101561010957600080fd5b506001600160a01b038135169060200135610456565b60408051918252519081900360200190f35b61015d6004803603604081101561014757600080fd5b506001600160a01b0381351690602001356104cc565b604080516001600160a01b039092168252519081900360200190f35b6100f16004803603602081101561018f57600080fd5b50356001600160a01b03166104da565b61015d610676565b6100f161069a565b61011f600480360360408110156101c557600080fd5b506001600160a01b0381351690602001356106a6565b61011f600480360360208110156101f157600080fd5b50356001600160a01b0316610784565b61011f610798565b61015d6004803603602081101561021f57600080fd5b50356001600160a01b031661079e565b6100f1600480360360a081101561024557600080fd5b506001600160a01b038135811691602081013590911690604081013590606081013590608001356107aa565b6100f16004803603602081101561028757600080fd5b50356001600160a01b031661096e565b61011f600480360360408110156102ad57600080fd5b506001600160a01b038135169060200135610a9f565b336001600160a01b037f000000000000000000000000000000000000000000000000000000000000000016148061038657507f00000000000000000000000000000000000000000000000000000000000000006001600160a01b0316635aa6e6756040518163ffffffff1660e01b815260040160206040518083038186803b15801561034e57600080fd5b505afa158015610362573d6000803e3d6000fd5b505050506040513d602081101561037857600080fd5b50516001600160a01b031633145b6103d2576040805162461bcd60e51b81526020600482015260186024820152776f6e6c79206f776e6572206f7220676f7665726e616e636560401b604482015290519081900360640190fd5b6002548110156104135760405162461bcd60e51b81526004018080602001828103825260288152602001806117b96028913960400191505060405180910390fd5b4381106104515760405162461bcd60e51b81526004018080602001828103825260218152602001806117986021913960400191505060405180910390fd5b600255565b6003546000906001600160a01b031633146104b0576040805162461bcd60e51b81526020600482015260156024820152741bdb9b1e4818db19585b995c8818dbdb9d1c9858dd605a1b604482015290519081900360640190fd5b6002546104c39060009085908590610b0c565b90505b92915050565b60006104c360018484610b53565b6001600160a01b038116331415610538576040805162461bcd60e51b815260206004820152601a60248201527f63616e27742064656c656761746520746f20796f757273656c66000000000000604482015290519081900360640190fd5b60007f00000000000000000000000000000000000000000000000000000000000000006001600160a01b03166370a08231336040518263ffffffff1660e01b815260040180826001600160a01b0316815260200191505060206040518083038186803b1580156105a757600080fd5b505afa1580156105bb573d6000803e3d6000fd5b505050506040513d60208110156105d157600080fd5b5051905060006105e03361079e565b90506001600160a01b038116156105fc576105fc338284610b80565b61060860013385610c06565b6002805461061b91600191339190610c2e565b506001600160a01b0383161561063657610636338484610c62565b6040516001600160a01b03808516919083169033907f3134e8a2e6d97e929a7e54011ea5485d7d196dd5f0ba4d4ef95803e8e3fc257f90600090a4505050565b7f000000000000000000000000000000000000000000000000000000000000000081565b6106a460006104da565b565b6000806106b4818585610c7c565b905060006106c285856104cc565b90506001600160a01b03811661077c5760007f00000000000000000000000000000000000000000000000000000000000000006001600160a01b0316634ee2cd7e87876040518363ffffffff1660e01b815260040180836001600160a01b031681526020018281526020019250505060206040518083038186803b15801561074957600080fd5b505afa15801561075d573d6000803e3d6000fd5b505050506040513d602081101561077357600080fd5b50519290920191505b509392505050565b600061079082436106a6565b90505b919050565b60025490565b600061079082436104cc565b336001600160a01b037f0000000000000000000000000000000000000000000000000000000000000000161461081a576040805162461bcd60e51b815260206004820152601060248201526f37b7363c9037bbb732b9103a37b5b2b760811b604482015290519081900360640190fd5b836001600160a01b0316856001600160a01b03161415610881576040805162461bcd60e51b815260206004820152601a60248201527f43616e2774207472616e7366657220746f20796f757273656c66000000000000604482015290519081900360640190fd5b6001600160a01b0385161515806108a057506001600160a01b03841615155b6108a957600080fd5b60006108b48661079e565b905060006108c18661079e565b90506001600160a01b0387166108f0576001600160a01b038116156108eb576108eb868285610c62565b610965565b6001600160a01b038616610918576001600160a01b038216156108eb576108eb878385610b80565b806001600160a01b0316826001600160a01b031614610965576001600160a01b0382161561094b5761094b878385610b80565b6001600160a01b0381161561096557610965868285610c62565b50505050505050565b336001600160a01b037f0000000000000000000000000000000000000000000000000000000000000000161480610a3157507f00000000000000000000000000000000000000000000000000000000000000006001600160a01b0316635aa6e6756040518163ffffffff1660e01b815260040160206040518083038186803b1580156109f957600080fd5b505afa158015610a0d573d6000803e3d6000fd5b505050506040513d6020811015610a2357600080fd5b50516001600160a01b031633145b610a7d576040805162461bcd60e51b81526020600482015260186024820152776f6e6c79206f776e6572206f7220676f7665726e616e636560401b604482015290519081900360640190fd5b600380546001600160a01b0319166001600160a01b0392909216919091179055565b6003546000906001600160a01b03163314610af9576040805162461bcd60e51b81526020600482015260156024820152741bdb9b1e4818db19585b995c8818dbdb9d1c9858dd605a1b604482015290519081900360640190fd5b6002546104c39060019085908590610c2e565b60006001600160a01b03841615610b47576001600160a01b0384166000908152602086905260409020610b40908484610c9e565b9050610b4b565b5060005b949350505050565b6001600160a01b0382166000908152602084905260408120610b758184610d8b565b9150505b9392505050565b6000610b8c8184610ece565b90506000610b9a8284610eef565b9050610ba860008583610f4c565b60028054610bbb91600091879190610b0c565b50604080518381526020810183905281516001600160a01b038716927fdec2bacdd2f05b59de34da9b523dff8be42e5e38e818c82fdb0bae774387a724928290030190a25050505050565b6001600160a01b0382166000908152602084905260409020610c288183610f6e565b50505050565b60006001600160a01b03841615610b47576001600160a01b0384166000908152602086905260409020610b40908484611131565b6000610c6e8184610ece565b90506000610b9a82846111df565b6001600160a01b0382166000908152602084905260408120610b758184611239565b600081610cad57506000610b79565b6001840154600160401b90046001600160401b031680610cd1576000915050610b79565b60018501546001600160401b03166000610cf7610cee83886111df565b60018503611371565b9050815b8181108015610d2c575060018101600090815260208990526040902054600160c01b90046001600160401b03168610155b15610d4857600081815260208990526040812055600101610cfb565b82811115610d7d57610d5981611387565b60018901805467ffffffffffffffff19166001600160401b03929092169190911790555b919091039695505050505050565b6001820154600090600160401b90046001600160401b031680610db25760009150506104c6565b4383101580610de457506000198101600090815260208590526040902054600160a01b90046001600160401b03168310155b15610e0c57600019016000908152602084905260409020546001600160a01b031690506104c6565b60018401546001600160401b039081166000818152602087905260409020549091600160a01b90910416841015610e85578015610e7a5760405162461bcd60e51b81526004018080602001828103825260308152602001806118076030913960400191505060405180910390fd5b6000925050506104c6565b6001850154600090610eab9087908490600160401b90046001600160401b0316886113cf565b6000908152602087905260409020546001600160a01b0316935050505092915050565b6001600160a01b0381166000908152602083905260408120610b4b81611459565b600082821115610f46576040805162461bcd60e51b815260206004820152601e60248201527f536166654d6174683a207375627472616374696f6e206f766572666c6f770000604482015290519081900360640190fd5b50900390565b6001600160a01b0382166000908152602084905260409020610c2881836114a1565b6001820154600160401b90046001600160401b03168061102a576040518060400160405280836001600160a01b03168152602001610fab43611387565b6001600160401b03908116909152600080805260208681526040909120835181549490920151909216600160a01b0267ffffffffffffffff60a01b196001600160a01b039092166001600160a01b0319909416939093171691909117905560018301805467ffffffffffffffff60401b1916600160401b17905561112c565b600019810160009081526020849052604090208054600160a01b90046001600160401b0316438114156110755781546001600160a01b0319166001600160a01b038516178255611129565b80431161107e57fe5b6040518060400160405280856001600160a01b031681526020016110a143611387565b6001600160401b039081169091526000858152602088815260409091208351815494909201518316600160a01b0267ffffffffffffffff60a01b196001600160a01b039093166001600160a01b031990951694909417919091169290921790915560018087018054918601909216600160401b0267ffffffffffffffff60401b199091161790555b50505b505050565b60008161114057506000610b79565b6001840154600160401b90046001600160401b031680611164576000915050610b79565b60018501546001600160401b03166000611181610cee83886111df565b9050815b81811080156111b6575060018101600090815260208990526040902054600160a01b90046001600160401b03168610155b15610d4857600081815260208990526040902080546001600160e01b0319169055600101611185565b6000828201838110156104c3576040805162461bcd60e51b815260206004820152601b60248201527f536166654d6174683a206164646974696f6e206f766572666c6f770000000000604482015290519081900360640190fd5b6001820154600090600160401b90046001600160401b0316806112605760009150506104c6565b438310158061129257506000198101600090815260208590526040902054600160c01b90046001600160401b03168310155b156112ba57600019016000908152602084905260409020546001600160c01b031690506104c6565b60018401546001600160401b039081166000818152602087905260409020549091600160c01b90910416841015611328578015610e7a5760405162461bcd60e51b81526004018080602001828103825260308152602001806118076030913960400191505060405180910390fd5b600185015460009061134e9087908490600160401b90046001600160401b031688611662565b6000908152602087905260409020546001600160c01b0316935050505092915050565b600081831061138057816104c3565b5090919050565b6000600160401b82106113cb5760405162461bcd60e51b81526004018080602001828103825260268152602001806117e16026913960400191505060405180910390fd5b5090565b600083816113de856001610eef565b90505b8181111561144f57600061140b600261140560016113ff86886111df565b906111df565b906116d6565b600081815260208a90526040902054909150600160a01b90046001600160401b0316851061143b57809250611449565b611446816001610eef565b91505b506113e1565b5095945050505050565b6001810154600090600160401b90046001600160401b031680611480576000915050610793565b6000190160009081526020929092525060409020546001600160c01b031690565b6001820154600160401b90046001600160401b0316806115585760405180604001604052806114cf8461173d565b6001600160c01b031681526020016114e643611387565b6001600160401b03908116909152600080805260208681526040909120835181549490920151909216600160c01b026001600160c01b039182166001600160c01b0319909416939093171691909117905560018301805467ffffffffffffffff60401b1916600160401b17905561112c565b600019810160009081526020849052604090208054600160c01b90046001600160401b0316438114156115ae5761158e8461173d565b82546001600160c01b0319166001600160c01b0391909116178255611129565b8043116115b757fe5b60405180604001604052806115cb8661173d565b6001600160c01b031681526020016115e243611387565b6001600160401b039081169091526000858152602088815260409091208351815494909201518316600160c01b026001600160c01b039283166001600160c01b0319909516949094179091169290921790915560018087018054918601909216600160401b0267ffffffffffffffff60401b199091161790555050505050565b60008381611671856001610eef565b90505b8181111561144f576000611692600261140560016113ff86886111df565b600081815260208a90526040902054909150600160c01b90046001600160401b031685106116c2578092506116d0565b6116cd816001610eef565b91505b50611674565b600080821161172c576040805162461bcd60e51b815260206004820152601a60248201527f536166654d6174683a206469766973696f6e206279207a65726f000000000000604482015290519081900360640190fd5b81838161173557fe5b049392505050565b6000600160c01b82106113cb576040805162461bcd60e51b815260206004820152601d60248201527f76616c756520646f65736e27742066697420696e203139322062697473000000604482015290519081900360640190fdfe636c65616e757020626c6f636b206d75737420626520696e207468652070617374636c65616e757020626c6f636b206e756d626572206d757374206e6576657220646563726561736553616665436173743a2076616c756520646f65736e27742066697420696e2036342062697473436865636b506f696e74486973746f72793a2072656164696e672066726f6d20636c65616e65642d757020626c6f636ba2646970667358221220c5d57ff48a5331b06e58043444f36f695a44d4a77265e6e9c9cb455c58fd19d664736f6c63430007060033676f7665726e616e6365566f7465506f776572206d7573742062656c6f6e6720746f2061205650546f6b656e",
  "linkReferences": {},
  "deployedLinkReferences": {}
}