{
  "_format": "hh-sol-artifact-1",
  "contractName": "GovernorAccept",
  "sourceName": "contracts/governance/implementation/GovernorAccept.sol",
  "abi": [
    {
      "inputs": [
        {
          "internalType": "uint256[]",
          "name": "_proposalSettings",
          "type": "uint256[]"
        },
        {
          "internalType": "address",
          "name": "_governance",
          "type": "address"
        },
        {
          "internalType": "address",
          "name": "_priceSubmitter",
          "type": "address"
        },
        {
          "internalType": "address",
          "name": "_addressUpdater",
          "type": "address"
        },
        {
          "internalType": "uint256",
          "name": "_acceptanceThresholdBIPS",
          "type": "uint256"
        }
      ],
      "stateMutability": "nonpayable",
      "type": "constructor"
    },
    {
      "anonymous": false,
      "inputs": [
        {
          "indexed": false,
          "internalType": "uint256",
          "name": "oldAcceptanceThreshold",
          "type": "uint256"
        },
        {
          "indexed": false,
          "internalType": "uint256",
          "name": "newAcceptanceThreshold",
          "type": "uint256"
        }
      ],
      "name": "AcceptanceThresholdSet",
      "type": "event"
    },
    {
      "anonymous": false,
      "inputs": [
        {
          "indexed": false,
          "internalType": "uint256",
          "name": "oldExecutionDelay",
          "type": "uint256"
        },
        {
          "indexed": false,
          "internalType": "uint256",
          "name": "newExecutionDelay",
          "type": "uint256"
        }
      ],
      "name": "ExecutionDelaySet",
      "type": "event"
    },
    {
      "anonymous": false,
      "inputs": [
        {
          "indexed": false,
          "internalType": "uint256",
          "name": "oldExecutionPeriod",
          "type": "uint256"
        },
        {
          "indexed": false,
          "internalType": "uint256",
          "name": "newExecutionPeriod",
          "type": "uint256"
        }
      ],
      "name": "ExecutionPeriodSet",
      "type": "event"
    },
    {
      "anonymous": false,
      "inputs": [
        {
          "indexed": false,
          "internalType": "address",
          "name": "proposedGovernance",
          "type": "address"
        }
      ],
      "name": "GovernanceProposed",
      "type": "event"
    },
    {
      "anonymous": false,
      "inputs": [
        {
          "indexed": false,
          "internalType": "address",
          "name": "oldGovernance",
          "type": "address"
        },
        {
          "indexed": false,
          "internalType": "address",
          "name": "newGoveranance",
          "type": "address"
        }
      ],
      "name": "GovernanceUpdated",
      "type": "event"
    },
    {
      "anonymous": false,
      "inputs": [
        {
          "indexed": false,
          "internalType": "uint256",
          "name": "proposalId",
          "type": "uint256"
        }
      ],
      "name": "ProposalCanceled",
      "type": "event"
    },
    {
      "anonymous": false,
      "inputs": [
        {
          "indexed": false,
          "internalType": "uint256",
          "name": "proposalId",
          "type": "uint256"
        },
        {
          "indexed": false,
          "internalType": "address",
          "name": "proposer",
          "type": "address"
        },
        {
          "indexed": false,
          "internalType": "address[]",
          "name": "targets",
          "type": "address[]"
        },
        {
          "indexed": false,
          "internalType": "uint256[]",
          "name": "values",
          "type": "uint256[]"
        },
        {
          "indexed": false,
          "internalType": "string[]",
          "name": "signatures",
          "type": "string[]"
        },
        {
          "indexed": false,
          "internalType": "bytes[]",
          "name": "calldatas",
          "type": "bytes[]"
        },
        {
          "indexed": false,
          "internalType": "uint256",
          "name": "startTime",
          "type": "uint256"
        },
        {
          "indexed": false,
          "internalType": "uint256",
          "name": "endTime",
          "type": "uint256"
        },
        {
          "indexed": false,
          "internalType": "string",
          "name": "description",
          "type": "string"
        }
      ],
      "name": "ProposalCreated",
      "type": "event"
    },
    {
      "anonymous": false,
      "inputs": [
        {
          "indexed": false,
          "internalType": "uint256",
          "name": "proposalId",
          "type": "uint256"
        }
      ],
      "name": "ProposalExecuted",
      "type": "event"
    },
    {
      "anonymous": false,
      "inputs": [
        {
          "indexed": false,
          "internalType": "uint256",
          "name": "proposalId",
          "type": "uint256"
        },
        {
          "indexed": false,
          "internalType": "uint256",
          "name": "votePowerBlock",
          "type": "uint256"
        },
        {
          "indexed": false,
          "internalType": "uint256",
          "name": "quorumThreshold",
          "type": "uint256"
        },
        {
          "indexed": false,
          "internalType": "uint256",
          "name": "acceptanceThreshold",
          "type": "uint256"
        }
      ],
      "name": "ProposalSettingsAccept",
      "type": "event"
    },
    {
      "anonymous": false,
      "inputs": [
        {
          "indexed": false,
          "internalType": "uint256",
          "name": "oldProposalThreshold",
          "type": "uint256"
        },
        {
          "indexed": false,
          "internalType": "uint256",
          "name": "newProposalThreshold",
          "type": "uint256"
        }
      ],
      "name": "ProposalThresholdSet",
      "type": "event"
    },
    {
      "anonymous": false,
      "inputs": [
        {
          "indexed": false,
          "internalType": "uint256",
          "name": "oldQuorumThreshold",
          "type": "uint256"
        },
        {
          "indexed": false,
          "internalType": "uint256",
          "name": "newQuorumThreshold",
          "type": "uint256"
        }
      ],
      "name": "QuorumThresholdSet",
      "type": "event"
    },
    {
      "anonymous": false,
      "inputs": [
        {
          "indexed": true,
          "internalType": "address",
          "name": "voter",
          "type": "address"
        },
        {
          "indexed": false,
          "internalType": "uint256",
          "name": "proposalId",
          "type": "uint256"
        },
        {
          "indexed": false,
          "internalType": "uint8",
          "name": "support",
          "type": "uint8"
        },
        {
          "indexed": false,
          "internalType": "uint256",
          "name": "weight",
          "type": "uint256"
        },
        {
          "indexed": false,
          "internalType": "string",
          "name": "reason",
          "type": "string"
        }
      ],
      "name": "VoteCast",
      "type": "event"
    },
    {
      "anonymous": false,
      "inputs": [
        {
          "indexed": false,
          "internalType": "uint256",
          "name": "oldVotePowerLifeTimeDays",
          "type": "uint256"
        },
        {
          "indexed": false,
          "internalType": "uint256",
          "name": "newVotePowerLifeTimeDays",
          "type": "uint256"
        }
      ],
      "name": "VotePowerLifeTimeDaysSet",
      "type": "event"
    },
    {
      "anonymous": false,
      "inputs": [
        {
          "indexed": false,
          "internalType": "uint256",
          "name": "oldVotingDelay",
          "type": "uint256"
        },
        {
          "indexed": false,
          "internalType": "uint256",
          "name": "newVotingDelay",
          "type": "uint256"
        }
      ],
      "name": "VotingDelaySet",
      "type": "event"
    },
    {
      "anonymous": false,
      "inputs": [
        {
          "indexed": false,
          "internalType": "uint256",
          "name": "oldVotingPeriod",
          "type": "uint256"
        },
        {
          "indexed": false,
          "internalType": "uint256",
          "name": "newVotingPeriod",
          "type": "uint256"
        }
      ],
      "name": "VotingPeriodSet",
      "type": "event"
    },
    {
      "anonymous": false,
      "inputs": [
        {
          "indexed": false,
          "internalType": "uint256",
          "name": "oldVpBlockPeriodSeconds",
          "type": "uint256"
        },
        {
          "indexed": false,
          "internalType": "uint256",
          "name": "newVpBlockPeriodSeconds",
          "type": "uint256"
        }
      ],
      "name": "VpBlockPeriodSecondsSet",
      "type": "event"
    },
    {
      "inputs": [],
      "name": "BALLOT_TYPEHASH",
      "outputs": [
        {
          "internalType": "bytes32",
          "name": "",
          "type": "bytes32"
        }
      ],
      "stateMutability": "view",
      "type": "function"
    },
    {
      "inputs": [],
      "name": "acceptanceThreshold",
      "outputs": [
        {
          "internalType": "uint256",
          "name": "",
          "type": "uint256"
        }
      ],
      "stateMutability": "view",
      "type": "function"
    },
    {
      "inputs": [
        {
          "internalType": "uint256",
          "name": "_proposalId",
          "type": "uint256"
        },
        {
          "internalType": "uint8",
          "name": "_support",
          "type": "uint8"
        }
      ],
      "name": "castVote",
      "outputs": [
        {
          "internalType": "uint256",
          "name": "",
          "type": "uint256"
        }
      ],
      "stateMutability": "nonpayable",
      "type": "function"
    },
    {
      "inputs": [
        {
          "internalType": "uint256",
          "name": "_proposalId",
          "type": "uint256"
        },
        {
          "internalType": "uint8",
          "name": "_support",
          "type": "uint8"
        },
        {
          "internalType": "uint8",
          "name": "_v",
          "type": "uint8"
        },
        {
          "internalType": "bytes32",
          "name": "_r",
          "type": "bytes32"
        },
        {
          "internalType": "bytes32",
          "name": "_s",
          "type": "bytes32"
        }
      ],
      "name": "castVoteBySig",
      "outputs": [
        {
          "internalType": "uint256",
          "name": "",
          "type": "uint256"
        }
      ],
      "stateMutability": "nonpayable",
      "type": "function"
    },
    {
      "inputs": [
        {
          "internalType": "uint256",
          "name": "_proposalId",
          "type": "uint256"
        },
        {
          "internalType": "uint8",
          "name": "_support",
          "type": "uint8"
        },
        {
          "internalType": "string",
          "name": "_reason",
          "type": "string"
        }
      ],
      "name": "castVoteWithReason",
      "outputs": [
        {
          "internalType": "uint256",
          "name": "",
          "type": "uint256"
        }
      ],
      "stateMutability": "nonpayable",
      "type": "function"
    },
    {
      "inputs": [],
      "name": "claimGovernance",
      "outputs": [],
      "stateMutability": "nonpayable",
      "type": "function"
    },
    {
      "inputs": [
        {
          "internalType": "address[]",
          "name": "_targets",
          "type": "address[]"
        },
        {
          "internalType": "uint256[]",
          "name": "_values",
          "type": "uint256[]"
        },
        {
          "internalType": "bytes[]",
          "name": "_calldatas",
          "type": "bytes[]"
        },
        {
          "internalType": "bytes32",
          "name": "_descriptionHash",
          "type": "bytes32"
        }
      ],
      "name": "execute",
      "outputs": [
        {
          "internalType": "uint256",
          "name": "proposalId",
          "type": "uint256"
        }
      ],
      "stateMutability": "payable",
      "type": "function"
    },
    {
      "inputs": [
        {
          "internalType": "string",
          "name": "_description",
          "type": "string"
        }
      ],
      "name": "execute",
      "outputs": [
        {
          "internalType": "uint256",
          "name": "",
          "type": "uint256"
        }
      ],
      "stateMutability": "nonpayable",
      "type": "function"
    },
    {
      "inputs": [],
      "name": "executionDelay",
      "outputs": [
        {
          "internalType": "uint256",
          "name": "",
          "type": "uint256"
        }
      ],
      "stateMutability": "view",
      "type": "function"
    },
    {
      "inputs": [],
      "name": "executionPeriod",
      "outputs": [
        {
          "internalType": "uint256",
          "name": "",
          "type": "uint256"
        }
      ],
      "stateMutability": "view",
      "type": "function"
    },
    {
      "inputs": [],
      "name": "ftsoManager",
      "outputs": [
        {
          "internalType": "contract IIFtsoManager",
          "name": "",
          "type": "address"
        }
      ],
      "stateMutability": "view",
      "type": "function"
    },
    {
      "inputs": [],
      "name": "getAddressUpdater",
      "outputs": [
        {
          "internalType": "address",
          "name": "_addressUpdater",
          "type": "address"
        }
      ],
      "stateMutability": "view",
      "type": "function"
    },
    {
      "inputs": [
        {
          "internalType": "address[]",
          "name": "_targets",
          "type": "address[]"
        },
        {
          "internalType": "uint256[]",
          "name": "_values",
          "type": "uint256[]"
        },
        {
          "internalType": "bytes[]",
          "name": "_calldatas",
          "type": "bytes[]"
        },
        {
          "internalType": "bytes32",
          "name": "_descriptionHash",
          "type": "bytes32"
        }
      ],
      "name": "getProposalId",
      "outputs": [
        {
          "internalType": "uint256",
          "name": "",
          "type": "uint256"
        }
      ],
      "stateMutability": "pure",
      "type": "function"
    },
    {
      "inputs": [
        {
          "internalType": "uint256",
          "name": "_proposalId",
          "type": "uint256"
        }
      ],
      "name": "getProposalInfo",
      "outputs": [
        {
          "internalType": "address",
          "name": "_proposer",
          "type": "address"
        },
        {
          "internalType": "uint256",
          "name": "_votePowerBlock",
          "type": "uint256"
        },
        {
          "internalType": "uint256",
          "name": "_voteStartTime",
          "type": "uint256"
        },
        {
          "internalType": "uint256",
          "name": "_voteEndTime",
          "type": "uint256"
        },
        {
          "internalType": "uint256",
          "name": "_execStartTime",
          "type": "uint256"
        },
        {
          "internalType": "uint256",
          "name": "_execEndTime",
          "type": "uint256"
        },
        {
          "internalType": "bool",
          "name": "_executed",
          "type": "bool"
        }
      ],
      "stateMutability": "view",
      "type": "function"
    },
    {
      "inputs": [
        {
          "internalType": "uint256",
          "name": "_proposalId",
          "type": "uint256"
        }
      ],
      "name": "getProposalVP",
      "outputs": [
        {
          "internalType": "uint256",
          "name": "_totalVP",
          "type": "uint256"
        },
        {
          "internalType": "uint256",
          "name": "_for",
          "type": "uint256"
        },
        {
          "internalType": "uint256",
          "name": "_against",
          "type": "uint256"
        },
        {
          "internalType": "uint256",
          "name": "_abstain",
          "type": "uint256"
        }
      ],
      "stateMutability": "view",
      "type": "function"
    },
    {
      "inputs": [],
      "name": "getVotePowerLifeTimeDays",
      "outputs": [
        {
          "internalType": "uint256",
          "name": "",
          "type": "uint256"
        }
      ],
      "stateMutability": "view",
      "type": "function"
    },
    {
      "inputs": [
        {
          "internalType": "address",
          "name": "_voter",
          "type": "address"
        },
        {
          "internalType": "uint256",
          "name": "_blockNumber",
          "type": "uint256"
        }
      ],
      "name": "getVotes",
      "outputs": [
        {
          "internalType": "uint256",
          "name": "",
          "type": "uint256"
        }
      ],
      "stateMutability": "view",
      "type": "function"
    },
    {
      "inputs": [],
      "name": "getVpBlockPeriodSeconds",
      "outputs": [
        {
          "internalType": "uint256",
          "name": "",
          "type": "uint256"
        }
      ],
      "stateMutability": "view",
      "type": "function"
    },
    {
      "inputs": [],
      "name": "governance",
      "outputs": [
        {
          "internalType": "address",
          "name": "",
          "type": "address"
        }
      ],
      "stateMutability": "view",
      "type": "function"
    },
    {
      "inputs": [
        {
          "internalType": "uint256",
          "name": "_proposalId",
          "type": "uint256"
        },
        {
          "internalType": "address",
          "name": "_voter",
          "type": "address"
        }
      ],
      "name": "hasVoted",
      "outputs": [
        {
          "internalType": "bool",
          "name": "",
          "type": "bool"
        }
      ],
      "stateMutability": "view",
      "type": "function"
    },
    {
      "inputs": [
        {
          "internalType": "address",
          "name": "_governance",
          "type": "address"
        }
      ],
      "name": "initialise",
      "outputs": [],
      "stateMutability": "nonpayable",
      "type": "function"
    },
    {
      "inputs": [],
      "name": "priceSubmitter",
      "outputs": [
        {
          "internalType": "contract IPriceSubmitter",
          "name": "",
          "type": "address"
        }
      ],
      "stateMutability": "view",
      "type": "function"
    },
    {
      "inputs": [],
      "name": "proposalThreshold",
      "outputs": [
        {
          "internalType": "uint256",
          "name": "",
          "type": "uint256"
        }
      ],
      "stateMutability": "view",
      "type": "function"
    },
    {
      "inputs": [
        {
          "internalType": "uint256",
          "name": "",
          "type": "uint256"
        }
      ],
      "name": "proposalsSettings",
      "outputs": [
        {
          "internalType": "uint256",
          "name": "quorumThreshold",
          "type": "uint256"
        },
        {
          "internalType": "uint256",
          "name": "acceptanceThreshold",
          "type": "uint256"
        }
      ],
      "stateMutability": "view",
      "type": "function"
    },
    {
      "inputs": [
        {
          "internalType": "address[]",
          "name": "_targets",
          "type": "address[]"
        },
        {
          "internalType": "uint256[]",
          "name": "_values",
          "type": "uint256[]"
        },
        {
          "internalType": "bytes[]",
          "name": "_calldatas",
          "type": "bytes[]"
        },
        {
          "internalType": "string",
          "name": "_description",
          "type": "string"
        }
      ],
      "name": "propose",
      "outputs": [
        {
          "internalType": "uint256",
          "name": "",
          "type": "uint256"
        }
      ],
      "stateMutability": "nonpayable",
      "type": "function"
    },
    {
      "inputs": [
        {
          "internalType": "string",
          "name": "_description",
          "type": "string"
        }
      ],
      "name": "propose",
      "outputs": [
        {
          "internalType": "uint256",
          "name": "",
          "type": "uint256"
        }
      ],
      "stateMutability": "nonpayable",
      "type": "function"
    },
    {
      "inputs": [
        {
          "internalType": "address",
          "name": "_governance",
          "type": "address"
        }
      ],
      "name": "proposeGovernance",
      "outputs": [],
      "stateMutability": "nonpayable",
      "type": "function"
    },
    {
      "inputs": [],
      "name": "proposedGovernance",
      "outputs": [
        {
          "internalType": "address",
          "name": "",
          "type": "address"
        }
      ],
      "stateMutability": "view",
      "type": "function"
    },
    {
      "inputs": [
        {
          "internalType": "uint256",
          "name": "_blockNumber",
          "type": "uint256"
        }
      ],
      "name": "quorum",
      "outputs": [
        {
          "internalType": "uint256",
          "name": "",
          "type": "uint256"
        }
      ],
      "stateMutability": "view",
      "type": "function"
    },
    {
      "inputs": [],
      "name": "quorumThreshold",
      "outputs": [
        {
          "internalType": "uint256",
          "name": "",
          "type": "uint256"
        }
      ],
      "stateMutability": "view",
      "type": "function"
    },
    {
      "inputs": [
        {
          "internalType": "uint256",
          "name": "_acceptanceThresholdBIPS",
          "type": "uint256"
        }
      ],
      "name": "setAcceptanceThreshold",
      "outputs": [],
      "stateMutability": "nonpayable",
      "type": "function"
    },
    {
      "inputs": [
        {
          "internalType": "uint256",
          "name": "_executionDelaySeconds",
          "type": "uint256"
        }
      ],
      "name": "setExecutionDelay",
      "outputs": [],
      "stateMutability": "nonpayable",
      "type": "function"
    },
    {
      "inputs": [
        {
          "internalType": "uint256",
          "name": "_executionPeriodSeconds",
          "type": "uint256"
        }
      ],
      "name": "setExecutionPeriod",
      "outputs": [],
      "stateMutability": "nonpayable",
      "type": "function"
    },
    {
      "inputs": [
        {
          "internalType": "uint256",
          "name": "_proposalThresholdBIPS",
          "type": "uint256"
        }
      ],
      "name": "setProposalThreshold",
      "outputs": [],
      "stateMutability": "nonpayable",
      "type": "function"
    },
    {
      "inputs": [
        {
          "internalType": "uint256",
          "name": "_quorumThresholdBIPS",
          "type": "uint256"
        }
      ],
      "name": "setQuorumThreshold",
      "outputs": [],
      "stateMutability": "nonpayable",
      "type": "function"
    },
    {
      "inputs": [
        {
          "internalType": "uint256",
          "name": "_votePowerLifeTimeDays",
          "type": "uint256"
        }
      ],
      "name": "setVotePowerLifeTimeDays",
      "outputs": [],
      "stateMutability": "nonpayable",
      "type": "function"
    },
    {
      "inputs": [
        {
          "internalType": "uint256",
          "name": "_votingDelaySeconds",
          "type": "uint256"
        }
      ],
      "name": "setVotingDelay",
      "outputs": [],
      "stateMutability": "nonpayable",
      "type": "function"
    },
    {
      "inputs": [
        {
          "internalType": "uint256",
          "name": "_votingPeriodSeconds",
          "type": "uint256"
        }
      ],
      "name": "setVotingPeriod",
      "outputs": [],
      "stateMutability": "nonpayable",
      "type": "function"
    },
    {
      "inputs": [
        {
          "internalType": "uint256",
          "name": "_vpBlockPeriodSeconds",
          "type": "uint256"
        }
      ],
      "name": "setVpBlockPeriodSeconds",
      "outputs": [],
      "stateMutability": "nonpayable",
      "type": "function"
    },
    {
      "inputs": [
        {
          "internalType": "uint256",
          "name": "_proposalId",
          "type": "uint256"
        }
      ],
      "name": "state",
      "outputs": [
        {
          "internalType": "enum IGovernor.ProposalState",
          "name": "",
          "type": "uint8"
        }
      ],
      "stateMutability": "view",
      "type": "function"
    },
    {
      "inputs": [
        {
          "internalType": "address",
          "name": "_governance",
          "type": "address"
        }
      ],
      "name": "transferGovernance",
      "outputs": [],
      "stateMutability": "nonpayable",
      "type": "function"
    },
    {
      "inputs": [
        {
          "internalType": "bytes32[]",
          "name": "_contractNameHashes",
          "type": "bytes32[]"
        },
        {
          "internalType": "address[]",
          "name": "_contractAddresses",
          "type": "address[]"
        }
      ],
      "name": "updateContractAddresses",
      "outputs": [],
      "stateMutability": "nonpayable",
      "type": "function"
    },
    {
      "inputs": [],
      "name": "votePower",
      "outputs": [
        {
          "internalType": "contract IIGovernanceVotePower",
          "name": "",
          "type": "address"
        }
      ],
      "stateMutability": "view",
      "type": "function"
    },
    {
      "inputs": [],
      "name": "votingDelay",
      "outputs": [
        {
          "internalType": "uint256",
          "name": "",
          "type": "uint256"
        }
      ],
      "stateMutability": "view",
      "type": "function"
    },
    {
      "inputs": [],
      "name": "votingPeriod",
      "outputs": [
        {
          "internalType": "uint256",
          "name": "",
          "type": "uint256"
        }
      ],
      "stateMutability": "view",
      "type": "function"
    }
  ],
  "bytecode": "0x6101406040523480156200001257600080fd5b5060405162003fb138038062003fb18339810160408190526200003591620006e8565b80858585858083856000815181106200004a57fe5b6020026020010151866001815181106200006057fe5b6020026020010151876002815181106200007657fe5b6020026020010151886003815181106200008c57fe5b602002602001015189600481518110620000a257fe5b60200260200101518a600581518110620000b857fe5b60200260200101518b600681518110620000ce57fe5b60200260200101518c600781518110620000e457fe5b60200260200101518880620000fe6200027760201b60201c565b620001086200029f565b815160208084019190912082519183019190912060c082905260e08190527f8b73c3c69bb8fe3d512ecc4cf759cc79239f7b179b0ffacaa9a75d522b39400f62000151620002ba565b60a05262000161818484620002be565b60805261010052505050506001600160a01b038116156200018757620001878162000322565b506001600160a01b038116620001d7576040805162461bcd60e51b815260206004820152601060248201526f5f676f7665726e616e6365207a65726f60801b604482015290519081900360640190fd5b50620001e38862000406565b620001ee8762000448565b620001f9866200048a565b6200020485620004f8565b6200020f846200053a565b6200021a836200059f565b6200022582620005e1565b620002308162000623565b5050505050505050506200024a816200066560201b60201c565b505060601b6001600160601b03191661012052506200026b90508162000689565b5050505050506200085c565b60408051808201909152600e81526d11dbdd995c9b9bdc9058d8d95c1d60921b602082015290565b6040805180820190915260018152603160f81b602082015290565b4690565b6000838383620002cd620002ba565b3060405160200180868152602001858152602001848152602001838152602001826001600160a01b03168152602001955050505050506040516020818303038152906040528051906020012090509392505050565b600154600160a01b900460ff161562000382576040805162461bcd60e51b815260206004820152601460248201527f696e697469616c6973656420213d2066616c7365000000000000000000000000604482015290519081900360640190fd5b6001805460ff60a01b1916600160a01b179055600054604080516001600160a01b039283168152918316602083015280517f434a2db650703b36c824e745330d6397cdaa9ee2cc891a4938ae853e1c50b68d9281900390910190a1600080546001600160a01b039092166001600160a01b0319928316179055600180549091169055565b7fccb45da8d5717e6c4544694297c4ba5cf151d455c9bb0ed4fc7a38411bc05461600254826040516200043b9291906200084e565b60405180910390a1600255565b7fc565b045403dc03c2eea82b81a0465edad9e2e7fc4d97e11421c209da93d7a93600454826040516200047d9291906200084e565b60405180910390a1600455565b60008111620004b65760405162461bcd60e51b8152600401620004ad9062000817565b60405180910390fd5b7f7e3f7f0708a84de9203036abaa450dccc85ad5ff52f78c170f3edb55cf5e882860055482604051620004eb9291906200084e565b60405180910390a1600555565b7f2056b1a79eedb94135a24bdb0827c0ac4823d13d69f5cf7923ee5751c53ff645600654826040516200052d9291906200084e565b60405180910390a1600655565b600081116200055d5760405162461bcd60e51b8152600401620004ad90620007e0565b7fdcd7d6f89a192742519ec6798e6340b4e43748282ac27856e823a2579b50fe4360075482604051620005929291906200084e565b60405180910390a1600755565b7f0cfcb76a49f79cd93ccd078bf042be8eb52f77b087248ba89f14d8f81a605ae660085482604051620005d49291906200084e565b60405180910390a1600855565b7fb0696527788a80f2825d3fd8b9e9c017c6b3d7f5eb5a54eaa86deaa286d10c3860095482604051620006169291906200084e565b60405180910390a1600955565b7fa679132e53a14a0f5674480a8def108a2856034a2338cb9a064e7e2f8badf29e600a5482604051620006589291906200084e565b60405180910390a1600a55565b7f714f205b2abd25bef1d06a1af944e38c113fe6160375c4e1d6d5cf28848e771955565b7fe565eada13825043cc30c58a51794d30d20e51364ab85bee6daca3f1daab533760105482604051620006be9291906200084e565b60405180910390a1601055565b80516001600160a01b0381168114620006e357600080fd5b919050565b600080600080600060a0868803121562000700578081fd5b85516001600160401b038082111562000717578283fd5b818801915088601f8301126200072b578283fd5b81516020828211156200073a57fe5b808202604051828282010181811086821117156200075457fe5b604052838152828101945085830182870184018e101562000773578788fd5b8796505b848710156200079757805186526001969096019594830194830162000777565b509950620007a990508a8201620006cb565b975050505050620007bd60408701620006cb565b9250620007cd60608701620006cb565b9150608086015190509295509295909350565b60208082526018908201527f657865637574696f6e20706572696f6420746f6f206c6f770000000000000000604082015260600190565b60208082526015908201527f766f74696e6720706572696f6420746f6f206c6f770000000000000000000000604082015260600190565b918252602082015260400190565b60805160a05160c05160e051610100516101205160601c613703620008ae60003980610f42528061224d525080611e15525080611e57525080611e36525080611dbc525080611dec52506137036000f3fe6080604052600436106102725760003560e01c8063a8f8a6681161014f578063d1291f19116100c1578063eb9019d41161007a578063eb9019d414610720578063ece40cc114610740578063f17c9d7614610760578063f8ce560a14610775578063f911786214610795578063f937d6ad146107aa57610272565b8063d1291f191461066b578063d38bfff41461068b578063d99e4b76146106ab578063deaaa7cc146106cb578063e4917d9f146106e0578063ea0217cf1461070057610272565b8063b58131b011610113578063b58131b01461059e578063ba1b4586146105b3578063bc903cb8146105e3578063bd590d7e14610616578063c373a08e14610636578063d11d0d581461065657610272565b8063a8f8a668146104fb578063aa98df391461051b578063ab61bbfb1461053b578063b00c0b7614610569578063b0edbb9b1461058957610272565b80635aa6e675116101e857806370b0f660116101ac57806370b0f660146104515780637b3c71d3146104715780637b7a91dd146104915780637d5e81e2146104a65780638b257989146104c65780639d6a890f146104db57610272565b80635aa6e675146103dd5780635d36b190146103f257806360e775321461040757806360f7ac97146104275780636a714a9f1461043c57610272565b80633bccf4fd1161023a5780633bccf4fd1461030e5780633e4f49e61461032e578063438596321461035b5780634524c7e1146103885780635267a15d146103a857806356781388146103bd57610272565b806302a251a31461027757806311a7aaaa146102a257806312d0e9fe146102c45780632656227d146102e65780633932abb1146102f9575b600080fd5b34801561028357600080fd5b5061028c6107bf565b60405161029991906130ed565b60405180910390f35b3480156102ae57600080fd5b506102b76107c6565b604051610299919061302d565b3480156102d057600080fd5b506102e46102df366004612dc7565b6107d5565b005b61028c6102f4366004612b38565b6107e9565b34801561030557600080fd5b5061028c610800565b34801561031a57600080fd5b5061028c610329366004612ed3565b610806565b34801561033a57600080fd5b5061034e610349366004612dc7565b6108cc565b604051610299919061310f565b34801561036757600080fd5b5061037b610376366004612df7565b6108ed565b60405161029991906130e2565b34801561039457600080fd5b506102e46103a3366004612dc7565b61091d565b3480156103b457600080fd5b506102b761092e565b3480156103c957600080fd5b5061028c6103d8366004612e26565b610953565b3480156103e957600080fd5b506102b7610977565b3480156103fe57600080fd5b506102e4610986565b34801561041357600080fd5b506102e4610422366004612dc7565b610a48565b34801561043357600080fd5b506102b7610a59565b34801561044857600080fd5b5061028c610a68565b34801561045d57600080fd5b506102e461046c366004612dc7565b610a6e565b34801561047d57600080fd5b5061028c61048c366004612e51565b610a7f565b34801561049d57600080fd5b5061028c610ac3565b3480156104b257600080fd5b5061028c6104c1366004612bc4565b610ac9565b3480156104d257600080fd5b5061028c610ad7565b3480156104e757600080fd5b506102e46104f6366004612af1565b610add565b34801561050757600080fd5b5061028c610516366004612b38565b610bb7565b34801561052757600080fd5b5061028c610536366004612d3f565b610bc5565b34801561054757600080fd5b5061055b610556366004612dc7565b610c0c565b604051610299929190613586565b34801561057557600080fd5b506102e4610584366004612c6c565b610c25565b34801561059557600080fd5b5061028c610cd0565b3480156105aa57600080fd5b5061028c610cd6565b3480156105bf57600080fd5b506105d36105ce366004612dc7565b610cdc565b6040516102999493929190613594565b3480156105ef57600080fd5b506106036105fe366004612dc7565b610d0d565b604051610299979695949392919061305a565b34801561062257600080fd5b5061028c610631366004612d3f565b610d5c565b34801561064257600080fd5b506102e4610651366004612af1565b610dab565b34801561066257600080fd5b5061028c610e07565b34801561067757600080fd5b506102e4610686366004612dc7565b610e0d565b34801561069757600080fd5b506102e46106a6366004612af1565b610e1e565b3480156106b757600080fd5b506102e46106c6366004612dc7565b610e97565b3480156106d757600080fd5b5061028c610ea8565b3480156106ec57600080fd5b506102e46106fb366004612dc7565b610ecc565b34801561070c57600080fd5b506102e461071b366004612dc7565b610edd565b34801561072c57600080fd5b5061028c61073b366004612b0d565b610eee565b34801561074c57600080fd5b506102e461075b366004612dc7565b610efa565b34801561076c57600080fd5b506102b7610f0b565b34801561078157600080fd5b5061028c610790366004612dc7565b610f1a565b3480156107a157600080fd5b5061028c610f3a565b3480156107b657600080fd5b506102b7610f40565b6005545b90565b600f546001600160a01b031681565b6107dd610f64565b6107e681610fb7565b50565b60006107f785858585610ff7565b95945050505050565b60045490565b60008061086461085f7f150214d74d59b7d1e90c73fc22ef3d991dd0a76b046543d4d80ab92d2a50328f8989604051602001610844939291906130f6565b60405160208183030381529060405280519060200120611100565b61114c565b905060006108748287878761119d565b90506001600160a01b0381166108a55760405162461bcd60e51b815260040161089c906132aa565b60405180910390fd5b6108c088828960405180602001604052806000815250611312565b98975050505050505050565b6000818152600d602052604081206108e59083906113c3565b90505b919050565b6000828152600e602090815260408083206001600160a01b038516845260030190915290205460ff165b92915050565b610925610f64565b6107e681611489565b7f714f205b2abd25bef1d06a1af944e38c113fe6160375c4e1d6d5cf28848e77195490565b600061097083338460405180602001604052806000815250611312565b9392505050565b6000546001600160a01b031681565b6001546001600160a01b031633146109d5576040805162461bcd60e51b815260206004820152600d60248201526c1b9bdd0818db185a5b585a5b9d609a1b604482015290519081900360640190fd5b600054600154604080516001600160a01b03938416815292909116602083015280517f434a2db650703b36c824e745330d6397cdaa9ee2cc891a4938ae853e1c50b68d9281900390910190a160018054600080546001600160a01b03199081166001600160a01b03841617909155169055565b610a50610f64565b6107e6816114c9565b6001546001600160a01b031681565b600a5490565b610a76610f64565b6107e681611509565b60006107f785338686868080601f01602080910402602001604051908101604052809392919081815260200183838082843760009201919091525061131292505050565b60085490565b60006107f785858585611549565b60065490565b600154600160a01b900460ff1615610b33576040805162461bcd60e51b8152602060048201526014602482015273696e697469616c6973656420213d2066616c736560601b604482015290519081900360640190fd5b6001805460ff60a01b1916600160a01b179055600054604080516001600160a01b039283168152918316602083015280517f434a2db650703b36c824e745330d6397cdaa9ee2cc891a4938ae853e1c50b68d9281900390910190a1600080546001600160a01b039092166001600160a01b0319928316179055600180549091169055565b60006107f785858585611650565b604080516000808252602082018181528284018281526060840190945290926108e592919084610c05565b6060815260200190600190039081610bf05790505b5085611549565b6011602052600090815260409020805460019091015482565b610c2d61092e565b6001600160a01b0316336001600160a01b031614610c89576040805162461bcd60e51b815260206004820152601460248201527337b7363c9030b2323932b9b9903ab83230ba32b960611b604482015290519081900360640190fd5b610cc2610cbd83836040518060400160405280600e81526020016d20b2323932b9b9aab83230ba32b960911b81525061168a565b6117ae565b610ccc82826117d2565b5050565b60105490565b60025490565b6000908152600e60209081526040808320600d90925290912060070154600282015460018301549254919390929190565b6000908152600d602052604090208054600182015460028301546003840154600485015460058601546006909601546001600160a01b0390951696939592949193909291610100900460ff1690565b604080516000808252602082018181528284018281526060840190945290926108e592919084610d9c565b6060815260200190600190039081610d875790505b50610da68661186e565b610ff7565b610db3610f64565b600180546001600160a01b0383166001600160a01b0319909116811790915560408051918252517f1f95fb40be3a947982072902a887b521248d1d8931a39eb38f84f4d6fd758b699181900360200190a150565b60075490565b610e15610f64565b6107e681611879565b610e26610f64565b600054604080516001600160a01b039283168152918316602083015280517f434a2db650703b36c824e745330d6397cdaa9ee2cc891a4938ae853e1c50b68d9281900390910190a1600080546001600160a01b039092166001600160a01b0319928316179055600180549091169055565b610e9f610f64565b6107e6816118b9565b7f150214d74d59b7d1e90c73fc22ef3d991dd0a76b046543d4d80ab92d2a50328f81565b610ed4610f64565b6107e681611919565b610ee5610f64565b6107e681611959565b600061097083836119b9565b610f02610f64565b6107e681611a3c565b600b546001600160a01b031681565b60006108e5610f2883611a7c565b612710610f33610ac3565b9190611b74565b60095490565b7f000000000000000000000000000000000000000000000000000000000000000081565b6000546001600160a01b03163314610fb5576040805162461bcd60e51b815260206004820152600f60248201526e6f6e6c7920676f7665726e616e636560881b604482015290519081900360640190fd5b565b7fa679132e53a14a0f5674480a8def108a2856034a2338cb9a064e7e2f8badf29e600a5482604051610fea929190613586565b60405180910390a1600a55565b600061100585858585611650565b6000818152600d60205260409020600681015491925090610100900460ff16156110415760405162461bcd60e51b815260040161089c9061347b565b80546001600160a01b0316331461106a5760405162461bcd60e51b815260040161089c90613216565b600061107683836113c3565b9050600481600681111561108657fe5b146110a35760405162461bcd60e51b815260040161089c90613444565b60068201805461ff0019166101001790556110bf878787611c80565b7f712ae1383f79ac853f8d882153778e0260ef8f03b504e2866e0593e04d2b291f836040516110ee91906130ed565b60405180910390a15050949350505050565b600061110a611db8565b82604051602001808061190160f01b81525060020183815260200182815260200192505050604051602081830303815290604052805190602001209050919050565b604080517f19457468657265756d205369676e6564204d6573736167653a0a333200000000602080830191909152603c8083019490945282518083039094018452605c909101909152815191012090565b60007f7fffffffffffffffffffffffffffffff5d576e7357a4501ddfe92f46681b20a08211156111fe5760405162461bcd60e51b81526004018080602001828103825260228152602001806136696022913960400191505060405180910390fd5b8360ff16601b148061121357508360ff16601c145b61124e5760405162461bcd60e51b815260040180806020018281038252602281526020018061368b6022913960400191505060405180910390fd5b600060018686868660405160008152602001604052604051808581526020018460ff1681526020018381526020018281526020019450505050506020604051602081039080840390855afa1580156112aa573d6000803e3d6000fd5b5050604051601f1901519150506001600160a01b0381166107f7576040805162461bcd60e51b815260206004820152601860248201527f45434453413a20696e76616c6964207369676e61747572650000000000000000604482015290519081900360640190fd5b6000848152600d60205260408120600161132c87836113c3565b600681111561133757fe5b146113545760405162461bcd60e51b815260040161089c906133b5565b60006113648683600101546119b9565b905061137287878784611e82565b856001600160a01b03167fb8e138887d0aa13bab447e82de9d5c1777041ecd21ca36ba824ff1e6c07ddda4888784886040516113b194939291906135af565b60405180910390a29695505050505050565b6006810154600090610100900460ff16156113e057506006610917565b60028201546114015760405162461bcd60e51b815260040161089c906132da565b428260020154111561141557506000610917565b428260030154111561142957506001610917565b611437838360070154611f55565b1561148057600682015460ff1661145057506004610917565b428260040154111561146457506003610917565b428260050154111561147857506004610917565b506005610917565b50600292915050565b7f0cfcb76a49f79cd93ccd078bf042be8eb52f77b087248ba89f14d8f81a605ae6600854826040516114bc929190613586565b60405180910390a1600855565b7fb0696527788a80f2825d3fd8b9e9c017c6b3d7f5eb5a54eaa86deaa286d10c38600954826040516114fc929190613586565b60405180910390a1600955565b7fc565b045403dc03c2eea82b81a0465edad9e2e7fc4d97e11421c209da93d7a936004548260405161153c929190613586565b60405180910390a1600455565b6000806000611556611fce565b915091506115643383612337565b6115805760405162461bcd60e51b815260040161089c90613191565b60008061159c338a8a8a8a8989306115978d611a7c565b612343565b915091506115a9826126d7565b7f7d84a6263ae0d98d3329bd7b46bb4e8d6f98cd35a7adb45c274c8b7fd5ebd5e082338b8b8d5167ffffffffffffffff811180156115e657600080fd5b5060405190808252806020026020018201604052801561161a57816020015b60608152602001906001900390816116055790505b508c876002015488600301548e60405161163c999897969594939291906134b2565b60405180910390a150979650505050505050565b6000848484846040516020016116699493929190613097565b60408051601f19818403018152919052805160209091012095945050505050565b600080826040516020018080602001828103825283818151815260200191508051906020019080838360005b838110156116ce5781810151838201526020016116b6565b50505050905090810190601f1680156116fb5780820380516001836020036101000a031916815260200191505b50925050506040516020818303038152906040528051906020012090506000805b86518110156117635786818151811061173157fe5b602002602001015183141561175b5785818151811061174c57fe5b60200260200101519150611763565b60010161171c565b506001600160a01b0381166107f7576040805162461bcd60e51b815260206004820152600c60248201526b61646472657373207a65726f60a01b604482015290519081900360640190fd5b7f714f205b2abd25bef1d06a1af944e38c113fe6160375c4e1d6d5cf28848e771955565b61180082826040518060400160405280600b81526020016a233a39b7a6b0b730b3b2b960a91b81525061168a565b600f60006101000a8154816001600160a01b0302191690836001600160a01b03160217905550600061185e83836040518060400160405280601381526020017223b7bb32b93730b731b2ab37ba32a837bbb2b960691b81525061168a565b905061186981612754565b505050565b805160209091012090565b7fe565eada13825043cc30c58a51794d30d20e51364ab85bee6daca3f1daab5337601054826040516118ac929190613586565b60405180910390a1601055565b600081116118d95760405162461bcd60e51b815260040161089c90613307565b7fdcd7d6f89a192742519ec6798e6340b4e43748282ac27856e823a2579b50fe436007548260405161190c929190613586565b60405180910390a1600755565b7f2056b1a79eedb94135a24bdb0827c0ac4823d13d69f5cf7923ee5751c53ff6456006548260405161194c929190613586565b60405180910390a1600655565b600081116119795760405162461bcd60e51b815260040161089c90613386565b7f7e3f7f0708a84de9203036abaa450dccc85ad5ff52f78c170f3edb55cf5e8828600554826040516119ac929190613586565b60405180910390a1600555565b600b54604051631257fcdb60e31b81526000916001600160a01b0316906392bfe6d8906119ec9086908690600401613041565b60206040518083038186803b158015611a0457600080fd5b505afa158015611a18573d6000803e3d6000fd5b505050506040513d601f19601f820116820180604052508101906109709190612ddf565b7fccb45da8d5717e6c4544694297c4ba5cf151d455c9bb0ed4fc7a38411bc0546160025482604051611a6f929190613586565b60405180910390a1600255565b600b5460408051636537188360e01b815290516000926001600160a01b0316916365371883916004808301926020929190829003018186803b158015611ac157600080fd5b505afa158015611ad5573d6000803e3d6000fd5b505050506040513d601f19601f82011682018060405250810190611af99190612d23565b6001600160a01b0316633e5aa26a836040518263ffffffff1660e01b8152600401611b2491906130ed565b60206040518083038186803b158015611b3c57600080fd5b505afa158015611b50573d6000803e3d6000fd5b505050506040513d601f19601f820116820180604052508101906108e59190612ddf565b6000808211611bbd576040805162461bcd60e51b815260206004820152601060248201526f4469766973696f6e206279207a65726f60801b604482015290519081900360640190fd5b83611bca57506000610970565b83830283858281611bd757fe5b041415611bf057828181611be757fe5b04915050610970565b6000838681611bfb57fe5b0490506000848781611c0957fe5b0690506000858781611c1757fe5b0490506000868881611c2557fe5b069050611c73611c3f88611c398685612776565b906127cf565b611c6d611c4c8686612776565b611c6d611c598987612776565b611c6d8d611c678c8b612776565b90612776565b90612836565b9998505050505050505050565b6000805b8351811015611cb257838181518110611c9957fe5b6020026020010151820191508080600101915050611c84565b50803414611cd25760405162461bcd60e51b815260040161089c9061333e565b60005b8451811015611db157600080868381518110611ced57fe5b60200260200101516001600160a01b0316868481518110611d0a57fe5b6020026020010151868581518110611d1e57fe5b6020026020010151604051611d339190613011565b60006040518083038185875af1925050503d8060008114611d70576040519150601f19603f3d011682016040523d82523d6000602084013e611d75565b606091505b509150915081611da757805115611d8f5780518082602001fd5b60405162461bcd60e51b815260040161089c906131df565b5050600101611cd5565b5050505050565b60007f0000000000000000000000000000000000000000000000000000000000000000611de3612890565b1415611e1057507f00000000000000000000000000000000000000000000000000000000000000006107c3565b611e7b7f00000000000000000000000000000000000000000000000000000000000000007f00000000000000000000000000000000000000000000000000000000000000007f0000000000000000000000000000000000000000000000000000000000000000612894565b90506107c3565b6000848152600e602090815260408083206001600160a01b0387168452600381019092529091205460ff1615611eca5760405162461bcd60e51b815260040161089c90613419565b6001600160a01b03841660009081526003820160205260408120805460ff1916600117905560ff168360ff161415611f0b5760018101805483019055611db1565b60ff831660011415611f265760028101805483019055611db1565b60ff831660021415611f3d57805482018155611db1565b60405162461bcd60e51b815260040161089c906133e2565b6000828152600e60209081526040808320601190925282208054611f7c9085612710611b74565b60028301546001840154845401011015611f9b57600092505050610917565b6001810154611fad9085612710611b74565b82600201541015611fc357600092505050610917565b506001949350505050565b6000806000600f60009054906101000a90046001600160a01b03166001600160a01b031663e7c830d46040518163ffffffff1660e01b815260040160206040518083038186803b15801561202157600080fd5b505afa158015612035573d6000803e3d6000fd5b505050506040513d601f19601f820116820180604052508101906120599190612ddf565b600f5460405163e5399da360e01b81529192506000916001600160a01b039091169063e5399da39061208f9085906004016130ed565b60606040518083038186803b1580156120a757600080fd5b505afa1580156120bb573d6000803e3d6000fd5b505050506040513d601f19601f820116820180604052508101906120df9190612d72565b90504360006120ec610a68565b90506000600b60009054906101000a90046001600160a01b03166001600160a01b031663a72ec4b66040518163ffffffff1660e01b815260040160206040518083038186803b15801561213e57600080fd5b505afa158015612152573d6000803e3d6000fd5b505050506040513d601f19601f820116820180604052508101906121769190612ddf565b90505b841561223b57600f5460405163e5399da360e01b81526000916001600160a01b03169063e5399da3906121b4906000198a01906004016130ed565b60606040518083038186803b1580156121cc57600080fd5b505afa1580156121e0573d6000803e3d6000fd5b505050506040513d601f19601f820116820180604052508101906122049190612d72565b6040810151909150420383811015806122205750828260200151105b1561222c57505061223b565b50600019909501949350612179565b600084602001519050600042905060007f00000000000000000000000000000000000000000000000000000000000000006001600160a01b031663d89601fd6040518163ffffffff1660e01b815260040160206040518083038186803b1580156122a457600080fd5b505afa1580156122b8573d6000803e3d6000fd5b505050506040513d601f19601f820116820180604052508101906122dc9190612ddf565b9050600082826040516020016122f3929190613586565b6040516020818303038152906040528051906020012060001c90506000848803828161231b57fe5b6040909a015199069097039a5096985050505050505050509091565b600061097083836128f6565b60008088518a51146123675760405162461bcd60e51b815260040161089c90613123565b87518a51146123885760405162461bcd60e51b815260040161089c90613123565b600061239e8b8b8b6123998c61186e565b611650565b6000818152600d60205260409020600281015491925090156123d25760405162461bcd60e51b815260040161089c9061315a565b80546001600160a01b0319166001600160a01b038e81169190911782556001820189905560408051633932abb160e01b8152905191881691633932abb191600480820192602092909190829003018186803b15801561243057600080fd5b505afa158015612444573d6000803e3d6000fd5b505050506040513d601f19601f820116820180604052508101906124689190612ddf565b42018160020181905550856001600160a01b03166302a251a36040518163ffffffff1660e01b815260040160206040518083038186803b1580156124ab57600080fd5b505afa1580156124bf573d6000803e3d6000fd5b505050506040513d601f19601f820116820180604052508101906124e39190612ddf565b8160020154018160030181905550856001600160a01b031663f91178626040518163ffffffff1660e01b815260040160206040518083038186803b15801561252a57600080fd5b505afa15801561253e573d6000803e3d6000fd5b505050506040513d601f19601f820116820180604052508101906125629190612ddf565b603c02603c02601802878260030154031061258f5760405162461bcd60e51b815260040161089c90613263565b8b51156126be5760068101805460ff1916600117905560408051638b25798960e01b815290516001600160a01b03881691638b257989916004808301926020929190829003018186803b1580156125e557600080fd5b505afa1580156125f9573d6000803e3d6000fd5b505050506040513d601f19601f8201168201806040525081019061261d9190612ddf565b60038201540160048201819055600c54111561263c57600c5460048201555b856001600160a01b031663d11d0d586040518163ffffffff1660e01b815260040160206040518083038186803b15801561267557600080fd5b505afa158015612689573d6000803e3d6000fd5b505050506040513d601f19601f820116820180604052508101906126ad9190612ddf565b60048201540160058201819055600c555b60078101949094559b929a509198505050505050505050565b60008181526011602052604090206126ed610ac3565b81556126f7610cd0565b60018083018290556000848152600d60205260409081902090910154835491517fc39b7407dfd1976cf3da2aaedcac96cc1f3027cb91abe7768b05bb81ba322e5a9361274893879392909190613594565b60405180910390a15050565b600b80546001600160a01b0319166001600160a01b0392909216919091179055565b60008261278557506000610917565b8282028284828161279257fe5b04146109705760405162461bcd60e51b81526004018080602001828103825260218152602001806136ad6021913960400191505060405180910390fd5b6000808211612825576040805162461bcd60e51b815260206004820152601a60248201527f536166654d6174683a206469766973696f6e206279207a65726f000000000000604482015290519081900360640190fd5b81838161282e57fe5b049392505050565b600082820183811015610970576040805162461bcd60e51b815260206004820152601b60248201527f536166654d6174683a206164646974696f6e206f766572666c6f770000000000604482015290519081900360640190fd5b4690565b60008383836128a1612890565b3060405160200180868152602001858152602001848152602001838152602001826001600160a01b03168152602001955050505050506040516020818303038152906040528051906020012090509392505050565b600080612901610cd6565b905080158061292e575061292161291784611a7c565b8290612710611b74565b61292b85856119b9565b10155b949350505050565b600067ffffffffffffffff83111561294a57fe5b61295d601f8401601f19166020016135e1565b905082815283838301111561297157600080fd5b828260208301376000602084830101529392505050565b600082601f830112612998578081fd5b813560206129ad6129a883613605565b6135e1565b82815281810190858301838502870184018810156129c9578586fd5b855b858110156129f05781356129de81613653565b845292840192908401906001016129cb565b5090979650505050505050565b600082601f830112612a0d578081fd5b81356020612a1d6129a883613605565b82815281810190858301855b858110156129f0578135880189603f820112612a43578788fd5b612a548a8783013560408401612936565b8552509284019290840190600101612a29565b600082601f830112612a77578081fd5b81356020612a876129a883613605565b8281528181019085830183850287018401881015612aa3578586fd5b855b858110156129f057813584529284019290840190600101612aa5565b600082601f830112612ad1578081fd5b61097083833560208501612936565b803560ff811681146108e857600080fd5b600060208284031215612b02578081fd5b813561097081613653565b60008060408385031215612b1f578081fd5b8235612b2a81613653565b946020939093013593505050565b60008060008060808587031215612b4d578182fd5b843567ffffffffffffffff80821115612b64578384fd5b612b7088838901612988565b95506020870135915080821115612b85578384fd5b612b9188838901612a67565b94506040870135915080821115612ba6578384fd5b50612bb3878288016129fd565b949793965093946060013593505050565b60008060008060808587031215612bd9578182fd5b843567ffffffffffffffff80821115612bf0578384fd5b612bfc88838901612988565b95506020870135915080821115612c11578384fd5b612c1d88838901612a67565b94506040870135915080821115612c32578384fd5b612c3e888389016129fd565b93506060870135915080821115612c53578283fd5b50612c6087828801612ac1565b91505092959194509250565b60008060408385031215612c7e578182fd5b823567ffffffffffffffff80821115612c95578384fd5b818501915085601f830112612ca8578384fd5b81356020612cb86129a883613605565b82815281810190858301838502870184018b1015612cd4578889fd5b8896505b84871015612cf6578035835260019690960195918301918301612cd8565b5096505086013592505080821115612d0c578283fd5b50612d1985828601612988565b9150509250929050565b600060208284031215612d34578081fd5b815161097081613653565b600060208284031215612d50578081fd5b813567ffffffffffffffff811115612d66578182fd5b61292e84828501612ac1565b600060608284031215612d83578081fd5b6040516060810181811067ffffffffffffffff82111715612da057fe5b80604052508251815260208301516020820152604083015160408201528091505092915050565b600060208284031215612dd8578081fd5b5035919050565b600060208284031215612df0578081fd5b5051919050565b60008060408385031215612e09578182fd5b823591506020830135612e1b81613653565b809150509250929050565b60008060408385031215612e38578182fd5b82359150612e4860208401612ae0565b90509250929050565b60008060008060608587031215612e66578182fd5b84359350612e7660208601612ae0565b9250604085013567ffffffffffffffff80821115612e92578384fd5b818701915087601f830112612ea5578384fd5b813581811115612eb3578485fd5b886020828501011115612ec4578485fd5b95989497505060200194505050565b600080600080600060a08688031215612eea578283fd5b85359450612efa60208701612ae0565b9350612f0860408701612ae0565b94979396509394606081013594506080013592915050565b6000815180845260208085019450808401835b83811015612f585781516001600160a01b031687529582019590820190600101612f33565b509495945050505050565b6000815180845260208085018081965082840281019150828601855b85811015612fa9578284038952612f97848351612fe5565b98850198935090840190600101612f7f565b5091979650505050505050565b6000815180845260208085019450808401835b83811015612f5857815187529582019590820190600101612fc9565b60008151808452612ffd816020860160208601613623565b601f01601f19169290920160200192915050565b60008251613023818460208701613623565b9190910192915050565b6001600160a01b0391909116815260200190565b6001600160a01b03929092168252602082015260400190565b6001600160a01b03979097168752602087019590955260408601939093526060850191909152608084015260a0830152151560c082015260e00190565b6000608082526130aa6080830187612f20565b82810360208401526130bc8187612fb6565b905082810360408401526130d08186612f63565b91505082606083015295945050505050565b901515815260200190565b90815260200190565b928352602083019190915260ff16604082015260600190565b602081016007831061311d57fe5b91905290565b60208082526017908201527f696e76616c69642070726f706f73616c206c656e677468000000000000000000604082015260600190565b60208082526017908201527f70726f706f73616c20616c726561647920657869737473000000000000000000604082015260600190565b6020808252602e908201527f7375626d6974746572206973206e6f7420656c696769626c6520746f2073756260408201526d1b5a5d0818481c1c9bdc1bdcd85b60921b606082015260800190565b6020808252601d908201527f63616c6c20726576657274656420776974686f7574206d657373616765000000604082015260600190565b6020808252602d908201527f70726f706f73616c2063616e206f6e6c7920626520657865637574656420627960408201526c1034ba3990383937b837b9b2b960991b606082015260800190565b60208082526027908201527f766f746520706f77657220626c6f636b20697320746f6f2066617220696e20746040820152661a19481c185cdd60ca1b606082015260800190565b602080825260169082015275696e76616c696420766f7465207369676e617475726560501b604082015260600190565b6020808252601390820152721d5b9adb9bdddb881c1c9bdc1bdcd85b081a59606a1b604082015260600190565b60208082526018908201527f657865637574696f6e20706572696f6420746f6f206c6f770000000000000000604082015260600190565b60208082526028908201527f73756d206f66205f76616c75657320646f6573206e6f7420657175616c73206d60408201526773672e76616c756560c01b606082015260800190565b602080825260159082015274766f74696e6720706572696f6420746f6f206c6f7760581b604082015260600190565b60208082526013908201527270726f706f73616c206e6f742061637469766560681b604082015260600190565b6020808252601f908201527f696e76616c69642076616c756520666f7220656e756d20566f74655479706500604082015260600190565b6020808252601190820152701d9bdd1948185b1c9958591e4818d85cdd607a1b604082015260600190565b6020808252601f908201527f70726f706f73616c206e6f7420696e20657865637574696f6e20737461746500604082015260600190565b60208082526019908201527f70726f706f73616c20616c726561647920657865637574656400000000000000604082015260600190565b60006101208b8352602060018060a01b038c16818501528160408501526134db8285018c612f20565b915083820360608501526134ef828b612fb6565b848103608086015289518082529092508183019082810284018301838c01865b8381101561353d57601f1987840301855261352b838351612fe5565b9486019492509085019060010161350f565b505086810360a0880152613551818c612f63565b9450505050508560c08401528460e08401528281036101008401526135768185612fe5565b9c9b505050505050505050505050565b918252602082015260400190565b93845260208401929092526040830152606082015260800190565b600085825260ff85166020830152836040830152608060608301526135d76080830184612fe5565b9695505050505050565b60405181810167ffffffffffffffff811182821017156135fd57fe5b604052919050565b600067ffffffffffffffff82111561361957fe5b5060209081020190565b60005b8381101561363e578181015183820152602001613626565b8381111561364d576000848401525b50505050565b6001600160a01b03811681146107e657600080fdfe45434453413a20696e76616c6964207369676e6174757265202773272076616c756545434453413a20696e76616c6964207369676e6174757265202776272076616c7565536166654d6174683a206d756c7469706c69636174696f6e206f766572666c6f77a26469706673582212206a121629573ea34cb4481ed14ff45aabe0456a5745ed549b19877c911e7f228f64736f6c63430007060033",
  "linkReferences": {},
  "deployedLinkReferences": {}
}