{
  "_format": "hh-sol-artifact-1",
  "contractName": "PollingFoundation",
  "sourceName": "contracts/governance/implementation/PollingFoundation.sol",
  "abi": [
    {
      "inputs": [
        {
          "internalType": "address",
          "name": "_governance",
          "type": "address"
        },
        {
          "internalType": "address",
          "name": "_priceSubmitter",
          "type": "address"
        },
        {
          "internalType": "address",
          "name": "_addressUpdater",
          "type": "address"
        },
        {
          "internalType": "address[]",
          "name": "_proposers",
          "type": "address[]"
        }
      ],
      "stateMutability": "nonpayable",
      "type": "constructor"
    },
    {
      "anonymous": false,
      "inputs": [
        {
          "indexed": false,
          "internalType": "bytes4",
          "name": "selector",
          "type": "bytes4"
        },
        {
          "indexed": false,
          "internalType": "uint256",
          "name": "allowedAfterTimestamp",
          "type": "uint256"
        },
        {
          "indexed": false,
          "internalType": "bytes",
          "name": "encodedCall",
          "type": "bytes"
        }
      ],
      "name": "GovernanceCallTimelocked",
      "type": "event"
    },
    {
      "anonymous": false,
      "inputs": [
        {
          "indexed": false,
          "internalType": "address",
          "name": "initialGovernance",
          "type": "address"
        }
      ],
      "name": "GovernanceInitialised",
      "type": "event"
    },
    {
      "anonymous": false,
      "inputs": [
        {
          "indexed": false,
          "internalType": "address",
          "name": "governanceSettings",
          "type": "address"
        }
      ],
      "name": "GovernedProductionModeEntered",
      "type": "event"
    },
    {
      "anonymous": false,
      "inputs": [
        {
          "indexed": false,
          "internalType": "uint256",
          "name": "proposalId",
          "type": "uint256"
        }
      ],
      "name": "ProposalCanceled",
      "type": "event"
    },
    {
      "anonymous": false,
      "inputs": [
        {
          "indexed": true,
          "internalType": "uint256",
          "name": "proposalId",
          "type": "uint256"
        },
        {
          "indexed": false,
          "internalType": "address",
          "name": "proposer",
          "type": "address"
        },
        {
          "indexed": false,
          "internalType": "address[]",
          "name": "targets",
          "type": "address[]"
        },
        {
          "indexed": false,
          "internalType": "uint256[]",
          "name": "values",
          "type": "uint256[]"
        },
        {
          "indexed": false,
          "internalType": "bytes[]",
          "name": "calldatas",
          "type": "bytes[]"
        },
        {
          "indexed": false,
          "internalType": "string",
          "name": "description",
          "type": "string"
        },
        {
          "indexed": false,
          "internalType": "bool",
          "name": "accept",
          "type": "bool"
        },
        {
          "indexed": false,
          "internalType": "uint256[2]",
          "name": "voteTimes",
          "type": "uint256[2]"
        },
        {
          "indexed": false,
          "internalType": "uint256[2]",
          "name": "executionTimes",
          "type": "uint256[2]"
        },
        {
          "indexed": false,
          "internalType": "uint256",
          "name": "votePowerBlock",
          "type": "uint256"
        },
        {
          "indexed": false,
          "internalType": "uint256",
          "name": "thresholdConditionBIPS",
          "type": "uint256"
        },
        {
          "indexed": false,
          "internalType": "uint256",
          "name": "majorityConditionBIPS",
          "type": "uint256"
        },
        {
          "indexed": false,
          "internalType": "uint256",
          "name": "circulatingSupply",
          "type": "uint256"
        }
      ],
      "name": "ProposalCreated",
      "type": "event"
    },
    {
      "anonymous": false,
      "inputs": [
        {
          "indexed": false,
          "internalType": "uint256",
          "name": "proposalId",
          "type": "uint256"
        }
      ],
      "name": "ProposalExecuted",
      "type": "event"
    },
    {
      "anonymous": false,
      "inputs": [
        {
          "indexed": false,
          "internalType": "address[]",
          "name": "addedProposers",
          "type": "address[]"
        },
        {
          "indexed": false,
          "internalType": "address[]",
          "name": "removedProposers",
          "type": "address[]"
        }
      ],
      "name": "ProposersChanged",
      "type": "event"
    },
    {
      "anonymous": false,
      "inputs": [
        {
          "indexed": false,
          "internalType": "bytes4",
          "name": "selector",
          "type": "bytes4"
        },
        {
          "indexed": false,
          "internalType": "uint256",
          "name": "timestamp",
          "type": "uint256"
        }
      ],
      "name": "TimelockedGovernanceCallCanceled",
      "type": "event"
    },
    {
      "anonymous": false,
      "inputs": [
        {
          "indexed": false,
          "internalType": "bytes4",
          "name": "selector",
          "type": "bytes4"
        },
        {
          "indexed": false,
          "internalType": "uint256",
          "name": "timestamp",
          "type": "uint256"
        }
      ],
      "name": "TimelockedGovernanceCallExecuted",
      "type": "event"
    },
    {
      "anonymous": false,
      "inputs": [
        {
          "indexed": true,
          "internalType": "address",
          "name": "voter",
          "type": "address"
        },
        {
          "indexed": true,
          "internalType": "uint256",
          "name": "proposalId",
          "type": "uint256"
        },
        {
          "indexed": false,
          "internalType": "uint8",
          "name": "support",
          "type": "uint8"
        },
        {
          "indexed": false,
          "internalType": "uint256",
          "name": "votePower",
          "type": "uint256"
        },
        {
          "indexed": false,
          "internalType": "string",
          "name": "reason",
          "type": "string"
        },
        {
          "indexed": false,
          "internalType": "uint256",
          "name": "forVotePower",
          "type": "uint256"
        },
        {
          "indexed": false,
          "internalType": "uint256",
          "name": "againstVotePower",
          "type": "uint256"
        }
      ],
      "name": "VoteCast",
      "type": "event"
    },
    {
      "inputs": [],
      "name": "BALLOT_TYPEHASH",
      "outputs": [
        {
          "internalType": "bytes32",
          "name": "",
          "type": "bytes32"
        }
      ],
      "stateMutability": "view",
      "type": "function"
    },
    {
      "inputs": [
        {
          "internalType": "uint256",
          "name": "_proposalId",
          "type": "uint256"
        }
      ],
      "name": "cancel",
      "outputs": [],
      "stateMutability": "nonpayable",
      "type": "function"
    },
    {
      "inputs": [
        {
          "internalType": "bytes4",
          "name": "_selector",
          "type": "bytes4"
        }
      ],
      "name": "cancelGovernanceCall",
      "outputs": [],
      "stateMutability": "nonpayable",
      "type": "function"
    },
    {
      "inputs": [
        {
          "internalType": "uint256",
          "name": "_proposalId",
          "type": "uint256"
        },
        {
          "internalType": "uint8",
          "name": "_support",
          "type": "uint8"
        }
      ],
      "name": "castVote",
      "outputs": [
        {
          "internalType": "uint256",
          "name": "",
          "type": "uint256"
        }
      ],
      "stateMutability": "nonpayable",
      "type": "function"
    },
    {
      "inputs": [
        {
          "internalType": "uint256",
          "name": "_proposalId",
          "type": "uint256"
        },
        {
          "internalType": "uint8",
          "name": "_support",
          "type": "uint8"
        },
        {
          "internalType": "uint8",
          "name": "_v",
          "type": "uint8"
        },
        {
          "internalType": "bytes32",
          "name": "_r",
          "type": "bytes32"
        },
        {
          "internalType": "bytes32",
          "name": "_s",
          "type": "bytes32"
        }
      ],
      "name": "castVoteBySig",
      "outputs": [
        {
          "internalType": "uint256",
          "name": "",
          "type": "uint256"
        }
      ],
      "stateMutability": "nonpayable",
      "type": "function"
    },
    {
      "inputs": [
        {
          "internalType": "uint256",
          "name": "_proposalId",
          "type": "uint256"
        },
        {
          "internalType": "uint8",
          "name": "_support",
          "type": "uint8"
        },
        {
          "internalType": "string",
          "name": "_reason",
          "type": "string"
        }
      ],
      "name": "castVoteWithReason",
      "outputs": [
        {
          "internalType": "uint256",
          "name": "",
          "type": "uint256"
        }
      ],
      "stateMutability": "nonpayable",
      "type": "function"
    },
    {
      "inputs": [],
      "name": "chainId",
      "outputs": [
        {
          "internalType": "uint256",
          "name": "",
          "type": "uint256"
        }
      ],
      "stateMutability": "view",
      "type": "function"
    },
    {
      "inputs": [
        {
          "internalType": "address[]",
          "name": "_proposersToAdd",
          "type": "address[]"
        },
        {
          "internalType": "address[]",
          "name": "_proposersToRemove",
          "type": "address[]"
        }
      ],
      "name": "changeProposers",
      "outputs": [],
      "stateMutability": "nonpayable",
      "type": "function"
    },
    {
      "inputs": [
        {
          "internalType": "string",
          "name": "_description",
          "type": "string"
        }
      ],
      "name": "execute",
      "outputs": [
        {
          "internalType": "uint256",
          "name": "",
          "type": "uint256"
        }
      ],
      "stateMutability": "nonpayable",
      "type": "function"
    },
    {
      "inputs": [
        {
          "internalType": "address[]",
          "name": "_targets",
          "type": "address[]"
        },
        {
          "internalType": "uint256[]",
          "name": "_values",
          "type": "uint256[]"
        },
        {
          "internalType": "bytes[]",
          "name": "_calldatas",
          "type": "bytes[]"
        },
        {
          "internalType": "string",
          "name": "_description",
          "type": "string"
        }
      ],
      "name": "execute",
      "outputs": [
        {
          "internalType": "uint256",
          "name": "proposalId",
          "type": "uint256"
        }
      ],
      "stateMutability": "payable",
      "type": "function"
    },
    {
      "inputs": [
        {
          "internalType": "bytes4",
          "name": "_selector",
          "type": "bytes4"
        }
      ],
      "name": "executeGovernanceCall",
      "outputs": [],
      "stateMutability": "nonpayable",
      "type": "function"
    },
    {
      "inputs": [],
      "name": "ftsoManager",
      "outputs": [
        {
          "internalType": "contract IIFtsoManager",
          "name": "",
          "type": "address"
        }
      ],
      "stateMutability": "view",
      "type": "function"
    },
    {
      "inputs": [],
      "name": "getAddressUpdater",
      "outputs": [
        {
          "internalType": "address",
          "name": "_addressUpdater",
          "type": "address"
        }
      ],
      "stateMutability": "view",
      "type": "function"
    },
    {
      "inputs": [
        {
          "internalType": "address[]",
          "name": "_targets",
          "type": "address[]"
        },
        {
          "internalType": "uint256[]",
          "name": "_values",
          "type": "uint256[]"
        },
        {
          "internalType": "bytes[]",
          "name": "_calldatas",
          "type": "bytes[]"
        },
        {
          "internalType": "string",
          "name": "_description",
          "type": "string"
        }
      ],
      "name": "getProposalId",
      "outputs": [
        {
          "internalType": "uint256",
          "name": "",
          "type": "uint256"
        }
      ],
      "stateMutability": "view",
      "type": "function"
    },
    {
      "inputs": [
        {
          "internalType": "uint256",
          "name": "_proposalId",
          "type": "uint256"
        }
      ],
      "name": "getProposalInfo",
      "outputs": [
        {
          "internalType": "address",
          "name": "_proposer",
          "type": "address"
        },
        {
          "internalType": "bool",
          "name": "_accept",
          "type": "bool"
        },
        {
          "internalType": "uint256",
          "name": "_votePowerBlock",
          "type": "uint256"
        },
        {
          "internalType": "uint256",
          "name": "_voteStartTime",
          "type": "uint256"
        },
        {
          "internalType": "uint256",
          "name": "_voteEndTime",
          "type": "uint256"
        },
        {
          "internalType": "uint256",
          "name": "_execStartTime",
          "type": "uint256"
        },
        {
          "internalType": "uint256",
          "name": "_execEndTime",
          "type": "uint256"
        },
        {
          "internalType": "uint256",
          "name": "_thresholdConditionBIPS",
          "type": "uint256"
        },
        {
          "internalType": "uint256",
          "name": "_majorityConditionBIPS",
          "type": "uint256"
        },
        {
          "internalType": "uint256",
          "name": "_circulatingSupply",
          "type": "uint256"
        }
      ],
      "stateMutability": "view",
      "type": "function"
    },
    {
      "inputs": [
        {
          "internalType": "uint256",
          "name": "_proposalId",
          "type": "uint256"
        }
      ],
      "name": "getProposalVotes",
      "outputs": [
        {
          "internalType": "uint256",
          "name": "_for",
          "type": "uint256"
        },
        {
          "internalType": "uint256",
          "name": "_against",
          "type": "uint256"
        }
      ],
      "stateMutability": "view",
      "type": "function"
    },
    {
      "inputs": [
        {
          "internalType": "address",
          "name": "_voter",
          "type": "address"
        },
        {
          "internalType": "uint256",
          "name": "_blockNumber",
          "type": "uint256"
        }
      ],
      "name": "getVotes",
      "outputs": [
        {
          "internalType": "uint256",
          "name": "",
          "type": "uint256"
        }
      ],
      "stateMutability": "view",
      "type": "function"
    },
    {
      "inputs": [],
      "name": "governance",
      "outputs": [
        {
          "internalType": "address",
          "name": "",
          "type": "address"
        }
      ],
      "stateMutability": "view",
      "type": "function"
    },
    {
      "inputs": [],
      "name": "governanceSettings",
      "outputs": [
        {
          "internalType": "contract IGovernanceSettings",
          "name": "",
          "type": "address"
        }
      ],
      "stateMutability": "view",
      "type": "function"
    },
    {
      "inputs": [
        {
          "internalType": "uint256",
          "name": "_proposalId",
          "type": "uint256"
        },
        {
          "internalType": "address",
          "name": "_voter",
          "type": "address"
        }
      ],
      "name": "hasVoted",
      "outputs": [
        {
          "internalType": "bool",
          "name": "",
          "type": "bool"
        }
      ],
      "stateMutability": "view",
      "type": "function"
    },
    {
      "inputs": [
        {
          "internalType": "address",
          "name": "_initialGovernance",
          "type": "address"
        }
      ],
      "name": "initialise",
      "outputs": [],
      "stateMutability": "nonpayable",
      "type": "function"
    },
    {
      "inputs": [
        {
          "internalType": "address",
          "name": "_account",
          "type": "address"
        }
      ],
      "name": "isProposer",
      "outputs": [
        {
          "internalType": "bool",
          "name": "",
          "type": "bool"
        }
      ],
      "stateMutability": "view",
      "type": "function"
    },
    {
      "inputs": [],
      "name": "name",
      "outputs": [
        {
          "internalType": "string",
          "name": "",
          "type": "string"
        }
      ],
      "stateMutability": "pure",
      "type": "function"
    },
    {
      "inputs": [],
      "name": "priceSubmitter",
      "outputs": [
        {
          "internalType": "contract IPriceSubmitter",
          "name": "",
          "type": "address"
        }
      ],
      "stateMutability": "view",
      "type": "function"
    },
    {
      "inputs": [],
      "name": "productionMode",
      "outputs": [
        {
          "internalType": "bool",
          "name": "",
          "type": "bool"
        }
      ],
      "stateMutability": "view",
      "type": "function"
    },
    {
      "inputs": [
        {
          "internalType": "address[]",
          "name": "_targets",
          "type": "address[]"
        },
        {
          "internalType": "uint256[]",
          "name": "_values",
          "type": "uint256[]"
        },
        {
          "internalType": "bytes[]",
          "name": "_calldatas",
          "type": "bytes[]"
        },
        {
          "internalType": "string",
          "name": "_description",
          "type": "string"
        },
        {
          "components": [
            {
              "internalType": "bool",
              "name": "accept",
              "type": "bool"
            },
            {
              "internalType": "uint256",
              "name": "votingDelaySeconds",
              "type": "uint256"
            },
            {
              "internalType": "uint256",
              "name": "votingPeriodSeconds",
              "type": "uint256"
            },
            {
              "internalType": "uint256",
              "name": "vpBlockPeriodSeconds",
              "type": "uint256"
            },
            {
              "internalType": "uint256",
              "name": "thresholdConditionBIPS",
              "type": "uint256"
            },
            {
              "internalType": "uint256",
              "name": "majorityConditionBIPS",
              "type": "uint256"
            },
            {
              "internalType": "uint256",
              "name": "executionDelaySeconds",
              "type": "uint256"
            },
            {
              "internalType": "uint256",
              "name": "executionPeriodSeconds",
              "type": "uint256"
            }
          ],
          "internalType": "struct IGovernor.GovernorSettings",
          "name": "_settings",
          "type": "tuple"
        }
      ],
      "name": "propose",
      "outputs": [
        {
          "internalType": "uint256",
          "name": "",
          "type": "uint256"
        }
      ],
      "stateMutability": "nonpayable",
      "type": "function"
    },
    {
      "inputs": [
        {
          "internalType": "string",
          "name": "_description",
          "type": "string"
        },
        {
          "components": [
            {
              "internalType": "bool",
              "name": "accept",
              "type": "bool"
            },
            {
              "internalType": "uint256",
              "name": "votingDelaySeconds",
              "type": "uint256"
            },
            {
              "internalType": "uint256",
              "name": "votingPeriodSeconds",
              "type": "uint256"
            },
            {
              "internalType": "uint256",
              "name": "vpBlockPeriodSeconds",
              "type": "uint256"
            },
            {
              "internalType": "uint256",
              "name": "thresholdConditionBIPS",
              "type": "uint256"
            },
            {
              "internalType": "uint256",
              "name": "majorityConditionBIPS",
              "type": "uint256"
            }
          ],
          "internalType": "struct IIPollingFoundation.GovernorSettingsWithoutExecParams",
          "name": "_settings",
          "type": "tuple"
        }
      ],
      "name": "propose",
      "outputs": [
        {
          "internalType": "uint256",
          "name": "",
          "type": "uint256"
        }
      ],
      "stateMutability": "nonpayable",
      "type": "function"
    },
    {
      "inputs": [
        {
          "internalType": "uint256",
          "name": "_proposalId",
          "type": "uint256"
        }
      ],
      "name": "state",
      "outputs": [
        {
          "internalType": "enum IGovernor.ProposalState",
          "name": "",
          "type": "uint8"
        }
      ],
      "stateMutability": "view",
      "type": "function"
    },
    {
      "inputs": [],
      "name": "supply",
      "outputs": [
        {
          "internalType": "contract IISupply",
          "name": "",
          "type": "address"
        }
      ],
      "stateMutability": "view",
      "type": "function"
    },
    {
      "inputs": [],
      "name": "switchToProductionMode",
      "outputs": [],
      "stateMutability": "nonpayable",
      "type": "function"
    },
    {
      "inputs": [
        {
          "internalType": "bytes4",
          "name": "",
          "type": "bytes4"
        }
      ],
      "name": "timelockedCalls",
      "outputs": [
        {
          "internalType": "uint256",
          "name": "allowedAfterTimestamp",
          "type": "uint256"
        },
        {
          "internalType": "bytes",
          "name": "encodedCall",
          "type": "bytes"
        }
      ],
      "stateMutability": "view",
      "type": "function"
    },
    {
      "inputs": [
        {
          "internalType": "bytes32[]",
          "name": "_contractNameHashes",
          "type": "bytes32[]"
        },
        {
          "internalType": "address[]",
          "name": "_contractAddresses",
          "type": "address[]"
        }
      ],
      "name": "updateContractAddresses",
      "outputs": [],
      "stateMutability": "nonpayable",
      "type": "function"
    },
    {
      "inputs": [],
      "name": "version",
      "outputs": [
        {
          "internalType": "string",
          "name": "",
          "type": "string"
        }
      ],
      "stateMutability": "pure",
      "type": "function"
    },
    {
      "inputs": [],
      "name": "votePower",
      "outputs": [
        {
          "internalType": "contract IIGovernanceVotePower",
          "name": "",
          "type": "address"
        }
      ],
      "stateMutability": "view",
      "type": "function"
    }
  ],
  "bytecode": "0x6101606040523480156200001257600080fd5b50604051620044c3380380620044c3833981016040819052620000359162000413565b808480858580620000456200016a565b6200004f62000195565b815160208084019190912082519183019190912060c082905260e08190527f8b73c3c69bb8fe3d512ecc4cf759cc79239f7b179b0ffacaa9a75d522b39400f62000098620001b0565b60a052620000a8818484620001b4565b608052610100525050466101205250620000c490508162000218565b505060601b6001600160601b031916610140526001600160a01b03811615620000f257620000f2816200023c565b506001600160a01b03811662000142576040805162461bcd60e51b815260206004820152601060248201526f5f676f7665726e616e6365207a65726f60801b604482015290519081900360640190fd5b506040805160008152602081019091526200015f908290620002ff565b505050505062000581565b6040805180820190915260118152702837b63634b733a337bab73230ba34b7b760791b602082015290565b6040805180820190915260018152603160f81b602082015290565b4690565b6000838383620001c3620001b0565b3060405160200180868152602001858152602001848152602001838152602001826001600160a01b03168152602001955050505050506040516020818303038152906040528051906020012090509392505050565b7f714f205b2abd25bef1d06a1af944e38c113fe6160375c4e1d6d5cf28848e771955565b600654600160a01b900460ff16156200029c576040805162461bcd60e51b815260206004820152601460248201527f696e697469616c6973656420213d2066616c7365000000000000000000000000604482015290519081900360640190fd5b60068054600160a01b60ff60a01b19909116176001600160a01b0319166001600160a01b03831690811790915560408051918252517f9789733827840833afc031fb2ef9ab6894271f77bad2085687cf4ae5c7bee4db916020908290030190a150565b7f4b8f4e528b6d075c6c9d025e58db64e36b460c1516341b1ab7339b4c6d5bcb8a8282604051620003329291906200054f565b60405180910390a160005b825181101562000395576001600860008584815181106200035a57fe5b6020908102919091018101516001600160a01b03168252810191909152604001600020805460ff19169115159190911790556001016200033d565b5060005b8151811015620003f157600060086000848481518110620003b657fe5b6020908102919091018101516001600160a01b03168252810191909152604001600020805460ff191691151591909117905560010162000399565b505050565b80516001600160a01b03811681146200040e57600080fd5b919050565b6000806000806080858703121562000429578384fd5b6200043485620003f6565b9350602062000445818701620003f6565b93506200045560408701620003f6565b60608701519093506001600160401b038082111562000472578384fd5b818801915088601f83011262000486578384fd5b8151818111156200049357fe5b83810260405185828201018181108582111715620004ad57fe5b604052828152858101935084860182860187018d1015620004cc578788fd5b8795505b83861015620004f957620004e481620003f6565b855260019590950194938601938601620004d0565b50989b979a50959850505050505050565b6000815180845260208085019450808401835b83811015620005445781516001600160a01b0316875295820195908201906001016200051d565b509495945050505050565b6000604082526200056460408301856200050a565b82810360208401526200057881856200050a565b95945050505050565b60805160a05160c05160e05161010051610120516101405160601c613ee1620005e26000398061131c528061257c525080610f6d5280611a1b52508061213852508061217a5250806121595250806120df52508061210f5250613ee16000f3fe6080604052600436106101f95760003560e01c80637b3c71d31161010d578063bc903cb8116100a0578063e4ea8b651161006f578063e4ea8b65146105ae578063eb9019d4146105c1578063f17c9d76146105e1578063f5a98383146105f6578063f937d6ad1461060b576101f9565b8063bc903cb81461052e578063bd590d7e14610564578063deaaa7cc14610584578063e17f212e14610599576101f9565b80639d6a890f116100dc5780639d6a890f146104ae578063a3c90b80146104ce578063a7a6224a146104ee578063b00c0b761461050e576101f9565b80637b3c71d314610439578063854121961461045957806386f90bbf146104795780639a8a059214610499576101f9565b80635267a15d116101905780635ff270791161015f5780635ff270791461039657806362354e03146103b657806367fc4029146103cb57806374e6310e146103eb57806374ec29a014610419576101f9565b80635267a15d1461033757806354fd4d501461034c57806356781388146103615780635aa6e67514610381576101f9565b80633e4f49e6116101cc5780633e4f49e61461028d57806340e58ee5146102ba57806343859632146102dc57806347c6614014610309576101f9565b8063047fc9aa146101fe57806306fdde031461022957806311a7aaaa1461024b5780633bccf4fd14610260575b600080fd5b34801561020a57600080fd5b50610213610620565b604051610220919061368c565b60405180910390f35b34801561023557600080fd5b5061023e61062f565b6040516102209190613823565b34801561025757600080fd5b5061021361065b565b34801561026c57600080fd5b5061028061027b36600461351f565b61066a565b60405161022091906137ed565b34801561029957600080fd5b506102ad6102a83660046133a3565b610730565b604051610220919061380f565b3480156102c657600080fd5b506102da6102d53660046133a3565b610751565b005b3480156102e857600080fd5b506102fc6102f73660046133d3565b610821565b60405161022091906137e2565b34801561031557600080fd5b506103296103243660046133a3565b610851565b604051610220929190613d86565b34801561034357600080fd5b5061021361086a565b34801561035857600080fd5b5061023e61088f565b34801561036d57600080fd5b5061028061037c36600461347b565b6108aa565b34801561038d57600080fd5b506102136108ce565b3480156103a257600080fd5b506102da6103b136600461323e565b610965565b3480156103c257600080fd5b50610213610cbc565b3480156103d757600080fd5b506102da6103e636600461323e565b610cc7565b3480156103f757600080fd5b5061040b61040636600461323e565b610dad565b604051610220929190613d6d565b34801561042557600080fd5b506102fc610434366004612f1d565b610e54565b34801561044557600080fd5b5061028061045436600461349d565b610e72565b34801561046557600080fd5b50610280610474366004613069565b610ec1565b34801561048557600080fd5b50610280610494366004613299565b610eda565b3480156104a557600080fd5b50610280610f6b565b3480156104ba57600080fd5b506102da6104c9366004612f1d565b610f8f565b3480156104da57600080fd5b506102806104e9366004612fc1565b611048565b3480156104fa57600080fd5b506102da610509366004612f60565b61105e565b34801561051a57600080fd5b506102da61052936600461319e565b6110ab565b34801561053a57600080fd5b5061054e6105493660046133a3565b611152565b6040516102209a99989796959493929190613754565b34801561057057600080fd5b5061028061057f366004613266565b6111b1565b34801561059057600080fd5b50610280611200565b3480156105a557600080fd5b506102fc611224565b6102806105bc366004612fc1565b611234565b3480156105cd57600080fd5b506102806105dc366004612f37565b611245565b3480156105ed57600080fd5b50610213611251565b34801561060257600080fd5b506102da611260565b34801561061757600080fd5b5061021361131a565b6005546001600160a01b031681565b6040805180820190915260118152702837b63634b733a337bab73230ba34b7b760791b60208201525b90565b6004546001600160a01b031681565b6000806106c86106c37f150214d74d59b7d1e90c73fc22ef3d991dd0a76b046543d4d80ab92d2a50328f89896040516020016106a8939291906137f6565b6040516020818303038152906040528051906020012061133e565b61138a565b905060006106d8828787876113db565b90506001600160a01b0381166107095760405162461bcd60e51b815260040161070090613aca565b60405180910390fd5b61072488828960405180602001604052806000815250611550565b98975050505050505050565b6000818152600260205260408120610749908390611611565b90505b919050565b60008181526002602052604090208054600160b01b900460ff16156107885760405162461bcd60e51b815260040161070090613ba6565b80546001600160a01b031633146107b15760405162461bcd60e51b81526004016107009061386d565b806002015442106107d45760405162461bcd60e51b8152600401610700906138f1565b805460ff60b01b1916600160b01b1781556040517f789cf55be980739dad1d0699b93b58e806b51c9d96619bfa8fe0a28abaa7b30c906108159084906137ed565b60405180910390a15050565b60008281526003602090815260408083206001600160a01b038516845260020190915290205460ff165b92915050565b6000908152600360205260409020600181015490549091565b7f714f205b2abd25bef1d06a1af944e38c113fe6160375c4e1d6d5cf28848e77195490565b6040805180820190915260018152603160f81b602082015290565b60006108c783338460405180602001604052806000815250611550565b9392505050565b600654600090600160a81b900460ff166108f3576006546001600160a01b0316610960565b60076001609c1b016001600160a01b031663732524946040518163ffffffff1660e01b815260040160206040518083038186803b15801561093357600080fd5b505afa158015610947573d6000803e3d6000fd5b505050506040513d602081101561095d57600080fd5b50515b905090565b60408051630debfda360e41b8152336004820152905160076001609c1b019163debfda30916024808301926020929190829003018186803b1580156109a957600080fd5b505afa1580156109bd573d6000803e3d6000fd5b505050506040513d60208110156109d357600080fd5b5051610a16576040805162461bcd60e51b815260206004820152600d60248201526c37b7363c9032bc32b1baba37b960991b604482015290519081900360640190fd5b6001600160e01b0319811660009081526007602052604090208054610a82576040805162461bcd60e51b815260206004820152601a60248201527f74696d656c6f636b3a20696e76616c69642073656c6563746f72000000000000604482015290519081900360640190fd5b8054421015610ad8576040805162461bcd60e51b815260206004820152601960248201527f74696d656c6f636b3a206e6f7420616c6c6f7765642079657400000000000000604482015290519081900360640190fd5b6000816001018054600181600116156101000203166002900480601f016020809104026020016040519081016040528092919081815260200182805460018160011615610100020316600290048015610b725780601f10610b4757610100808354040283529160200191610b72565b820191906000526020600020905b815481529060010190602001808311610b5557829003601f168201915b505050506001600160e01b0319851660009081526007602052604081208181559293509050610ba46001830182612c3c565b50506006805460ff60b01b1916600160b01b17905560405181516000913091849190819060208401908083835b60208310610bf05780518252601f199092019160209182019101610bd1565b6001836020036101000a0380198251168184511680821785525050505050509050019150506000604051808303816000865af19150503d8060008114610c52576040519150601f19603f3d011682016040523d82523d6000602084013e610c57565b606091505b50506006805460ff60b01b19169055604080516001600160e01b03198716815242602082015281519293507fa7326b57fc9cfe267aaea5e7f0b01757154d265620a0585819416ee9ddd2c438929081900390910190a1610cb6816116ef565b50505050565b60076001609c1b0181565b610ccf61170c565b6001600160e01b03198116600090815260076020526040902054610d3a576040805162461bcd60e51b815260206004820152601a60248201527f74696d656c6f636b3a20696e76616c69642073656c6563746f72000000000000604482015290519081900360640190fd5b604080516001600160e01b03198316815242602082015281517f7735b2391c38a81419c513e30ca578db7158eadd7101511b23e221c654d19cf8929181900390910190a16001600160e01b03198116600090815260076020526040812081815590610da86001830182612c3c565b505050565b6007602090815260009182526040918290208054600180830180548651600293821615610100026000190190911692909204601f810186900486028301860190965285825291949293909290830182828015610e4a5780601f10610e1f57610100808354040283529160200191610e4a565b820191906000526020600020905b815481529060010190602001808311610e2d57829003601f168201915b5050505050905082565b6001600160a01b031660009081526008602052604090205460ff1690565b6000610eb685338686868080601f01602080910402602001604051908101604052809392919081815260200183838082843760009201919091525061155092505050565b90505b949350505050565b6000610ed0868686868661176d565b9695505050505050565b6040805161010081018252825115158152602080840151818301528383015182840152606080850151818401526080808601519084015260a08086015190840152600060c08401819052600160e0850152845181815292830181815283860182815292840190955293610eb9929185610f63565b6060815260200190600190039081610f4e5790505b50878561176d565b7f000000000000000000000000000000000000000000000000000000000000000081565b600654600160a01b900460ff1615610fe5576040805162461bcd60e51b8152602060048201526014602482015273696e697469616c6973656420213d2066616c736560601b604482015290519081900360640190fd5b60068054600160a01b60ff60a01b19909116176001600160a01b0319166001600160a01b03831690811790915560408051918252517f9789733827840833afc031fb2ef9ab6894271f77bad2085687cf4ae5c7bee4db916020908290030190a150565b6000610eb685858561105986611a0c565b611a17565b600654600160b01b900460ff16806110805750600654600160a81b900460ff16155b1561109c5761108d611a75565b6110978282611aaa565b6110a7565b6110a7600036611b94565b5050565b6110b361086a565b6001600160a01b0316336001600160a01b03161461110f576040805162461bcd60e51b815260206004820152601460248201527337b7363c9030b2323932b9b9903ab83230ba32b960611b604482015290519081900360640190fd5b61114861114383836040518060400160405280600e81526020016d20b2323932b9b9aab83230ba32b960911b815250611d19565b611e46565b6110a78282611e6a565b60009081526002602081905260409091208054600182015492820154600383015460048401546005850154600686015460078701546008909701546001600160a01b03871699600160a01b90970460ff16989795969495939492939192565b60408051600080825260208201818152828401828152606084019094529092610749929190846111f1565b60608152602001906001900390816111dc5790505b506111fb86611a0c565b611f50565b7f150214d74d59b7d1e90c73fc22ef3d991dd0a76b046543d4d80ab92d2a50328f81565b600654600160a81b900460ff1681565b6000610eb68585856111fb86611a0c565b60006108c78383612058565b6000546001600160a01b031681565b61126861170c565b600654600160a81b900460ff16156112c7576040805162461bcd60e51b815260206004820152601a60248201527f616c726561647920696e2070726f64756374696f6e206d6f6465000000000000604482015290519081900360640190fd5b60068054600161ff0160a01b031916600160a81b1790556040805160076001609c1b01815290517f83af113638b5422f9e977cebc0aaf0eaf2188eb9a8baae7f9d46c42b33a1560c9181900360200190a1565b7f000000000000000000000000000000000000000000000000000000000000000081565b60006113486120db565b82604051602001808061190160f01b81525060020183815260200182815260200192505050604051602081830303815290604052805190602001209050919050565b604080517f19457468657265756d205369676e6564204d6573736167653a0a333200000000602080830191909152603c8083019490945282518083039094018452605c909101909152815191012090565b60007f7fffffffffffffffffffffffffffffff5d576e7357a4501ddfe92f46681b20a082111561143c5760405162461bcd60e51b8152600401808060200182810382526022815260200180613e476022913960400191505060405180910390fd5b8360ff16601b148061145157508360ff16601c145b61148c5760405162461bcd60e51b8152600401808060200182810382526022815260200180613e696022913960400191505060405180910390fd5b600060018686868660405160008152602001604052604051808581526020018460ff1681526020018381526020018281526020019450505050506020604051602081039080840390855afa1580156114e8573d6000803e3d6000fd5b5050604051601f1901519150506001600160a01b038116610eb6576040805162461bcd60e51b815260206004820152601860248201527f45434453413a20696e76616c6964207369676e61747572650000000000000000604482015290519081900360640190fd5b6000848152600260205260408120600161156a8783611611565b600781111561157557fe5b146115925760405162461bcd60e51b815260040161070090613c0c565b60006115a2868360010154612058565b905060006115b2888888856121a5565b905087876001600160a01b03167fdd14487524f5e7c93029ad24503aa74e185d049a8c975136786a20eacc5e1b4e888589866001015487600001546040516115fe959493929190613d94565b60405180910390a3509695505050505050565b8054600090600160b01b900460ff161561162d5750600761084b565b8154600160a81b900460ff16156116465750600661084b565b60028201546116675760405162461bcd60e51b815260040161070090613afa565b428260020154111561167b5750600061084b565b428260030154111561168f5750600161084b565b611699838361225d565b156116e6578154600160b81b900460ff166116b65750600461084b565b42826004015411156116ca5750600361084b565b42826005015411156116de5750600461084b565b50600561084b565b50600292915050565b3d604051818101604052816000823e8215611708578181f35b8181fd5b6117146108ce565b6001600160a01b0316336001600160a01b03161461176b576040805162461bcd60e51b815260206004820152600f60248201526e6f6e6c7920676f7665726e616e636560881b604482015290519081900360640190fd5b565b600080600061177f8460600151612306565b9150915061178d3383612667565b6117a95760405162461bcd60e51b81526004016107009061397a565b60008460400151116117cd5760405162461bcd60e51b815260040161070090613bdd565b60008460e00151116117f15760405162461bcd60e51b815260040161070090613b27565b612710846080015111156118175760405162461bcd60e51b815260040161070090613943565b6113888460a001511015801561183357506127108460a0015111155b61184f5760405162461bcd60e51b8152600401610700906139c8565b60055460405163d9330e6360e01b81526000916001600160a01b03169063d9330e63906118809086906004016137ed565b60206040518083038186803b15801561189857600080fd5b505afa1580156118ac573d6000803e3d6000fd5b505050506040513d601f19601f820116820180604052508101906118d091906133bb565b90506000600460009054906101000a90046001600160a01b03166001600160a01b031663e06174e46040518163ffffffff1660e01b81526004016101206040518083038186803b15801561192357600080fd5b505afa158015611937573d6000803e3d6000fd5b505050506040513d601f19601f8201168201806040525081019061195b91906133fe565b5050965050505050505060008061197a338d8d8d8d8b8b8f8c8c612672565b91509150817f72ae4a121488f73dfdb9308e9ecdcd1fc31e5f6c553b6f1fb65650d04406e6ec338e8e8e8e8760000160149054906101000a900460ff166119c089612818565b6119c98a61283a565b8a600101548b600601548c600701548d600801546040516119f59c9b9a999897969594939291906136a0565b60405180910390a2509a9950505050505050505050565b805160209091012090565b60007f00000000000000000000000000000000000000000000000000000000000000003086868686604051602001611a5496959493929190613d09565b60408051601f19818403018152919052805160209091012095945050505050565b600654600160b01b900460ff1615611aa257333014611a9057fe5b6006805460ff60b01b1916905561176b565b61176b61170c565b7f4b8f4e528b6d075c6c9d025e58db64e36b460c1516341b1ab7339b4c6d5bcb8a8282604051611adb9291906137bd565b60405180910390a160005b8251811015611b3b57600160086000858481518110611b0157fe5b6020908102919091018101516001600160a01b03168252810191909152604001600020805460ff1916911515919091179055600101611ae6565b5060005b8151811015610da857600060086000848481518110611b5a57fe5b6020908102919091018101516001600160a01b03168252810191909152604001600020805460ff1916911515919091179055600101611b3f565b611b9c61170c565b600082359050600060076001609c1b016001600160a01b0316636221a54b6040518163ffffffff1660e01b815260040160206040518083038186803b158015611be457600080fd5b505afa158015611bf8573d6000803e3d6000fd5b505050506040513d6020811015611c0e57600080fd5b505160408051808201825242830180825282516020601f89018190048102820181019094528781529394509290918281019190889088908190840183828082843760009201829052509390945250506001600160e01b03198616815260076020908152604090912083518155838201518051919350611c94926001850192910190612c83565b509050507fed948300a3694aa01d4a6b258bfd664350193d770c0b51f8387277f6d83ea3b68382878760405180856001600160e01b0319168152602001848152602001806020018281038252848482818152602001925080828437600083820152604051601f909101601f191690920182900397509095505050505050a15050505050565b600080826040516020018080602001828103825283818151815260200191508051906020019080838360005b83811015611d5d578181015183820152602001611d45565b50505050905090810190601f168015611d8a5780820380516001836020036101000a031916815260200191505b50925050506040516020818303038152906040528051906020012090506000805b8651811015611df257868181518110611dc057fe5b6020026020010151831415611dea57858181518110611ddb57fe5b60200260200101519150611df2565b600101611dab565b506001600160a01b038116611e3d576040805162461bcd60e51b815260206004820152600c60248201526b61646472657373207a65726f60a01b604482015290519081900360640190fd5b95945050505050565b7f714f205b2abd25bef1d06a1af944e38c113fe6160375c4e1d6d5cf28848e771955565b611e9882826040518060400160405280600b81526020016a233a39b7a6b0b730b3b2b960a91b815250611d19565b600460006101000a8154816001600160a01b0302191690836001600160a01b03160217905550611ee7828260405180604001604052806006815260200165537570706c7960d01b815250611d19565b600560006101000a8154816001600160a01b0302191690836001600160a01b031602179055506000611f4583836040518060400160405280601381526020017223b7bb32b93730b731b2ab37ba32a837bbb2b960691b815250611d19565b9050610da881612856565b6000611f5e85858585611a17565b6000818152600260205260409020805491925090600160a81b900460ff1615611f995760405162461bcd60e51b815260040161070090613cd2565b80546001600160a01b03163314611fc25760405162461bcd60e51b815260040161070090613a36565b6000611fce8383611611565b90506004816007811115611fde57fe5b14611ffb5760405162461bcd60e51b815260040161070090613c9b565b815460ff60a81b1916600160a81b178255612017878787612878565b7f712ae1383f79ac853f8d882153778e0260ef8f03b504e2866e0593e04d2b291f8360405161204691906137ed565b60405180910390a15050949350505050565b60008054604051631257fcdb60e31b81526001600160a01b03909116906392bfe6d89061208b90869086906004016137a4565b60206040518083038186803b1580156120a357600080fd5b505afa1580156120b7573d6000803e3d6000fd5b505050506040513d601f19601f820116820180604052508101906108c791906133bb565b60007f00000000000000000000000000000000000000000000000000000000000000006121066129b0565b141561213357507f0000000000000000000000000000000000000000000000000000000000000000610658565b61219e7f00000000000000000000000000000000000000000000000000000000000000007f00000000000000000000000000000000000000000000000000000000000000007f00000000000000000000000000000000000000000000000000000000000000006129b4565b9050610658565b60008481526003602090815260408083206001600160a01b0387168452600281019092529091205460ff16156121ed5760405162461bcd60e51b815260040161070090613c70565b6001600160a01b03841660009081526002820160205260408120805460ff1916600117905560ff168360ff16141561222a57805482018155610eb9565b60ff8316600114156122455760018101805483019055610eb9565b60405162461bcd60e51b815260040161070090613c39565b60008281526003602052604081206008830154600684015461228191612710612a16565b815460018301540110156122a35750508054600160a01b900460ff161561084b565b8054600182015460078501546122be92909101612710612a16565b8354600160a01b900460ff166122d55781546122db565b81600101545b116122f45750508054600160a01b900460ff161561084b565b505054600160a01b900460ff16919050565b6000806000600460009054906101000a90046001600160a01b03166001600160a01b031663e7c830d46040518163ffffffff1660e01b815260040160206040518083038186803b15801561235957600080fd5b505afa15801561236d573d6000803e3d6000fd5b505050506040513d601f19601f8201168201806040525081019061239191906133bb565b6004805460405163e5399da360e01b81529293506000926001600160a01b039091169163e5399da3916123c6918691016137ed565b60606040518083038186803b1580156123de57600080fd5b505afa1580156123f2573d6000803e3d6000fd5b505050506040513d601f19601f82011682018060405250810190612416919061334e565b6000805460408051635397625b60e11b8152905193945043936001600160a01b039092169163a72ec4b691600480820192602092909190829003018186803b15801561246157600080fd5b505afa158015612475573d6000803e3d6000fd5b505050506040513d601f19601f8201168201806040525081019061249991906133bb565b604084015190915042035b6000851180156124b357508781105b1561256a576004805460405163e5399da360e01b81526000926001600160a01b039092169163e5399da3916124ee916000198b0191016137ed565b60606040518083038186803b15801561250657600080fd5b505afa15801561251a573d6000803e3d6000fd5b505050506040513d601f19601f8201168201806040525081019061253e919061334e565b90508281602001511015612552575061256a565b604081015160001990960195909450420390506124a4565b600084602001519050600042905060007f00000000000000000000000000000000000000000000000000000000000000006001600160a01b031663d89601fd6040518163ffffffff1660e01b815260040160206040518083038186803b1580156125d357600080fd5b505afa1580156125e7573d6000803e3d6000fd5b505050506040513d601f19601f8201168201806040525081019061260b91906133bb565b905060008282604051602001612622929190613d86565b6040516020818303038152906040528051906020012060001c90506000848803828161264a57fe5b6040909a015199069097039a509698505050505050505050915091565b60006108c783610e54565b60008089518b51146126965760405162461bcd60e51b815260040161070090613836565b88518b51146126b75760405162461bcd60e51b815260040161070090613836565b60006126c88c8c8c6110598d611a0c565b60008181526002602081905260409091209081015491925090156126fe5760405162461bcd60e51b8152600401610700906138ba565b8d8160000160006101000a8154816001600160a01b0302191690836001600160a01b0316021790555088816001018190555086600001518160000160146101000a81548160ff021916908315150217905550866020015142018160020181905550866040015181600201540181600301819055508488826003015403106127975760405162461bcd60e51b815260040161070090613a83565b8c51156127e957805460ff60b81b1916600160b81b17815560c08701516003820154016004820181905560015411156127d35760015460048201555b60e0870151600482015401600582018190556001555b6080870151600682015560a087015160078201556008810186905590925090509a509a98505050505050505050565b612820612d0f565b6002820154815260038201548160015b6020020152919050565b612842612d0f565b600482015481526005820154816001612830565b600080546001600160a01b0319166001600160a01b0392909216919091179055565b6000805b83518110156128aa5783818151811061289157fe5b602002602001015182019150808060010191505061287c565b508034146128ca5760405162461bcd60e51b815260040161070090613b5e565b60005b84518110156129a9576000808683815181106128e557fe5b60200260200101516001600160a01b031686848151811061290257fe5b602002602001015186858151811061291657fe5b602002602001015160405161292b9190613670565b60006040518083038185875af1925050503d8060008114612968576040519150601f19603f3d011682016040523d82523d6000602084013e61296d565b606091505b50915091508161299f578051156129875780518082602001fd5b60405162461bcd60e51b8152600401610700906139ff565b50506001016128cd565b5050505050565b4690565b60008383836129c16129b0565b3060405160200180868152602001858152602001848152602001838152602001826001600160a01b03168152602001955050505050506040516020818303038152906040528051906020012090509392505050565b6000808211612a5f576040805162461bcd60e51b815260206004820152601060248201526f4469766973696f6e206279207a65726f60801b604482015290519081900360640190fd5b83612a6c575060006108c7565b83830283858281612a7957fe5b041415612a9257828181612a8957fe5b049150506108c7565b6000838681612a9d57fe5b0490506000848781612aab57fe5b0690506000858781612ab957fe5b0490506000868881612ac757fe5b069050612b15612ae188612adb8685612b22565b90612b7b565b612b0f612aee8686612b22565b612b0f612afb8987612b22565b612b0f8d612b098c8b612b22565b90612b22565b90612be2565b9998505050505050505050565b600082612b315750600061084b565b82820282848281612b3e57fe5b04146108c75760405162461bcd60e51b8152600401808060200182810382526021815260200180613e8b6021913960400191505060405180910390fd5b6000808211612bd1576040805162461bcd60e51b815260206004820152601a60248201527f536166654d6174683a206469766973696f6e206279207a65726f000000000000604482015290519081900360640190fd5b818381612bda57fe5b049392505050565b6000828201838110156108c7576040805162461bcd60e51b815260206004820152601b60248201527f536166654d6174683a206164646974696f6e206f766572666c6f770000000000604482015290519081900360640190fd5b50805460018160011615610100020316600290046000825580601f10612c625750612c80565b601f016020900490600052602060002090810190612c809190612d2d565b50565b828054600181600116156101000203166002900490600052602060002090601f016020900481019282612cb95760008555612cff565b82601f10612cd257805160ff1916838001178555612cff565b82800160010185558215612cff579182015b82811115612cff578251825591602001919060010190612ce4565b50612d0b929150612d2d565b5090565b60405180604001604052806002906020820280368337509192915050565b5b80821115612d0b5760008155600101612d2e565b600067ffffffffffffffff831115612d5657fe5b612d69601f8401601f1916602001613dca565b9050828152838383011115612d7d57600080fd5b828260208301376000602084830101529392505050565b80356001600160a01b038116811461074c57600080fd5b600082601f830112612dbb578081fd5b81356020612dd0612dcb83613dee565b613dca565b8281528181019085830183850287018401881015612dec578586fd5b855b85811015612e1157612dff82612d94565b84529284019290840190600101612dee565b5090979650505050505050565b600082601f830112612e2e578081fd5b81356020612e3e612dcb83613dee565b82815281810190858301855b85811015612e11578135880189603f820112612e64578788fd5b612e758a8783013560408401612d42565b8552509284019290840190600101612e4a565b600082601f830112612e98578081fd5b81356020612ea8612dcb83613dee565b8281528181019085830183850287018401881015612ec4578586fd5b855b85811015612e1157813584529284019290840190600101612ec6565b803561074c81613e38565b600082601f830112612efd578081fd5b6108c783833560208501612d42565b803560ff8116811461074c57600080fd5b600060208284031215612f2e578081fd5b6108c782612d94565b60008060408385031215612f49578081fd5b612f5283612d94565b946020939093013593505050565b60008060408385031215612f72578182fd5b823567ffffffffffffffff80821115612f89578384fd5b612f9586838701612dab565b93506020850135915080821115612faa578283fd5b50612fb785828601612dab565b9150509250929050565b60008060008060808587031215612fd6578182fd5b843567ffffffffffffffff80821115612fed578384fd5b612ff988838901612dab565b9550602087013591508082111561300e578384fd5b61301a88838901612e88565b9450604087013591508082111561302f578384fd5b61303b88838901612e1e565b93506060870135915080821115613050578283fd5b5061305d87828801612eed565b91505092959194509250565b6000806000806000858703610180811215613082578384fd5b863567ffffffffffffffff80821115613099578586fd5b6130a58a838b01612dab565b975060208901359150808211156130ba578586fd5b6130c68a838b01612e88565b965060408901359150808211156130db578586fd5b6130e78a838b01612e1e565b955060608901359150808211156130fc578384fd5b6131088a838b01612eed565b9450610100915081607f198401121561311f578384fd5b6040519250818301838110828211171561313557fe5b6040525061314560808901612ee2565b825260a0880135602083015260c0880135604083015260e088013560608301528088013560808301525061012087013560a082015261014087013560c082015261016087013560e0820152809150509295509295909350565b600080604083850312156131b0578182fd5b823567ffffffffffffffff808211156131c7578384fd5b818501915085601f8301126131da578384fd5b813560206131ea612dcb83613dee565b82815281810190858301838502870184018b1015613206578889fd5b8896505b8487101561322857803583526001969096019591830191830161320a565b5096505086013592505080821115612faa578283fd5b60006020828403121561324f578081fd5b81356001600160e01b0319811681146108c7578182fd5b600060208284031215613277578081fd5b813567ffffffffffffffff81111561328d578182fd5b610eb984828501612eed565b60008082840360e08112156132ac578283fd5b833567ffffffffffffffff808211156132c3578485fd5b6132cf87838801612eed565b945060c0601f19840112156132e2578384fd5b604051925060c08301915082821081831117156132fb57fe5b50604052602084013561330d81613e38565b8082525060408401356020820152606084013560408201526080840135606082015260a0840135608082015260c084013560a0820152809150509250929050565b60006060828403121561335f578081fd5b6040516060810181811067ffffffffffffffff8211171561337c57fe5b80604052508251815260208301516020820152604083015160408201528091505092915050565b6000602082840312156133b4578081fd5b5035919050565b6000602082840312156133cc578081fd5b5051919050565b600080604083850312156133e5578182fd5b823591506133f560208401612d94565b90509250929050565b60008060008060008060008060006101208a8c03121561341c578687fd5b8951985060208a0151975060408a0151965060608a0151955060808a0151945060a08a0151935060c08a0151925060e08a015161345881613e38565b6101008b015190925061346a81613e38565b809150509295985092959850929598565b6000806040838503121561348d578182fd5b823591506133f560208401612f0c565b600080600080606085870312156134b2578182fd5b843593506134c260208601612f0c565b9250604085013567ffffffffffffffff808211156134de578384fd5b818701915087601f8301126134f1578384fd5b8135818111156134ff578485fd5b886020828501011115613510578485fd5b95989497505060200194505050565b600080600080600060a08688031215613536578283fd5b8535945061354660208701612f0c565b935061355460408701612f0c565b94979396509394606081013594506080013592915050565b6000815180845260208085019450808401835b838110156135a45781516001600160a01b03168752958201959082019060010161357f565b509495945050505050565b6000815180845260208085019450848183028601828601855b85811015612e115783830389526135e0838351613644565b988501989250908401906001016135c8565b8060005b6002811015610cb65781518452602093840193909101906001016135f6565b6000815180845260208085019450808401835b838110156135a457815187529582019590820190600101613628565b6000815180845261365c816020860160208601613e0c565b601f01601f19169290920160200192915050565b60008251613682818460208701613e0c565b9190910192915050565b6001600160a01b0391909116815260200190565b6001600160a01b038d1681526101c0602082018190526000906136c58382018f61356c565b905082810360408401526136d9818e613615565b905082810360608401526136ed818d6135af565b90508281036080840152613701818c613644565b91505088151560a083015261371960c08301896135f2565b6137276101008301886135f2565b856101408301528461016083015283610180830152826101a08301529d9c50505050505050505050505050565b6001600160a01b039a909a168a5297151560208a015260408901969096526060880194909452608087019290925260a086015260c085015260e08401526101008301526101208201526101400190565b6001600160a01b03929092168252602082015260400190565b6000604082526137d0604083018561356c565b8281036020840152611e3d818561356c565b901515815260200190565b90815260200190565b928352602083019190915260ff16604082015260600190565b602081016008831061381d57fe5b91905290565b6000602082526108c76020830184613644565b60208082526017908201527f696e76616c69642070726f706f73616c206c656e677468000000000000000000604082015260600190565b6020808252602d908201527f70726f706f73616c2063616e206f6e6c792062652063616e63656c656420627960408201526c1034ba3990383937b837b9b2b960991b606082015260800190565b60208082526017908201527f70726f706f73616c20616c726561647920657869737473000000000000000000604082015260600190565b60208082526032908201527f70726f706f73616c2063616e206f6e6c792062652063616e63656c6564206265604082015271666f726520766f74696e672073746172747360701b606082015260800190565b6020808252601e908201527f696e76616c6964207468726573686f6c64436f6e646974696f6e424950530000604082015260600190565b6020808252602e908201527f7375626d6974746572206973206e6f7420656c696769626c6520746f2073756260408201526d1b5a5d0818481c1c9bdc1bdcd85b60921b606082015260800190565b6020808252601d908201527f696e76616c6964206d616a6f72697479436f6e646974696f6e42495053000000604082015260600190565b6020808252601d908201527f63616c6c20726576657274656420776974686f7574206d657373616765000000604082015260600190565b6020808252602d908201527f70726f706f73616c2063616e206f6e6c7920626520657865637574656420627960408201526c1034ba3990383937b837b9b2b960991b606082015260800190565b60208082526027908201527f766f746520706f77657220626c6f636b20697320746f6f2066617220696e20746040820152661a19481c185cdd60ca1b606082015260800190565b602080825260169082015275696e76616c696420766f7465207369676e617475726560501b604082015260600190565b6020808252601390820152721d5b9adb9bdddb881c1c9bdc1bdcd85b081a59606a1b604082015260600190565b60208082526018908201527f657865637574696f6e20706572696f6420746f6f206c6f770000000000000000604082015260600190565b60208082526028908201527f73756d206f66205f76616c75657320646f6573206e6f7420657175616c73206d60408201526773672e76616c756560c01b606082015260800190565b6020808252601c908201527f70726f706f73616c20697320616c72656164792063616e63656c656400000000604082015260600190565b602080825260159082015274766f74696e6720706572696f6420746f6f206c6f7760581b604082015260600190565b60208082526013908201527270726f706f73616c206e6f742061637469766560681b604082015260600190565b6020808252601f908201527f696e76616c69642076616c756520666f7220656e756d20566f74655479706500604082015260600190565b6020808252601190820152701d9bdd1948185b1c9958591e4818d85cdd607a1b604082015260600190565b6020808252601f908201527f70726f706f73616c206e6f7420696e20657865637574696f6e20737461746500604082015260600190565b60208082526019908201527f70726f706f73616c20616c726561647920657865637574656400000000000000604082015260600190565b8681526001600160a01b038616602082015260c060408201819052600090613d339083018761356c565b8281036060840152613d458187613615565b90508281036080840152613d5981866135af565b9150508260a0830152979650505050505050565b600083825260406020830152610eb96040830184613644565b918252602082015260400190565b600060ff8716825285602083015260a06040830152613db660a0830186613644565b606083019490945250608001529392505050565b60405181810167ffffffffffffffff81118282101715613de657fe5b604052919050565b600067ffffffffffffffff821115613e0257fe5b5060209081020190565b60005b83811015613e27578181015183820152602001613e0f565b83811115610cb65750506000910152565b8015158114612c8057600080fdfe45434453413a20696e76616c6964207369676e6174757265202773272076616c756545434453413a20696e76616c6964207369676e6174757265202776272076616c7565536166654d6174683a206d756c7469706c69636174696f6e206f766572666c6f77a2646970667358221220c3e2855a2b1ab668ccb39d3901c18641e714401f2d14118f357e5ea7f746a6f564736f6c63430007060033",
  "linkReferences": {},
  "deployedLinkReferences": {}
}