{
  "_format": "hh-sol-artifact-1",
  "contractName": "PollingFoundation",
  "sourceName": "contracts/governance/implementation/PollingFoundation.sol",
  "abi": [
    {
      "inputs": [
        {
          "internalType": "address",
          "name": "_governance",
          "type": "address"
        },
        {
          "internalType": "address[]",
          "name": "_proposers",
          "type": "address[]"
        }
      ],
      "stateMutability": "nonpayable",
      "type": "constructor"
    },
    {
      "anonymous": false,
      "inputs": [
        {
          "indexed": false,
          "internalType": "contract IIGovernanceVotePower",
          "name": "vpContract",
          "type": "address"
        },
        {
          "indexed": false,
          "internalType": "contract IFtsoRegistry",
          "name": "ftsoRegistry",
          "type": "address"
        },
        {
          "indexed": false,
          "internalType": "contract IIFtsoManager",
          "name": "ftsoManager",
          "type": "address"
        },
        {
          "indexed": false,
          "internalType": "contract IISupply",
          "name": "supply",
          "type": "address"
        }
      ],
      "name": "ContractAddressesSet",
      "type": "event"
    },
    {
      "anonymous": false,
      "inputs": [
        {
          "indexed": false,
          "internalType": "address",
          "name": "proposedGovernance",
          "type": "address"
        }
      ],
      "name": "GovernanceProposed",
      "type": "event"
    },
    {
      "anonymous": false,
      "inputs": [
        {
          "indexed": false,
          "internalType": "address",
          "name": "oldGovernance",
          "type": "address"
        },
        {
          "indexed": false,
          "internalType": "address",
          "name": "newGoveranance",
          "type": "address"
        }
      ],
      "name": "GovernanceUpdated",
      "type": "event"
    },
    {
      "anonymous": false,
      "inputs": [
        {
          "indexed": true,
          "internalType": "uint256",
          "name": "proposalId",
          "type": "uint256"
        }
      ],
      "name": "ProposalCanceled",
      "type": "event"
    },
    {
      "anonymous": false,
      "inputs": [
        {
          "indexed": true,
          "internalType": "uint256",
          "name": "proposalId",
          "type": "uint256"
        },
        {
          "indexed": false,
          "internalType": "address",
          "name": "proposer",
          "type": "address"
        },
        {
          "indexed": false,
          "internalType": "address[]",
          "name": "targets",
          "type": "address[]"
        },
        {
          "indexed": false,
          "internalType": "uint256[]",
          "name": "values",
          "type": "uint256[]"
        },
        {
          "indexed": false,
          "internalType": "bytes[]",
          "name": "calldatas",
          "type": "bytes[]"
        },
        {
          "indexed": false,
          "internalType": "string",
          "name": "description",
          "type": "string"
        },
        {
          "indexed": false,
          "internalType": "bool",
          "name": "accept",
          "type": "bool"
        },
        {
          "indexed": false,
          "internalType": "uint256[2]",
          "name": "voteTimes",
          "type": "uint256[2]"
        },
        {
          "indexed": false,
          "internalType": "uint256[2]",
          "name": "executionTimes",
          "type": "uint256[2]"
        },
        {
          "indexed": false,
          "internalType": "uint256",
          "name": "votePowerBlock",
          "type": "uint256"
        },
        {
          "indexed": false,
          "internalType": "uint256",
          "name": "thresholdConditionBIPS",
          "type": "uint256"
        },
        {
          "indexed": false,
          "internalType": "uint256",
          "name": "majorityConditionBIPS",
          "type": "uint256"
        },
        {
          "indexed": false,
          "internalType": "uint256",
          "name": "circulatingSupply",
          "type": "uint256"
        }
      ],
      "name": "ProposalCreated",
      "type": "event"
    },
    {
      "anonymous": false,
      "inputs": [
        {
          "indexed": true,
          "internalType": "uint256",
          "name": "proposalId",
          "type": "uint256"
        }
      ],
      "name": "ProposalExecuted",
      "type": "event"
    },
    {
      "anonymous": false,
      "inputs": [
        {
          "indexed": false,
          "internalType": "address[]",
          "name": "addedProposers",
          "type": "address[]"
        },
        {
          "indexed": false,
          "internalType": "address[]",
          "name": "removedProposers",
          "type": "address[]"
        }
      ],
      "name": "ProposersChanged",
      "type": "event"
    },
    {
      "anonymous": false,
      "inputs": [
        {
          "indexed": true,
          "internalType": "address",
          "name": "voter",
          "type": "address"
        },
        {
          "indexed": true,
          "internalType": "uint256",
          "name": "proposalId",
          "type": "uint256"
        },
        {
          "indexed": false,
          "internalType": "uint8",
          "name": "support",
          "type": "uint8"
        },
        {
          "indexed": false,
          "internalType": "uint256",
          "name": "votePower",
          "type": "uint256"
        },
        {
          "indexed": false,
          "internalType": "string",
          "name": "reason",
          "type": "string"
        },
        {
          "indexed": false,
          "internalType": "uint256",
          "name": "forVotePower",
          "type": "uint256"
        },
        {
          "indexed": false,
          "internalType": "uint256",
          "name": "againstVotePower",
          "type": "uint256"
        }
      ],
      "name": "VoteCast",
      "type": "event"
    },
    {
      "inputs": [],
      "name": "BALLOT_TYPEHASH",
      "outputs": [
        {
          "internalType": "bytes32",
          "name": "",
          "type": "bytes32"
        }
      ],
      "stateMutability": "view",
      "type": "function"
    },
    {
      "inputs": [
        {
          "internalType": "uint256",
          "name": "_proposalId",
          "type": "uint256"
        }
      ],
      "name": "cancel",
      "outputs": [],
      "stateMutability": "nonpayable",
      "type": "function"
    },
    {
      "inputs": [
        {
          "internalType": "uint256",
          "name": "_proposalId",
          "type": "uint256"
        },
        {
          "internalType": "uint8",
          "name": "_support",
          "type": "uint8"
        }
      ],
      "name": "castVote",
      "outputs": [
        {
          "internalType": "uint256",
          "name": "",
          "type": "uint256"
        }
      ],
      "stateMutability": "nonpayable",
      "type": "function"
    },
    {
      "inputs": [
        {
          "internalType": "uint256",
          "name": "_proposalId",
          "type": "uint256"
        },
        {
          "internalType": "uint8",
          "name": "_support",
          "type": "uint8"
        },
        {
          "internalType": "uint8",
          "name": "_v",
          "type": "uint8"
        },
        {
          "internalType": "bytes32",
          "name": "_r",
          "type": "bytes32"
        },
        {
          "internalType": "bytes32",
          "name": "_s",
          "type": "bytes32"
        }
      ],
      "name": "castVoteBySig",
      "outputs": [
        {
          "internalType": "uint256",
          "name": "",
          "type": "uint256"
        }
      ],
      "stateMutability": "nonpayable",
      "type": "function"
    },
    {
      "inputs": [
        {
          "internalType": "uint256",
          "name": "_proposalId",
          "type": "uint256"
        },
        {
          "internalType": "uint8",
          "name": "_support",
          "type": "uint8"
        },
        {
          "internalType": "string",
          "name": "_reason",
          "type": "string"
        }
      ],
      "name": "castVoteWithReason",
      "outputs": [
        {
          "internalType": "uint256",
          "name": "",
          "type": "uint256"
        }
      ],
      "stateMutability": "nonpayable",
      "type": "function"
    },
    {
      "inputs": [],
      "name": "chainId",
      "outputs": [
        {
          "internalType": "uint256",
          "name": "",
          "type": "uint256"
        }
      ],
      "stateMutability": "view",
      "type": "function"
    },
    {
      "inputs": [
        {
          "internalType": "address[]",
          "name": "_proposersToAdd",
          "type": "address[]"
        },
        {
          "internalType": "address[]",
          "name": "_proposersToRemove",
          "type": "address[]"
        }
      ],
      "name": "changeProposers",
      "outputs": [],
      "stateMutability": "nonpayable",
      "type": "function"
    },
    {
      "inputs": [],
      "name": "claimGovernance",
      "outputs": [],
      "stateMutability": "nonpayable",
      "type": "function"
    },
    {
      "inputs": [
        {
          "internalType": "string",
          "name": "_description",
          "type": "string"
        }
      ],
      "name": "execute",
      "outputs": [
        {
          "internalType": "uint256",
          "name": "",
          "type": "uint256"
        }
      ],
      "stateMutability": "nonpayable",
      "type": "function"
    },
    {
      "inputs": [
        {
          "internalType": "address[]",
          "name": "_targets",
          "type": "address[]"
        },
        {
          "internalType": "uint256[]",
          "name": "_values",
          "type": "uint256[]"
        },
        {
          "internalType": "bytes[]",
          "name": "_calldatas",
          "type": "bytes[]"
        },
        {
          "internalType": "string",
          "name": "_description",
          "type": "string"
        }
      ],
      "name": "execute",
      "outputs": [
        {
          "internalType": "uint256",
          "name": "proposalId",
          "type": "uint256"
        }
      ],
      "stateMutability": "payable",
      "type": "function"
    },
    {
      "inputs": [],
      "name": "ftsoManager",
      "outputs": [
        {
          "internalType": "contract IIFtsoManager",
          "name": "",
          "type": "address"
        }
      ],
      "stateMutability": "view",
      "type": "function"
    },
    {
      "inputs": [],
      "name": "ftsoRegistry",
      "outputs": [
        {
          "internalType": "contract IFtsoRegistry",
          "name": "",
          "type": "address"
        }
      ],
      "stateMutability": "view",
      "type": "function"
    },
    {
      "inputs": [
        {
          "internalType": "address[]",
          "name": "_targets",
          "type": "address[]"
        },
        {
          "internalType": "uint256[]",
          "name": "_values",
          "type": "uint256[]"
        },
        {
          "internalType": "bytes[]",
          "name": "_calldatas",
          "type": "bytes[]"
        },
        {
          "internalType": "string",
          "name": "_description",
          "type": "string"
        }
      ],
      "name": "getProposalId",
      "outputs": [
        {
          "internalType": "uint256",
          "name": "",
          "type": "uint256"
        }
      ],
      "stateMutability": "view",
      "type": "function"
    },
    {
      "inputs": [
        {
          "internalType": "uint256",
          "name": "_proposalId",
          "type": "uint256"
        }
      ],
      "name": "getProposalInfo",
      "outputs": [
        {
          "internalType": "address",
          "name": "_proposer",
          "type": "address"
        },
        {
          "internalType": "bool",
          "name": "_accept",
          "type": "bool"
        },
        {
          "internalType": "uint256",
          "name": "_votePowerBlock",
          "type": "uint256"
        },
        {
          "internalType": "uint256",
          "name": "_voteStartTime",
          "type": "uint256"
        },
        {
          "internalType": "uint256",
          "name": "_voteEndTime",
          "type": "uint256"
        },
        {
          "internalType": "uint256",
          "name": "_execStartTime",
          "type": "uint256"
        },
        {
          "internalType": "uint256",
          "name": "_execEndTime",
          "type": "uint256"
        },
        {
          "internalType": "uint256",
          "name": "_thresholdConditionBIPS",
          "type": "uint256"
        },
        {
          "internalType": "uint256",
          "name": "_majorityConditionBIPS",
          "type": "uint256"
        },
        {
          "internalType": "uint256",
          "name": "_circulatingSupply",
          "type": "uint256"
        }
      ],
      "stateMutability": "view",
      "type": "function"
    },
    {
      "inputs": [
        {
          "internalType": "uint256",
          "name": "_proposalId",
          "type": "uint256"
        }
      ],
      "name": "getProposalVotes",
      "outputs": [
        {
          "internalType": "uint256",
          "name": "_for",
          "type": "uint256"
        },
        {
          "internalType": "uint256",
          "name": "_against",
          "type": "uint256"
        }
      ],
      "stateMutability": "view",
      "type": "function"
    },
    {
      "inputs": [
        {
          "internalType": "address",
          "name": "_voter",
          "type": "address"
        },
        {
          "internalType": "uint256",
          "name": "_blockNumber",
          "type": "uint256"
        }
      ],
      "name": "getVotes",
      "outputs": [
        {
          "internalType": "uint256",
          "name": "",
          "type": "uint256"
        }
      ],
      "stateMutability": "view",
      "type": "function"
    },
    {
      "inputs": [],
      "name": "governance",
      "outputs": [
        {
          "internalType": "address",
          "name": "",
          "type": "address"
        }
      ],
      "stateMutability": "view",
      "type": "function"
    },
    {
      "inputs": [
        {
          "internalType": "uint256",
          "name": "_proposalId",
          "type": "uint256"
        },
        {
          "internalType": "address",
          "name": "_voter",
          "type": "address"
        }
      ],
      "name": "hasVoted",
      "outputs": [
        {
          "internalType": "bool",
          "name": "",
          "type": "bool"
        }
      ],
      "stateMutability": "view",
      "type": "function"
    },
    {
      "inputs": [
        {
          "internalType": "address",
          "name": "_governance",
          "type": "address"
        }
      ],
      "name": "initialise",
      "outputs": [],
      "stateMutability": "nonpayable",
      "type": "function"
    },
    {
      "inputs": [
        {
          "internalType": "address",
          "name": "_account",
          "type": "address"
        }
      ],
      "name": "isProposer",
      "outputs": [
        {
          "internalType": "bool",
          "name": "",
          "type": "bool"
        }
      ],
      "stateMutability": "view",
      "type": "function"
    },
    {
      "inputs": [],
      "name": "name",
      "outputs": [
        {
          "internalType": "string",
          "name": "",
          "type": "string"
        }
      ],
      "stateMutability": "pure",
      "type": "function"
    },
    {
      "inputs": [
        {
          "internalType": "address[]",
          "name": "_targets",
          "type": "address[]"
        },
        {
          "internalType": "uint256[]",
          "name": "_values",
          "type": "uint256[]"
        },
        {
          "internalType": "bytes[]",
          "name": "_calldatas",
          "type": "bytes[]"
        },
        {
          "internalType": "string",
          "name": "_description",
          "type": "string"
        },
        {
          "components": [
            {
              "internalType": "bool",
              "name": "accept",
              "type": "bool"
            },
            {
              "internalType": "uint256",
              "name": "votingDelaySeconds",
              "type": "uint256"
            },
            {
              "internalType": "uint256",
              "name": "votingPeriodSeconds",
              "type": "uint256"
            },
            {
              "internalType": "uint256",
              "name": "vpBlockPeriodSeconds",
              "type": "uint256"
            },
            {
              "internalType": "uint256",
              "name": "thresholdConditionBIPS",
              "type": "uint256"
            },
            {
              "internalType": "uint256",
              "name": "majorityConditionBIPS",
              "type": "uint256"
            },
            {
              "internalType": "uint256",
              "name": "executionDelaySeconds",
              "type": "uint256"
            },
            {
              "internalType": "uint256",
              "name": "executionPeriodSeconds",
              "type": "uint256"
            }
          ],
          "internalType": "struct IGovernor.GovernorSettings",
          "name": "_settings",
          "type": "tuple"
        }
      ],
      "name": "propose",
      "outputs": [
        {
          "internalType": "uint256",
          "name": "",
          "type": "uint256"
        }
      ],
      "stateMutability": "nonpayable",
      "type": "function"
    },
    {
      "inputs": [
        {
          "internalType": "string",
          "name": "_description",
          "type": "string"
        },
        {
          "components": [
            {
              "internalType": "bool",
              "name": "accept",
              "type": "bool"
            },
            {
              "internalType": "uint256",
              "name": "votingDelaySeconds",
              "type": "uint256"
            },
            {
              "internalType": "uint256",
              "name": "votingPeriodSeconds",
              "type": "uint256"
            },
            {
              "internalType": "uint256",
              "name": "vpBlockPeriodSeconds",
              "type": "uint256"
            },
            {
              "internalType": "uint256",
              "name": "thresholdConditionBIPS",
              "type": "uint256"
            },
            {
              "internalType": "uint256",
              "name": "majorityConditionBIPS",
              "type": "uint256"
            }
          ],
          "internalType": "struct IIPollingFoundation.GovernorSettingsWithoutExecParams",
          "name": "_settings",
          "type": "tuple"
        }
      ],
      "name": "propose",
      "outputs": [
        {
          "internalType": "uint256",
          "name": "",
          "type": "uint256"
        }
      ],
      "stateMutability": "nonpayable",
      "type": "function"
    },
    {
      "inputs": [
        {
          "internalType": "address",
          "name": "_governance",
          "type": "address"
        }
      ],
      "name": "proposeGovernance",
      "outputs": [],
      "stateMutability": "nonpayable",
      "type": "function"
    },
    {
      "inputs": [],
      "name": "proposedGovernance",
      "outputs": [
        {
          "internalType": "address",
          "name": "",
          "type": "address"
        }
      ],
      "stateMutability": "view",
      "type": "function"
    },
    {
      "inputs": [
        {
          "internalType": "contract IIGovernanceVotePower",
          "name": "_vpContract",
          "type": "address"
        },
        {
          "internalType": "contract IFtsoRegistry",
          "name": "_ftsoRegistry",
          "type": "address"
        },
        {
          "internalType": "contract IIFtsoManager",
          "name": "_ftsoManager",
          "type": "address"
        },
        {
          "internalType": "contract IISupply",
          "name": "_supply",
          "type": "address"
        }
      ],
      "name": "setContractAddresses",
      "outputs": [],
      "stateMutability": "nonpayable",
      "type": "function"
    },
    {
      "inputs": [
        {
          "internalType": "uint256",
          "name": "_proposalId",
          "type": "uint256"
        }
      ],
      "name": "state",
      "outputs": [
        {
          "internalType": "enum IGovernor.ProposalState",
          "name": "",
          "type": "uint8"
        }
      ],
      "stateMutability": "view",
      "type": "function"
    },
    {
      "inputs": [],
      "name": "supply",
      "outputs": [
        {
          "internalType": "contract IISupply",
          "name": "",
          "type": "address"
        }
      ],
      "stateMutability": "view",
      "type": "function"
    },
    {
      "inputs": [
        {
          "internalType": "address",
          "name": "_governance",
          "type": "address"
        }
      ],
      "name": "transferGovernance",
      "outputs": [],
      "stateMutability": "nonpayable",
      "type": "function"
    },
    {
      "inputs": [],
      "name": "version",
      "outputs": [
        {
          "internalType": "string",
          "name": "",
          "type": "string"
        }
      ],
      "stateMutability": "pure",
      "type": "function"
    },
    {
      "inputs": [],
      "name": "votePower",
      "outputs": [
        {
          "internalType": "contract IIGovernanceVotePower",
          "name": "",
          "type": "address"
        }
      ],
      "stateMutability": "view",
      "type": "function"
    }
  ],
  "bytecode": "0x6101406040523480156200001257600080fd5b5060405162003b8d38038062003b8d8339810160408190526200003591620003ec565b8082806200004262000146565b6200004c62000171565b815160208084019190912082519183019190912060c082905260e08190527f8b73c3c69bb8fe3d512ecc4cf759cc79239f7b179b0ffacaa9a75d522b39400f620000956200018c565b60a052620000a581848462000190565b608052610100525050466101205250506001600160a01b03811615620000d057620000d081620001f4565b506001600160a01b03811662000120576040805162461bcd60e51b815260206004820152601060248201526f5f676f7665726e616e6365207a65726f60801b604482015290519081900360640190fd5b506040805160008152602081019091526200013d908290620002d8565b50505062000538565b6040805180820190915260118152702837b63634b733a337bab73230ba34b7b760791b602082015290565b6040805180820190915260018152603160f81b602082015290565b4690565b60008383836200019f6200018c565b3060405160200180868152602001858152602001848152602001838152602001826001600160a01b03168152602001955050505050506040516020818303038152906040528051906020012090509392505050565b600554600160a01b900460ff161562000254576040805162461bcd60e51b815260206004820152601460248201527f696e697469616c6973656420213d2066616c7365000000000000000000000000604482015290519081900360640190fd5b6005805460ff60a01b1916600160a01b179055600454604080516001600160a01b039283168152918316602083015280517f434a2db650703b36c824e745330d6397cdaa9ee2cc891a4938ae853e1c50b68d9281900390910190a1600480546001600160a01b039092166001600160a01b0319928316179055600580549091169055565b7f4b8f4e528b6d075c6c9d025e58db64e36b460c1516341b1ab7339b4c6d5bcb8a82826040516200030b92919062000506565b60405180910390a160005b82518110156200036e576001600960008584815181106200033357fe5b6020908102919091018101516001600160a01b03168252810191909152604001600020805460ff191691151591909117905560010162000316565b5060005b8151811015620003ca576000600960008484815181106200038f57fe5b6020908102919091018101516001600160a01b03168252810191909152604001600020805460ff191691151591909117905560010162000372565b505050565b80516001600160a01b0381168114620003e757600080fd5b919050565b60008060408385031215620003ff578182fd5b6200040a83620003cf565b602084810151919350906001600160401b038082111562000429578384fd5b818601915086601f8301126200043d578384fd5b8151818111156200044a57fe5b838102604051858282010181811085821117156200046457fe5b604052828152858101935084860182860187018b101562000483578788fd5b8795505b83861015620004b0576200049b81620003cf565b85526001959095019493860193860162000487565b508096505050505050509250929050565b6000815180845260208085019450808401835b83811015620004fb5781516001600160a01b031687529582019590820190600101620004d4565b509495945050505050565b6000604082526200051b6040830185620004c1565b82810360208401526200052f8185620004c1565b95945050505050565b60805160a05160c05160e05161010051610120516136066200058760003980610a2b528061153b5250806118825250806118c45250806118a352508061182952508061185952506136066000f3fe6080604052600436106101d85760003560e01c80637b3c71d311610102578063bc903cb811610095578063deaaa7cc11610064578063deaaa7cc1461054a578063e4ea8b651461055f578063eb9019d414610572578063f17c9d7614610592576101d8565b8063bc903cb8146104b4578063bd590d7e146104ea578063c373a08e1461050a578063d38bfff41461052a576101d8565b80639d6a890f116100d15780639d6a890f14610434578063a3c90b8014610454578063a7a6224a14610474578063aaa6877714610494576101d8565b80637b3c71d3146103bf57806385412196146103df57806386f90bbf146103ff5780639a8a05921461041f576101d8565b8063438596321161017a5780635aa6e675116101495780635aa6e675146103605780635d36b1901461037557806360f7ac971461038a57806374ec29a01461039f576101d8565b806343859632146102d057806347c66140146102fd57806354fd4d501461032b5780635678138814610340576101d8565b806338b5f869116101b657806338b5f8691461023f5780633bccf4fd146102545780633e4f49e61461028157806340e58ee5146102ae576101d8565b8063047fc9aa146101dd57806306fdde031461020857806311a7aaaa1461022a575b600080fd5b3480156101e957600080fd5b506101f26105a7565b6040516101ff9190612d7e565b60405180910390f35b34801561021457600080fd5b5061021d6105b6565b6040516101ff9190612f49565b34801561023657600080fd5b506101f26105e2565b34801561024b57600080fd5b506101f26105f1565b34801561026057600080fd5b5061027461026f366004612bfb565b610600565b6040516101ff9190612ee8565b34801561028d57600080fd5b506102a161029c366004612a45565b6106c6565b6040516101ff9190612f35565b3480156102ba57600080fd5b506102ce6102c9366004612a45565b6106e7565b005b3480156102dc57600080fd5b506102f06102eb366004612a75565b6107aa565b6040516101ff9190612edd565b34801561030957600080fd5b5061031d610318366004612a45565b6107da565b6040516101ff929190613493565b34801561033757600080fd5b5061021d6107f3565b34801561034c57600080fd5b5061027461035b366004612b4e565b61080e565b34801561036c57600080fd5b506101f2610832565b34801561038157600080fd5b506102ce610841565b34801561039657600080fd5b506101f2610903565b3480156103ab57600080fd5b506102f06103ba3660046125e4565b610912565b3480156103cb57600080fd5b506102746103da366004612b79565b610930565b3480156103eb57600080fd5b506102746103fa366004612734565b61097f565b34801561040b57600080fd5b5061027461041a366004612990565b610998565b34801561042b57600080fd5b50610274610a29565b34801561044057600080fd5b506102ce61044f3660046125e4565b610a4d565b34801561046057600080fd5b5061027461046f36600461268c565b610b27565b34801561048057600080fd5b506102ce61048f36600461262b565b610b3d565b3480156104a057600080fd5b506102ce6104af366004612902565b610b9c565b3480156104c057600080fd5b506104d46104cf366004612a45565b610c77565b6040516101ff9a99989796959493929190612e46565b3480156104f657600080fd5b5061027461050536600461295d565b610cd6565b34801561051657600080fd5b506102ce6105253660046125e4565b610d25565b34801561053657600080fd5b506102ce6105453660046125e4565b610dca565b34801561055657600080fd5b50610274610e8c565b61027461056d36600461268c565b610eb0565b34801561057e57600080fd5b5061027461058d366004612600565b610ec1565b34801561059e57600080fd5b506101f2610ecd565b6007546001600160a01b031681565b6040805180820190915260118152702837b63634b733a337bab73230ba34b7b760791b60208201525b90565b6006546001600160a01b031681565b6008546001600160a01b031681565b60008061065e6106597f150214d74d59b7d1e90c73fc22ef3d991dd0a76b046543d4d80ab92d2a50328f898960405160200161063e93929190612ef1565b60405160208183030381529060405280519060200120610edc565b610f28565b9050600061066e82878787610f79565b90506001600160a01b03811661069f5760405162461bcd60e51b8152600401610696906131f0565b60405180910390fd5b6106ba888289604051806020016040528060008152506110ee565b98975050505050505050565b60008181526002602052604081206106df9083906111af565b90505b919050565b60008181526002602052604090208054600160b01b900460ff161561071e5760405162461bcd60e51b8152600401610696906132cc565b80546001600160a01b031633146107475760405162461bcd60e51b815260040161069690612f93565b8060020154421061076a5760405162461bcd60e51b815260040161069690613017565b805460ff60b01b1916600160b01b17815560405182907f789cf55be980739dad1d0699b93b58e806b51c9d96619bfa8fe0a28abaa7b30c90600090a25050565b60008281526003602090815260408083206001600160a01b038516845260020190915290205460ff165b92915050565b6000908152600360205260409020600181015490549091565b6040805180820190915260018152603160f81b602082015290565b600061082b833384604051806020016040528060008152506110ee565b9392505050565b6004546001600160a01b031681565b6005546001600160a01b03163314610890576040805162461bcd60e51b815260206004820152600d60248201526c1b9bdd0818db185a5b585a5b9d609a1b604482015290519081900360640190fd5b600454600554604080516001600160a01b03938416815292909116602083015280517f434a2db650703b36c824e745330d6397cdaa9ee2cc891a4938ae853e1c50b68d9281900390910190a160058054600480546001600160a01b03199081166001600160a01b03841617909155169055565b6005546001600160a01b031681565b6001600160a01b031660009081526009602052604090205460ff1690565b600061097485338686868080601f0160208091040260200160405190810160405280939291908181526020018383808284376000920191909152506110ee92505050565b90505b949350505050565b600061098e868686868661128d565b9695505050505050565b6040805161010081018252825115158152602080840151818301528383015182840152606080850151818401526080808601519084015260a08086015190840152600060c08401819052600160e0850152845181815292830181815283860182815292840190955293610977929185610a21565b6060815260200190600190039081610a0c5790505b50878561128d565b7f000000000000000000000000000000000000000000000000000000000000000081565b600554600160a01b900460ff1615610aa3576040805162461bcd60e51b8152602060048201526014602482015273696e697469616c6973656420213d2066616c736560601b604482015290519081900360640190fd5b6005805460ff60a01b1916600160a01b179055600454604080516001600160a01b039283168152918316602083015280517f434a2db650703b36c824e745330d6397cdaa9ee2cc891a4938ae853e1c50b68d9281900390910190a1600480546001600160a01b039092166001600160a01b0319928316179055600580549091169055565b6000610974858585610b388661152c565b611537565b6004546001600160a01b03163314610b8e576040805162461bcd60e51b815260206004820152600f60248201526e6f6e6c7920676f7665726e616e636560881b604482015290519081900360640190fd5b610b988282611595565b5050565b6004546001600160a01b03163314610bed576040805162461bcd60e51b815260206004820152600f60248201526e6f6e6c7920676f7665726e616e636560881b604482015290519081900360640190fd5b610bf684611684565b600880546001600160a01b038086166001600160a01b0319928316179092556006805485841690831617905560078054928416929091169190911790556040517f8b83952a1d5f77e71c4e134b67faaeae2274d5571516c205eb7bfd0f7ccdc29690610c69908690869086908690612f0a565b60405180910390a150505050565b60009081526002602081905260409091208054600182015492820154600383015460048401546005850154600686015460078701546008909701546001600160a01b03871699600160a01b90970460ff16989795969495939492939192565b604080516000808252602082018181528284018281526060840190945290926106df92919084610d16565b6060815260200190600190039081610d015790505b50610d208661152c565b6116a6565b6004546001600160a01b03163314610d76576040805162461bcd60e51b815260206004820152600f60248201526e6f6e6c7920676f7665726e616e636560881b604482015290519081900360640190fd5b600580546001600160a01b0383166001600160a01b0319909116811790915560408051918252517f1f95fb40be3a947982072902a887b521248d1d8931a39eb38f84f4d6fd758b699181900360200190a150565b6004546001600160a01b03163314610e1b576040805162461bcd60e51b815260206004820152600f60248201526e6f6e6c7920676f7665726e616e636560881b604482015290519081900360640190fd5b600454604080516001600160a01b039283168152918316602083015280517f434a2db650703b36c824e745330d6397cdaa9ee2cc891a4938ae853e1c50b68d9281900390910190a1600480546001600160a01b039092166001600160a01b0319928316179055600580549091169055565b7f150214d74d59b7d1e90c73fc22ef3d991dd0a76b046543d4d80ab92d2a50328f81565b6000610974858585610d208661152c565b600061082b83836117a2565b6000546001600160a01b031681565b6000610ee6611825565b82604051602001808061190160f01b81525060020183815260200182815260200192505050604051602081830303815290604052805190602001209050919050565b604080517f19457468657265756d205369676e6564204d6573736167653a0a333200000000602080830191909152603c8083019490945282518083039094018452605c909101909152815191012090565b60007f7fffffffffffffffffffffffffffffff5d576e7357a4501ddfe92f46681b20a0821115610fda5760405162461bcd60e51b815260040180806020018281038252602281526020018061356c6022913960400191505060405180910390fd5b8360ff16601b1480610fef57508360ff16601c145b61102a5760405162461bcd60e51b815260040180806020018281038252602281526020018061358e6022913960400191505060405180910390fd5b600060018686868660405160008152602001604052604051808581526020018460ff1681526020018381526020018281526020019450505050506020604051602081039080840390855afa158015611086573d6000803e3d6000fd5b5050604051601f1901519150506001600160a01b038116610974576040805162461bcd60e51b815260206004820152601860248201527f45434453413a20696e76616c6964207369676e61747572650000000000000000604482015290519081900360640190fd5b6000848152600260205260408120600161110887836111af565b600781111561111357fe5b146111305760405162461bcd60e51b815260040161069690613332565b60006111408683600101546117a2565b90506000611150888888856118ef565b905087876001600160a01b03167fdd14487524f5e7c93029ad24503aa74e185d049a8c975136786a20eacc5e1b4e8885898660010154876000015460405161119c9594939291906134a1565b60405180910390a3509695505050505050565b8054600090600160b01b900460ff16156111cb575060076107d4565b8154600160a81b900460ff16156111e4575060066107d4565b60028201546112055760405162461bcd60e51b815260040161069690613220565b4282600201541115611219575060006107d4565b428260030154111561122d575060016107d4565b61123783836119a7565b15611284578154600160b81b900460ff16611254575060046107d4565b4282600401541115611268575060036107d4565b428260050154111561127c575060046107d4565b5060056107d4565b50600292915050565b600080600061129f8460600151611a50565b915091506112ad3383611cf3565b6112c95760405162461bcd60e51b8152600401610696906130a0565b60008460400151116112ed5760405162461bcd60e51b815260040161069690613303565b60008460e00151116113115760405162461bcd60e51b81526004016106969061324d565b612710846080015111156113375760405162461bcd60e51b815260040161069690613069565b6113888460a001511015801561135357506127108460a0015111155b61136f5760405162461bcd60e51b8152600401610696906130ee565b60075460405163d9330e6360e01b81526000916001600160a01b03169063d9330e63906113a0908690600401612ee8565b60206040518083038186803b1580156113b857600080fd5b505afa1580156113cc573d6000803e3d6000fd5b505050506040513d601f19601f820116820180604052508101906113f09190612a5d565b90506000600660009054906101000a90046001600160a01b03166001600160a01b031663e06174e46040518163ffffffff1660e01b81526004016101206040518083038186803b15801561144357600080fd5b505afa158015611457573d6000803e3d6000fd5b505050506040513d601f19601f8201168201806040525081019061147b9190612ad1565b5050965050505050505060008061149a338d8d8d8d8b8b8f8c8c611cfe565b91509150817f72ae4a121488f73dfdb9308e9ecdcd1fc31e5f6c553b6f1fb65650d04406e6ec338e8e8e8e8760000160149054906101000a900460ff166114e089611ea4565b6114e98a611ec6565b8a600101548b600601548c600701548d600801546040516115159c9b9a99989796959493929190612d92565b60405180910390a2509a9950505050505050505050565b805160209091012090565b60007f000000000000000000000000000000000000000000000000000000000000000030868686866040516020016115749695949392919061342f565b60408051601f19818403018152919052805160209091012095945050505050565b7f4b8f4e528b6d075c6c9d025e58db64e36b460c1516341b1ab7339b4c6d5bcb8a82826040516115c6929190612eaf565b60405180910390a160005b8251811015611626576001600960008584815181106115ec57fe5b6020908102919091018101516001600160a01b03168252810191909152604001600020805460ff19169115159190911790556001016115d1565b5060005b815181101561167f5760006009600084848151811061164557fe5b6020908102919091018101516001600160a01b03168252810191909152604001600020805460ff191691151591909117905560010161162a565b505050565b600080546001600160a01b0319166001600160a01b0392909216919091179055565b60006116b485858585611537565b6000818152600260205260409020805491925090600160a81b900460ff16156116ef5760405162461bcd60e51b8152600401610696906133f8565b80546001600160a01b031633146117185760405162461bcd60e51b81526004016106969061315c565b600061172483836111af565b9050600481600781111561173457fe5b146117515760405162461bcd60e51b8152600401610696906133c1565b815460ff60a81b1916600160a81b17825561176d878787611ee2565b60405183907f712ae1383f79ac853f8d882153778e0260ef8f03b504e2866e0593e04d2b291f90600090a25050949350505050565b60008054604051631257fcdb60e31b81526001600160a01b03909116906392bfe6d8906117d59086908690600401612e96565b60206040518083038186803b1580156117ed57600080fd5b505afa158015611801573d6000803e3d6000fd5b505050506040513d601f19601f8201168201806040525081019061082b9190612a5d565b60007f000000000000000000000000000000000000000000000000000000000000000061185061201a565b141561187d57507f00000000000000000000000000000000000000000000000000000000000000006105df565b6118e87f00000000000000000000000000000000000000000000000000000000000000007f00000000000000000000000000000000000000000000000000000000000000007f000000000000000000000000000000000000000000000000000000000000000061201e565b90506105df565b60008481526003602090815260408083206001600160a01b0387168452600281019092529091205460ff16156119375760405162461bcd60e51b815260040161069690613396565b6001600160a01b03841660009081526002820160205260408120805460ff1916600117905560ff168360ff16141561197457805482018155610977565b60ff83166001141561198f5760018101805483019055610977565b60405162461bcd60e51b81526004016106969061335f565b6000828152600360205260408120600883015460068401546119cb91612710612080565b815460018301540110156119ed5750508054600160a01b900460ff16156107d4565b805460018201546007850154611a0892909101612710612080565b8354600160a01b900460ff16611a1f578154611a25565b81600101545b11611a3e5750508054600160a01b900460ff16156107d4565b505054600160a01b900460ff16919050565b6000806000600660009054906101000a90046001600160a01b03166001600160a01b031663e7c830d46040518163ffffffff1660e01b815260040160206040518083038186803b158015611aa357600080fd5b505afa158015611ab7573d6000803e3d6000fd5b505050506040513d601f19601f82011682018060405250810190611adb9190612a5d565b60065460405163a795f40960e01b8152919250600091829182916001600160a01b039091169063a795f40990611b15908790600401612ee8565b60606040518083038186803b158015611b2d57600080fd5b505afa158015611b41573d6000803e3d6000fd5b505050506040513d601f19601f82011682018060405250810190611b659190612aa4565b925092509250600043905060008060009054906101000a90046001600160a01b03166001600160a01b031663a72ec4b66040518163ffffffff1660e01b815260040160206040518083038186803b158015611bbf57600080fd5b505afa158015611bd3573d6000803e3d6000fd5b505050506040513d601f19601f82011682018060405250810190611bf79190612a5d565b9050428390035b600087118015611c0d57508981105b15611cc95760065460405163a795f40960e01b8152600091829182916001600160a01b03169063a795f40990611c4b906000198e0190600401612ee8565b60606040518083038186803b158015611c6357600080fd5b505afa158015611c77573d6000803e3d6000fd5b505050506040513d601f19601f82011682018060405250810190611c9b9190612aa4565b92509250925084821015611cb157505050611cc9565b60001990990198919750955093505042839003611bfe565b846000818503611cd761218c565b81611cde57fe5b06909403995093975050505050505050915091565b600061082b83610912565b60008089518b5114611d225760405162461bcd60e51b815260040161069690612f5c565b88518b5114611d435760405162461bcd60e51b815260040161069690612f5c565b6000611d548c8c8c610b388d61152c565b6000818152600260208190526040909120908101549192509015611d8a5760405162461bcd60e51b815260040161069690612fe0565b8d8160000160006101000a8154816001600160a01b0302191690836001600160a01b0316021790555088816001018190555086600001518160000160146101000a81548160ff02191690831515021790555086602001514201816002018190555086604001518160020154018160030181905550848882600301540310611e235760405162461bcd60e51b8152600401610696906131a9565b8c5115611e7557805460ff60b81b1916600160b81b17815560c0870151600382015401600482018190556001541115611e5f5760015460048201555b60e0870151600482015401600582018190556001555b6080870151600682015560a087015160078201556008810186905590925090509a509a98505050505050505050565b611eac612400565b6002820154815260038201548160015b6020020152919050565b611ece612400565b600482015481526005820154816001611ebc565b6000805b8351811015611f1457838181518110611efb57fe5b6020026020010151820191508080600101915050611ee6565b50803414611f345760405162461bcd60e51b815260040161069690613284565b60005b845181101561201357600080868381518110611f4f57fe5b60200260200101516001600160a01b0316868481518110611f6c57fe5b6020026020010151868581518110611f8057fe5b6020026020010151604051611f959190612d62565b60006040518083038185875af1925050503d8060008114611fd2576040519150601f19603f3d011682016040523d82523d6000602084013e611fd7565b606091505b50915091508161200957805115611ff15780518082602001fd5b60405162461bcd60e51b815260040161069690613125565b5050600101611f37565b5050505050565b4690565b600083838361202b61201a565b3060405160200180868152602001858152602001848152602001838152602001826001600160a01b03168152602001955050505050506040516020818303038152906040528051906020012090509392505050565b60008082116120c9576040805162461bcd60e51b815260206004820152601060248201526f4469766973696f6e206279207a65726f60801b604482015290519081900360640190fd5b836120d65750600061082b565b838302838582816120e357fe5b0414156120fc578281816120f357fe5b0491505061082b565b600083868161210757fe5b049050600084878161211557fe5b069050600085878161212357fe5b049050600086888161213157fe5b06905061217f61214b8861214586856122e6565b9061233f565b61217961215886866122e6565b61217961216589876122e6565b6121798d6121738c8b6122e6565b906122e6565b906123a6565b9998505050505050505050565b6000804290506000600860009054906101000a90046001600160a01b03166001600160a01b031663a40060ba6040518163ffffffff1660e01b815260040160006040518083038186803b1580156121e257600080fd5b505afa1580156121f6573d6000803e3d6000fd5b505050506040513d6000823e601f3d908101601f1916820160405261221e9190810190612869565b90506000818251848161222d57fe5b068151811061223857fe5b60200260200101516001600160a01b031663d89601fd6040518163ffffffff1660e01b815260040160206040518083038186803b15801561227857600080fd5b505afa15801561228c573d6000803e3d6000fd5b505050506040513d601f19601f820116820180604052508101906122b09190612a5d565b905082816040516020016122c5929190613493565b6040516020818303038152906040528051906020012060001c935050505090565b6000826122f5575060006107d4565b8282028284828161230257fe5b041461082b5760405162461bcd60e51b81526004018080602001828103825260218152602001806135b06021913960400191505060405180910390fd5b6000808211612395576040805162461bcd60e51b815260206004820152601a60248201527f536166654d6174683a206469766973696f6e206279207a65726f000000000000604482015290519081900360640190fd5b81838161239e57fe5b049392505050565b60008282018381101561082b576040805162461bcd60e51b815260206004820152601b60248201527f536166654d6174683a206164646974696f6e206f766572666c6f770000000000604482015290519081900360640190fd5b60405180604001604052806002906020820280368337509192915050565b600067ffffffffffffffff83111561243257fe5b612445601f8401601f19166020016134d7565b905082815283838301111561245957600080fd5b828260208301376000602084830101529392505050565b600082601f830112612480578081fd5b81356020612495612490836134fb565b6134d7565b82815281810190858301838502870184018810156124b1578586fd5b855b858110156124d85781356124c681613545565b845292840192908401906001016124b3565b5090979650505050505050565b600082601f8301126124f5578081fd5b81356020612505612490836134fb565b82815281810190858301855b858110156124d8578135880189603f82011261252b578788fd5b61253c8a878301356040840161241e565b8552509284019290840190600101612511565b600082601f83011261255f578081fd5b8135602061256f612490836134fb565b828152818101908583018385028701840188101561258b578586fd5b855b858110156124d85781358452928401929084019060010161258d565b80356106e28161355d565b600082601f8301126125c4578081fd5b61082b8383356020850161241e565b803560ff811681146106e257600080fd5b6000602082840312156125f5578081fd5b813561082b81613545565b60008060408385031215612612578081fd5b823561261d81613545565b946020939093013593505050565b6000806040838503121561263d578182fd5b823567ffffffffffffffff80821115612654578384fd5b61266086838701612470565b93506020850135915080821115612675578283fd5b5061268285828601612470565b9150509250929050565b600080600080608085870312156126a1578182fd5b843567ffffffffffffffff808211156126b8578384fd5b6126c488838901612470565b955060208701359150808211156126d9578384fd5b6126e58883890161254f565b945060408701359150808211156126fa578384fd5b612706888389016124e5565b9350606087013591508082111561271b578283fd5b50612728878288016125b4565b91505092959194509250565b600080600080600085870361018081121561274d578384fd5b863567ffffffffffffffff80821115612764578586fd5b6127708a838b01612470565b97506020890135915080821115612785578586fd5b6127918a838b0161254f565b965060408901359150808211156127a6578586fd5b6127b28a838b016124e5565b955060608901359150808211156127c7578384fd5b6127d38a838b016125b4565b9450610100915081607f19840112156127ea578384fd5b6040519250818301838110828211171561280057fe5b60405250612810608089016125a9565b825260a0880135602083015260c0880135604083015260e088013560608301528088013560808301525061012087013560a082015261014087013560c082015261016087013560e0820152809150509295509295909350565b6000602080838503121561287b578182fd5b825167ffffffffffffffff811115612891578283fd5b8301601f810185136128a1578283fd5b80516128af612490826134fb565b81815283810190838501858402850186018910156128cb578687fd5b8694505b838510156128f65780516128e281613545565b8352600194909401939185019185016128cf565b50979650505050505050565b60008060008060808587031215612917578182fd5b843561292281613545565b9350602085013561293281613545565b9250604085013561294281613545565b9150606085013561295281613545565b939692955090935050565b60006020828403121561296e578081fd5b813567ffffffffffffffff811115612984578182fd5b610977848285016125b4565b60008082840360e08112156129a3578283fd5b833567ffffffffffffffff808211156129ba578485fd5b6129c6878388016125b4565b945060c0601f19840112156129d9578384fd5b604051925060c08301915082821081831117156129f257fe5b506040526020840135612a048161355d565b8082525060408401356020820152606084013560408201526080840135606082015260a0840135608082015260c084013560a0820152809150509250929050565b600060208284031215612a56578081fd5b5035919050565b600060208284031215612a6e578081fd5b5051919050565b60008060408385031215612a87578182fd5b823591506020830135612a9981613545565b809150509250929050565b600080600060608486031215612ab8578081fd5b8351925060208401519150604084015190509250925092565b60008060008060008060008060006101208a8c031215612aef578687fd5b8951985060208a0151975060408a0151965060608a0151955060808a0151945060a08a0151935060c08a0151925060e08a0151612b2b8161355d565b6101008b0151909250612b3d8161355d565b809150509295985092959850929598565b60008060408385031215612b60578182fd5b82359150612b70602084016125d3565b90509250929050565b60008060008060608587031215612b8e578182fd5b84359350612b9e602086016125d3565b9250604085013567ffffffffffffffff80821115612bba578384fd5b818701915087601f830112612bcd578384fd5b813581811115612bdb578485fd5b886020828501011115612bec578485fd5b95989497505060200194505050565b600080600080600060a08688031215612c12578283fd5b85359450612c22602087016125d3565b9350612c30604087016125d3565b94979396509394606081013594506080013592915050565b6000815180845260208085019450808401835b83811015612c805781516001600160a01b031687529582019590820190600101612c5b565b509495945050505050565b6000815180845260208085018081965082840281019150828601855b85811015612cd1578284038952612cbf848351612d36565b98850198935090840190600101612ca7565b5091979650505050505050565b8060005b6002811015612d01578151845260209384019390910190600101612ce2565b50505050565b6000815180845260208085019450808401835b83811015612c8057815187529582019590820190600101612d1a565b60008151808452612d4e816020860160208601613519565b601f01601f19169290920160200192915050565b60008251612d74818460208701613519565b9190910192915050565b6001600160a01b0391909116815260200190565b6001600160a01b038d1681526101c060208201819052600090612db78382018f612c48565b90508281036040840152612dcb818e612d07565b90508281036060840152612ddf818d612c8b565b90508281036080840152612df3818c612d36565b91505088151560a0830152612e0b60c0830189612cde565b612e19610100830188612cde565b856101408301528461016083015283610180830152826101a08301529d9c50505050505050505050505050565b6001600160a01b039a909a168a5297151560208a015260408901969096526060880194909452608087019290925260a086015260c085015260e08401526101008301526101208201526101400190565b6001600160a01b03929092168252602082015260400190565b600060408252612ec26040830185612c48565b8281036020840152612ed48185612c48565b95945050505050565b901515815260200190565b90815260200190565b928352602083019190915260ff16604082015260600190565b6001600160a01b03948516815292841660208401529083166040830152909116606082015260800190565b6020810160088310612f4357fe5b91905290565b60006020825261082b6020830184612d36565b60208082526017908201527f696e76616c69642070726f706f73616c206c656e677468000000000000000000604082015260600190565b6020808252602d908201527f70726f706f73616c2063616e206f6e6c792062652063616e63656c656420627960408201526c1034ba3990383937b837b9b2b960991b606082015260800190565b60208082526017908201527f70726f706f73616c20616c726561647920657869737473000000000000000000604082015260600190565b60208082526032908201527f70726f706f73616c2063616e206f6e6c792062652063616e63656c6564206265604082015271666f726520766f74696e672073746172747360701b606082015260800190565b6020808252601e908201527f696e76616c6964207468726573686f6c64436f6e646974696f6e424950530000604082015260600190565b6020808252602e908201527f7375626d6974746572206973206e6f7420656c696769626c6520746f2073756260408201526d1b5a5d0818481c1c9bdc1bdcd85b60921b606082015260800190565b6020808252601d908201527f696e76616c6964206d616a6f72697479436f6e646974696f6e42495053000000604082015260600190565b6020808252601d908201527f63616c6c20726576657274656420776974686f7574206d657373616765000000604082015260600190565b6020808252602d908201527f70726f706f73616c2063616e206f6e6c7920626520657865637574656420627960408201526c1034ba3990383937b837b9b2b960991b606082015260800190565b60208082526027908201527f766f746520706f77657220626c6f636b20697320746f6f2066617220696e20746040820152661a19481c185cdd60ca1b606082015260800190565b602080825260169082015275696e76616c696420766f7465207369676e617475726560501b604082015260600190565b6020808252601390820152721d5b9adb9bdddb881c1c9bdc1bdcd85b081a59606a1b604082015260600190565b60208082526018908201527f657865637574696f6e20706572696f6420746f6f206c6f770000000000000000604082015260600190565b60208082526028908201527f73756d206f66205f76616c75657320646f6573206e6f7420657175616c73206d60408201526773672e76616c756560c01b606082015260800190565b6020808252601c908201527f70726f706f73616c20697320616c72656164792063616e63656c656400000000604082015260600190565b602080825260159082015274766f74696e6720706572696f6420746f6f206c6f7760581b604082015260600190565b60208082526013908201527270726f706f73616c206e6f742061637469766560681b604082015260600190565b6020808252601f908201527f696e76616c69642076616c756520666f7220656e756d20566f74655479706500604082015260600190565b6020808252601190820152701d9bdd1948185b1c9958591e4818d85cdd607a1b604082015260600190565b6020808252601f908201527f70726f706f73616c206e6f7420696e20657865637574696f6e20737461746500604082015260600190565b60208082526019908201527f70726f706f73616c20616c726561647920657865637574656400000000000000604082015260600190565b8681526001600160a01b038616602082015260c06040820181905260009061345990830187612c48565b828103606084015261346b8187612d07565b9050828103608084015261347f8186612c8b565b9150508260a0830152979650505050505050565b918252602082015260400190565b600060ff8716825285602083015260a060408301526134c360a0830186612d36565b606083019490945250608001529392505050565b60405181810167ffffffffffffffff811182821017156134f357fe5b604052919050565b600067ffffffffffffffff82111561350f57fe5b5060209081020190565b60005b8381101561353457818101518382015260200161351c565b83811115612d015750506000910152565b6001600160a01b038116811461355a57600080fd5b50565b801515811461355a57600080fdfe45434453413a20696e76616c6964207369676e6174757265202773272076616c756545434453413a20696e76616c6964207369676e6174757265202776272076616c7565536166654d6174683a206d756c7469706c69636174696f6e206f766572666c6f77a2646970667358221220b5c150e15a631ab5203b880b7eaa7ca2cbb149fa3f19471cabd044fbc38d579e64736f6c63430007060033",
  "linkReferences": {},
  "deployedLinkReferences": {}
}