{
  "_format": "hh-sol-artifact-1",
  "contractName": "DelegationAccountManager",
  "sourceName": "contracts/personalDelegation/implementation/DelegationAccountManager.sol",
  "abi": [
    {
      "inputs": [
        {
          "internalType": "address",
          "name": "_governance",
          "type": "address"
        },
        {
          "internalType": "address",
          "name": "_addressUpdater",
          "type": "address"
        }
      ],
      "stateMutability": "nonpayable",
      "type": "constructor"
    },
    {
      "anonymous": false,
      "inputs": [
        {
          "indexed": false,
          "internalType": "address",
          "name": "delegationAccount",
          "type": "address"
        },
        {
          "indexed": false,
          "internalType": "address",
          "name": "owner",
          "type": "address"
        }
      ],
      "name": "CreateDelegationAccount",
      "type": "event"
    },
    {
      "anonymous": false,
      "inputs": [
        {
          "indexed": false,
          "internalType": "bytes4",
          "name": "selector",
          "type": "bytes4"
        },
        {
          "indexed": false,
          "internalType": "uint256",
          "name": "allowedAfterTimestamp",
          "type": "uint256"
        },
        {
          "indexed": false,
          "internalType": "bytes",
          "name": "encodedCall",
          "type": "bytes"
        }
      ],
      "name": "GovernanceCallTimelocked",
      "type": "event"
    },
    {
      "anonymous": false,
      "inputs": [
        {
          "indexed": false,
          "internalType": "address",
          "name": "initialGovernance",
          "type": "address"
        }
      ],
      "name": "GovernanceInitialised",
      "type": "event"
    },
    {
      "anonymous": false,
      "inputs": [
        {
          "indexed": false,
          "internalType": "address",
          "name": "governanceSettings",
          "type": "address"
        }
      ],
      "name": "GovernedProductionModeEntered",
      "type": "event"
    },
    {
      "anonymous": false,
      "inputs": [
        {
          "indexed": false,
          "internalType": "address",
          "name": "libraryAddress",
          "type": "address"
        }
      ],
      "name": "SetLibraryAddress",
      "type": "event"
    },
    {
      "anonymous": false,
      "inputs": [
        {
          "indexed": false,
          "internalType": "bytes4",
          "name": "selector",
          "type": "bytes4"
        },
        {
          "indexed": false,
          "internalType": "uint256",
          "name": "timestamp",
          "type": "uint256"
        }
      ],
      "name": "TimelockedGovernanceCallCanceled",
      "type": "event"
    },
    {
      "anonymous": false,
      "inputs": [
        {
          "indexed": false,
          "internalType": "bytes4",
          "name": "selector",
          "type": "bytes4"
        },
        {
          "indexed": false,
          "internalType": "uint256",
          "name": "timestamp",
          "type": "uint256"
        }
      ],
      "name": "TimelockedGovernanceCallExecuted",
      "type": "event"
    },
    {
      "inputs": [
        {
          "internalType": "address",
          "name": "",
          "type": "address"
        }
      ],
      "name": "accountToDelegationAccount",
      "outputs": [
        {
          "internalType": "address",
          "name": "",
          "type": "address"
        }
      ],
      "stateMutability": "view",
      "type": "function"
    },
    {
      "inputs": [
        {
          "internalType": "bytes4",
          "name": "_selector",
          "type": "bytes4"
        }
      ],
      "name": "cancelGovernanceCall",
      "outputs": [],
      "stateMutability": "nonpayable",
      "type": "function"
    },
    {
      "inputs": [],
      "name": "createDelegationAccount",
      "outputs": [
        {
          "internalType": "contract DelegationAccountClonable",
          "name": "",
          "type": "address"
        }
      ],
      "stateMutability": "nonpayable",
      "type": "function"
    },
    {
      "inputs": [
        {
          "internalType": "uint256",
          "name": "",
          "type": "uint256"
        }
      ],
      "name": "distributions",
      "outputs": [
        {
          "internalType": "contract IDistributionToDelegators",
          "name": "",
          "type": "address"
        }
      ],
      "stateMutability": "view",
      "type": "function"
    },
    {
      "inputs": [
        {
          "internalType": "bytes4",
          "name": "_selector",
          "type": "bytes4"
        }
      ],
      "name": "executeGovernanceCall",
      "outputs": [],
      "stateMutability": "nonpayable",
      "type": "function"
    },
    {
      "inputs": [
        {
          "internalType": "uint256",
          "name": "",
          "type": "uint256"
        }
      ],
      "name": "ftsoRewardManagers",
      "outputs": [
        {
          "internalType": "contract IIFtsoRewardManager",
          "name": "",
          "type": "address"
        }
      ],
      "stateMutability": "view",
      "type": "function"
    },
    {
      "inputs": [],
      "name": "getAddressUpdater",
      "outputs": [
        {
          "internalType": "address",
          "name": "_addressUpdater",
          "type": "address"
        }
      ],
      "stateMutability": "view",
      "type": "function"
    },
    {
      "inputs": [],
      "name": "getDistributions",
      "outputs": [
        {
          "internalType": "contract IDistributionToDelegators[]",
          "name": "",
          "type": "address[]"
        }
      ],
      "stateMutability": "view",
      "type": "function"
    },
    {
      "inputs": [],
      "name": "getFtsoRewardManagers",
      "outputs": [
        {
          "internalType": "contract IIFtsoRewardManager[]",
          "name": "",
          "type": "address[]"
        }
      ],
      "stateMutability": "view",
      "type": "function"
    },
    {
      "inputs": [],
      "name": "governance",
      "outputs": [
        {
          "internalType": "address",
          "name": "",
          "type": "address"
        }
      ],
      "stateMutability": "view",
      "type": "function"
    },
    {
      "inputs": [],
      "name": "governanceSettings",
      "outputs": [
        {
          "internalType": "contract IGovernanceSettings",
          "name": "",
          "type": "address"
        }
      ],
      "stateMutability": "view",
      "type": "function"
    },
    {
      "inputs": [],
      "name": "governanceVP",
      "outputs": [
        {
          "internalType": "contract IGovernanceVotePower",
          "name": "",
          "type": "address"
        }
      ],
      "stateMutability": "view",
      "type": "function"
    },
    {
      "inputs": [
        {
          "internalType": "address",
          "name": "_initialGovernance",
          "type": "address"
        }
      ],
      "name": "initialise",
      "outputs": [],
      "stateMutability": "nonpayable",
      "type": "function"
    },
    {
      "inputs": [],
      "name": "libraryAddress",
      "outputs": [
        {
          "internalType": "address",
          "name": "",
          "type": "address"
        }
      ],
      "stateMutability": "view",
      "type": "function"
    },
    {
      "inputs": [],
      "name": "productionMode",
      "outputs": [
        {
          "internalType": "bool",
          "name": "",
          "type": "bool"
        }
      ],
      "stateMutability": "view",
      "type": "function"
    },
    {
      "inputs": [
        {
          "internalType": "address",
          "name": "_libraryAddress",
          "type": "address"
        }
      ],
      "name": "setLibraryAddress",
      "outputs": [],
      "stateMutability": "nonpayable",
      "type": "function"
    },
    {
      "inputs": [],
      "name": "switchToProductionMode",
      "outputs": [],
      "stateMutability": "nonpayable",
      "type": "function"
    },
    {
      "inputs": [
        {
          "internalType": "bytes4",
          "name": "",
          "type": "bytes4"
        }
      ],
      "name": "timelockedCalls",
      "outputs": [
        {
          "internalType": "uint256",
          "name": "allowedAfterTimestamp",
          "type": "uint256"
        },
        {
          "internalType": "bytes",
          "name": "encodedCall",
          "type": "bytes"
        }
      ],
      "stateMutability": "view",
      "type": "function"
    },
    {
      "inputs": [
        {
          "internalType": "bytes32[]",
          "name": "_contractNameHashes",
          "type": "bytes32[]"
        },
        {
          "internalType": "address[]",
          "name": "_contractAddresses",
          "type": "address[]"
        }
      ],
      "name": "updateContractAddresses",
      "outputs": [],
      "stateMutability": "nonpayable",
      "type": "function"
    },
    {
      "inputs": [],
      "name": "wNat",
      "outputs": [
        {
          "internalType": "contract WNat",
          "name": "",
          "type": "address"
        }
      ],
      "stateMutability": "view",
      "type": "function"
    }
  ],
  "bytecode": "0x60806040523480156200001157600080fd5b506040516200199038038062001990833981810160405260408110156200003757600080fd5b5080516020909101518082806001600160a01b038116156200005e576200005e81620000c3565b506001600160a01b038116620000ae576040805162461bcd60e51b815260206004820152601060248201526f5f676f7665726e616e6365207a65726f60801b604482015290519081900360640190fd5b50620000ba8162000186565b505050620001aa565b600054600160a01b900460ff161562000123576040805162461bcd60e51b815260206004820152601460248201527f696e697469616c6973656420213d2066616c7365000000000000000000000000604482015290519081900360640190fd5b60008054600160a01b60ff60a01b19909116176001600160a01b0319166001600160a01b03831690811790915560408051918252517f9789733827840833afc031fb2ef9ab6894271f77bad2085687cf4ae5c7bee4db916020908290030190a150565b7f714f205b2abd25bef1d06a1af944e38c113fe6160375c4e1d6d5cf28848e771955565b6117d680620001ba6000396000f3fe608060405234801561001057600080fd5b506004361061012c5760003560e01c806374e6310e116100ad578063a755d7ec11610071578063a755d7ec14610362578063b00c0b761461037f578063b816f513146104a6578063e17f212e146104ae578063f5a98383146104ca5761012c565b806374e6310e1461027e57806377fb674914610324578063899fd1641461032c5780639d6a890f146103345780639edbf0071461035a5761012c565b80635ff27079116100f45780635ff27079146101fa57806362354e031461022157806367fc40291461022957806369ea23871461025057806370ebe138146102765761012c565b806302aa6318146101315780634487d3df146101895780634863ba17146101c25780635267a15d146101ea5780635aa6e675146101f2575b600080fd5b6101396104d2565b60408051602080825283518183015283519192839290830191858101910280838360005b8381101561017557818101518382015260200161015d565b505050509050019250505060405180910390f35b6101a66004803603602081101561019f57600080fd5b5035610534565b604080516001600160a01b039092168252519081900360200190f35b6101e8600480360360208110156101d857600080fd5b50356001600160a01b031661055e565b005b6101a66105f7565b6101a661061c565b6101e86004803603602081101561021057600080fd5b50356001600160e01b0319166106b1565b6101a6610a06565b6101e86004803603602081101561023f57600080fd5b50356001600160e01b031916610a11565b6101a66004803603602081101561026657600080fd5b50356001600160a01b0316610af9565b6101a6610b14565b6102a56004803603602081101561029457600080fd5b50356001600160e01b031916610cb5565b6040518083815260200180602001828103825283818151815260200191508051906020019080838360005b838110156102e85781810151838201526020016102d0565b50505050905090810190601f1680156103155780820380516001836020036101000a031916815260200191505b50935050505060405180910390f35b610139610d5b565b6101a6610dbb565b6101e86004803603602081101561034a57600080fd5b50356001600160a01b0316610dca565b6101a6610e83565b6101a66004803603602081101561037857600080fd5b5035610e92565b6101e86004803603604081101561039557600080fd5b8101906020810181356401000000008111156103b057600080fd5b8201836020820111156103c257600080fd5b803590602001918460208302840111640100000000831117156103e457600080fd5b919080806020026020016040519081016040528093929190818152602001838360200280828437600092019190915250929594936020810193503591505064010000000081111561043457600080fd5b82018360208201111561044657600080fd5b8035906020019184602083028401116401000000008311171561046857600080fd5b919080806020026020016040519081016040528093929190818152602001838360200280828437600092019190915250929550610ea2945050505050565b6101a6610f4d565b6104b6610f5c565b604080519115158252519081900360200190f35b6101e8610f6c565b6060600580548060200260200160405190810160405280929190818152602001828054801561052a57602002820191906000526020600020905b81546001600160a01b0316815260019091019060200180831161050c575b5050505050905090565b6005818154811061054457600080fd5b6000918252602090912001546001600160a01b0316905081565b600054600160b01b900460ff16806105805750600054600160a81b900460ff16155b156105e95761058d611026565b600680546001600160a01b0319166001600160a01b03838116919091179182905560408051929091168252517f8090fc49ca947f0d2c36cc012d57cbde7d77bc103c52d8712c0f5ba17703b4da916020908290030190a16105f4565b6105f460003661105d565b50565b7f714f205b2abd25bef1d06a1af944e38c113fe6160375c4e1d6d5cf28848e77195490565b60008054600160a81b900460ff1661063f576000546001600160a01b03166106ac565b60076001609c1b016001600160a01b031663732524946040518163ffffffff1660e01b815260040160206040518083038186803b15801561067f57600080fd5b505afa158015610693573d6000803e3d6000fd5b505050506040513d60208110156106a957600080fd5b50515b905090565b60408051630debfda360e41b8152336004820152905160076001609c1b019163debfda30916024808301926020929190829003018186803b1580156106f557600080fd5b505afa158015610709573d6000803e3d6000fd5b505050506040513d602081101561071f57600080fd5b5051610762576040805162461bcd60e51b815260206004820152600d60248201526c37b7363c9032bc32b1baba37b960991b604482015290519081900360640190fd5b6001600160e01b03198116600090815260016020526040902080546107ce576040805162461bcd60e51b815260206004820152601a60248201527f74696d656c6f636b3a20696e76616c69642073656c6563746f72000000000000604482015290519081900360640190fd5b8054421015610824576040805162461bcd60e51b815260206004820152601960248201527f74696d656c6f636b3a206e6f7420616c6c6f7765642079657400000000000000604482015290519081900360640190fd5b6000816001018054600181600116156101000203166002900480601f0160208091040260200160405190810160405280929190818152602001828054600181600116156101000203166002900480156108be5780601f10610893576101008083540402835291602001916108be565b820191906000526020600020905b8154815290600101906020018083116108a157829003601f168201915b5050506001600160e01b03198616600090815260016020819052604082208281559495509092506108f29150830182611695565b50506000805460ff60b01b1916600160b01b178155604051825130918491819060208401908083835b6020831061093a5780518252601f19909201916020918201910161091b565b6001836020036101000a0380198251168184511680821785525050505050509050019150506000604051808303816000865af19150503d806000811461099c576040519150601f19603f3d011682016040523d82523d6000602084013e6109a1565b606091505b50506000805460ff60b01b19169055604080516001600160e01b03198716815242602082015281519293507fa7326b57fc9cfe267aaea5e7f0b01757154d265620a0585819416ee9ddd2c438929081900390910190a1610a00816111e0565b50505050565b60076001609c1b0181565b610a196111fd565b6001600160e01b03198116600090815260016020526040902054610a84576040805162461bcd60e51b815260206004820152601a60248201527f74696d656c6f636b3a20696e76616c69642073656c6563746f72000000000000604482015290519081900360640190fd5b604080516001600160e01b03198316815242602082015281517f7735b2391c38a81419c513e30ca578db7158eadd7101511b23e221c654d19cf8929181900390910190a16001600160e01b03198116600090815260016020819052604082208281559190610af490830182611695565b505050565b6007602052600090815260409020546001600160a01b031681565b6006546000906001600160a01b0316610b74576040805162461bcd60e51b815260206004820152601e60248201527f6c6962726172792061646472657373206973206e6f7420736574207965740000604482015290519081900360640190fd5b336000908152600760205260409020546001600160a01b031615610bc95760405162461bcd60e51b815260040180806020018281038252602681526020018061177b6026913960400191505060405180910390fd5b600654600090610be1906001600160a01b031661125c565b6040805163485cc95560e01b815233600482015230602482015290519192506001600160a01b0383169163485cc9559160448082019260009290919082900301818387803b158015610c3257600080fd5b505af1158015610c46573d6000803e3d6000fd5b50503360008181526007602090815260409182902080546001600160a01b0319166001600160a01b03881690811790915582519081529081019290925280517fefd2d618b59bcdf776536f707d85902c46708bb4e31b4281c41702c876882792945091829003019150a1905090565b600160208181526000928352604092839020805481840180548651600296821615610100026000190190911695909504601f81018590048502860185019096528585529094919392909190830182828015610d515780601f10610d2657610100808354040283529160200191610d51565b820191906000526020600020905b815481529060010190602001808311610d3457829003601f168201915b5050505050905082565b6060600380548060200260200160405190810160405280929190818152602001828054801561052a576020028201919060005260206000209081546001600160a01b0316815260019091019060200180831161050c575050505050905090565b6004546001600160a01b031681565b600054600160a01b900460ff1615610e20576040805162461bcd60e51b8152602060048201526014602482015273696e697469616c6973656420213d2066616c736560601b604482015290519081900360640190fd5b60008054600160a01b60ff60a01b19909116176001600160a01b0319166001600160a01b03831690811790915560408051918252517f9789733827840833afc031fb2ef9ab6894271f77bad2085687cf4ae5c7bee4db916020908290030190a150565b6002546001600160a01b031681565b6003818154811061054457600080fd5b610eaa6105f7565b6001600160a01b0316336001600160a01b031614610f06576040805162461bcd60e51b815260206004820152601460248201527337b7363c9030b2323932b9b9903ab83230ba32b960611b604482015290519081900360640190fd5b610f3f610f3a83836040518060400160405280600e81526020016d20b2323932b9b9aab83230ba32b960911b8152506112ae565b6113db565b610f4982826113ff565b5050565b6006546001600160a01b031681565b600054600160a81b900460ff1681565b610f746111fd565b600054600160a81b900460ff1615610fd3576040805162461bcd60e51b815260206004820152601a60248201527f616c726561647920696e2070726f64756374696f6e206d6f6465000000000000604482015290519081900360640190fd5b60008054600161ff0160a01b031916600160a81b1790556040805160076001609c1b01815290517f83af113638b5422f9e977cebc0aaf0eaf2188eb9a8baae7f9d46c42b33a1560c9181900360200190a1565b600054600160b01b900460ff16156110535733301461104157fe5b6000805460ff60b01b1916905561105b565b61105b6111fd565b565b6110656111fd565b600082359050600060076001609c1b016001600160a01b0316636221a54b6040518163ffffffff1660e01b815260040160206040518083038186803b1580156110ad57600080fd5b505afa1580156110c1573d6000803e3d6000fd5b505050506040513d60208110156110d757600080fd5b505160408051808201825242830180825282516020601f89018190048102820181019094528781529394509290918281019190889088908190840183828082843760009201829052509390945250506001600160e01b0319861681526001602081815260409092208451815584830151805191945061115b939285019201906116d9565b509050507fed948300a3694aa01d4a6b258bfd664350193d770c0b51f8387277f6d83ea3b68382878760405180856001600160e01b0319168152602001848152602001806020018281038252848482818152602001925080828437600083820152604051601f909101601f191690920182900397509095505050505050a15050505050565b3d604051818101604052816000823e82156111f9578181f35b8181fd5b61120561061c565b6001600160a01b0316336001600160a01b03161461105b576040805162461bcd60e51b815260206004820152600f60248201526e6f6e6c7920676f7665726e616e636560881b604482015290519081900360640190fd5b6000808260601b9050604051733d602d80600a3d3981f3363d3d373d3d3d363d7360601b81528160148201526e5af43d82803e903d91602b57fd5bf360881b60288201526037816000f0949350505050565b600080826040516020018080602001828103825283818151815260200191508051906020019080838360005b838110156112f25781810151838201526020016112da565b50505050905090810190601f16801561131f5780820380516001836020036101000a031916815260200191505b50925050506040516020818303038152906040528051906020012090506000805b86518110156113875786818151811061135557fe5b602002602001015183141561137f5785818151811061137057fe5b60200260200101519150611387565b600101611340565b506001600160a01b0381166113d2576040805162461bcd60e51b815260206004820152600c60248201526b61646472657373207a65726f60a01b604482015290519081900360640190fd5b95945050505050565b7f714f205b2abd25bef1d06a1af944e38c113fe6160375c4e1d6d5cf28848e771955565b61142682826040518060400160405280600481526020016315d3985d60e21b8152506112ae565b600280546001600160a01b0319166001600160a01b03928316179081905560408051638c2b8ae160e01b815290519190921691638c2b8ae1916004808301926020929190829003018186803b15801561147e57600080fd5b505afa158015611492573d6000803e3d6000fd5b505050506040513d60208110156114a857600080fd5b5051600480546001600160a01b0319166001600160a01b03909216919091179055604080518082019091526011815270233a39b7a932bbb0b93226b0b730b3b2b960791b602082015260009061150190849084906112ae565b90506000805b60035481101561155457826001600160a01b03166003828154811061152857fe5b6000918252602090912001546001600160a01b0316141561154c5760019150611554565b600101611507565b50806115a657600380546001810182556000919091527fc2575a0e9e593c00f959f8c92f12db2869c3395a3b0502d05e2516446f71f85b0180546001600160a01b0319166001600160a01b0384161790555b60006115e885856040518060400160405280601881526020017f446973747269627574696f6e546f44656c656761746f727300000000000000008152506112ae565b90506000805b60055481101561163b57826001600160a01b03166005828154811061160f57fe5b6000918252602090912001546001600160a01b03161415611633576001915061163b565b6001016115ee565b508061168d57600580546001810182556000919091527f036b6384b5eca791c62761152d0c79bb0604c104a5fb6f4eb0703f3154bb3db00180546001600160a01b0319166001600160a01b0384161790555b505050505050565b50805460018160011615610100020316600290046000825580601f106116bb57506105f4565b601f0160209004906000526020600020908101906105f49190611765565b828054600181600116156101000203166002900490600052602060002090601f01602090048101928261170f5760008555611755565b82601f1061172857805160ff1916838001178555611755565b82800160010185558215611755579182015b8281111561175557825182559160200191906001019061173a565b50611761929150611765565b5090565b5b80821115611761576000815560010161176656fe6163636f756e7420616c7265616479206861732064656c65676174696f6e206163636f756e74a2646970667358221220133c8da39a35b770c6454ffbf12c0f7766f5bc31b554ab50032b3988322cbb7864736f6c63430007060033",
  "linkReferences": {},
  "deployedLinkReferences": {}
}